{
	"data": {
		"bytecode": {
			"linkReferences": {},
			"object": "608060405234801561001057600080fd5b50614576806100206000396000f3fe608060405234801561001057600080fd5b50600436106100415760003560e01c806329e265df14610046578063c7b81f4f14610077578063c891a29d146100a7575b600080fd5b610060600480360381019061005b9190613e6c565b6100c3565b60405161006e92919061419e565b60405180910390f35b610091600480360381019061008c9190613e3f565b610203565b60405161009e9190614111565b60405180910390f35b6100c160048036038101906100bc9190613f3b565b610226565b005b60008060006175308b6100d6919061427f565b905060006101698b8b8a8a80806020026020016040519081016040528093929190818152602001838360200280828437600081840152601f19601f82011690508083019250505050505050898980806020026020016040519081016040528093929190818152602001838360200280828437600081840152601f19601f82011690508083019250505050505050866103ee565b9050887fffffffffffffffffffffffffffffffffffffffffffffffffffffffffffffffff610197919061427f565b8111156101ec576000807ffffffffffffffffffffffffffffffffffffffffffffffffffffffffffffffffe8314156101d557600191508390506101dd565b600291508290505b818195509550505050506101f6565b6000809350935050505b9850989650505050505050565b600080600080848152602001908152602001600020610200015414159050919050565b60005b8181101561035d57600080600089815260200190815260200160002060000182856102549190614229565b610200811061026657610265614461565b5b015411156102f7573373ffffffffffffffffffffffffffffffffffffffff167f5cd723400be8430351b9cbaa5ea421b3fb2528c6a7650c493f895e7d97750da1600183867001000000000000000000000000000000008c6102c791906142b0565b6102d19190614229565b6102db9190614229565b6040516102e9929190614155565b60405180910390a2506103e6565b83818151811061030a57610309614461565b5b602002602001015160008089815260200190815260200160002060000182856103339190614229565b610200811061034557610344614461565b5b018190555080806103559061437f565b915050610229565b508460008088815260200190815260200160002061020001819055508360008088815260200190815260200160002061020101819055503373ffffffffffffffffffffffffffffffffffffffff167f5cd723400be8430351b9cbaa5ea421b3fb2528c6a7650c493f895e7d97750da16000806040516103dd92919061412c565b60405180910390a25b505050505050565b60006103f8613c50565b610400613c73565b610408613c96565b60006040518060400160405280600080898152602001908152602001600020610201015481526020016000808981526020019081526020016000206102000154815250905060008061045988610203565b61048b577ffffffffffffffffffffffffffffffffffffffffffffffffffffffffffffffffe96505050505050506107f7565b6104988c60001c8c610800565b9550600091505b60108210156104d4576020820280870151818701528087015181610200018701525081806104cc9061437f565b92505061049f565b600091505b60408210156106f8576000836001600281106104f8576104f7614461565b5b60200201516105448860006010811061051457610513614461565b5b602002015185188860208761052991906143d2565b6020811061053a57610539614461565b5b6020020151610930565b61054e91906143d2565b905061055a8982610952565b61057f82858e8e8960006002811061057557610574614461565b5b6020020151610a05565b146105b3577fffffffffffffffffffffffffffffffffffffffffffffffffffffffffffffffff9750505050505050506107f7565b600091505b60088210156106e45760208b01836080020163ffffffff815116836020028801805163ffffffff8363010001938302181680835260208501945063ffffffff8551169350610100830192508251915063ffffffff84630100019384021816905080835260208501945063ffffffff8551169350610100830192508251915063ffffffff84630100019384021816905080835260208501945063ffffffff8551169350610100830192508251915063ffffffff84630100019384021816905080835250505050506080830260208c0101640100000000815104808252602082019150640100000000825104905080825260208201915064010000000082510490508082526020820191506401000000008251049050808252505081806106dc9061437f565b9250506105b8565b5081806106f09061437f565b9250506104d9565b600091505b60208210156107de576107a261077961075087856020811061072257610721614461565b5b6020020151886001876107359190614229565b6020811061074657610745614461565b5b6020020151610930565b8760028661075e9190614229565b6020811061076f5761076e614461565b5b6020020151610930565b866003856107879190614229565b6020811061079857610797614461565b5b6020020151610930565b846004846107b0919061427f565b600881106107c1576107c0614461565b5b6020020181815250506004826107d79190614229565b91506106fd565b60006107ea8786610c51565b9050809750505050505050505b95945050505050565b610808613c50565b610810613cb9565b61081984611195565b935067ffffffffffffffff84168160006009811061083a57610839614461565b5b6020020181815250506801000000000000000084610858919061427f565b935067ffffffffffffffff84168160016009811061087957610878614461565b5b6020020181815250506801000000000000000084610897919061427f565b935067ffffffffffffffff8416816002600981106108b8576108b7614461565b5b60200201818152505068010000000000000000846108d6919061427f565b935067ffffffffffffffff8416816003600981106108f7576108f6614461565b5b602002018181525050828160046009811061091557610914614461565b5b602002018181525050610927816111f6565b91505092915050565b600063ffffffff8263010001938561094891906142b0565b1816905092915050565b600080600080858152602001908152602001600020610201015483901c90506000806000868152602001908152602001600020600001600283610995919061427f565b61020081106109a7576109a6614461565b5b0154905060006002836109ba91906143d2565b14156109da576fffffffffffffffffffffffffffffffff811690506109fa565b700100000000000000000000000000000000816109f7919061427f565b90505b809250505092915050565b6000806fffffffffffffffffffffffffffffffff610a238688611573565b1690506000806000806000600288610a3b91906143d2565b1190506002870496506000878b610a5291906142b0565b90508115610a69578a81610a669190614229565b90505b60005b88811015610ba75760208282010260208b0101519350600060018e161415610aab578695506fffffffffffffffffffffffffffffffff84169450610ac4565b6fffffffffffffffffffffffffffffffff841695508694505b6fffffffffffffffffffffffffffffffff8686604051602001610ae892919061405a565b6040516020818303038152906040528051906020012060001c16965060028d049c50600060018e161415610b345786955070010000000000000000000000000000000084049450610b4e565b700100000000000000000000000000000000840495508694505b6fffffffffffffffffffffffffffffffff8686604051602001610b7292919061405a565b6040516020818303038152906040528051906020012060001c16965060028d049c508080610b9f9061437f565b915050610a6c565b8215610c3e5760208282010260208b0101519350600060018e161415610be4578695506fffffffffffffffffffffffffffffffff84169450610bfd565b6fffffffffffffffffffffffffffffffff841695508694505b6fffffffffffffffffffffffffffffffff8686604051602001610c2192919061405a565b6040516020818303038152906040528051906020012060001c1696505b8697505050505050505095945050505050565b6000807001000000000000000000000000000000006c0100000000000000000000000085600760108110610c8857610c87614461565b5b6020020151610c9791906142b0565b6801000000000000000086600660108110610cb557610cb4614461565b5b6020020151610cc491906142b0565b64010000000087600560108110610cde57610cdd614461565b5b6020020151610ced91906142b0565b87600460108110610d0157610d00614461565b5b6020020151610d109190614229565b610d1a9190614229565b610d249190614229565b610d2e91906142b0565b6c0100000000000000000000000085600360108110610d5057610d4f614461565b5b6020020151610d5f91906142b0565b6801000000000000000086600260108110610d7d57610d7c614461565b5b6020020151610d8c91906142b0565b64010000000087600160108110610da657610da5614461565b5b6020020151610db591906142b0565b87600060108110610dc957610dc8614461565b5b6020020151610dd89190614229565b610de29190614229565b610dec9190614229565b610df69190614229565b905060007001000000000000000000000000000000006c0100000000000000000000000086600f60108110610e2e57610e2d614461565b5b6020020151610e3d91906142b0565b6801000000000000000087600e60108110610e5b57610e5a614461565b5b6020020151610e6a91906142b0565b64010000000088600d60108110610e8457610e83614461565b5b6020020151610e9391906142b0565b88600c60108110610ea757610ea6614461565b5b6020020151610eb69190614229565b610ec09190614229565b610eca9190614229565b610ed491906142b0565b6c0100000000000000000000000086600b60108110610ef657610ef5614461565b5b6020020151610f0591906142b0565b6801000000000000000087600a60108110610f2357610f22614461565b5b6020020151610f3291906142b0565b64010000000088600960108110610f4c57610f4b614461565b5b6020020151610f5b91906142b0565b88600860108110610f6f57610f6e614461565b5b6020020151610f7e9190614229565b610f889190614229565b610f929190614229565b610f9c9190614229565b905060007001000000000000000000000000000000006c0100000000000000000000000086600760088110610fd457610fd3614461565b5b6020020151610fe391906142b0565b680100000000000000008760066008811061100157611000614461565b5b602002015161101091906142b0565b6401000000008860056008811061102a57611029614461565b5b602002015161103991906142b0565b8860046008811061104d5761104c614461565b5b602002015161105c9190614229565b6110669190614229565b6110709190614229565b61107a91906142b0565b6c010000000000000000000000008660036008811061109c5761109b614461565b5b60200201516110ab91906142b0565b68010000000000000000876002600881106110c9576110c8614461565b5b60200201516110d891906142b0565b640100000000886001600881106110f2576110f1614461565b5b602002015161110191906142b0565b8860006008811061111557611114614461565b5b60200201516111249190614229565b61112e9190614229565b6111389190614229565b6111429190614229565b905061114d83611669565b61115683611669565b61115f83611669565b60405160200161117193929190614086565b6040516020818303038152906040528051906020012060001c935050505092915050565b6000806000905060005b60208110156111ec57610100826111b691906142b0565b915060ff8416826111c79190614229565b9150610100846111d7919061427f565b935080806111e49061437f565b91505061119f565b5080915050919050565b6111fe613c50565b60486008600961120e91906142b0565b1461124e576040517f08c379a00000000000000000000000000000000000000000000000000000000081526004016112459061417e565b60405180910390fd5b60018260056009811061126457611263614461565b5b6020020181815250506780000000000000008260086009811061128a57611289614461565b5b6020020181815250506000604890506000600890506000600860096112af91906142b0565b90506112b9613cdc565b60008060008092505b86856112ce919061427f565b83101561140957600091505b60058210156113eb57600090505b60058110156113d85785876112fd919061427f565b82600561130a91906142b0565b826113159190614229565b10156113c5578882600561132991906142b0565b8260098661133791906142b0565b6113419190614229565b61134b9190614229565b6009811061135c5761135b614461565b5b6020020151848383600561137091906142b0565b61137a9190614229565b6019811061138b5761138a614461565b5b60200201511884838360056113a091906142b0565b6113aa9190614229565b601981106113bb576113ba614461565b5b6020020181815250505b80806113d09061437f565b9150506112e8565b81806113e39061437f565b9250506112da565b6113f4846116ca565b935082806114019061437f565b9350506112c2565b611411613c50565b60005b601081101561156257600093505b600584101561155d57600092505b600583101561154a578789611445919061427f565b84600561145291906142b0565b8461145d9190614229565b10801561146a5750601081105b156115375763ffffffff868585600561148391906142b0565b61148d9190614229565b6019811061149e5761149d614461565b5b6020020151168282601081106114b7576114b6614461565b5b60200201818152505064010000000086858560056114d591906142b0565b6114df9190614229565b601981106114f0576114ef614461565b5b60200201516114ff919061427f565b8260018361150d9190614229565b6010811061151e5761151d614461565b5b6020020181815250506002816115349190614229565b90505b82806115429061437f565b935050611430565b83806115559061437f565b945050611422565b611414565b819950505050505050505050919050565b60008282600461158391906142b0565b8151811061159457611593614461565b5b60200260200101518360018460046115ac91906142b0565b6115b69190614229565b815181106115c7576115c6614461565b5b60200260200101518460028560046115df91906142b0565b6115e99190614229565b815181106115fa576115f9614461565b5b602002602001015185600386600461161291906142b0565b61161c9190614229565b8151811061162d5761162c614461565b5b602002602001015160405160200161164894939291906140c3565b6040516020818303038152906040528051906020012060001c905092915050565b6000806000905060005b60208110156116c0576101008261168a91906142b0565b915060ff84168261169b9190614229565b9150610100846116ab919061427f565b935080806116b89061437f565b915050611673565b5080915050919050565b6116d2613cdc565b6116da613cdc565b6116e2613cff565b6116ea613cff565b600060405180610300016040528060018152602001618082815260200167800000000000808a8152602001678000000080008000815260200161808b81526020016380000001815260200167800000008000808181526020016780000000000080098152602001608a81526020016088815260200163800080098152602001638000000a8152602001638000808b815260200167800000000000008b8152602001678000000000008089815260200167800000000000800381526020016780000000000080028152602001678000000000000080815260200161800a815260200167800000008000000a81526020016780000000800080818152602001678000000000008080815260200163800000018152602001678000000080008008815250905060005b6018811015613c43578660046019811061182d5761182c614461565b5b60200201518760036019811061184657611845614461565b5b60200201518860026019811061185f5761185e614461565b5b60200201518960016019811061187857611877614461565b5b60200201518a60006019811061189157611890614461565b5b602002015118181818846000600581106118ae576118ad614461565b5b602002018181525050866009601981106118cb576118ca614461565b5b6020020151876008601981106118e4576118e3614461565b5b6020020151886007601981106118fd576118fc614461565b5b60200201518960066019811061191657611915614461565b5b60200201518a60056019811061192f5761192e614461565b5b6020020151181818188460016005811061194c5761194b614461565b5b60200201818152505086600e6019811061196957611968614461565b5b602002015187600d6019811061198257611981614461565b5b602002015188600c6019811061199b5761199a614461565b5b602002015189600b601981106119b4576119b3614461565b5b60200201518a600a601981106119cd576119cc614461565b5b602002015118181818846002600581106119ea576119e9614461565b5b60200201818152505086601360198110611a0757611a06614461565b5b602002015187601260198110611a2057611a1f614461565b5b602002015188601160198110611a3957611a38614461565b5b602002015189601060198110611a5257611a51614461565b5b60200201518a600f60198110611a6b57611a6a614461565b5b60200201511818181884600360058110611a8857611a87614461565b5b60200201818152505086601860198110611aa557611aa4614461565b5b602002015187601760198110611abe57611abd614461565b5b602002015188601660198110611ad757611ad6614461565b5b602002015189601560198110611af057611aef614461565b5b60200201518a601460198110611b0957611b08614461565b5b60200201511818181884600460058110611b2657611b25614461565b5b60200201818152505067800000000000000084600160058110611b4c57611b4b614461565b5b6020020151611b5b919061427f565b67ffffffffffffffff600286600160058110611b7a57611b79614461565b5b6020020151611b8991906142b0565b161784600460058110611b9f57611b9e614461565b5b60200201511883600060058110611bb957611bb8614461565b5b60200201818152505067800000000000000084600260058110611bdf57611bde614461565b5b6020020151611bee919061427f565b67ffffffffffffffff600286600260058110611c0d57611c0c614461565b5b6020020151611c1c91906142b0565b161784600060058110611c3257611c31614461565b5b60200201511883600160058110611c4c57611c4b614461565b5b60200201818152505067800000000000000084600360058110611c7257611c71614461565b5b6020020151611c81919061427f565b67ffffffffffffffff600286600360058110611ca057611c9f614461565b5b6020020151611caf91906142b0565b161784600160058110611cc557611cc4614461565b5b60200201511883600260058110611cdf57611cde614461565b5b60200201818152505067800000000000000084600460058110611d0557611d04614461565b5b6020020151611d14919061427f565b67ffffffffffffffff600286600460058110611d3357611d32614461565b5b6020020151611d4291906142b0565b161784600260058110611d5857611d57614461565b5b60200201511883600360058110611d7257611d71614461565b5b60200201818152505067800000000000000084600060058110611d9857611d97614461565b5b6020020151611da7919061427f565b67ffffffffffffffff600286600060058110611dc657611dc5614461565b5b6020020151611dd591906142b0565b161784600360058110611deb57611dea614461565b5b60200201511883600460058110611e0557611e04614461565b5b60200201818152505082600060058110611e2257611e21614461565b5b602002015187600060198110611e3b57611e3a614461565b5b60200201511887600060198110611e5557611e54614461565b5b60200201818152505082600060058110611e7257611e71614461565b5b602002015187600160198110611e8b57611e8a614461565b5b60200201511887600160198110611ea557611ea4614461565b5b60200201818152505082600060058110611ec257611ec1614461565b5b602002015187600260198110611edb57611eda614461565b5b60200201511887600260198110611ef557611ef4614461565b5b60200201818152505082600060058110611f1257611f11614461565b5b602002015187600360198110611f2b57611f2a614461565b5b60200201511887600360198110611f4557611f44614461565b5b60200201818152505082600060058110611f6257611f61614461565b5b602002015187600460198110611f7b57611f7a614461565b5b60200201511887600460198110611f9557611f94614461565b5b60200201818152505082600160058110611fb257611fb1614461565b5b602002015187600560198110611fcb57611fca614461565b5b60200201511887600560198110611fe557611fe4614461565b5b6020020181815250508260016005811061200257612001614461565b5b60200201518760066019811061201b5761201a614461565b5b6020020151188760066019811061203557612034614461565b5b6020020181815250508260016005811061205257612051614461565b5b60200201518760076019811061206b5761206a614461565b5b6020020151188760076019811061208557612084614461565b5b602002018181525050826001600581106120a2576120a1614461565b5b6020020151876008601981106120bb576120ba614461565b5b602002015118876008601981106120d5576120d4614461565b5b602002018181525050826001600581106120f2576120f1614461565b5b60200201518760096019811061210b5761210a614461565b5b6020020151188760096019811061212557612124614461565b5b6020020181815250508260026005811061214257612141614461565b5b602002015187600a6019811061215b5761215a614461565b5b60200201511887600a6019811061217557612174614461565b5b6020020181815250508260026005811061219257612191614461565b5b602002015187600b601981106121ab576121aa614461565b5b60200201511887600b601981106121c5576121c4614461565b5b602002018181525050826002600581106121e2576121e1614461565b5b602002015187600c601981106121fb576121fa614461565b5b60200201511887600c6019811061221557612214614461565b5b6020020181815250508260026005811061223257612231614461565b5b602002015187600d6019811061224b5761224a614461565b5b60200201511887600d6019811061226557612264614461565b5b6020020181815250508260026005811061228257612281614461565b5b602002015187600e6019811061229b5761229a614461565b5b60200201511887600e601981106122b5576122b4614461565b5b602002018181525050826003600581106122d2576122d1614461565b5b602002015187600f601981106122eb576122ea614461565b5b60200201511887600f6019811061230557612304614461565b5b6020020181815250508260036005811061232257612321614461565b5b60200201518760106019811061233b5761233a614461565b5b6020020151188760106019811061235557612354614461565b5b6020020181815250508260036005811061237257612371614461565b5b60200201518760116019811061238b5761238a614461565b5b602002015118876011601981106123a5576123a4614461565b5b602002018181525050826003600581106123c2576123c1614461565b5b6020020151876012601981106123db576123da614461565b5b602002015118876012601981106123f5576123f4614461565b5b6020020181815250508260036005811061241257612411614461565b5b60200201518760136019811061242b5761242a614461565b5b6020020151188760136019811061244557612444614461565b5b6020020181815250508260046005811061246257612461614461565b5b60200201518760146019811061247b5761247a614461565b5b6020020151188760146019811061249557612494614461565b5b602002018181525050826004600581106124b2576124b1614461565b5b6020020151876015601981106124cb576124ca614461565b5b602002015118876015601981106124e5576124e4614461565b5b6020020181815250508260046005811061250257612501614461565b5b60200201518760166019811061251b5761251a614461565b5b6020020151188760166019811061253557612534614461565b5b6020020181815250508260046005811061255257612551614461565b5b60200201518760176019811061256b5761256a614461565b5b6020020151188760176019811061258557612584614461565b5b602002018181525050826004600581106125a2576125a1614461565b5b6020020151876018601981106125bb576125ba614461565b5b602002015118876018601981106125d5576125d4614461565b5b602002018181525050866000601981106125f2576125f1614461565b5b60200201518560006019811061260b5761260a614461565b5b60200201818152505063100000008760016019811061262d5761262c614461565b5b602002015161263c919061427f565b67ffffffffffffffff6410000000008960016019811061265f5761265e614461565b5b602002015161266e91906142b0565b16178560086019811061268457612683614461565b5b602002018181525050672000000000000000876002601981106126aa576126a9614461565b5b60200201516126b9919061427f565b67ffffffffffffffff6008896002601981106126d8576126d7614461565b5b60200201516126e791906142b0565b161785600b601981106126fd576126fc614461565b5b602002018181525050628000008760036019811061271e5761271d614461565b5b602002015161272d919061427f565b67ffffffffffffffff650200000000008960036019811061275157612750614461565b5b602002015161276091906142b0565b16178560136019811061277657612775614461565b5b602002018181525050654000000000008760046019811061279a57612799614461565b5b60200201516127a9919061427f565b67ffffffffffffffff62040000896004601981106127ca576127c9614461565b5b60200201516127d991906142b0565b1617856016601981106127ef576127ee614461565b5b6020020181815250506780000000000000008760056019811061281557612814614461565b5b6020020151612824919061427f565b67ffffffffffffffff60028960056019811061284357612842614461565b5b602002015161285291906142b0565b16178560026019811061286857612867614461565b5b602002018181525050621000008760066019811061288957612888614461565b5b6020020151612898919061427f565b67ffffffffffffffff65100000000000896006601981106128bc576128bb614461565b5b60200201516128cb91906142b0565b1617856005601981106128e1576128e0614461565b5b60200201818152505066400000000000008760076019811061290657612905614461565b5b6020020151612915919061427f565b67ffffffffffffffff6104008960076019811061293557612934614461565b5b602002015161294491906142b0565b161785600d6019811061295a57612959614461565b5b602002018181525050620800008760086019811061297b5761297a614461565b5b602002015161298a919061427f565b67ffffffffffffffff65200000000000896008601981106129ae576129ad614461565b5b60200201516129bd91906142b0565b1617856010601981106129d3576129d2614461565b5b602002018181525050674000000000000000876009601981106129f9576129f8614461565b5b6020020151612a08919061427f565b67ffffffffffffffff600489600960198110612a2757612a26614461565b5b6020020151612a3691906142b0565b161785601860198110612a4c57612a4b614461565b5b602002018181525050600487600a60198110612a6b57612a6a614461565b5b6020020151612a7a919061427f565b67ffffffffffffffff67400000000000000089600a60198110612aa057612a9f614461565b5b6020020151612aaf91906142b0565b161785600460198110612ac557612ac4614461565b5b60200201818152505067040000000000000087600b60198110612aeb57612aea614461565b5b6020020151612afa919061427f565b67ffffffffffffffff604089600b60198110612b1957612b18614461565b5b6020020151612b2891906142b0565b161785600760198110612b3e57612b3d614461565b5b6020020181815250506220000087600c60198110612b5f57612b5e614461565b5b6020020151612b6e919061427f565b67ffffffffffffffff6508000000000089600c60198110612b9257612b91614461565b5b6020020151612ba191906142b0565b161785600a60198110612bb757612bb6614461565b5b602002018181525050660200000000000087600d60198110612bdc57612bdb614461565b5b6020020151612beb919061427f565b67ffffffffffffffff61800089600d60198110612c0b57612c0a614461565b5b6020020151612c1a91906142b0565b161785601260198110612c3057612c2f614461565b5b602002018181525050600887600e60198110612c4f57612c4e614461565b5b6020020151612c5e919061427f565b67ffffffffffffffff67200000000000000089600e60198110612c8457612c83614461565b5b6020020151612c9391906142b0565b161785601560198110612ca957612ca8614461565b5b60200201818152505064100000000087600f60198110612ccc57612ccb614461565b5b6020020151612cdb919061427f565b67ffffffffffffffff631000000089600f60198110612cfd57612cfc614461565b5b6020020151612d0c91906142b0565b161785600160198110612d2257612d21614461565b5b60200201818152505061020087601060198110612d4257612d41614461565b5b6020020151612d51919061427f565b67ffffffffffffffff668000000000000089601060198110612d7657612d75614461565b5b6020020151612d8591906142b0565b161785600960198110612d9b57612d9a614461565b5b60200201818152505064800000000087601160198110612dbe57612dbd614461565b5b6020020151612dcd919061427f565b67ffffffffffffffff630200000089601160198110612def57612dee614461565b5b6020020151612dfe91906142b0565b161785600c60198110612e1457612e13614461565b5b6020020181815250506508000000000087601260198110612e3857612e37614461565b5b6020020151612e47919061427f565b67ffffffffffffffff6220000089601260198110612e6857612e67614461565b5b6020020151612e7791906142b0565b161785600f60198110612e8d57612e8c614461565b5b60200201818152505061010087601360198110612ead57612eac614461565b5b6020020151612ebc919061427f565b67ffffffffffffffff67010000000000000089601360198110612ee257612ee1614461565b5b6020020151612ef191906142b0565b161785601760198110612f0757612f06614461565b5b60200201818152505064200000000087601460198110612f2a57612f29614461565b5b6020020151612f39919061427f565b67ffffffffffffffff630800000089601460198110612f5b57612f5a614461565b5b6020020151612f6a91906142b0565b161785600360198110612f8057612f7f614461565b5b6020020181815250506510000000000087601560198110612fa457612fa3614461565b5b6020020151612fb3919061427f565b67ffffffffffffffff6210000089601560198110612fd457612fd3614461565b5b6020020151612fe391906142b0565b161785600660198110612ff957612ff8614461565b5b60200201818152505063020000008760166019811061301b5761301a614461565b5b602002015161302a919061427f565b67ffffffffffffffff6480000000008960166019811061304d5761304c614461565b5b602002015161305c91906142b0565b161785600e6019811061307257613071614461565b5b6020020181815250506701000000000000008760176019811061309857613097614461565b5b60200201516130a7919061427f565b67ffffffffffffffff610100896017601981106130c7576130c6614461565b5b60200201516130d691906142b0565b1617856011601981106130ec576130eb614461565b5b60200201818152505066040000000000008760186019811061311157613110614461565b5b6020020151613120919061427f565b67ffffffffffffffff614000896018601981106131405761313f614461565b5b602002015161314f91906142b0565b16178560146019811061316557613164614461565b5b60200201818152505084600a6019811061318257613181614461565b5b60200201518560056019811061319b5761319a614461565b5b60200201511916856000601981106131b6576131b5614461565b5b602002015118876000601981106131d0576131cf614461565b5b60200201818152505084600b601981106131ed576131ec614461565b5b60200201518560066019811061320657613205614461565b5b602002015119168560016019811061322157613220614461565b5b6020020151188760016019811061323b5761323a614461565b5b60200201818152505084600c6019811061325857613257614461565b5b60200201518560076019811061327157613270614461565b5b602002015119168560026019811061328c5761328b614461565b5b602002015118876002601981106132a6576132a5614461565b5b60200201818152505084600d601981106132c3576132c2614461565b5b6020020151856008601981106132dc576132db614461565b5b60200201511916856003601981106132f7576132f6614461565b5b6020020151188760036019811061331157613310614461565b5b60200201818152505084600e6019811061332e5761332d614461565b5b60200201518560096019811061334757613346614461565b5b602002015119168560046019811061336257613361614461565b5b6020020151188760046019811061337c5761337b614461565b5b60200201818152505084600f6019811061339957613398614461565b5b602002015185600a601981106133b2576133b1614461565b5b60200201511916856005601981106133cd576133cc614461565b5b602002015118876005601981106133e7576133e6614461565b5b6020020181815250508460106019811061340457613403614461565b5b602002015185600b6019811061341d5761341c614461565b5b602002015119168560066019811061343857613437614461565b5b6020020151188760066019811061345257613451614461565b5b6020020181815250508460116019811061346f5761346e614461565b5b602002015185600c6019811061348857613487614461565b5b60200201511916856007601981106134a3576134a2614461565b5b602002015118876007601981106134bd576134bc614461565b5b602002018181525050846012601981106134da576134d9614461565b5b602002015185600d601981106134f3576134f2614461565b5b602002015119168560086019811061350e5761350d614461565b5b6020020151188760086019811061352857613527614461565b5b6020020181815250508460136019811061354557613544614461565b5b602002015185600e6019811061355e5761355d614461565b5b602002015119168560096019811061357957613578614461565b5b6020020151188760096019811061359357613592614461565b5b602002018181525050846014601981106135b0576135af614461565b5b602002015185600f601981106135c9576135c8614461565b5b6020020151191685600a601981106135e4576135e3614461565b5b60200201511887600a601981106135fe576135fd614461565b5b6020020181815250508460156019811061361b5761361a614461565b5b60200201518560106019811061363457613633614461565b5b6020020151191685600b6019811061364f5761364e614461565b5b60200201511887600b6019811061366957613668614461565b5b6020020181815250508460166019811061368657613685614461565b5b60200201518560116019811061369f5761369e614461565b5b6020020151191685600c601981106136ba576136b9614461565b5b60200201511887600c601981106136d4576136d3614461565b5b602002018181525050846017601981106136f1576136f0614461565b5b60200201518560126019811061370a57613709614461565b5b6020020151191685600d6019811061372557613724614461565b5b60200201511887600d6019811061373f5761373e614461565b5b6020020181815250508460186019811061375c5761375b614461565b5b60200201518560136019811061377557613774614461565b5b6020020151191685600e601981106137905761378f614461565b5b60200201511887600e601981106137aa576137a9614461565b5b602002018181525050846000601981106137c7576137c6614461565b5b6020020151856014601981106137e0576137df614461565b5b6020020151191685600f601981106137fb576137fa614461565b5b60200201511887600f6019811061381557613814614461565b5b6020020181815250508460016019811061383257613831614461565b5b60200201518560156019811061384b5761384a614461565b5b602002015119168560106019811061386657613865614461565b5b602002015118876010601981106138805761387f614461565b5b6020020181815250508460026019811061389d5761389c614461565b5b6020020151856016601981106138b6576138b5614461565b5b60200201511916856011601981106138d1576138d0614461565b5b602002015118876011601981106138eb576138ea614461565b5b6020020181815250508460036019811061390857613907614461565b5b60200201518560176019811061392157613920614461565b5b602002015119168560126019811061393c5761393b614461565b5b6020020151188760126019811061395657613955614461565b5b6020020181815250508460046019811061397357613972614461565b5b60200201518560186019811061398c5761398b614461565b5b60200201511916856013601981106139a7576139a6614461565b5b602002015118876013601981106139c1576139c0614461565b5b602002018181525050846005601981106139de576139dd614461565b5b6020020151856000601981106139f7576139f6614461565b5b6020020151191685601460198110613a1257613a11614461565b5b60200201511887601460198110613a2c57613a2b614461565b5b60200201818152505084600660198110613a4957613a48614461565b5b602002015185600160198110613a6257613a61614461565b5b6020020151191685601560198110613a7d57613a7c614461565b5b60200201511887601560198110613a9757613a96614461565b5b60200201818152505084600760198110613ab457613ab3614461565b5b602002015185600260198110613acd57613acc614461565b5b6020020151191685601660198110613ae857613ae7614461565b5b60200201511887601660198110613b0257613b01614461565b5b60200201818152505084600860198110613b1f57613b1e614461565b5b602002015185600360198110613b3857613b37614461565b5b6020020151191685601760198110613b5357613b52614461565b5b60200201511887601760198110613b6d57613b6c614461565b5b60200201818152505084600960198110613b8a57613b89614461565b5b602002015185600460198110613ba357613ba2614461565b5b6020020151191685601860198110613bbe57613bbd614461565b5b60200201511887601860198110613bd857613bd7614461565b5b602002018181525050818160188110613bf457613bf3614461565b5b602002015187600060198110613c0d57613c0c614461565b5b60200201511887600060198110613c2757613c26614461565b5b6020020181815250508080613c3b9061437f565b915050611810565b5085945050505050919050565b604051806102000160405280601090602082028036833780820191505090505090565b604051806104000160405280602090602082028036833780820191505090505090565b604051806101000160405280600890602082028036833780820191505090505090565b604051806101200160405280600990602082028036833780820191505090505090565b604051806103200160405280601990602082028036833780820191505090505090565b6040518060a00160405280600590602082028036833780820191505090505090565b6000613d34613d2f846141ec565b6141c7565b90508083825260208201905082856020860282011115613d5757613d566144c9565b5b60005b85811015613d875781613d6d8882613e2a565b845260208401935060208301925050600181019050613d5a565b5050509392505050565b60008083601f840112613da757613da66144c4565b5b8235905067ffffffffffffffff811115613dc457613dc36144bf565b5b602083019150836020820283011115613de057613ddf6144c9565b5b9250929050565b600082601f830112613dfc57613dfb6144c4565b5b8135613e0c848260208601613d21565b91505092915050565b600081359050613e2481614512565b92915050565b600081359050613e3981614529565b92915050565b600060208284031215613e5557613e546144d3565b5b6000613e6384828501613e2a565b91505092915050565b60008060008060008060008060c0898b031215613e8c57613e8b6144d3565b5b6000613e9a8b828c01613e2a565b9850506020613eab8b828c01613e15565b9750506040613ebc8b828c01613e2a565b9650506060613ecd8b828c01613e2a565b955050608089013567ffffffffffffffff811115613eee57613eed6144ce565b5b613efa8b828c01613d91565b945094505060a089013567ffffffffffffffff811115613f1d57613f1c6144ce565b5b613f298b828c01613d91565b92509250509295985092959890939650565b60008060008060008060c08789031215613f5857613f576144d3565b5b6000613f6689828a01613e2a565b9650506020613f7789828a01613e2a565b9550506040613f8889828a01613e2a565b945050606087013567ffffffffffffffff811115613fa957613fa86144ce565b5b613fb589828a01613de7565b9350506080613fc689828a01613e2a565b92505060a0613fd789828a01613e2a565b9150509295509295509295565b613fed8161430a565b82525050565b613ffc8161432a565b82525050565b61400b8161433c565b82525050565b600061401e600c83614218565b9150614029826144e9565b602082019050919050565b61403d81614320565b82525050565b61405461404f82614320565b6143c8565b82525050565b60006140668285614043565b6020820191506140768284614043565b6020820191508190509392505050565b60006140928286614043565b6020820191506140a28285614043565b6020820191506140b28284614043565b602082019150819050949350505050565b60006140cf8287614043565b6020820191506140df8286614043565b6020820191506140ef8285614043565b6020820191506140ff8284614043565b60208201915081905095945050505050565b60006020820190506141266000830184613fe4565b92915050565b60006040820190506141416000830185613ff3565b61414e6020830184613ff3565b9392505050565b600060408201905061416a6000830185614002565b6141776020830184614034565b9392505050565b6000602082019050818103600083015261419781614011565b9050919050565b60006040820190506141b36000830185614034565b6141c06020830184614034565b9392505050565b60006141d16141e2565b90506141dd828261434e565b919050565b6000604051905090565b600067ffffffffffffffff82111561420757614206614490565b5b602082029050602081019050919050565b600082825260208201905092915050565b600061423482614320565b915061423f83614320565b9250827fffffffffffffffffffffffffffffffffffffffffffffffffffffffffffffffff0382111561427457614273614403565b5b828201905092915050565b600061428a82614320565b915061429583614320565b9250826142a5576142a4614432565b5b828204905092915050565b60006142bb82614320565b91506142c683614320565b9250817fffffffffffffffffffffffffffffffffffffffffffffffffffffffffffffffff04831182151516156142ff576142fe614403565b5b828202905092915050565b60008115159050919050565b6000819050919050565b6000819050919050565b600061433582614320565b9050919050565b600061434782614320565b9050919050565b614357826144d8565b810181811067ffffffffffffffff8211171561437657614375614490565b5b80604052505050565b600061438a82614320565b91507fffffffffffffffffffffffffffffffffffffffffffffffffffffffffffffffff8214156143bd576143bc614403565b5b600182019050919050565b6000819050919050565b60006143dd82614320565b91506143e883614320565b9250826143f8576143f7614432565b5b828206905092915050565b7f4e487b7100000000000000000000000000000000000000000000000000000000600052601160045260246000fd5b7f4e487b7100000000000000000000000000000000000000000000000000000000600052601260045260246000fd5b7f4e487b7100000000000000000000000000000000000000000000000000000000600052603260045260246000fd5b7f4e487b7100000000000000000000000000000000000000000000000000000000600052604160045260246000fd5b600080fd5b600080fd5b600080fd5b600080fd5b600080fd5b6000601f19601f8301169050919050565b7f73706f6e6765206572726f720000000000000000000000000000000000000000600082015250565b61451b81614316565b811461452657600080fd5b50565b61453281614320565b811461453d57600080fd5b5056fea2646970667358221220f2cd595cc212bd4647e32d3a31990722179ceb17f95b2804c9abbd72aea6292564736f6c63430008060033",
			"opcodes": "PUSH1 0x80 PUSH1 0x40 MSTORE CALLVALUE DUP1 ISZERO PUSH2 0x10 JUMPI PUSH1 0x0 DUP1 REVERT JUMPDEST POP PUSH2 0x4576 DUP1 PUSH2 0x20 PUSH1 0x0 CODECOPY PUSH1 0x0 RETURN INVALID PUSH1 0x80 PUSH1 0x40 MSTORE CALLVALUE DUP1 ISZERO PUSH2 0x10 JUMPI PUSH1 0x0 DUP1 REVERT JUMPDEST POP PUSH1 0x4 CALLDATASIZE LT PUSH2 0x41 JUMPI PUSH1 0x0 CALLDATALOAD PUSH1 0xE0 SHR DUP1 PUSH4 0x29E265DF EQ PUSH2 0x46 JUMPI DUP1 PUSH4 0xC7B81F4F EQ PUSH2 0x77 JUMPI DUP1 PUSH4 0xC891A29D EQ PUSH2 0xA7 JUMPI JUMPDEST PUSH1 0x0 DUP1 REVERT JUMPDEST PUSH2 0x60 PUSH1 0x4 DUP1 CALLDATASIZE SUB DUP2 ADD SWAP1 PUSH2 0x5B SWAP2 SWAP1 PUSH2 0x3E6C JUMP JUMPDEST PUSH2 0xC3 JUMP JUMPDEST PUSH1 0x40 MLOAD PUSH2 0x6E SWAP3 SWAP2 SWAP1 PUSH2 0x419E JUMP JUMPDEST PUSH1 0x40 MLOAD DUP1 SWAP2 SUB SWAP1 RETURN JUMPDEST PUSH2 0x91 PUSH1 0x4 DUP1 CALLDATASIZE SUB DUP2 ADD SWAP1 PUSH2 0x8C SWAP2 SWAP1 PUSH2 0x3E3F JUMP JUMPDEST PUSH2 0x203 JUMP JUMPDEST PUSH1 0x40 MLOAD PUSH2 0x9E SWAP2 SWAP1 PUSH2 0x4111 JUMP JUMPDEST PUSH1 0x40 MLOAD DUP1 SWAP2 SUB SWAP1 RETURN JUMPDEST PUSH2 0xC1 PUSH1 0x4 DUP1 CALLDATASIZE SUB DUP2 ADD SWAP1 PUSH2 0xBC SWAP2 SWAP1 PUSH2 0x3F3B JUMP JUMPDEST PUSH2 0x226 JUMP JUMPDEST STOP JUMPDEST PUSH1 0x0 DUP1 PUSH1 0x0 PUSH2 0x7530 DUP12 PUSH2 0xD6 SWAP2 SWAP1 PUSH2 0x427F JUMP JUMPDEST SWAP1 POP PUSH1 0x0 PUSH2 0x169 DUP12 DUP12 DUP11 DUP11 DUP1 DUP1 PUSH1 0x20 MUL PUSH1 0x20 ADD PUSH1 0x40 MLOAD SWAP1 DUP2 ADD PUSH1 0x40 MSTORE DUP1 SWAP4 SWAP3 SWAP2 SWAP1 DUP2 DUP2 MSTORE PUSH1 0x20 ADD DUP4 DUP4 PUSH1 0x20 MUL DUP1 DUP3 DUP5 CALLDATACOPY PUSH1 0x0 DUP2 DUP5 ADD MSTORE PUSH1 0x1F NOT PUSH1 0x1F DUP3 ADD AND SWAP1 POP DUP1 DUP4 ADD SWAP3 POP POP POP POP POP POP POP DUP10 DUP10 DUP1 DUP1 PUSH1 0x20 MUL PUSH1 0x20 ADD PUSH1 0x40 MLOAD SWAP1 DUP2 ADD PUSH1 0x40 MSTORE DUP1 SWAP4 SWAP3 SWAP2 SWAP1 DUP2 DUP2 MSTORE PUSH1 0x20 ADD DUP4 DUP4 PUSH1 0x20 MUL DUP1 DUP3 DUP5 CALLDATACOPY PUSH1 0x0 DUP2 DUP5 ADD MSTORE PUSH1 0x1F NOT PUSH1 0x1F DUP3 ADD AND SWAP1 POP DUP1 DUP4 ADD SWAP3 POP POP POP POP POP POP POP DUP7 PUSH2 0x3EE JUMP JUMPDEST SWAP1 POP DUP9 PUSH32 0xFFFFFFFFFFFFFFFFFFFFFFFFFFFFFFFFFFFFFFFFFFFFFFFFFFFFFFFFFFFFFFFF PUSH2 0x197 SWAP2 SWAP1 PUSH2 0x427F JUMP JUMPDEST DUP2 GT ISZERO PUSH2 0x1EC JUMPI PUSH1 0x0 DUP1 PUSH32 0xFFFFFFFFFFFFFFFFFFFFFFFFFFFFFFFFFFFFFFFFFFFFFFFFFFFFFFFFFFFFFFFE DUP4 EQ ISZERO PUSH2 0x1D5 JUMPI PUSH1 0x1 SWAP2 POP DUP4 SWAP1 POP PUSH2 0x1DD JUMP JUMPDEST PUSH1 0x2 SWAP2 POP DUP3 SWAP1 POP JUMPDEST DUP2 DUP2 SWAP6 POP SWAP6 POP POP POP POP POP PUSH2 0x1F6 JUMP JUMPDEST PUSH1 0x0 DUP1 SWAP4 POP SWAP4 POP POP POP JUMPDEST SWAP9 POP SWAP9 SWAP7 POP POP POP POP POP POP POP JUMP JUMPDEST PUSH1 0x0 DUP1 PUSH1 0x0 DUP1 DUP5 DUP2 MSTORE PUSH1 0x20 ADD SWAP1 DUP2 MSTORE PUSH1 0x20 ADD PUSH1 0x0 KECCAK256 PUSH2 0x200 ADD SLOAD EQ ISZERO SWAP1 POP SWAP2 SWAP1 POP JUMP JUMPDEST PUSH1 0x0 JUMPDEST DUP2 DUP2 LT ISZERO PUSH2 0x35D JUMPI PUSH1 0x0 DUP1 PUSH1 0x0 DUP10 DUP2 MSTORE PUSH1 0x20 ADD SWAP1 DUP2 MSTORE PUSH1 0x20 ADD PUSH1 0x0 KECCAK256 PUSH1 0x0 ADD DUP3 DUP6 PUSH2 0x254 SWAP2 SWAP1 PUSH2 0x4229 JUMP JUMPDEST PUSH2 0x200 DUP2 LT PUSH2 0x266 JUMPI PUSH2 0x265 PUSH2 0x4461 JUMP JUMPDEST JUMPDEST ADD SLOAD GT ISZERO PUSH2 0x2F7 JUMPI CALLER PUSH20 0xFFFFFFFFFFFFFFFFFFFFFFFFFFFFFFFFFFFFFFFF AND PUSH32 0x5CD723400BE8430351B9CBAA5EA421B3FB2528C6A7650C493F895E7D97750DA1 PUSH1 0x1 DUP4 DUP7 PUSH17 0x100000000000000000000000000000000 DUP13 PUSH2 0x2C7 SWAP2 SWAP1 PUSH2 0x42B0 JUMP JUMPDEST PUSH2 0x2D1 SWAP2 SWAP1 PUSH2 0x4229 JUMP JUMPDEST PUSH2 0x2DB SWAP2 SWAP1 PUSH2 0x4229 JUMP JUMPDEST PUSH1 0x40 MLOAD PUSH2 0x2E9 SWAP3 SWAP2 SWAP1 PUSH2 0x4155 JUMP JUMPDEST PUSH1 0x40 MLOAD DUP1 SWAP2 SUB SWAP1 LOG2 POP PUSH2 0x3E6 JUMP JUMPDEST DUP4 DUP2 DUP2 MLOAD DUP2 LT PUSH2 0x30A JUMPI PUSH2 0x309 PUSH2 0x4461 JUMP JUMPDEST JUMPDEST PUSH1 0x20 MUL PUSH1 0x20 ADD ADD MLOAD PUSH1 0x0 DUP1 DUP10 DUP2 MSTORE PUSH1 0x20 ADD SWAP1 DUP2 MSTORE PUSH1 0x20 ADD PUSH1 0x0 KECCAK256 PUSH1 0x0 ADD DUP3 DUP6 PUSH2 0x333 SWAP2 SWAP1 PUSH2 0x4229 JUMP JUMPDEST PUSH2 0x200 DUP2 LT PUSH2 0x345 JUMPI PUSH2 0x344 PUSH2 0x4461 JUMP JUMPDEST JUMPDEST ADD DUP2 SWAP1 SSTORE POP DUP1 DUP1 PUSH2 0x355 SWAP1 PUSH2 0x437F JUMP JUMPDEST SWAP2 POP POP PUSH2 0x229 JUMP JUMPDEST POP DUP5 PUSH1 0x0 DUP1 DUP9 DUP2 MSTORE PUSH1 0x20 ADD SWAP1 DUP2 MSTORE PUSH1 0x20 ADD PUSH1 0x0 KECCAK256 PUSH2 0x200 ADD DUP2 SWAP1 SSTORE POP DUP4 PUSH1 0x0 DUP1 DUP9 DUP2 MSTORE PUSH1 0x20 ADD SWAP1 DUP2 MSTORE PUSH1 0x20 ADD PUSH1 0x0 KECCAK256 PUSH2 0x201 ADD DUP2 SWAP1 SSTORE POP CALLER PUSH20 0xFFFFFFFFFFFFFFFFFFFFFFFFFFFFFFFFFFFFFFFF AND PUSH32 0x5CD723400BE8430351B9CBAA5EA421B3FB2528C6A7650C493F895E7D97750DA1 PUSH1 0x0 DUP1 PUSH1 0x40 MLOAD PUSH2 0x3DD SWAP3 SWAP2 SWAP1 PUSH2 0x412C JUMP JUMPDEST PUSH1 0x40 MLOAD DUP1 SWAP2 SUB SWAP1 LOG2 JUMPDEST POP POP POP POP POP POP JUMP JUMPDEST PUSH1 0x0 PUSH2 0x3F8 PUSH2 0x3C50 JUMP JUMPDEST PUSH2 0x400 PUSH2 0x3C73 JUMP JUMPDEST PUSH2 0x408 PUSH2 0x3C96 JUMP JUMPDEST PUSH1 0x0 PUSH1 0x40 MLOAD DUP1 PUSH1 0x40 ADD PUSH1 0x40 MSTORE DUP1 PUSH1 0x0 DUP1 DUP10 DUP2 MSTORE PUSH1 0x20 ADD SWAP1 DUP2 MSTORE PUSH1 0x20 ADD PUSH1 0x0 KECCAK256 PUSH2 0x201 ADD SLOAD DUP2 MSTORE PUSH1 0x20 ADD PUSH1 0x0 DUP1 DUP10 DUP2 MSTORE PUSH1 0x20 ADD SWAP1 DUP2 MSTORE PUSH1 0x20 ADD PUSH1 0x0 KECCAK256 PUSH2 0x200 ADD SLOAD DUP2 MSTORE POP SWAP1 POP PUSH1 0x0 DUP1 PUSH2 0x459 DUP9 PUSH2 0x203 JUMP JUMPDEST PUSH2 0x48B JUMPI PUSH32 0xFFFFFFFFFFFFFFFFFFFFFFFFFFFFFFFFFFFFFFFFFFFFFFFFFFFFFFFFFFFFFFFE SWAP7 POP POP POP POP POP POP POP PUSH2 0x7F7 JUMP JUMPDEST PUSH2 0x498 DUP13 PUSH1 0x0 SHR DUP13 PUSH2 0x800 JUMP JUMPDEST SWAP6 POP PUSH1 0x0 SWAP2 POP JUMPDEST PUSH1 0x10 DUP3 LT ISZERO PUSH2 0x4D4 JUMPI PUSH1 0x20 DUP3 MUL DUP1 DUP8 ADD MLOAD DUP2 DUP8 ADD MSTORE DUP1 DUP8 ADD MLOAD DUP2 PUSH2 0x200 ADD DUP8 ADD MSTORE POP DUP2 DUP1 PUSH2 0x4CC SWAP1 PUSH2 0x437F JUMP JUMPDEST SWAP3 POP POP PUSH2 0x49F JUMP JUMPDEST PUSH1 0x0 SWAP2 POP JUMPDEST PUSH1 0x40 DUP3 LT ISZERO PUSH2 0x6F8 JUMPI PUSH1 0x0 DUP4 PUSH1 0x1 PUSH1 0x2 DUP2 LT PUSH2 0x4F8 JUMPI PUSH2 0x4F7 PUSH2 0x4461 JUMP JUMPDEST JUMPDEST PUSH1 0x20 MUL ADD MLOAD PUSH2 0x544 DUP9 PUSH1 0x0 PUSH1 0x10 DUP2 LT PUSH2 0x514 JUMPI PUSH2 0x513 PUSH2 0x4461 JUMP JUMPDEST JUMPDEST PUSH1 0x20 MUL ADD MLOAD DUP6 XOR DUP9 PUSH1 0x20 DUP8 PUSH2 0x529 SWAP2 SWAP1 PUSH2 0x43D2 JUMP JUMPDEST PUSH1 0x20 DUP2 LT PUSH2 0x53A JUMPI PUSH2 0x539 PUSH2 0x4461 JUMP JUMPDEST JUMPDEST PUSH1 0x20 MUL ADD MLOAD PUSH2 0x930 JUMP JUMPDEST PUSH2 0x54E SWAP2 SWAP1 PUSH2 0x43D2 JUMP JUMPDEST SWAP1 POP PUSH2 0x55A DUP10 DUP3 PUSH2 0x952 JUMP JUMPDEST PUSH2 0x57F DUP3 DUP6 DUP15 DUP15 DUP10 PUSH1 0x0 PUSH1 0x2 DUP2 LT PUSH2 0x575 JUMPI PUSH2 0x574 PUSH2 0x4461 JUMP JUMPDEST JUMPDEST PUSH1 0x20 MUL ADD MLOAD PUSH2 0xA05 JUMP JUMPDEST EQ PUSH2 0x5B3 JUMPI PUSH32 0xFFFFFFFFFFFFFFFFFFFFFFFFFFFFFFFFFFFFFFFFFFFFFFFFFFFFFFFFFFFFFFFF SWAP8 POP POP POP POP POP POP POP POP PUSH2 0x7F7 JUMP JUMPDEST PUSH1 0x0 SWAP2 POP JUMPDEST PUSH1 0x8 DUP3 LT ISZERO PUSH2 0x6E4 JUMPI PUSH1 0x20 DUP12 ADD DUP4 PUSH1 0x80 MUL ADD PUSH4 0xFFFFFFFF DUP2 MLOAD AND DUP4 PUSH1 0x20 MUL DUP9 ADD DUP1 MLOAD PUSH4 0xFFFFFFFF DUP4 PUSH4 0x1000193 DUP4 MUL XOR AND DUP1 DUP4 MSTORE PUSH1 0x20 DUP6 ADD SWAP5 POP PUSH4 0xFFFFFFFF DUP6 MLOAD AND SWAP4 POP PUSH2 0x100 DUP4 ADD SWAP3 POP DUP3 MLOAD SWAP2 POP PUSH4 0xFFFFFFFF DUP5 PUSH4 0x1000193 DUP5 MUL XOR AND SWAP1 POP DUP1 DUP4 MSTORE PUSH1 0x20 DUP6 ADD SWAP5 POP PUSH4 0xFFFFFFFF DUP6 MLOAD AND SWAP4 POP PUSH2 0x100 DUP4 ADD SWAP3 POP DUP3 MLOAD SWAP2 POP PUSH4 0xFFFFFFFF DUP5 PUSH4 0x1000193 DUP5 MUL XOR AND SWAP1 POP DUP1 DUP4 MSTORE PUSH1 0x20 DUP6 ADD SWAP5 POP PUSH4 0xFFFFFFFF DUP6 MLOAD AND SWAP4 POP PUSH2 0x100 DUP4 ADD SWAP3 POP DUP3 MLOAD SWAP2 POP PUSH4 0xFFFFFFFF DUP5 PUSH4 0x1000193 DUP5 MUL XOR AND SWAP1 POP DUP1 DUP4 MSTORE POP POP POP POP POP PUSH1 0x80 DUP4 MUL PUSH1 0x20 DUP13 ADD ADD PUSH5 0x100000000 DUP2 MLOAD DIV DUP1 DUP3 MSTORE PUSH1 0x20 DUP3 ADD SWAP2 POP PUSH5 0x100000000 DUP3 MLOAD DIV SWAP1 POP DUP1 DUP3 MSTORE PUSH1 0x20 DUP3 ADD SWAP2 POP PUSH5 0x100000000 DUP3 MLOAD DIV SWAP1 POP DUP1 DUP3 MSTORE PUSH1 0x20 DUP3 ADD SWAP2 POP PUSH5 0x100000000 DUP3 MLOAD DIV SWAP1 POP DUP1 DUP3 MSTORE POP POP DUP2 DUP1 PUSH2 0x6DC SWAP1 PUSH2 0x437F JUMP JUMPDEST SWAP3 POP POP PUSH2 0x5B8 JUMP JUMPDEST POP DUP2 DUP1 PUSH2 0x6F0 SWAP1 PUSH2 0x437F JUMP JUMPDEST SWAP3 POP POP PUSH2 0x4D9 JUMP JUMPDEST PUSH1 0x0 SWAP2 POP JUMPDEST PUSH1 0x20 DUP3 LT ISZERO PUSH2 0x7DE JUMPI PUSH2 0x7A2 PUSH2 0x779 PUSH2 0x750 DUP8 DUP6 PUSH1 0x20 DUP2 LT PUSH2 0x722 JUMPI PUSH2 0x721 PUSH2 0x4461 JUMP JUMPDEST JUMPDEST PUSH1 0x20 MUL ADD MLOAD DUP9 PUSH1 0x1 DUP8 PUSH2 0x735 SWAP2 SWAP1 PUSH2 0x4229 JUMP JUMPDEST PUSH1 0x20 DUP2 LT PUSH2 0x746 JUMPI PUSH2 0x745 PUSH2 0x4461 JUMP JUMPDEST JUMPDEST PUSH1 0x20 MUL ADD MLOAD PUSH2 0x930 JUMP JUMPDEST DUP8 PUSH1 0x2 DUP7 PUSH2 0x75E SWAP2 SWAP1 PUSH2 0x4229 JUMP JUMPDEST PUSH1 0x20 DUP2 LT PUSH2 0x76F JUMPI PUSH2 0x76E PUSH2 0x4461 JUMP JUMPDEST JUMPDEST PUSH1 0x20 MUL ADD MLOAD PUSH2 0x930 JUMP JUMPDEST DUP7 PUSH1 0x3 DUP6 PUSH2 0x787 SWAP2 SWAP1 PUSH2 0x4229 JUMP JUMPDEST PUSH1 0x20 DUP2 LT PUSH2 0x798 JUMPI PUSH2 0x797 PUSH2 0x4461 JUMP JUMPDEST JUMPDEST PUSH1 0x20 MUL ADD MLOAD PUSH2 0x930 JUMP JUMPDEST DUP5 PUSH1 0x4 DUP5 PUSH2 0x7B0 SWAP2 SWAP1 PUSH2 0x427F JUMP JUMPDEST PUSH1 0x8 DUP2 LT PUSH2 0x7C1 JUMPI PUSH2 0x7C0 PUSH2 0x4461 JUMP JUMPDEST JUMPDEST PUSH1 0x20 MUL ADD DUP2 DUP2 MSTORE POP POP PUSH1 0x4 DUP3 PUSH2 0x7D7 SWAP2 SWAP1 PUSH2 0x4229 JUMP JUMPDEST SWAP2 POP PUSH2 0x6FD JUMP JUMPDEST PUSH1 0x0 PUSH2 0x7EA DUP8 DUP7 PUSH2 0xC51 JUMP JUMPDEST SWAP1 POP DUP1 SWAP8 POP POP POP POP POP POP POP POP JUMPDEST SWAP6 SWAP5 POP POP POP POP POP JUMP JUMPDEST PUSH2 0x808 PUSH2 0x3C50 JUMP JUMPDEST PUSH2 0x810 PUSH2 0x3CB9 JUMP JUMPDEST PUSH2 0x819 DUP5 PUSH2 0x1195 JUMP JUMPDEST SWAP4 POP PUSH8 0xFFFFFFFFFFFFFFFF DUP5 AND DUP2 PUSH1 0x0 PUSH1 0x9 DUP2 LT PUSH2 0x83A JUMPI PUSH2 0x839 PUSH2 0x4461 JUMP JUMPDEST JUMPDEST PUSH1 0x20 MUL ADD DUP2 DUP2 MSTORE POP POP PUSH9 0x10000000000000000 DUP5 PUSH2 0x858 SWAP2 SWAP1 PUSH2 0x427F JUMP JUMPDEST SWAP4 POP PUSH8 0xFFFFFFFFFFFFFFFF DUP5 AND DUP2 PUSH1 0x1 PUSH1 0x9 DUP2 LT PUSH2 0x879 JUMPI PUSH2 0x878 PUSH2 0x4461 JUMP JUMPDEST JUMPDEST PUSH1 0x20 MUL ADD DUP2 DUP2 MSTORE POP POP PUSH9 0x10000000000000000 DUP5 PUSH2 0x897 SWAP2 SWAP1 PUSH2 0x427F JUMP JUMPDEST SWAP4 POP PUSH8 0xFFFFFFFFFFFFFFFF DUP5 AND DUP2 PUSH1 0x2 PUSH1 0x9 DUP2 LT PUSH2 0x8B8 JUMPI PUSH2 0x8B7 PUSH2 0x4461 JUMP JUMPDEST JUMPDEST PUSH1 0x20 MUL ADD DUP2 DUP2 MSTORE POP POP PUSH9 0x10000000000000000 DUP5 PUSH2 0x8D6 SWAP2 SWAP1 PUSH2 0x427F JUMP JUMPDEST SWAP4 POP PUSH8 0xFFFFFFFFFFFFFFFF DUP5 AND DUP2 PUSH1 0x3 PUSH1 0x9 DUP2 LT PUSH2 0x8F7 JUMPI PUSH2 0x8F6 PUSH2 0x4461 JUMP JUMPDEST JUMPDEST PUSH1 0x20 MUL ADD DUP2 DUP2 MSTORE POP POP DUP3 DUP2 PUSH1 0x4 PUSH1 0x9 DUP2 LT PUSH2 0x915 JUMPI PUSH2 0x914 PUSH2 0x4461 JUMP JUMPDEST JUMPDEST PUSH1 0x20 MUL ADD DUP2 DUP2 MSTORE POP POP PUSH2 0x927 DUP2 PUSH2 0x11F6 JUMP JUMPDEST SWAP2 POP POP SWAP3 SWAP2 POP POP JUMP JUMPDEST PUSH1 0x0 PUSH4 0xFFFFFFFF DUP3 PUSH4 0x1000193 DUP6 PUSH2 0x948 SWAP2 SWAP1 PUSH2 0x42B0 JUMP JUMPDEST XOR AND SWAP1 POP SWAP3 SWAP2 POP POP JUMP JUMPDEST PUSH1 0x0 DUP1 PUSH1 0x0 DUP1 DUP6 DUP2 MSTORE PUSH1 0x20 ADD SWAP1 DUP2 MSTORE PUSH1 0x20 ADD PUSH1 0x0 KECCAK256 PUSH2 0x201 ADD SLOAD DUP4 SWAP1 SHR SWAP1 POP PUSH1 0x0 DUP1 PUSH1 0x0 DUP7 DUP2 MSTORE PUSH1 0x20 ADD SWAP1 DUP2 MSTORE PUSH1 0x20 ADD PUSH1 0x0 KECCAK256 PUSH1 0x0 ADD PUSH1 0x2 DUP4 PUSH2 0x995 SWAP2 SWAP1 PUSH2 0x427F JUMP JUMPDEST PUSH2 0x200 DUP2 LT PUSH2 0x9A7 JUMPI PUSH2 0x9A6 PUSH2 0x4461 JUMP JUMPDEST JUMPDEST ADD SLOAD SWAP1 POP PUSH1 0x0 PUSH1 0x2 DUP4 PUSH2 0x9BA SWAP2 SWAP1 PUSH2 0x43D2 JUMP JUMPDEST EQ ISZERO PUSH2 0x9DA JUMPI PUSH16 0xFFFFFFFFFFFFFFFFFFFFFFFFFFFFFFFF DUP2 AND SWAP1 POP PUSH2 0x9FA JUMP JUMPDEST PUSH17 0x100000000000000000000000000000000 DUP2 PUSH2 0x9F7 SWAP2 SWAP1 PUSH2 0x427F JUMP JUMPDEST SWAP1 POP JUMPDEST DUP1 SWAP3 POP POP POP SWAP3 SWAP2 POP POP JUMP JUMPDEST PUSH1 0x0 DUP1 PUSH16 0xFFFFFFFFFFFFFFFFFFFFFFFFFFFFFFFF PUSH2 0xA23 DUP7 DUP9 PUSH2 0x1573 JUMP JUMPDEST AND SWAP1 POP PUSH1 0x0 DUP1 PUSH1 0x0 DUP1 PUSH1 0x0 PUSH1 0x2 DUP9 PUSH2 0xA3B SWAP2 SWAP1 PUSH2 0x43D2 JUMP JUMPDEST GT SWAP1 POP PUSH1 0x2 DUP8 DIV SWAP7 POP PUSH1 0x0 DUP8 DUP12 PUSH2 0xA52 SWAP2 SWAP1 PUSH2 0x42B0 JUMP JUMPDEST SWAP1 POP DUP2 ISZERO PUSH2 0xA69 JUMPI DUP11 DUP2 PUSH2 0xA66 SWAP2 SWAP1 PUSH2 0x4229 JUMP JUMPDEST SWAP1 POP JUMPDEST PUSH1 0x0 JUMPDEST DUP9 DUP2 LT ISZERO PUSH2 0xBA7 JUMPI PUSH1 0x20 DUP3 DUP3 ADD MUL PUSH1 0x20 DUP12 ADD ADD MLOAD SWAP4 POP PUSH1 0x0 PUSH1 0x1 DUP15 AND EQ ISZERO PUSH2 0xAAB JUMPI DUP7 SWAP6 POP PUSH16 0xFFFFFFFFFFFFFFFFFFFFFFFFFFFFFFFF DUP5 AND SWAP5 POP PUSH2 0xAC4 JUMP JUMPDEST PUSH16 0xFFFFFFFFFFFFFFFFFFFFFFFFFFFFFFFF DUP5 AND SWAP6 POP DUP7 SWAP5 POP JUMPDEST PUSH16 0xFFFFFFFFFFFFFFFFFFFFFFFFFFFFFFFF DUP7 DUP7 PUSH1 0x40 MLOAD PUSH1 0x20 ADD PUSH2 0xAE8 SWAP3 SWAP2 SWAP1 PUSH2 0x405A JUMP JUMPDEST PUSH1 0x40 MLOAD PUSH1 0x20 DUP2 DUP4 SUB SUB DUP2 MSTORE SWAP1 PUSH1 0x40 MSTORE DUP1 MLOAD SWAP1 PUSH1 0x20 ADD KECCAK256 PUSH1 0x0 SHR AND SWAP7 POP PUSH1 0x2 DUP14 DIV SWAP13 POP PUSH1 0x0 PUSH1 0x1 DUP15 AND EQ ISZERO PUSH2 0xB34 JUMPI DUP7 SWAP6 POP PUSH17 0x100000000000000000000000000000000 DUP5 DIV SWAP5 POP PUSH2 0xB4E JUMP JUMPDEST PUSH17 0x100000000000000000000000000000000 DUP5 DIV SWAP6 POP DUP7 SWAP5 POP JUMPDEST PUSH16 0xFFFFFFFFFFFFFFFFFFFFFFFFFFFFFFFF DUP7 DUP7 PUSH1 0x40 MLOAD PUSH1 0x20 ADD PUSH2 0xB72 SWAP3 SWAP2 SWAP1 PUSH2 0x405A JUMP JUMPDEST PUSH1 0x40 MLOAD PUSH1 0x20 DUP2 DUP4 SUB SUB DUP2 MSTORE SWAP1 PUSH1 0x40 MSTORE DUP1 MLOAD SWAP1 PUSH1 0x20 ADD KECCAK256 PUSH1 0x0 SHR AND SWAP7 POP PUSH1 0x2 DUP14 DIV SWAP13 POP DUP1 DUP1 PUSH2 0xB9F SWAP1 PUSH2 0x437F JUMP JUMPDEST SWAP2 POP POP PUSH2 0xA6C JUMP JUMPDEST DUP3 ISZERO PUSH2 0xC3E JUMPI PUSH1 0x20 DUP3 DUP3 ADD MUL PUSH1 0x20 DUP12 ADD ADD MLOAD SWAP4 POP PUSH1 0x0 PUSH1 0x1 DUP15 AND EQ ISZERO PUSH2 0xBE4 JUMPI DUP7 SWAP6 POP PUSH16 0xFFFFFFFFFFFFFFFFFFFFFFFFFFFFFFFF DUP5 AND SWAP5 POP PUSH2 0xBFD JUMP JUMPDEST PUSH16 0xFFFFFFFFFFFFFFFFFFFFFFFFFFFFFFFF DUP5 AND SWAP6 POP DUP7 SWAP5 POP JUMPDEST PUSH16 0xFFFFFFFFFFFFFFFFFFFFFFFFFFFFFFFF DUP7 DUP7 PUSH1 0x40 MLOAD PUSH1 0x20 ADD PUSH2 0xC21 SWAP3 SWAP2 SWAP1 PUSH2 0x405A JUMP JUMPDEST PUSH1 0x40 MLOAD PUSH1 0x20 DUP2 DUP4 SUB SUB DUP2 MSTORE SWAP1 PUSH1 0x40 MSTORE DUP1 MLOAD SWAP1 PUSH1 0x20 ADD KECCAK256 PUSH1 0x0 SHR AND SWAP7 POP JUMPDEST DUP7 SWAP8 POP POP POP POP POP POP POP POP SWAP6 SWAP5 POP POP POP POP POP JUMP JUMPDEST PUSH1 0x0 DUP1 PUSH17 0x100000000000000000000000000000000 PUSH13 0x1000000000000000000000000 DUP6 PUSH1 0x7 PUSH1 0x10 DUP2 LT PUSH2 0xC88 JUMPI PUSH2 0xC87 PUSH2 0x4461 JUMP JUMPDEST JUMPDEST PUSH1 0x20 MUL ADD MLOAD PUSH2 0xC97 SWAP2 SWAP1 PUSH2 0x42B0 JUMP JUMPDEST PUSH9 0x10000000000000000 DUP7 PUSH1 0x6 PUSH1 0x10 DUP2 LT PUSH2 0xCB5 JUMPI PUSH2 0xCB4 PUSH2 0x4461 JUMP JUMPDEST JUMPDEST PUSH1 0x20 MUL ADD MLOAD PUSH2 0xCC4 SWAP2 SWAP1 PUSH2 0x42B0 JUMP JUMPDEST PUSH5 0x100000000 DUP8 PUSH1 0x5 PUSH1 0x10 DUP2 LT PUSH2 0xCDE JUMPI PUSH2 0xCDD PUSH2 0x4461 JUMP JUMPDEST JUMPDEST PUSH1 0x20 MUL ADD MLOAD PUSH2 0xCED SWAP2 SWAP1 PUSH2 0x42B0 JUMP JUMPDEST DUP8 PUSH1 0x4 PUSH1 0x10 DUP2 LT PUSH2 0xD01 JUMPI PUSH2 0xD00 PUSH2 0x4461 JUMP JUMPDEST JUMPDEST PUSH1 0x20 MUL ADD MLOAD PUSH2 0xD10 SWAP2 SWAP1 PUSH2 0x4229 JUMP JUMPDEST PUSH2 0xD1A SWAP2 SWAP1 PUSH2 0x4229 JUMP JUMPDEST PUSH2 0xD24 SWAP2 SWAP1 PUSH2 0x4229 JUMP JUMPDEST PUSH2 0xD2E SWAP2 SWAP1 PUSH2 0x42B0 JUMP JUMPDEST PUSH13 0x1000000000000000000000000 DUP6 PUSH1 0x3 PUSH1 0x10 DUP2 LT PUSH2 0xD50 JUMPI PUSH2 0xD4F PUSH2 0x4461 JUMP JUMPDEST JUMPDEST PUSH1 0x20 MUL ADD MLOAD PUSH2 0xD5F SWAP2 SWAP1 PUSH2 0x42B0 JUMP JUMPDEST PUSH9 0x10000000000000000 DUP7 PUSH1 0x2 PUSH1 0x10 DUP2 LT PUSH2 0xD7D JUMPI PUSH2 0xD7C PUSH2 0x4461 JUMP JUMPDEST JUMPDEST PUSH1 0x20 MUL ADD MLOAD PUSH2 0xD8C SWAP2 SWAP1 PUSH2 0x42B0 JUMP JUMPDEST PUSH5 0x100000000 DUP8 PUSH1 0x1 PUSH1 0x10 DUP2 LT PUSH2 0xDA6 JUMPI PUSH2 0xDA5 PUSH2 0x4461 JUMP JUMPDEST JUMPDEST PUSH1 0x20 MUL ADD MLOAD PUSH2 0xDB5 SWAP2 SWAP1 PUSH2 0x42B0 JUMP JUMPDEST DUP8 PUSH1 0x0 PUSH1 0x10 DUP2 LT PUSH2 0xDC9 JUMPI PUSH2 0xDC8 PUSH2 0x4461 JUMP JUMPDEST JUMPDEST PUSH1 0x20 MUL ADD MLOAD PUSH2 0xDD8 SWAP2 SWAP1 PUSH2 0x4229 JUMP JUMPDEST PUSH2 0xDE2 SWAP2 SWAP1 PUSH2 0x4229 JUMP JUMPDEST PUSH2 0xDEC SWAP2 SWAP1 PUSH2 0x4229 JUMP JUMPDEST PUSH2 0xDF6 SWAP2 SWAP1 PUSH2 0x4229 JUMP JUMPDEST SWAP1 POP PUSH1 0x0 PUSH17 0x100000000000000000000000000000000 PUSH13 0x1000000000000000000000000 DUP7 PUSH1 0xF PUSH1 0x10 DUP2 LT PUSH2 0xE2E JUMPI PUSH2 0xE2D PUSH2 0x4461 JUMP JUMPDEST JUMPDEST PUSH1 0x20 MUL ADD MLOAD PUSH2 0xE3D SWAP2 SWAP1 PUSH2 0x42B0 JUMP JUMPDEST PUSH9 0x10000000000000000 DUP8 PUSH1 0xE PUSH1 0x10 DUP2 LT PUSH2 0xE5B JUMPI PUSH2 0xE5A PUSH2 0x4461 JUMP JUMPDEST JUMPDEST PUSH1 0x20 MUL ADD MLOAD PUSH2 0xE6A SWAP2 SWAP1 PUSH2 0x42B0 JUMP JUMPDEST PUSH5 0x100000000 DUP9 PUSH1 0xD PUSH1 0x10 DUP2 LT PUSH2 0xE84 JUMPI PUSH2 0xE83 PUSH2 0x4461 JUMP JUMPDEST JUMPDEST PUSH1 0x20 MUL ADD MLOAD PUSH2 0xE93 SWAP2 SWAP1 PUSH2 0x42B0 JUMP JUMPDEST DUP9 PUSH1 0xC PUSH1 0x10 DUP2 LT PUSH2 0xEA7 JUMPI PUSH2 0xEA6 PUSH2 0x4461 JUMP JUMPDEST JUMPDEST PUSH1 0x20 MUL ADD MLOAD PUSH2 0xEB6 SWAP2 SWAP1 PUSH2 0x4229 JUMP JUMPDEST PUSH2 0xEC0 SWAP2 SWAP1 PUSH2 0x4229 JUMP JUMPDEST PUSH2 0xECA SWAP2 SWAP1 PUSH2 0x4229 JUMP JUMPDEST PUSH2 0xED4 SWAP2 SWAP1 PUSH2 0x42B0 JUMP JUMPDEST PUSH13 0x1000000000000000000000000 DUP7 PUSH1 0xB PUSH1 0x10 DUP2 LT PUSH2 0xEF6 JUMPI PUSH2 0xEF5 PUSH2 0x4461 JUMP JUMPDEST JUMPDEST PUSH1 0x20 MUL ADD MLOAD PUSH2 0xF05 SWAP2 SWAP1 PUSH2 0x42B0 JUMP JUMPDEST PUSH9 0x10000000000000000 DUP8 PUSH1 0xA PUSH1 0x10 DUP2 LT PUSH2 0xF23 JUMPI PUSH2 0xF22 PUSH2 0x4461 JUMP JUMPDEST JUMPDEST PUSH1 0x20 MUL ADD MLOAD PUSH2 0xF32 SWAP2 SWAP1 PUSH2 0x42B0 JUMP JUMPDEST PUSH5 0x100000000 DUP9 PUSH1 0x9 PUSH1 0x10 DUP2 LT PUSH2 0xF4C JUMPI PUSH2 0xF4B PUSH2 0x4461 JUMP JUMPDEST JUMPDEST PUSH1 0x20 MUL ADD MLOAD PUSH2 0xF5B SWAP2 SWAP1 PUSH2 0x42B0 JUMP JUMPDEST DUP9 PUSH1 0x8 PUSH1 0x10 DUP2 LT PUSH2 0xF6F JUMPI PUSH2 0xF6E PUSH2 0x4461 JUMP JUMPDEST JUMPDEST PUSH1 0x20 MUL ADD MLOAD PUSH2 0xF7E SWAP2 SWAP1 PUSH2 0x4229 JUMP JUMPDEST PUSH2 0xF88 SWAP2 SWAP1 PUSH2 0x4229 JUMP JUMPDEST PUSH2 0xF92 SWAP2 SWAP1 PUSH2 0x4229 JUMP JUMPDEST PUSH2 0xF9C SWAP2 SWAP1 PUSH2 0x4229 JUMP JUMPDEST SWAP1 POP PUSH1 0x0 PUSH17 0x100000000000000000000000000000000 PUSH13 0x1000000000000000000000000 DUP7 PUSH1 0x7 PUSH1 0x8 DUP2 LT PUSH2 0xFD4 JUMPI PUSH2 0xFD3 PUSH2 0x4461 JUMP JUMPDEST JUMPDEST PUSH1 0x20 MUL ADD MLOAD PUSH2 0xFE3 SWAP2 SWAP1 PUSH2 0x42B0 JUMP JUMPDEST PUSH9 0x10000000000000000 DUP8 PUSH1 0x6 PUSH1 0x8 DUP2 LT PUSH2 0x1001 JUMPI PUSH2 0x1000 PUSH2 0x4461 JUMP JUMPDEST JUMPDEST PUSH1 0x20 MUL ADD MLOAD PUSH2 0x1010 SWAP2 SWAP1 PUSH2 0x42B0 JUMP JUMPDEST PUSH5 0x100000000 DUP9 PUSH1 0x5 PUSH1 0x8 DUP2 LT PUSH2 0x102A JUMPI PUSH2 0x1029 PUSH2 0x4461 JUMP JUMPDEST JUMPDEST PUSH1 0x20 MUL ADD MLOAD PUSH2 0x1039 SWAP2 SWAP1 PUSH2 0x42B0 JUMP JUMPDEST DUP9 PUSH1 0x4 PUSH1 0x8 DUP2 LT PUSH2 0x104D JUMPI PUSH2 0x104C PUSH2 0x4461 JUMP JUMPDEST JUMPDEST PUSH1 0x20 MUL ADD MLOAD PUSH2 0x105C SWAP2 SWAP1 PUSH2 0x4229 JUMP JUMPDEST PUSH2 0x1066 SWAP2 SWAP1 PUSH2 0x4229 JUMP JUMPDEST PUSH2 0x1070 SWAP2 SWAP1 PUSH2 0x4229 JUMP JUMPDEST PUSH2 0x107A SWAP2 SWAP1 PUSH2 0x42B0 JUMP JUMPDEST PUSH13 0x1000000000000000000000000 DUP7 PUSH1 0x3 PUSH1 0x8 DUP2 LT PUSH2 0x109C JUMPI PUSH2 0x109B PUSH2 0x4461 JUMP JUMPDEST JUMPDEST PUSH1 0x20 MUL ADD MLOAD PUSH2 0x10AB SWAP2 SWAP1 PUSH2 0x42B0 JUMP JUMPDEST PUSH9 0x10000000000000000 DUP8 PUSH1 0x2 PUSH1 0x8 DUP2 LT PUSH2 0x10C9 JUMPI PUSH2 0x10C8 PUSH2 0x4461 JUMP JUMPDEST JUMPDEST PUSH1 0x20 MUL ADD MLOAD PUSH2 0x10D8 SWAP2 SWAP1 PUSH2 0x42B0 JUMP JUMPDEST PUSH5 0x100000000 DUP9 PUSH1 0x1 PUSH1 0x8 DUP2 LT PUSH2 0x10F2 JUMPI PUSH2 0x10F1 PUSH2 0x4461 JUMP JUMPDEST JUMPDEST PUSH1 0x20 MUL ADD MLOAD PUSH2 0x1101 SWAP2 SWAP1 PUSH2 0x42B0 JUMP JUMPDEST DUP9 PUSH1 0x0 PUSH1 0x8 DUP2 LT PUSH2 0x1115 JUMPI PUSH2 0x1114 PUSH2 0x4461 JUMP JUMPDEST JUMPDEST PUSH1 0x20 MUL ADD MLOAD PUSH2 0x1124 SWAP2 SWAP1 PUSH2 0x4229 JUMP JUMPDEST PUSH2 0x112E SWAP2 SWAP1 PUSH2 0x4229 JUMP JUMPDEST PUSH2 0x1138 SWAP2 SWAP1 PUSH2 0x4229 JUMP JUMPDEST PUSH2 0x1142 SWAP2 SWAP1 PUSH2 0x4229 JUMP JUMPDEST SWAP1 POP PUSH2 0x114D DUP4 PUSH2 0x1669 JUMP JUMPDEST PUSH2 0x1156 DUP4 PUSH2 0x1669 JUMP JUMPDEST PUSH2 0x115F DUP4 PUSH2 0x1669 JUMP JUMPDEST PUSH1 0x40 MLOAD PUSH1 0x20 ADD PUSH2 0x1171 SWAP4 SWAP3 SWAP2 SWAP1 PUSH2 0x4086 JUMP JUMPDEST PUSH1 0x40 MLOAD PUSH1 0x20 DUP2 DUP4 SUB SUB DUP2 MSTORE SWAP1 PUSH1 0x40 MSTORE DUP1 MLOAD SWAP1 PUSH1 0x20 ADD KECCAK256 PUSH1 0x0 SHR SWAP4 POP POP POP POP SWAP3 SWAP2 POP POP JUMP JUMPDEST PUSH1 0x0 DUP1 PUSH1 0x0 SWAP1 POP PUSH1 0x0 JUMPDEST PUSH1 0x20 DUP2 LT ISZERO PUSH2 0x11EC JUMPI PUSH2 0x100 DUP3 PUSH2 0x11B6 SWAP2 SWAP1 PUSH2 0x42B0 JUMP JUMPDEST SWAP2 POP PUSH1 0xFF DUP5 AND DUP3 PUSH2 0x11C7 SWAP2 SWAP1 PUSH2 0x4229 JUMP JUMPDEST SWAP2 POP PUSH2 0x100 DUP5 PUSH2 0x11D7 SWAP2 SWAP1 PUSH2 0x427F JUMP JUMPDEST SWAP4 POP DUP1 DUP1 PUSH2 0x11E4 SWAP1 PUSH2 0x437F JUMP JUMPDEST SWAP2 POP POP PUSH2 0x119F JUMP JUMPDEST POP DUP1 SWAP2 POP POP SWAP2 SWAP1 POP JUMP JUMPDEST PUSH2 0x11FE PUSH2 0x3C50 JUMP JUMPDEST PUSH1 0x48 PUSH1 0x8 PUSH1 0x9 PUSH2 0x120E SWAP2 SWAP1 PUSH2 0x42B0 JUMP JUMPDEST EQ PUSH2 0x124E JUMPI PUSH1 0x40 MLOAD PUSH32 0x8C379A000000000000000000000000000000000000000000000000000000000 DUP2 MSTORE PUSH1 0x4 ADD PUSH2 0x1245 SWAP1 PUSH2 0x417E JUMP JUMPDEST PUSH1 0x40 MLOAD DUP1 SWAP2 SUB SWAP1 REVERT JUMPDEST PUSH1 0x1 DUP3 PUSH1 0x5 PUSH1 0x9 DUP2 LT PUSH2 0x1264 JUMPI PUSH2 0x1263 PUSH2 0x4461 JUMP JUMPDEST JUMPDEST PUSH1 0x20 MUL ADD DUP2 DUP2 MSTORE POP POP PUSH8 0x8000000000000000 DUP3 PUSH1 0x8 PUSH1 0x9 DUP2 LT PUSH2 0x128A JUMPI PUSH2 0x1289 PUSH2 0x4461 JUMP JUMPDEST JUMPDEST PUSH1 0x20 MUL ADD DUP2 DUP2 MSTORE POP POP PUSH1 0x0 PUSH1 0x48 SWAP1 POP PUSH1 0x0 PUSH1 0x8 SWAP1 POP PUSH1 0x0 PUSH1 0x8 PUSH1 0x9 PUSH2 0x12AF SWAP2 SWAP1 PUSH2 0x42B0 JUMP JUMPDEST SWAP1 POP PUSH2 0x12B9 PUSH2 0x3CDC JUMP JUMPDEST PUSH1 0x0 DUP1 PUSH1 0x0 DUP1 SWAP3 POP JUMPDEST DUP7 DUP6 PUSH2 0x12CE SWAP2 SWAP1 PUSH2 0x427F JUMP JUMPDEST DUP4 LT ISZERO PUSH2 0x1409 JUMPI PUSH1 0x0 SWAP2 POP JUMPDEST PUSH1 0x5 DUP3 LT ISZERO PUSH2 0x13EB JUMPI PUSH1 0x0 SWAP1 POP JUMPDEST PUSH1 0x5 DUP2 LT ISZERO PUSH2 0x13D8 JUMPI DUP6 DUP8 PUSH2 0x12FD SWAP2 SWAP1 PUSH2 0x427F JUMP JUMPDEST DUP3 PUSH1 0x5 PUSH2 0x130A SWAP2 SWAP1 PUSH2 0x42B0 JUMP JUMPDEST DUP3 PUSH2 0x1315 SWAP2 SWAP1 PUSH2 0x4229 JUMP JUMPDEST LT ISZERO PUSH2 0x13C5 JUMPI DUP9 DUP3 PUSH1 0x5 PUSH2 0x1329 SWAP2 SWAP1 PUSH2 0x42B0 JUMP JUMPDEST DUP3 PUSH1 0x9 DUP7 PUSH2 0x1337 SWAP2 SWAP1 PUSH2 0x42B0 JUMP JUMPDEST PUSH2 0x1341 SWAP2 SWAP1 PUSH2 0x4229 JUMP JUMPDEST PUSH2 0x134B SWAP2 SWAP1 PUSH2 0x4229 JUMP JUMPDEST PUSH1 0x9 DUP2 LT PUSH2 0x135C JUMPI PUSH2 0x135B PUSH2 0x4461 JUMP JUMPDEST JUMPDEST PUSH1 0x20 MUL ADD MLOAD DUP5 DUP4 DUP4 PUSH1 0x5 PUSH2 0x1370 SWAP2 SWAP1 PUSH2 0x42B0 JUMP JUMPDEST PUSH2 0x137A SWAP2 SWAP1 PUSH2 0x4229 JUMP JUMPDEST PUSH1 0x19 DUP2 LT PUSH2 0x138B JUMPI PUSH2 0x138A PUSH2 0x4461 JUMP JUMPDEST JUMPDEST PUSH1 0x20 MUL ADD MLOAD XOR DUP5 DUP4 DUP4 PUSH1 0x5 PUSH2 0x13A0 SWAP2 SWAP1 PUSH2 0x42B0 JUMP JUMPDEST PUSH2 0x13AA SWAP2 SWAP1 PUSH2 0x4229 JUMP JUMPDEST PUSH1 0x19 DUP2 LT PUSH2 0x13BB JUMPI PUSH2 0x13BA PUSH2 0x4461 JUMP JUMPDEST JUMPDEST PUSH1 0x20 MUL ADD DUP2 DUP2 MSTORE POP POP JUMPDEST DUP1 DUP1 PUSH2 0x13D0 SWAP1 PUSH2 0x437F JUMP JUMPDEST SWAP2 POP POP PUSH2 0x12E8 JUMP JUMPDEST DUP2 DUP1 PUSH2 0x13E3 SWAP1 PUSH2 0x437F JUMP JUMPDEST SWAP3 POP POP PUSH2 0x12DA JUMP JUMPDEST PUSH2 0x13F4 DUP5 PUSH2 0x16CA JUMP JUMPDEST SWAP4 POP DUP3 DUP1 PUSH2 0x1401 SWAP1 PUSH2 0x437F JUMP JUMPDEST SWAP4 POP POP PUSH2 0x12C2 JUMP JUMPDEST PUSH2 0x1411 PUSH2 0x3C50 JUMP JUMPDEST PUSH1 0x0 JUMPDEST PUSH1 0x10 DUP2 LT ISZERO PUSH2 0x1562 JUMPI PUSH1 0x0 SWAP4 POP JUMPDEST PUSH1 0x5 DUP5 LT ISZERO PUSH2 0x155D JUMPI PUSH1 0x0 SWAP3 POP JUMPDEST PUSH1 0x5 DUP4 LT ISZERO PUSH2 0x154A JUMPI DUP8 DUP10 PUSH2 0x1445 SWAP2 SWAP1 PUSH2 0x427F JUMP JUMPDEST DUP5 PUSH1 0x5 PUSH2 0x1452 SWAP2 SWAP1 PUSH2 0x42B0 JUMP JUMPDEST DUP5 PUSH2 0x145D SWAP2 SWAP1 PUSH2 0x4229 JUMP JUMPDEST LT DUP1 ISZERO PUSH2 0x146A JUMPI POP PUSH1 0x10 DUP2 LT JUMPDEST ISZERO PUSH2 0x1537 JUMPI PUSH4 0xFFFFFFFF DUP7 DUP6 DUP6 PUSH1 0x5 PUSH2 0x1483 SWAP2 SWAP1 PUSH2 0x42B0 JUMP JUMPDEST PUSH2 0x148D SWAP2 SWAP1 PUSH2 0x4229 JUMP JUMPDEST PUSH1 0x19 DUP2 LT PUSH2 0x149E JUMPI PUSH2 0x149D PUSH2 0x4461 JUMP JUMPDEST JUMPDEST PUSH1 0x20 MUL ADD MLOAD AND DUP3 DUP3 PUSH1 0x10 DUP2 LT PUSH2 0x14B7 JUMPI PUSH2 0x14B6 PUSH2 0x4461 JUMP JUMPDEST JUMPDEST PUSH1 0x20 MUL ADD DUP2 DUP2 MSTORE POP POP PUSH5 0x100000000 DUP7 DUP6 DUP6 PUSH1 0x5 PUSH2 0x14D5 SWAP2 SWAP1 PUSH2 0x42B0 JUMP JUMPDEST PUSH2 0x14DF SWAP2 SWAP1 PUSH2 0x4229 JUMP JUMPDEST PUSH1 0x19 DUP2 LT PUSH2 0x14F0 JUMPI PUSH2 0x14EF PUSH2 0x4461 JUMP JUMPDEST JUMPDEST PUSH1 0x20 MUL ADD MLOAD PUSH2 0x14FF SWAP2 SWAP1 PUSH2 0x427F JUMP JUMPDEST DUP3 PUSH1 0x1 DUP4 PUSH2 0x150D SWAP2 SWAP1 PUSH2 0x4229 JUMP JUMPDEST PUSH1 0x10 DUP2 LT PUSH2 0x151E JUMPI PUSH2 0x151D PUSH2 0x4461 JUMP JUMPDEST JUMPDEST PUSH1 0x20 MUL ADD DUP2 DUP2 MSTORE POP POP PUSH1 0x2 DUP2 PUSH2 0x1534 SWAP2 SWAP1 PUSH2 0x4229 JUMP JUMPDEST SWAP1 POP JUMPDEST DUP3 DUP1 PUSH2 0x1542 SWAP1 PUSH2 0x437F JUMP JUMPDEST SWAP4 POP POP PUSH2 0x1430 JUMP JUMPDEST DUP4 DUP1 PUSH2 0x1555 SWAP1 PUSH2 0x437F JUMP JUMPDEST SWAP5 POP POP PUSH2 0x1422 JUMP JUMPDEST PUSH2 0x1414 JUMP JUMPDEST DUP2 SWAP10 POP POP POP POP POP POP POP POP POP POP SWAP2 SWAP1 POP JUMP JUMPDEST PUSH1 0x0 DUP3 DUP3 PUSH1 0x4 PUSH2 0x1583 SWAP2 SWAP1 PUSH2 0x42B0 JUMP JUMPDEST DUP2 MLOAD DUP2 LT PUSH2 0x1594 JUMPI PUSH2 0x1593 PUSH2 0x4461 JUMP JUMPDEST JUMPDEST PUSH1 0x20 MUL PUSH1 0x20 ADD ADD MLOAD DUP4 PUSH1 0x1 DUP5 PUSH1 0x4 PUSH2 0x15AC SWAP2 SWAP1 PUSH2 0x42B0 JUMP JUMPDEST PUSH2 0x15B6 SWAP2 SWAP1 PUSH2 0x4229 JUMP JUMPDEST DUP2 MLOAD DUP2 LT PUSH2 0x15C7 JUMPI PUSH2 0x15C6 PUSH2 0x4461 JUMP JUMPDEST JUMPDEST PUSH1 0x20 MUL PUSH1 0x20 ADD ADD MLOAD DUP5 PUSH1 0x2 DUP6 PUSH1 0x4 PUSH2 0x15DF SWAP2 SWAP1 PUSH2 0x42B0 JUMP JUMPDEST PUSH2 0x15E9 SWAP2 SWAP1 PUSH2 0x4229 JUMP JUMPDEST DUP2 MLOAD DUP2 LT PUSH2 0x15FA JUMPI PUSH2 0x15F9 PUSH2 0x4461 JUMP JUMPDEST JUMPDEST PUSH1 0x20 MUL PUSH1 0x20 ADD ADD MLOAD DUP6 PUSH1 0x3 DUP7 PUSH1 0x4 PUSH2 0x1612 SWAP2 SWAP1 PUSH2 0x42B0 JUMP JUMPDEST PUSH2 0x161C SWAP2 SWAP1 PUSH2 0x4229 JUMP JUMPDEST DUP2 MLOAD DUP2 LT PUSH2 0x162D JUMPI PUSH2 0x162C PUSH2 0x4461 JUMP JUMPDEST JUMPDEST PUSH1 0x20 MUL PUSH1 0x20 ADD ADD MLOAD PUSH1 0x40 MLOAD PUSH1 0x20 ADD PUSH2 0x1648 SWAP5 SWAP4 SWAP3 SWAP2 SWAP1 PUSH2 0x40C3 JUMP JUMPDEST PUSH1 0x40 MLOAD PUSH1 0x20 DUP2 DUP4 SUB SUB DUP2 MSTORE SWAP1 PUSH1 0x40 MSTORE DUP1 MLOAD SWAP1 PUSH1 0x20 ADD KECCAK256 PUSH1 0x0 SHR SWAP1 POP SWAP3 SWAP2 POP POP JUMP JUMPDEST PUSH1 0x0 DUP1 PUSH1 0x0 SWAP1 POP PUSH1 0x0 JUMPDEST PUSH1 0x20 DUP2 LT ISZERO PUSH2 0x16C0 JUMPI PUSH2 0x100 DUP3 PUSH2 0x168A SWAP2 SWAP1 PUSH2 0x42B0 JUMP JUMPDEST SWAP2 POP PUSH1 0xFF DUP5 AND DUP3 PUSH2 0x169B SWAP2 SWAP1 PUSH2 0x4229 JUMP JUMPDEST SWAP2 POP PUSH2 0x100 DUP5 PUSH2 0x16AB SWAP2 SWAP1 PUSH2 0x427F JUMP JUMPDEST SWAP4 POP DUP1 DUP1 PUSH2 0x16B8 SWAP1 PUSH2 0x437F JUMP JUMPDEST SWAP2 POP POP PUSH2 0x1673 JUMP JUMPDEST POP DUP1 SWAP2 POP POP SWAP2 SWAP1 POP JUMP JUMPDEST PUSH2 0x16D2 PUSH2 0x3CDC JUMP JUMPDEST PUSH2 0x16DA PUSH2 0x3CDC JUMP JUMPDEST PUSH2 0x16E2 PUSH2 0x3CFF JUMP JUMPDEST PUSH2 0x16EA PUSH2 0x3CFF JUMP JUMPDEST PUSH1 0x0 PUSH1 0x40 MLOAD DUP1 PUSH2 0x300 ADD PUSH1 0x40 MSTORE DUP1 PUSH1 0x1 DUP2 MSTORE PUSH1 0x20 ADD PUSH2 0x8082 DUP2 MSTORE PUSH1 0x20 ADD PUSH8 0x800000000000808A DUP2 MSTORE PUSH1 0x20 ADD PUSH8 0x8000000080008000 DUP2 MSTORE PUSH1 0x20 ADD PUSH2 0x808B DUP2 MSTORE PUSH1 0x20 ADD PUSH4 0x80000001 DUP2 MSTORE PUSH1 0x20 ADD PUSH8 0x8000000080008081 DUP2 MSTORE PUSH1 0x20 ADD PUSH8 0x8000000000008009 DUP2 MSTORE PUSH1 0x20 ADD PUSH1 0x8A DUP2 MSTORE PUSH1 0x20 ADD PUSH1 0x88 DUP2 MSTORE PUSH1 0x20 ADD PUSH4 0x80008009 DUP2 MSTORE PUSH1 0x20 ADD PUSH4 0x8000000A DUP2 MSTORE PUSH1 0x20 ADD PUSH4 0x8000808B DUP2 MSTORE PUSH1 0x20 ADD PUSH8 0x800000000000008B DUP2 MSTORE PUSH1 0x20 ADD PUSH8 0x8000000000008089 DUP2 MSTORE PUSH1 0x20 ADD PUSH8 0x8000000000008003 DUP2 MSTORE PUSH1 0x20 ADD PUSH8 0x8000000000008002 DUP2 MSTORE PUSH1 0x20 ADD PUSH8 0x8000000000000080 DUP2 MSTORE PUSH1 0x20 ADD PUSH2 0x800A DUP2 MSTORE PUSH1 0x20 ADD PUSH8 0x800000008000000A DUP2 MSTORE PUSH1 0x20 ADD PUSH8 0x8000000080008081 DUP2 MSTORE PUSH1 0x20 ADD PUSH8 0x8000000000008080 DUP2 MSTORE PUSH1 0x20 ADD PUSH4 0x80000001 DUP2 MSTORE PUSH1 0x20 ADD PUSH8 0x8000000080008008 DUP2 MSTORE POP SWAP1 POP PUSH1 0x0 JUMPDEST PUSH1 0x18 DUP2 LT ISZERO PUSH2 0x3C43 JUMPI DUP7 PUSH1 0x4 PUSH1 0x19 DUP2 LT PUSH2 0x182D JUMPI PUSH2 0x182C PUSH2 0x4461 JUMP JUMPDEST JUMPDEST PUSH1 0x20 MUL ADD MLOAD DUP8 PUSH1 0x3 PUSH1 0x19 DUP2 LT PUSH2 0x1846 JUMPI PUSH2 0x1845 PUSH2 0x4461 JUMP JUMPDEST JUMPDEST PUSH1 0x20 MUL ADD MLOAD DUP9 PUSH1 0x2 PUSH1 0x19 DUP2 LT PUSH2 0x185F JUMPI PUSH2 0x185E PUSH2 0x4461 JUMP JUMPDEST JUMPDEST PUSH1 0x20 MUL ADD MLOAD DUP10 PUSH1 0x1 PUSH1 0x19 DUP2 LT PUSH2 0x1878 JUMPI PUSH2 0x1877 PUSH2 0x4461 JUMP JUMPDEST JUMPDEST PUSH1 0x20 MUL ADD MLOAD DUP11 PUSH1 0x0 PUSH1 0x19 DUP2 LT PUSH2 0x1891 JUMPI PUSH2 0x1890 PUSH2 0x4461 JUMP JUMPDEST JUMPDEST PUSH1 0x20 MUL ADD MLOAD XOR XOR XOR XOR DUP5 PUSH1 0x0 PUSH1 0x5 DUP2 LT PUSH2 0x18AE JUMPI PUSH2 0x18AD PUSH2 0x4461 JUMP JUMPDEST JUMPDEST PUSH1 0x20 MUL ADD DUP2 DUP2 MSTORE POP POP DUP7 PUSH1 0x9 PUSH1 0x19 DUP2 LT PUSH2 0x18CB JUMPI PUSH2 0x18CA PUSH2 0x4461 JUMP JUMPDEST JUMPDEST PUSH1 0x20 MUL ADD MLOAD DUP8 PUSH1 0x8 PUSH1 0x19 DUP2 LT PUSH2 0x18E4 JUMPI PUSH2 0x18E3 PUSH2 0x4461 JUMP JUMPDEST JUMPDEST PUSH1 0x20 MUL ADD MLOAD DUP9 PUSH1 0x7 PUSH1 0x19 DUP2 LT PUSH2 0x18FD JUMPI PUSH2 0x18FC PUSH2 0x4461 JUMP JUMPDEST JUMPDEST PUSH1 0x20 MUL ADD MLOAD DUP10 PUSH1 0x6 PUSH1 0x19 DUP2 LT PUSH2 0x1916 JUMPI PUSH2 0x1915 PUSH2 0x4461 JUMP JUMPDEST JUMPDEST PUSH1 0x20 MUL ADD MLOAD DUP11 PUSH1 0x5 PUSH1 0x19 DUP2 LT PUSH2 0x192F JUMPI PUSH2 0x192E PUSH2 0x4461 JUMP JUMPDEST JUMPDEST PUSH1 0x20 MUL ADD MLOAD XOR XOR XOR XOR DUP5 PUSH1 0x1 PUSH1 0x5 DUP2 LT PUSH2 0x194C JUMPI PUSH2 0x194B PUSH2 0x4461 JUMP JUMPDEST JUMPDEST PUSH1 0x20 MUL ADD DUP2 DUP2 MSTORE POP POP DUP7 PUSH1 0xE PUSH1 0x19 DUP2 LT PUSH2 0x1969 JUMPI PUSH2 0x1968 PUSH2 0x4461 JUMP JUMPDEST JUMPDEST PUSH1 0x20 MUL ADD MLOAD DUP8 PUSH1 0xD PUSH1 0x19 DUP2 LT PUSH2 0x1982 JUMPI PUSH2 0x1981 PUSH2 0x4461 JUMP JUMPDEST JUMPDEST PUSH1 0x20 MUL ADD MLOAD DUP9 PUSH1 0xC PUSH1 0x19 DUP2 LT PUSH2 0x199B JUMPI PUSH2 0x199A PUSH2 0x4461 JUMP JUMPDEST JUMPDEST PUSH1 0x20 MUL ADD MLOAD DUP10 PUSH1 0xB PUSH1 0x19 DUP2 LT PUSH2 0x19B4 JUMPI PUSH2 0x19B3 PUSH2 0x4461 JUMP JUMPDEST JUMPDEST PUSH1 0x20 MUL ADD MLOAD DUP11 PUSH1 0xA PUSH1 0x19 DUP2 LT PUSH2 0x19CD JUMPI PUSH2 0x19CC PUSH2 0x4461 JUMP JUMPDEST JUMPDEST PUSH1 0x20 MUL ADD MLOAD XOR XOR XOR XOR DUP5 PUSH1 0x2 PUSH1 0x5 DUP2 LT PUSH2 0x19EA JUMPI PUSH2 0x19E9 PUSH2 0x4461 JUMP JUMPDEST JUMPDEST PUSH1 0x20 MUL ADD DUP2 DUP2 MSTORE POP POP DUP7 PUSH1 0x13 PUSH1 0x19 DUP2 LT PUSH2 0x1A07 JUMPI PUSH2 0x1A06 PUSH2 0x4461 JUMP JUMPDEST JUMPDEST PUSH1 0x20 MUL ADD MLOAD DUP8 PUSH1 0x12 PUSH1 0x19 DUP2 LT PUSH2 0x1A20 JUMPI PUSH2 0x1A1F PUSH2 0x4461 JUMP JUMPDEST JUMPDEST PUSH1 0x20 MUL ADD MLOAD DUP9 PUSH1 0x11 PUSH1 0x19 DUP2 LT PUSH2 0x1A39 JUMPI PUSH2 0x1A38 PUSH2 0x4461 JUMP JUMPDEST JUMPDEST PUSH1 0x20 MUL ADD MLOAD DUP10 PUSH1 0x10 PUSH1 0x19 DUP2 LT PUSH2 0x1A52 JUMPI PUSH2 0x1A51 PUSH2 0x4461 JUMP JUMPDEST JUMPDEST PUSH1 0x20 MUL ADD MLOAD DUP11 PUSH1 0xF PUSH1 0x19 DUP2 LT PUSH2 0x1A6B JUMPI PUSH2 0x1A6A PUSH2 0x4461 JUMP JUMPDEST JUMPDEST PUSH1 0x20 MUL ADD MLOAD XOR XOR XOR XOR DUP5 PUSH1 0x3 PUSH1 0x5 DUP2 LT PUSH2 0x1A88 JUMPI PUSH2 0x1A87 PUSH2 0x4461 JUMP JUMPDEST JUMPDEST PUSH1 0x20 MUL ADD DUP2 DUP2 MSTORE POP POP DUP7 PUSH1 0x18 PUSH1 0x19 DUP2 LT PUSH2 0x1AA5 JUMPI PUSH2 0x1AA4 PUSH2 0x4461 JUMP JUMPDEST JUMPDEST PUSH1 0x20 MUL ADD MLOAD DUP8 PUSH1 0x17 PUSH1 0x19 DUP2 LT PUSH2 0x1ABE JUMPI PUSH2 0x1ABD PUSH2 0x4461 JUMP JUMPDEST JUMPDEST PUSH1 0x20 MUL ADD MLOAD DUP9 PUSH1 0x16 PUSH1 0x19 DUP2 LT PUSH2 0x1AD7 JUMPI PUSH2 0x1AD6 PUSH2 0x4461 JUMP JUMPDEST JUMPDEST PUSH1 0x20 MUL ADD MLOAD DUP10 PUSH1 0x15 PUSH1 0x19 DUP2 LT PUSH2 0x1AF0 JUMPI PUSH2 0x1AEF PUSH2 0x4461 JUMP JUMPDEST JUMPDEST PUSH1 0x20 MUL ADD MLOAD DUP11 PUSH1 0x14 PUSH1 0x19 DUP2 LT PUSH2 0x1B09 JUMPI PUSH2 0x1B08 PUSH2 0x4461 JUMP JUMPDEST JUMPDEST PUSH1 0x20 MUL ADD MLOAD XOR XOR XOR XOR DUP5 PUSH1 0x4 PUSH1 0x5 DUP2 LT PUSH2 0x1B26 JUMPI PUSH2 0x1B25 PUSH2 0x4461 JUMP JUMPDEST JUMPDEST PUSH1 0x20 MUL ADD DUP2 DUP2 MSTORE POP POP PUSH8 0x8000000000000000 DUP5 PUSH1 0x1 PUSH1 0x5 DUP2 LT PUSH2 0x1B4C JUMPI PUSH2 0x1B4B PUSH2 0x4461 JUMP JUMPDEST JUMPDEST PUSH1 0x20 MUL ADD MLOAD PUSH2 0x1B5B SWAP2 SWAP1 PUSH2 0x427F JUMP JUMPDEST PUSH8 0xFFFFFFFFFFFFFFFF PUSH1 0x2 DUP7 PUSH1 0x1 PUSH1 0x5 DUP2 LT PUSH2 0x1B7A JUMPI PUSH2 0x1B79 PUSH2 0x4461 JUMP JUMPDEST JUMPDEST PUSH1 0x20 MUL ADD MLOAD PUSH2 0x1B89 SWAP2 SWAP1 PUSH2 0x42B0 JUMP JUMPDEST AND OR DUP5 PUSH1 0x4 PUSH1 0x5 DUP2 LT PUSH2 0x1B9F JUMPI PUSH2 0x1B9E PUSH2 0x4461 JUMP JUMPDEST JUMPDEST PUSH1 0x20 MUL ADD MLOAD XOR DUP4 PUSH1 0x0 PUSH1 0x5 DUP2 LT PUSH2 0x1BB9 JUMPI PUSH2 0x1BB8 PUSH2 0x4461 JUMP JUMPDEST JUMPDEST PUSH1 0x20 MUL ADD DUP2 DUP2 MSTORE POP POP PUSH8 0x8000000000000000 DUP5 PUSH1 0x2 PUSH1 0x5 DUP2 LT PUSH2 0x1BDF JUMPI PUSH2 0x1BDE PUSH2 0x4461 JUMP JUMPDEST JUMPDEST PUSH1 0x20 MUL ADD MLOAD PUSH2 0x1BEE SWAP2 SWAP1 PUSH2 0x427F JUMP JUMPDEST PUSH8 0xFFFFFFFFFFFFFFFF PUSH1 0x2 DUP7 PUSH1 0x2 PUSH1 0x5 DUP2 LT PUSH2 0x1C0D JUMPI PUSH2 0x1C0C PUSH2 0x4461 JUMP JUMPDEST JUMPDEST PUSH1 0x20 MUL ADD MLOAD PUSH2 0x1C1C SWAP2 SWAP1 PUSH2 0x42B0 JUMP JUMPDEST AND OR DUP5 PUSH1 0x0 PUSH1 0x5 DUP2 LT PUSH2 0x1C32 JUMPI PUSH2 0x1C31 PUSH2 0x4461 JUMP JUMPDEST JUMPDEST PUSH1 0x20 MUL ADD MLOAD XOR DUP4 PUSH1 0x1 PUSH1 0x5 DUP2 LT PUSH2 0x1C4C JUMPI PUSH2 0x1C4B PUSH2 0x4461 JUMP JUMPDEST JUMPDEST PUSH1 0x20 MUL ADD DUP2 DUP2 MSTORE POP POP PUSH8 0x8000000000000000 DUP5 PUSH1 0x3 PUSH1 0x5 DUP2 LT PUSH2 0x1C72 JUMPI PUSH2 0x1C71 PUSH2 0x4461 JUMP JUMPDEST JUMPDEST PUSH1 0x20 MUL ADD MLOAD PUSH2 0x1C81 SWAP2 SWAP1 PUSH2 0x427F JUMP JUMPDEST PUSH8 0xFFFFFFFFFFFFFFFF PUSH1 0x2 DUP7 PUSH1 0x3 PUSH1 0x5 DUP2 LT PUSH2 0x1CA0 JUMPI PUSH2 0x1C9F PUSH2 0x4461 JUMP JUMPDEST JUMPDEST PUSH1 0x20 MUL ADD MLOAD PUSH2 0x1CAF SWAP2 SWAP1 PUSH2 0x42B0 JUMP JUMPDEST AND OR DUP5 PUSH1 0x1 PUSH1 0x5 DUP2 LT PUSH2 0x1CC5 JUMPI PUSH2 0x1CC4 PUSH2 0x4461 JUMP JUMPDEST JUMPDEST PUSH1 0x20 MUL ADD MLOAD XOR DUP4 PUSH1 0x2 PUSH1 0x5 DUP2 LT PUSH2 0x1CDF JUMPI PUSH2 0x1CDE PUSH2 0x4461 JUMP JUMPDEST JUMPDEST PUSH1 0x20 MUL ADD DUP2 DUP2 MSTORE POP POP PUSH8 0x8000000000000000 DUP5 PUSH1 0x4 PUSH1 0x5 DUP2 LT PUSH2 0x1D05 JUMPI PUSH2 0x1D04 PUSH2 0x4461 JUMP JUMPDEST JUMPDEST PUSH1 0x20 MUL ADD MLOAD PUSH2 0x1D14 SWAP2 SWAP1 PUSH2 0x427F JUMP JUMPDEST PUSH8 0xFFFFFFFFFFFFFFFF PUSH1 0x2 DUP7 PUSH1 0x4 PUSH1 0x5 DUP2 LT PUSH2 0x1D33 JUMPI PUSH2 0x1D32 PUSH2 0x4461 JUMP JUMPDEST JUMPDEST PUSH1 0x20 MUL ADD MLOAD PUSH2 0x1D42 SWAP2 SWAP1 PUSH2 0x42B0 JUMP JUMPDEST AND OR DUP5 PUSH1 0x2 PUSH1 0x5 DUP2 LT PUSH2 0x1D58 JUMPI PUSH2 0x1D57 PUSH2 0x4461 JUMP JUMPDEST JUMPDEST PUSH1 0x20 MUL ADD MLOAD XOR DUP4 PUSH1 0x3 PUSH1 0x5 DUP2 LT PUSH2 0x1D72 JUMPI PUSH2 0x1D71 PUSH2 0x4461 JUMP JUMPDEST JUMPDEST PUSH1 0x20 MUL ADD DUP2 DUP2 MSTORE POP POP PUSH8 0x8000000000000000 DUP5 PUSH1 0x0 PUSH1 0x5 DUP2 LT PUSH2 0x1D98 JUMPI PUSH2 0x1D97 PUSH2 0x4461 JUMP JUMPDEST JUMPDEST PUSH1 0x20 MUL ADD MLOAD PUSH2 0x1DA7 SWAP2 SWAP1 PUSH2 0x427F JUMP JUMPDEST PUSH8 0xFFFFFFFFFFFFFFFF PUSH1 0x2 DUP7 PUSH1 0x0 PUSH1 0x5 DUP2 LT PUSH2 0x1DC6 JUMPI PUSH2 0x1DC5 PUSH2 0x4461 JUMP JUMPDEST JUMPDEST PUSH1 0x20 MUL ADD MLOAD PUSH2 0x1DD5 SWAP2 SWAP1 PUSH2 0x42B0 JUMP JUMPDEST AND OR DUP5 PUSH1 0x3 PUSH1 0x5 DUP2 LT PUSH2 0x1DEB JUMPI PUSH2 0x1DEA PUSH2 0x4461 JUMP JUMPDEST JUMPDEST PUSH1 0x20 MUL ADD MLOAD XOR DUP4 PUSH1 0x4 PUSH1 0x5 DUP2 LT PUSH2 0x1E05 JUMPI PUSH2 0x1E04 PUSH2 0x4461 JUMP JUMPDEST JUMPDEST PUSH1 0x20 MUL ADD DUP2 DUP2 MSTORE POP POP DUP3 PUSH1 0x0 PUSH1 0x5 DUP2 LT PUSH2 0x1E22 JUMPI PUSH2 0x1E21 PUSH2 0x4461 JUMP JUMPDEST JUMPDEST PUSH1 0x20 MUL ADD MLOAD DUP8 PUSH1 0x0 PUSH1 0x19 DUP2 LT PUSH2 0x1E3B JUMPI PUSH2 0x1E3A PUSH2 0x4461 JUMP JUMPDEST JUMPDEST PUSH1 0x20 MUL ADD MLOAD XOR DUP8 PUSH1 0x0 PUSH1 0x19 DUP2 LT PUSH2 0x1E55 JUMPI PUSH2 0x1E54 PUSH2 0x4461 JUMP JUMPDEST JUMPDEST PUSH1 0x20 MUL ADD DUP2 DUP2 MSTORE POP POP DUP3 PUSH1 0x0 PUSH1 0x5 DUP2 LT PUSH2 0x1E72 JUMPI PUSH2 0x1E71 PUSH2 0x4461 JUMP JUMPDEST JUMPDEST PUSH1 0x20 MUL ADD MLOAD DUP8 PUSH1 0x1 PUSH1 0x19 DUP2 LT PUSH2 0x1E8B JUMPI PUSH2 0x1E8A PUSH2 0x4461 JUMP JUMPDEST JUMPDEST PUSH1 0x20 MUL ADD MLOAD XOR DUP8 PUSH1 0x1 PUSH1 0x19 DUP2 LT PUSH2 0x1EA5 JUMPI PUSH2 0x1EA4 PUSH2 0x4461 JUMP JUMPDEST JUMPDEST PUSH1 0x20 MUL ADD DUP2 DUP2 MSTORE POP POP DUP3 PUSH1 0x0 PUSH1 0x5 DUP2 LT PUSH2 0x1EC2 JUMPI PUSH2 0x1EC1 PUSH2 0x4461 JUMP JUMPDEST JUMPDEST PUSH1 0x20 MUL ADD MLOAD DUP8 PUSH1 0x2 PUSH1 0x19 DUP2 LT PUSH2 0x1EDB JUMPI PUSH2 0x1EDA PUSH2 0x4461 JUMP JUMPDEST JUMPDEST PUSH1 0x20 MUL ADD MLOAD XOR DUP8 PUSH1 0x2 PUSH1 0x19 DUP2 LT PUSH2 0x1EF5 JUMPI PUSH2 0x1EF4 PUSH2 0x4461 JUMP JUMPDEST JUMPDEST PUSH1 0x20 MUL ADD DUP2 DUP2 MSTORE POP POP DUP3 PUSH1 0x0 PUSH1 0x5 DUP2 LT PUSH2 0x1F12 JUMPI PUSH2 0x1F11 PUSH2 0x4461 JUMP JUMPDEST JUMPDEST PUSH1 0x20 MUL ADD MLOAD DUP8 PUSH1 0x3 PUSH1 0x19 DUP2 LT PUSH2 0x1F2B JUMPI PUSH2 0x1F2A PUSH2 0x4461 JUMP JUMPDEST JUMPDEST PUSH1 0x20 MUL ADD MLOAD XOR DUP8 PUSH1 0x3 PUSH1 0x19 DUP2 LT PUSH2 0x1F45 JUMPI PUSH2 0x1F44 PUSH2 0x4461 JUMP JUMPDEST JUMPDEST PUSH1 0x20 MUL ADD DUP2 DUP2 MSTORE POP POP DUP3 PUSH1 0x0 PUSH1 0x5 DUP2 LT PUSH2 0x1F62 JUMPI PUSH2 0x1F61 PUSH2 0x4461 JUMP JUMPDEST JUMPDEST PUSH1 0x20 MUL ADD MLOAD DUP8 PUSH1 0x4 PUSH1 0x19 DUP2 LT PUSH2 0x1F7B JUMPI PUSH2 0x1F7A PUSH2 0x4461 JUMP JUMPDEST JUMPDEST PUSH1 0x20 MUL ADD MLOAD XOR DUP8 PUSH1 0x4 PUSH1 0x19 DUP2 LT PUSH2 0x1F95 JUMPI PUSH2 0x1F94 PUSH2 0x4461 JUMP JUMPDEST JUMPDEST PUSH1 0x20 MUL ADD DUP2 DUP2 MSTORE POP POP DUP3 PUSH1 0x1 PUSH1 0x5 DUP2 LT PUSH2 0x1FB2 JUMPI PUSH2 0x1FB1 PUSH2 0x4461 JUMP JUMPDEST JUMPDEST PUSH1 0x20 MUL ADD MLOAD DUP8 PUSH1 0x5 PUSH1 0x19 DUP2 LT PUSH2 0x1FCB JUMPI PUSH2 0x1FCA PUSH2 0x4461 JUMP JUMPDEST JUMPDEST PUSH1 0x20 MUL ADD MLOAD XOR DUP8 PUSH1 0x5 PUSH1 0x19 DUP2 LT PUSH2 0x1FE5 JUMPI PUSH2 0x1FE4 PUSH2 0x4461 JUMP JUMPDEST JUMPDEST PUSH1 0x20 MUL ADD DUP2 DUP2 MSTORE POP POP DUP3 PUSH1 0x1 PUSH1 0x5 DUP2 LT PUSH2 0x2002 JUMPI PUSH2 0x2001 PUSH2 0x4461 JUMP JUMPDEST JUMPDEST PUSH1 0x20 MUL ADD MLOAD DUP8 PUSH1 0x6 PUSH1 0x19 DUP2 LT PUSH2 0x201B JUMPI PUSH2 0x201A PUSH2 0x4461 JUMP JUMPDEST JUMPDEST PUSH1 0x20 MUL ADD MLOAD XOR DUP8 PUSH1 0x6 PUSH1 0x19 DUP2 LT PUSH2 0x2035 JUMPI PUSH2 0x2034 PUSH2 0x4461 JUMP JUMPDEST JUMPDEST PUSH1 0x20 MUL ADD DUP2 DUP2 MSTORE POP POP DUP3 PUSH1 0x1 PUSH1 0x5 DUP2 LT PUSH2 0x2052 JUMPI PUSH2 0x2051 PUSH2 0x4461 JUMP JUMPDEST JUMPDEST PUSH1 0x20 MUL ADD MLOAD DUP8 PUSH1 0x7 PUSH1 0x19 DUP2 LT PUSH2 0x206B JUMPI PUSH2 0x206A PUSH2 0x4461 JUMP JUMPDEST JUMPDEST PUSH1 0x20 MUL ADD MLOAD XOR DUP8 PUSH1 0x7 PUSH1 0x19 DUP2 LT PUSH2 0x2085 JUMPI PUSH2 0x2084 PUSH2 0x4461 JUMP JUMPDEST JUMPDEST PUSH1 0x20 MUL ADD DUP2 DUP2 MSTORE POP POP DUP3 PUSH1 0x1 PUSH1 0x5 DUP2 LT PUSH2 0x20A2 JUMPI PUSH2 0x20A1 PUSH2 0x4461 JUMP JUMPDEST JUMPDEST PUSH1 0x20 MUL ADD MLOAD DUP8 PUSH1 0x8 PUSH1 0x19 DUP2 LT PUSH2 0x20BB JUMPI PUSH2 0x20BA PUSH2 0x4461 JUMP JUMPDEST JUMPDEST PUSH1 0x20 MUL ADD MLOAD XOR DUP8 PUSH1 0x8 PUSH1 0x19 DUP2 LT PUSH2 0x20D5 JUMPI PUSH2 0x20D4 PUSH2 0x4461 JUMP JUMPDEST JUMPDEST PUSH1 0x20 MUL ADD DUP2 DUP2 MSTORE POP POP DUP3 PUSH1 0x1 PUSH1 0x5 DUP2 LT PUSH2 0x20F2 JUMPI PUSH2 0x20F1 PUSH2 0x4461 JUMP JUMPDEST JUMPDEST PUSH1 0x20 MUL ADD MLOAD DUP8 PUSH1 0x9 PUSH1 0x19 DUP2 LT PUSH2 0x210B JUMPI PUSH2 0x210A PUSH2 0x4461 JUMP JUMPDEST JUMPDEST PUSH1 0x20 MUL ADD MLOAD XOR DUP8 PUSH1 0x9 PUSH1 0x19 DUP2 LT PUSH2 0x2125 JUMPI PUSH2 0x2124 PUSH2 0x4461 JUMP JUMPDEST JUMPDEST PUSH1 0x20 MUL ADD DUP2 DUP2 MSTORE POP POP DUP3 PUSH1 0x2 PUSH1 0x5 DUP2 LT PUSH2 0x2142 JUMPI PUSH2 0x2141 PUSH2 0x4461 JUMP JUMPDEST JUMPDEST PUSH1 0x20 MUL ADD MLOAD DUP8 PUSH1 0xA PUSH1 0x19 DUP2 LT PUSH2 0x215B JUMPI PUSH2 0x215A PUSH2 0x4461 JUMP JUMPDEST JUMPDEST PUSH1 0x20 MUL ADD MLOAD XOR DUP8 PUSH1 0xA PUSH1 0x19 DUP2 LT PUSH2 0x2175 JUMPI PUSH2 0x2174 PUSH2 0x4461 JUMP JUMPDEST JUMPDEST PUSH1 0x20 MUL ADD DUP2 DUP2 MSTORE POP POP DUP3 PUSH1 0x2 PUSH1 0x5 DUP2 LT PUSH2 0x2192 JUMPI PUSH2 0x2191 PUSH2 0x4461 JUMP JUMPDEST JUMPDEST PUSH1 0x20 MUL ADD MLOAD DUP8 PUSH1 0xB PUSH1 0x19 DUP2 LT PUSH2 0x21AB JUMPI PUSH2 0x21AA PUSH2 0x4461 JUMP JUMPDEST JUMPDEST PUSH1 0x20 MUL ADD MLOAD XOR DUP8 PUSH1 0xB PUSH1 0x19 DUP2 LT PUSH2 0x21C5 JUMPI PUSH2 0x21C4 PUSH2 0x4461 JUMP JUMPDEST JUMPDEST PUSH1 0x20 MUL ADD DUP2 DUP2 MSTORE POP POP DUP3 PUSH1 0x2 PUSH1 0x5 DUP2 LT PUSH2 0x21E2 JUMPI PUSH2 0x21E1 PUSH2 0x4461 JUMP JUMPDEST JUMPDEST PUSH1 0x20 MUL ADD MLOAD DUP8 PUSH1 0xC PUSH1 0x19 DUP2 LT PUSH2 0x21FB JUMPI PUSH2 0x21FA PUSH2 0x4461 JUMP JUMPDEST JUMPDEST PUSH1 0x20 MUL ADD MLOAD XOR DUP8 PUSH1 0xC PUSH1 0x19 DUP2 LT PUSH2 0x2215 JUMPI PUSH2 0x2214 PUSH2 0x4461 JUMP JUMPDEST JUMPDEST PUSH1 0x20 MUL ADD DUP2 DUP2 MSTORE POP POP DUP3 PUSH1 0x2 PUSH1 0x5 DUP2 LT PUSH2 0x2232 JUMPI PUSH2 0x2231 PUSH2 0x4461 JUMP JUMPDEST JUMPDEST PUSH1 0x20 MUL ADD MLOAD DUP8 PUSH1 0xD PUSH1 0x19 DUP2 LT PUSH2 0x224B JUMPI PUSH2 0x224A PUSH2 0x4461 JUMP JUMPDEST JUMPDEST PUSH1 0x20 MUL ADD MLOAD XOR DUP8 PUSH1 0xD PUSH1 0x19 DUP2 LT PUSH2 0x2265 JUMPI PUSH2 0x2264 PUSH2 0x4461 JUMP JUMPDEST JUMPDEST PUSH1 0x20 MUL ADD DUP2 DUP2 MSTORE POP POP DUP3 PUSH1 0x2 PUSH1 0x5 DUP2 LT PUSH2 0x2282 JUMPI PUSH2 0x2281 PUSH2 0x4461 JUMP JUMPDEST JUMPDEST PUSH1 0x20 MUL ADD MLOAD DUP8 PUSH1 0xE PUSH1 0x19 DUP2 LT PUSH2 0x229B JUMPI PUSH2 0x229A PUSH2 0x4461 JUMP JUMPDEST JUMPDEST PUSH1 0x20 MUL ADD MLOAD XOR DUP8 PUSH1 0xE PUSH1 0x19 DUP2 LT PUSH2 0x22B5 JUMPI PUSH2 0x22B4 PUSH2 0x4461 JUMP JUMPDEST JUMPDEST PUSH1 0x20 MUL ADD DUP2 DUP2 MSTORE POP POP DUP3 PUSH1 0x3 PUSH1 0x5 DUP2 LT PUSH2 0x22D2 JUMPI PUSH2 0x22D1 PUSH2 0x4461 JUMP JUMPDEST JUMPDEST PUSH1 0x20 MUL ADD MLOAD DUP8 PUSH1 0xF PUSH1 0x19 DUP2 LT PUSH2 0x22EB JUMPI PUSH2 0x22EA PUSH2 0x4461 JUMP JUMPDEST JUMPDEST PUSH1 0x20 MUL ADD MLOAD XOR DUP8 PUSH1 0xF PUSH1 0x19 DUP2 LT PUSH2 0x2305 JUMPI PUSH2 0x2304 PUSH2 0x4461 JUMP JUMPDEST JUMPDEST PUSH1 0x20 MUL ADD DUP2 DUP2 MSTORE POP POP DUP3 PUSH1 0x3 PUSH1 0x5 DUP2 LT PUSH2 0x2322 JUMPI PUSH2 0x2321 PUSH2 0x4461 JUMP JUMPDEST JUMPDEST PUSH1 0x20 MUL ADD MLOAD DUP8 PUSH1 0x10 PUSH1 0x19 DUP2 LT PUSH2 0x233B JUMPI PUSH2 0x233A PUSH2 0x4461 JUMP JUMPDEST JUMPDEST PUSH1 0x20 MUL ADD MLOAD XOR DUP8 PUSH1 0x10 PUSH1 0x19 DUP2 LT PUSH2 0x2355 JUMPI PUSH2 0x2354 PUSH2 0x4461 JUMP JUMPDEST JUMPDEST PUSH1 0x20 MUL ADD DUP2 DUP2 MSTORE POP POP DUP3 PUSH1 0x3 PUSH1 0x5 DUP2 LT PUSH2 0x2372 JUMPI PUSH2 0x2371 PUSH2 0x4461 JUMP JUMPDEST JUMPDEST PUSH1 0x20 MUL ADD MLOAD DUP8 PUSH1 0x11 PUSH1 0x19 DUP2 LT PUSH2 0x238B JUMPI PUSH2 0x238A PUSH2 0x4461 JUMP JUMPDEST JUMPDEST PUSH1 0x20 MUL ADD MLOAD XOR DUP8 PUSH1 0x11 PUSH1 0x19 DUP2 LT PUSH2 0x23A5 JUMPI PUSH2 0x23A4 PUSH2 0x4461 JUMP JUMPDEST JUMPDEST PUSH1 0x20 MUL ADD DUP2 DUP2 MSTORE POP POP DUP3 PUSH1 0x3 PUSH1 0x5 DUP2 LT PUSH2 0x23C2 JUMPI PUSH2 0x23C1 PUSH2 0x4461 JUMP JUMPDEST JUMPDEST PUSH1 0x20 MUL ADD MLOAD DUP8 PUSH1 0x12 PUSH1 0x19 DUP2 LT PUSH2 0x23DB JUMPI PUSH2 0x23DA PUSH2 0x4461 JUMP JUMPDEST JUMPDEST PUSH1 0x20 MUL ADD MLOAD XOR DUP8 PUSH1 0x12 PUSH1 0x19 DUP2 LT PUSH2 0x23F5 JUMPI PUSH2 0x23F4 PUSH2 0x4461 JUMP JUMPDEST JUMPDEST PUSH1 0x20 MUL ADD DUP2 DUP2 MSTORE POP POP DUP3 PUSH1 0x3 PUSH1 0x5 DUP2 LT PUSH2 0x2412 JUMPI PUSH2 0x2411 PUSH2 0x4461 JUMP JUMPDEST JUMPDEST PUSH1 0x20 MUL ADD MLOAD DUP8 PUSH1 0x13 PUSH1 0x19 DUP2 LT PUSH2 0x242B JUMPI PUSH2 0x242A PUSH2 0x4461 JUMP JUMPDEST JUMPDEST PUSH1 0x20 MUL ADD MLOAD XOR DUP8 PUSH1 0x13 PUSH1 0x19 DUP2 LT PUSH2 0x2445 JUMPI PUSH2 0x2444 PUSH2 0x4461 JUMP JUMPDEST JUMPDEST PUSH1 0x20 MUL ADD DUP2 DUP2 MSTORE POP POP DUP3 PUSH1 0x4 PUSH1 0x5 DUP2 LT PUSH2 0x2462 JUMPI PUSH2 0x2461 PUSH2 0x4461 JUMP JUMPDEST JUMPDEST PUSH1 0x20 MUL ADD MLOAD DUP8 PUSH1 0x14 PUSH1 0x19 DUP2 LT PUSH2 0x247B JUMPI PUSH2 0x247A PUSH2 0x4461 JUMP JUMPDEST JUMPDEST PUSH1 0x20 MUL ADD MLOAD XOR DUP8 PUSH1 0x14 PUSH1 0x19 DUP2 LT PUSH2 0x2495 JUMPI PUSH2 0x2494 PUSH2 0x4461 JUMP JUMPDEST JUMPDEST PUSH1 0x20 MUL ADD DUP2 DUP2 MSTORE POP POP DUP3 PUSH1 0x4 PUSH1 0x5 DUP2 LT PUSH2 0x24B2 JUMPI PUSH2 0x24B1 PUSH2 0x4461 JUMP JUMPDEST JUMPDEST PUSH1 0x20 MUL ADD MLOAD DUP8 PUSH1 0x15 PUSH1 0x19 DUP2 LT PUSH2 0x24CB JUMPI PUSH2 0x24CA PUSH2 0x4461 JUMP JUMPDEST JUMPDEST PUSH1 0x20 MUL ADD MLOAD XOR DUP8 PUSH1 0x15 PUSH1 0x19 DUP2 LT PUSH2 0x24E5 JUMPI PUSH2 0x24E4 PUSH2 0x4461 JUMP JUMPDEST JUMPDEST PUSH1 0x20 MUL ADD DUP2 DUP2 MSTORE POP POP DUP3 PUSH1 0x4 PUSH1 0x5 DUP2 LT PUSH2 0x2502 JUMPI PUSH2 0x2501 PUSH2 0x4461 JUMP JUMPDEST JUMPDEST PUSH1 0x20 MUL ADD MLOAD DUP8 PUSH1 0x16 PUSH1 0x19 DUP2 LT PUSH2 0x251B JUMPI PUSH2 0x251A PUSH2 0x4461 JUMP JUMPDEST JUMPDEST PUSH1 0x20 MUL ADD MLOAD XOR DUP8 PUSH1 0x16 PUSH1 0x19 DUP2 LT PUSH2 0x2535 JUMPI PUSH2 0x2534 PUSH2 0x4461 JUMP JUMPDEST JUMPDEST PUSH1 0x20 MUL ADD DUP2 DUP2 MSTORE POP POP DUP3 PUSH1 0x4 PUSH1 0x5 DUP2 LT PUSH2 0x2552 JUMPI PUSH2 0x2551 PUSH2 0x4461 JUMP JUMPDEST JUMPDEST PUSH1 0x20 MUL ADD MLOAD DUP8 PUSH1 0x17 PUSH1 0x19 DUP2 LT PUSH2 0x256B JUMPI PUSH2 0x256A PUSH2 0x4461 JUMP JUMPDEST JUMPDEST PUSH1 0x20 MUL ADD MLOAD XOR DUP8 PUSH1 0x17 PUSH1 0x19 DUP2 LT PUSH2 0x2585 JUMPI PUSH2 0x2584 PUSH2 0x4461 JUMP JUMPDEST JUMPDEST PUSH1 0x20 MUL ADD DUP2 DUP2 MSTORE POP POP DUP3 PUSH1 0x4 PUSH1 0x5 DUP2 LT PUSH2 0x25A2 JUMPI PUSH2 0x25A1 PUSH2 0x4461 JUMP JUMPDEST JUMPDEST PUSH1 0x20 MUL ADD MLOAD DUP8 PUSH1 0x18 PUSH1 0x19 DUP2 LT PUSH2 0x25BB JUMPI PUSH2 0x25BA PUSH2 0x4461 JUMP JUMPDEST JUMPDEST PUSH1 0x20 MUL ADD MLOAD XOR DUP8 PUSH1 0x18 PUSH1 0x19 DUP2 LT PUSH2 0x25D5 JUMPI PUSH2 0x25D4 PUSH2 0x4461 JUMP JUMPDEST JUMPDEST PUSH1 0x20 MUL ADD DUP2 DUP2 MSTORE POP POP DUP7 PUSH1 0x0 PUSH1 0x19 DUP2 LT PUSH2 0x25F2 JUMPI PUSH2 0x25F1 PUSH2 0x4461 JUMP JUMPDEST JUMPDEST PUSH1 0x20 MUL ADD MLOAD DUP6 PUSH1 0x0 PUSH1 0x19 DUP2 LT PUSH2 0x260B JUMPI PUSH2 0x260A PUSH2 0x4461 JUMP JUMPDEST JUMPDEST PUSH1 0x20 MUL ADD DUP2 DUP2 MSTORE POP POP PUSH4 0x10000000 DUP8 PUSH1 0x1 PUSH1 0x19 DUP2 LT PUSH2 0x262D JUMPI PUSH2 0x262C PUSH2 0x4461 JUMP JUMPDEST JUMPDEST PUSH1 0x20 MUL ADD MLOAD PUSH2 0x263C SWAP2 SWAP1 PUSH2 0x427F JUMP JUMPDEST PUSH8 0xFFFFFFFFFFFFFFFF PUSH5 0x1000000000 DUP10 PUSH1 0x1 PUSH1 0x19 DUP2 LT PUSH2 0x265F JUMPI PUSH2 0x265E PUSH2 0x4461 JUMP JUMPDEST JUMPDEST PUSH1 0x20 MUL ADD MLOAD PUSH2 0x266E SWAP2 SWAP1 PUSH2 0x42B0 JUMP JUMPDEST AND OR DUP6 PUSH1 0x8 PUSH1 0x19 DUP2 LT PUSH2 0x2684 JUMPI PUSH2 0x2683 PUSH2 0x4461 JUMP JUMPDEST JUMPDEST PUSH1 0x20 MUL ADD DUP2 DUP2 MSTORE POP POP PUSH8 0x2000000000000000 DUP8 PUSH1 0x2 PUSH1 0x19 DUP2 LT PUSH2 0x26AA JUMPI PUSH2 0x26A9 PUSH2 0x4461 JUMP JUMPDEST JUMPDEST PUSH1 0x20 MUL ADD MLOAD PUSH2 0x26B9 SWAP2 SWAP1 PUSH2 0x427F JUMP JUMPDEST PUSH8 0xFFFFFFFFFFFFFFFF PUSH1 0x8 DUP10 PUSH1 0x2 PUSH1 0x19 DUP2 LT PUSH2 0x26D8 JUMPI PUSH2 0x26D7 PUSH2 0x4461 JUMP JUMPDEST JUMPDEST PUSH1 0x20 MUL ADD MLOAD PUSH2 0x26E7 SWAP2 SWAP1 PUSH2 0x42B0 JUMP JUMPDEST AND OR DUP6 PUSH1 0xB PUSH1 0x19 DUP2 LT PUSH2 0x26FD JUMPI PUSH2 0x26FC PUSH2 0x4461 JUMP JUMPDEST JUMPDEST PUSH1 0x20 MUL ADD DUP2 DUP2 MSTORE POP POP PUSH3 0x800000 DUP8 PUSH1 0x3 PUSH1 0x19 DUP2 LT PUSH2 0x271E JUMPI PUSH2 0x271D PUSH2 0x4461 JUMP JUMPDEST JUMPDEST PUSH1 0x20 MUL ADD MLOAD PUSH2 0x272D SWAP2 SWAP1 PUSH2 0x427F JUMP JUMPDEST PUSH8 0xFFFFFFFFFFFFFFFF PUSH6 0x20000000000 DUP10 PUSH1 0x3 PUSH1 0x19 DUP2 LT PUSH2 0x2751 JUMPI PUSH2 0x2750 PUSH2 0x4461 JUMP JUMPDEST JUMPDEST PUSH1 0x20 MUL ADD MLOAD PUSH2 0x2760 SWAP2 SWAP1 PUSH2 0x42B0 JUMP JUMPDEST AND OR DUP6 PUSH1 0x13 PUSH1 0x19 DUP2 LT PUSH2 0x2776 JUMPI PUSH2 0x2775 PUSH2 0x4461 JUMP JUMPDEST JUMPDEST PUSH1 0x20 MUL ADD DUP2 DUP2 MSTORE POP POP PUSH6 0x400000000000 DUP8 PUSH1 0x4 PUSH1 0x19 DUP2 LT PUSH2 0x279A JUMPI PUSH2 0x2799 PUSH2 0x4461 JUMP JUMPDEST JUMPDEST PUSH1 0x20 MUL ADD MLOAD PUSH2 0x27A9 SWAP2 SWAP1 PUSH2 0x427F JUMP JUMPDEST PUSH8 0xFFFFFFFFFFFFFFFF PUSH3 0x40000 DUP10 PUSH1 0x4 PUSH1 0x19 DUP2 LT PUSH2 0x27CA JUMPI PUSH2 0x27C9 PUSH2 0x4461 JUMP JUMPDEST JUMPDEST PUSH1 0x20 MUL ADD MLOAD PUSH2 0x27D9 SWAP2 SWAP1 PUSH2 0x42B0 JUMP JUMPDEST AND OR DUP6 PUSH1 0x16 PUSH1 0x19 DUP2 LT PUSH2 0x27EF JUMPI PUSH2 0x27EE PUSH2 0x4461 JUMP JUMPDEST JUMPDEST PUSH1 0x20 MUL ADD DUP2 DUP2 MSTORE POP POP PUSH8 0x8000000000000000 DUP8 PUSH1 0x5 PUSH1 0x19 DUP2 LT PUSH2 0x2815 JUMPI PUSH2 0x2814 PUSH2 0x4461 JUMP JUMPDEST JUMPDEST PUSH1 0x20 MUL ADD MLOAD PUSH2 0x2824 SWAP2 SWAP1 PUSH2 0x427F JUMP JUMPDEST PUSH8 0xFFFFFFFFFFFFFFFF PUSH1 0x2 DUP10 PUSH1 0x5 PUSH1 0x19 DUP2 LT PUSH2 0x2843 JUMPI PUSH2 0x2842 PUSH2 0x4461 JUMP JUMPDEST JUMPDEST PUSH1 0x20 MUL ADD MLOAD PUSH2 0x2852 SWAP2 SWAP1 PUSH2 0x42B0 JUMP JUMPDEST AND OR DUP6 PUSH1 0x2 PUSH1 0x19 DUP2 LT PUSH2 0x2868 JUMPI PUSH2 0x2867 PUSH2 0x4461 JUMP JUMPDEST JUMPDEST PUSH1 0x20 MUL ADD DUP2 DUP2 MSTORE POP POP PUSH3 0x100000 DUP8 PUSH1 0x6 PUSH1 0x19 DUP2 LT PUSH2 0x2889 JUMPI PUSH2 0x2888 PUSH2 0x4461 JUMP JUMPDEST JUMPDEST PUSH1 0x20 MUL ADD MLOAD PUSH2 0x2898 SWAP2 SWAP1 PUSH2 0x427F JUMP JUMPDEST PUSH8 0xFFFFFFFFFFFFFFFF PUSH6 0x100000000000 DUP10 PUSH1 0x6 PUSH1 0x19 DUP2 LT PUSH2 0x28BC JUMPI PUSH2 0x28BB PUSH2 0x4461 JUMP JUMPDEST JUMPDEST PUSH1 0x20 MUL ADD MLOAD PUSH2 0x28CB SWAP2 SWAP1 PUSH2 0x42B0 JUMP JUMPDEST AND OR DUP6 PUSH1 0x5 PUSH1 0x19 DUP2 LT PUSH2 0x28E1 JUMPI PUSH2 0x28E0 PUSH2 0x4461 JUMP JUMPDEST JUMPDEST PUSH1 0x20 MUL ADD DUP2 DUP2 MSTORE POP POP PUSH7 0x40000000000000 DUP8 PUSH1 0x7 PUSH1 0x19 DUP2 LT PUSH2 0x2906 JUMPI PUSH2 0x2905 PUSH2 0x4461 JUMP JUMPDEST JUMPDEST PUSH1 0x20 MUL ADD MLOAD PUSH2 0x2915 SWAP2 SWAP1 PUSH2 0x427F JUMP JUMPDEST PUSH8 0xFFFFFFFFFFFFFFFF PUSH2 0x400 DUP10 PUSH1 0x7 PUSH1 0x19 DUP2 LT PUSH2 0x2935 JUMPI PUSH2 0x2934 PUSH2 0x4461 JUMP JUMPDEST JUMPDEST PUSH1 0x20 MUL ADD MLOAD PUSH2 0x2944 SWAP2 SWAP1 PUSH2 0x42B0 JUMP JUMPDEST AND OR DUP6 PUSH1 0xD PUSH1 0x19 DUP2 LT PUSH2 0x295A JUMPI PUSH2 0x2959 PUSH2 0x4461 JUMP JUMPDEST JUMPDEST PUSH1 0x20 MUL ADD DUP2 DUP2 MSTORE POP POP PUSH3 0x80000 DUP8 PUSH1 0x8 PUSH1 0x19 DUP2 LT PUSH2 0x297B JUMPI PUSH2 0x297A PUSH2 0x4461 JUMP JUMPDEST JUMPDEST PUSH1 0x20 MUL ADD MLOAD PUSH2 0x298A SWAP2 SWAP1 PUSH2 0x427F JUMP JUMPDEST PUSH8 0xFFFFFFFFFFFFFFFF PUSH6 0x200000000000 DUP10 PUSH1 0x8 PUSH1 0x19 DUP2 LT PUSH2 0x29AE JUMPI PUSH2 0x29AD PUSH2 0x4461 JUMP JUMPDEST JUMPDEST PUSH1 0x20 MUL ADD MLOAD PUSH2 0x29BD SWAP2 SWAP1 PUSH2 0x42B0 JUMP JUMPDEST AND OR DUP6 PUSH1 0x10 PUSH1 0x19 DUP2 LT PUSH2 0x29D3 JUMPI PUSH2 0x29D2 PUSH2 0x4461 JUMP JUMPDEST JUMPDEST PUSH1 0x20 MUL ADD DUP2 DUP2 MSTORE POP POP PUSH8 0x4000000000000000 DUP8 PUSH1 0x9 PUSH1 0x19 DUP2 LT PUSH2 0x29F9 JUMPI PUSH2 0x29F8 PUSH2 0x4461 JUMP JUMPDEST JUMPDEST PUSH1 0x20 MUL ADD MLOAD PUSH2 0x2A08 SWAP2 SWAP1 PUSH2 0x427F JUMP JUMPDEST PUSH8 0xFFFFFFFFFFFFFFFF PUSH1 0x4 DUP10 PUSH1 0x9 PUSH1 0x19 DUP2 LT PUSH2 0x2A27 JUMPI PUSH2 0x2A26 PUSH2 0x4461 JUMP JUMPDEST JUMPDEST PUSH1 0x20 MUL ADD MLOAD PUSH2 0x2A36 SWAP2 SWAP1 PUSH2 0x42B0 JUMP JUMPDEST AND OR DUP6 PUSH1 0x18 PUSH1 0x19 DUP2 LT PUSH2 0x2A4C JUMPI PUSH2 0x2A4B PUSH2 0x4461 JUMP JUMPDEST JUMPDEST PUSH1 0x20 MUL ADD DUP2 DUP2 MSTORE POP POP PUSH1 0x4 DUP8 PUSH1 0xA PUSH1 0x19 DUP2 LT PUSH2 0x2A6B JUMPI PUSH2 0x2A6A PUSH2 0x4461 JUMP JUMPDEST JUMPDEST PUSH1 0x20 MUL ADD MLOAD PUSH2 0x2A7A SWAP2 SWAP1 PUSH2 0x427F JUMP JUMPDEST PUSH8 0xFFFFFFFFFFFFFFFF PUSH8 0x4000000000000000 DUP10 PUSH1 0xA PUSH1 0x19 DUP2 LT PUSH2 0x2AA0 JUMPI PUSH2 0x2A9F PUSH2 0x4461 JUMP JUMPDEST JUMPDEST PUSH1 0x20 MUL ADD MLOAD PUSH2 0x2AAF SWAP2 SWAP1 PUSH2 0x42B0 JUMP JUMPDEST AND OR DUP6 PUSH1 0x4 PUSH1 0x19 DUP2 LT PUSH2 0x2AC5 JUMPI PUSH2 0x2AC4 PUSH2 0x4461 JUMP JUMPDEST JUMPDEST PUSH1 0x20 MUL ADD DUP2 DUP2 MSTORE POP POP PUSH8 0x400000000000000 DUP8 PUSH1 0xB PUSH1 0x19 DUP2 LT PUSH2 0x2AEB JUMPI PUSH2 0x2AEA PUSH2 0x4461 JUMP JUMPDEST JUMPDEST PUSH1 0x20 MUL ADD MLOAD PUSH2 0x2AFA SWAP2 SWAP1 PUSH2 0x427F JUMP JUMPDEST PUSH8 0xFFFFFFFFFFFFFFFF PUSH1 0x40 DUP10 PUSH1 0xB PUSH1 0x19 DUP2 LT PUSH2 0x2B19 JUMPI PUSH2 0x2B18 PUSH2 0x4461 JUMP JUMPDEST JUMPDEST PUSH1 0x20 MUL ADD MLOAD PUSH2 0x2B28 SWAP2 SWAP1 PUSH2 0x42B0 JUMP JUMPDEST AND OR DUP6 PUSH1 0x7 PUSH1 0x19 DUP2 LT PUSH2 0x2B3E JUMPI PUSH2 0x2B3D PUSH2 0x4461 JUMP JUMPDEST JUMPDEST PUSH1 0x20 MUL ADD DUP2 DUP2 MSTORE POP POP PUSH3 0x200000 DUP8 PUSH1 0xC PUSH1 0x19 DUP2 LT PUSH2 0x2B5F JUMPI PUSH2 0x2B5E PUSH2 0x4461 JUMP JUMPDEST JUMPDEST PUSH1 0x20 MUL ADD MLOAD PUSH2 0x2B6E SWAP2 SWAP1 PUSH2 0x427F JUMP JUMPDEST PUSH8 0xFFFFFFFFFFFFFFFF PUSH6 0x80000000000 DUP10 PUSH1 0xC PUSH1 0x19 DUP2 LT PUSH2 0x2B92 JUMPI PUSH2 0x2B91 PUSH2 0x4461 JUMP JUMPDEST JUMPDEST PUSH1 0x20 MUL ADD MLOAD PUSH2 0x2BA1 SWAP2 SWAP1 PUSH2 0x42B0 JUMP JUMPDEST AND OR DUP6 PUSH1 0xA PUSH1 0x19 DUP2 LT PUSH2 0x2BB7 JUMPI PUSH2 0x2BB6 PUSH2 0x4461 JUMP JUMPDEST JUMPDEST PUSH1 0x20 MUL ADD DUP2 DUP2 MSTORE POP POP PUSH7 0x2000000000000 DUP8 PUSH1 0xD PUSH1 0x19 DUP2 LT PUSH2 0x2BDC JUMPI PUSH2 0x2BDB PUSH2 0x4461 JUMP JUMPDEST JUMPDEST PUSH1 0x20 MUL ADD MLOAD PUSH2 0x2BEB SWAP2 SWAP1 PUSH2 0x427F JUMP JUMPDEST PUSH8 0xFFFFFFFFFFFFFFFF PUSH2 0x8000 DUP10 PUSH1 0xD PUSH1 0x19 DUP2 LT PUSH2 0x2C0B JUMPI PUSH2 0x2C0A PUSH2 0x4461 JUMP JUMPDEST JUMPDEST PUSH1 0x20 MUL ADD MLOAD PUSH2 0x2C1A SWAP2 SWAP1 PUSH2 0x42B0 JUMP JUMPDEST AND OR DUP6 PUSH1 0x12 PUSH1 0x19 DUP2 LT PUSH2 0x2C30 JUMPI PUSH2 0x2C2F PUSH2 0x4461 JUMP JUMPDEST JUMPDEST PUSH1 0x20 MUL ADD DUP2 DUP2 MSTORE POP POP PUSH1 0x8 DUP8 PUSH1 0xE PUSH1 0x19 DUP2 LT PUSH2 0x2C4F JUMPI PUSH2 0x2C4E PUSH2 0x4461 JUMP JUMPDEST JUMPDEST PUSH1 0x20 MUL ADD MLOAD PUSH2 0x2C5E SWAP2 SWAP1 PUSH2 0x427F JUMP JUMPDEST PUSH8 0xFFFFFFFFFFFFFFFF PUSH8 0x2000000000000000 DUP10 PUSH1 0xE PUSH1 0x19 DUP2 LT PUSH2 0x2C84 JUMPI PUSH2 0x2C83 PUSH2 0x4461 JUMP JUMPDEST JUMPDEST PUSH1 0x20 MUL ADD MLOAD PUSH2 0x2C93 SWAP2 SWAP1 PUSH2 0x42B0 JUMP JUMPDEST AND OR DUP6 PUSH1 0x15 PUSH1 0x19 DUP2 LT PUSH2 0x2CA9 JUMPI PUSH2 0x2CA8 PUSH2 0x4461 JUMP JUMPDEST JUMPDEST PUSH1 0x20 MUL ADD DUP2 DUP2 MSTORE POP POP PUSH5 0x1000000000 DUP8 PUSH1 0xF PUSH1 0x19 DUP2 LT PUSH2 0x2CCC JUMPI PUSH2 0x2CCB PUSH2 0x4461 JUMP JUMPDEST JUMPDEST PUSH1 0x20 MUL ADD MLOAD PUSH2 0x2CDB SWAP2 SWAP1 PUSH2 0x427F JUMP JUMPDEST PUSH8 0xFFFFFFFFFFFFFFFF PUSH4 0x10000000 DUP10 PUSH1 0xF PUSH1 0x19 DUP2 LT PUSH2 0x2CFD JUMPI PUSH2 0x2CFC PUSH2 0x4461 JUMP JUMPDEST JUMPDEST PUSH1 0x20 MUL ADD MLOAD PUSH2 0x2D0C SWAP2 SWAP1 PUSH2 0x42B0 JUMP JUMPDEST AND OR DUP6 PUSH1 0x1 PUSH1 0x19 DUP2 LT PUSH2 0x2D22 JUMPI PUSH2 0x2D21 PUSH2 0x4461 JUMP JUMPDEST JUMPDEST PUSH1 0x20 MUL ADD DUP2 DUP2 MSTORE POP POP PUSH2 0x200 DUP8 PUSH1 0x10 PUSH1 0x19 DUP2 LT PUSH2 0x2D42 JUMPI PUSH2 0x2D41 PUSH2 0x4461 JUMP JUMPDEST JUMPDEST PUSH1 0x20 MUL ADD MLOAD PUSH2 0x2D51 SWAP2 SWAP1 PUSH2 0x427F JUMP JUMPDEST PUSH8 0xFFFFFFFFFFFFFFFF PUSH7 0x80000000000000 DUP10 PUSH1 0x10 PUSH1 0x19 DUP2 LT PUSH2 0x2D76 JUMPI PUSH2 0x2D75 PUSH2 0x4461 JUMP JUMPDEST JUMPDEST PUSH1 0x20 MUL ADD MLOAD PUSH2 0x2D85 SWAP2 SWAP1 PUSH2 0x42B0 JUMP JUMPDEST AND OR DUP6 PUSH1 0x9 PUSH1 0x19 DUP2 LT PUSH2 0x2D9B JUMPI PUSH2 0x2D9A PUSH2 0x4461 JUMP JUMPDEST JUMPDEST PUSH1 0x20 MUL ADD DUP2 DUP2 MSTORE POP POP PUSH5 0x8000000000 DUP8 PUSH1 0x11 PUSH1 0x19 DUP2 LT PUSH2 0x2DBE JUMPI PUSH2 0x2DBD PUSH2 0x4461 JUMP JUMPDEST JUMPDEST PUSH1 0x20 MUL ADD MLOAD PUSH2 0x2DCD SWAP2 SWAP1 PUSH2 0x427F JUMP JUMPDEST PUSH8 0xFFFFFFFFFFFFFFFF PUSH4 0x2000000 DUP10 PUSH1 0x11 PUSH1 0x19 DUP2 LT PUSH2 0x2DEF JUMPI PUSH2 0x2DEE PUSH2 0x4461 JUMP JUMPDEST JUMPDEST PUSH1 0x20 MUL ADD MLOAD PUSH2 0x2DFE SWAP2 SWAP1 PUSH2 0x42B0 JUMP JUMPDEST AND OR DUP6 PUSH1 0xC PUSH1 0x19 DUP2 LT PUSH2 0x2E14 JUMPI PUSH2 0x2E13 PUSH2 0x4461 JUMP JUMPDEST JUMPDEST PUSH1 0x20 MUL ADD DUP2 DUP2 MSTORE POP POP PUSH6 0x80000000000 DUP8 PUSH1 0x12 PUSH1 0x19 DUP2 LT PUSH2 0x2E38 JUMPI PUSH2 0x2E37 PUSH2 0x4461 JUMP JUMPDEST JUMPDEST PUSH1 0x20 MUL ADD MLOAD PUSH2 0x2E47 SWAP2 SWAP1 PUSH2 0x427F JUMP JUMPDEST PUSH8 0xFFFFFFFFFFFFFFFF PUSH3 0x200000 DUP10 PUSH1 0x12 PUSH1 0x19 DUP2 LT PUSH2 0x2E68 JUMPI PUSH2 0x2E67 PUSH2 0x4461 JUMP JUMPDEST JUMPDEST PUSH1 0x20 MUL ADD MLOAD PUSH2 0x2E77 SWAP2 SWAP1 PUSH2 0x42B0 JUMP JUMPDEST AND OR DUP6 PUSH1 0xF PUSH1 0x19 DUP2 LT PUSH2 0x2E8D JUMPI PUSH2 0x2E8C PUSH2 0x4461 JUMP JUMPDEST JUMPDEST PUSH1 0x20 MUL ADD DUP2 DUP2 MSTORE POP POP PUSH2 0x100 DUP8 PUSH1 0x13 PUSH1 0x19 DUP2 LT PUSH2 0x2EAD JUMPI PUSH2 0x2EAC PUSH2 0x4461 JUMP JUMPDEST JUMPDEST PUSH1 0x20 MUL ADD MLOAD PUSH2 0x2EBC SWAP2 SWAP1 PUSH2 0x427F JUMP JUMPDEST PUSH8 0xFFFFFFFFFFFFFFFF PUSH8 0x100000000000000 DUP10 PUSH1 0x13 PUSH1 0x19 DUP2 LT PUSH2 0x2EE2 JUMPI PUSH2 0x2EE1 PUSH2 0x4461 JUMP JUMPDEST JUMPDEST PUSH1 0x20 MUL ADD MLOAD PUSH2 0x2EF1 SWAP2 SWAP1 PUSH2 0x42B0 JUMP JUMPDEST AND OR DUP6 PUSH1 0x17 PUSH1 0x19 DUP2 LT PUSH2 0x2F07 JUMPI PUSH2 0x2F06 PUSH2 0x4461 JUMP JUMPDEST JUMPDEST PUSH1 0x20 MUL ADD DUP2 DUP2 MSTORE POP POP PUSH5 0x2000000000 DUP8 PUSH1 0x14 PUSH1 0x19 DUP2 LT PUSH2 0x2F2A JUMPI PUSH2 0x2F29 PUSH2 0x4461 JUMP JUMPDEST JUMPDEST PUSH1 0x20 MUL ADD MLOAD PUSH2 0x2F39 SWAP2 SWAP1 PUSH2 0x427F JUMP JUMPDEST PUSH8 0xFFFFFFFFFFFFFFFF PUSH4 0x8000000 DUP10 PUSH1 0x14 PUSH1 0x19 DUP2 LT PUSH2 0x2F5B JUMPI PUSH2 0x2F5A PUSH2 0x4461 JUMP JUMPDEST JUMPDEST PUSH1 0x20 MUL ADD MLOAD PUSH2 0x2F6A SWAP2 SWAP1 PUSH2 0x42B0 JUMP JUMPDEST AND OR DUP6 PUSH1 0x3 PUSH1 0x19 DUP2 LT PUSH2 0x2F80 JUMPI PUSH2 0x2F7F PUSH2 0x4461 JUMP JUMPDEST JUMPDEST PUSH1 0x20 MUL ADD DUP2 DUP2 MSTORE POP POP PUSH6 0x100000000000 DUP8 PUSH1 0x15 PUSH1 0x19 DUP2 LT PUSH2 0x2FA4 JUMPI PUSH2 0x2FA3 PUSH2 0x4461 JUMP JUMPDEST JUMPDEST PUSH1 0x20 MUL ADD MLOAD PUSH2 0x2FB3 SWAP2 SWAP1 PUSH2 0x427F JUMP JUMPDEST PUSH8 0xFFFFFFFFFFFFFFFF PUSH3 0x100000 DUP10 PUSH1 0x15 PUSH1 0x19 DUP2 LT PUSH2 0x2FD4 JUMPI PUSH2 0x2FD3 PUSH2 0x4461 JUMP JUMPDEST JUMPDEST PUSH1 0x20 MUL ADD MLOAD PUSH2 0x2FE3 SWAP2 SWAP1 PUSH2 0x42B0 JUMP JUMPDEST AND OR DUP6 PUSH1 0x6 PUSH1 0x19 DUP2 LT PUSH2 0x2FF9 JUMPI PUSH2 0x2FF8 PUSH2 0x4461 JUMP JUMPDEST JUMPDEST PUSH1 0x20 MUL ADD DUP2 DUP2 MSTORE POP POP PUSH4 0x2000000 DUP8 PUSH1 0x16 PUSH1 0x19 DUP2 LT PUSH2 0x301B JUMPI PUSH2 0x301A PUSH2 0x4461 JUMP JUMPDEST JUMPDEST PUSH1 0x20 MUL ADD MLOAD PUSH2 0x302A SWAP2 SWAP1 PUSH2 0x427F JUMP JUMPDEST PUSH8 0xFFFFFFFFFFFFFFFF PUSH5 0x8000000000 DUP10 PUSH1 0x16 PUSH1 0x19 DUP2 LT PUSH2 0x304D JUMPI PUSH2 0x304C PUSH2 0x4461 JUMP JUMPDEST JUMPDEST PUSH1 0x20 MUL ADD MLOAD PUSH2 0x305C SWAP2 SWAP1 PUSH2 0x42B0 JUMP JUMPDEST AND OR DUP6 PUSH1 0xE PUSH1 0x19 DUP2 LT PUSH2 0x3072 JUMPI PUSH2 0x3071 PUSH2 0x4461 JUMP JUMPDEST JUMPDEST PUSH1 0x20 MUL ADD DUP2 DUP2 MSTORE POP POP PUSH8 0x100000000000000 DUP8 PUSH1 0x17 PUSH1 0x19 DUP2 LT PUSH2 0x3098 JUMPI PUSH2 0x3097 PUSH2 0x4461 JUMP JUMPDEST JUMPDEST PUSH1 0x20 MUL ADD MLOAD PUSH2 0x30A7 SWAP2 SWAP1 PUSH2 0x427F JUMP JUMPDEST PUSH8 0xFFFFFFFFFFFFFFFF PUSH2 0x100 DUP10 PUSH1 0x17 PUSH1 0x19 DUP2 LT PUSH2 0x30C7 JUMPI PUSH2 0x30C6 PUSH2 0x4461 JUMP JUMPDEST JUMPDEST PUSH1 0x20 MUL ADD MLOAD PUSH2 0x30D6 SWAP2 SWAP1 PUSH2 0x42B0 JUMP JUMPDEST AND OR DUP6 PUSH1 0x11 PUSH1 0x19 DUP2 LT PUSH2 0x30EC JUMPI PUSH2 0x30EB PUSH2 0x4461 JUMP JUMPDEST JUMPDEST PUSH1 0x20 MUL ADD DUP2 DUP2 MSTORE POP POP PUSH7 0x4000000000000 DUP8 PUSH1 0x18 PUSH1 0x19 DUP2 LT PUSH2 0x3111 JUMPI PUSH2 0x3110 PUSH2 0x4461 JUMP JUMPDEST JUMPDEST PUSH1 0x20 MUL ADD MLOAD PUSH2 0x3120 SWAP2 SWAP1 PUSH2 0x427F JUMP JUMPDEST PUSH8 0xFFFFFFFFFFFFFFFF PUSH2 0x4000 DUP10 PUSH1 0x18 PUSH1 0x19 DUP2 LT PUSH2 0x3140 JUMPI PUSH2 0x313F PUSH2 0x4461 JUMP JUMPDEST JUMPDEST PUSH1 0x20 MUL ADD MLOAD PUSH2 0x314F SWAP2 SWAP1 PUSH2 0x42B0 JUMP JUMPDEST AND OR DUP6 PUSH1 0x14 PUSH1 0x19 DUP2 LT PUSH2 0x3165 JUMPI PUSH2 0x3164 PUSH2 0x4461 JUMP JUMPDEST JUMPDEST PUSH1 0x20 MUL ADD DUP2 DUP2 MSTORE POP POP DUP5 PUSH1 0xA PUSH1 0x19 DUP2 LT PUSH2 0x3182 JUMPI PUSH2 0x3181 PUSH2 0x4461 JUMP JUMPDEST JUMPDEST PUSH1 0x20 MUL ADD MLOAD DUP6 PUSH1 0x5 PUSH1 0x19 DUP2 LT PUSH2 0x319B JUMPI PUSH2 0x319A PUSH2 0x4461 JUMP JUMPDEST JUMPDEST PUSH1 0x20 MUL ADD MLOAD NOT AND DUP6 PUSH1 0x0 PUSH1 0x19 DUP2 LT PUSH2 0x31B6 JUMPI PUSH2 0x31B5 PUSH2 0x4461 JUMP JUMPDEST JUMPDEST PUSH1 0x20 MUL ADD MLOAD XOR DUP8 PUSH1 0x0 PUSH1 0x19 DUP2 LT PUSH2 0x31D0 JUMPI PUSH2 0x31CF PUSH2 0x4461 JUMP JUMPDEST JUMPDEST PUSH1 0x20 MUL ADD DUP2 DUP2 MSTORE POP POP DUP5 PUSH1 0xB PUSH1 0x19 DUP2 LT PUSH2 0x31ED JUMPI PUSH2 0x31EC PUSH2 0x4461 JUMP JUMPDEST JUMPDEST PUSH1 0x20 MUL ADD MLOAD DUP6 PUSH1 0x6 PUSH1 0x19 DUP2 LT PUSH2 0x3206 JUMPI PUSH2 0x3205 PUSH2 0x4461 JUMP JUMPDEST JUMPDEST PUSH1 0x20 MUL ADD MLOAD NOT AND DUP6 PUSH1 0x1 PUSH1 0x19 DUP2 LT PUSH2 0x3221 JUMPI PUSH2 0x3220 PUSH2 0x4461 JUMP JUMPDEST JUMPDEST PUSH1 0x20 MUL ADD MLOAD XOR DUP8 PUSH1 0x1 PUSH1 0x19 DUP2 LT PUSH2 0x323B JUMPI PUSH2 0x323A PUSH2 0x4461 JUMP JUMPDEST JUMPDEST PUSH1 0x20 MUL ADD DUP2 DUP2 MSTORE POP POP DUP5 PUSH1 0xC PUSH1 0x19 DUP2 LT PUSH2 0x3258 JUMPI PUSH2 0x3257 PUSH2 0x4461 JUMP JUMPDEST JUMPDEST PUSH1 0x20 MUL ADD MLOAD DUP6 PUSH1 0x7 PUSH1 0x19 DUP2 LT PUSH2 0x3271 JUMPI PUSH2 0x3270 PUSH2 0x4461 JUMP JUMPDEST JUMPDEST PUSH1 0x20 MUL ADD MLOAD NOT AND DUP6 PUSH1 0x2 PUSH1 0x19 DUP2 LT PUSH2 0x328C JUMPI PUSH2 0x328B PUSH2 0x4461 JUMP JUMPDEST JUMPDEST PUSH1 0x20 MUL ADD MLOAD XOR DUP8 PUSH1 0x2 PUSH1 0x19 DUP2 LT PUSH2 0x32A6 JUMPI PUSH2 0x32A5 PUSH2 0x4461 JUMP JUMPDEST JUMPDEST PUSH1 0x20 MUL ADD DUP2 DUP2 MSTORE POP POP DUP5 PUSH1 0xD PUSH1 0x19 DUP2 LT PUSH2 0x32C3 JUMPI PUSH2 0x32C2 PUSH2 0x4461 JUMP JUMPDEST JUMPDEST PUSH1 0x20 MUL ADD MLOAD DUP6 PUSH1 0x8 PUSH1 0x19 DUP2 LT PUSH2 0x32DC JUMPI PUSH2 0x32DB PUSH2 0x4461 JUMP JUMPDEST JUMPDEST PUSH1 0x20 MUL ADD MLOAD NOT AND DUP6 PUSH1 0x3 PUSH1 0x19 DUP2 LT PUSH2 0x32F7 JUMPI PUSH2 0x32F6 PUSH2 0x4461 JUMP JUMPDEST JUMPDEST PUSH1 0x20 MUL ADD MLOAD XOR DUP8 PUSH1 0x3 PUSH1 0x19 DUP2 LT PUSH2 0x3311 JUMPI PUSH2 0x3310 PUSH2 0x4461 JUMP JUMPDEST JUMPDEST PUSH1 0x20 MUL ADD DUP2 DUP2 MSTORE POP POP DUP5 PUSH1 0xE PUSH1 0x19 DUP2 LT PUSH2 0x332E JUMPI PUSH2 0x332D PUSH2 0x4461 JUMP JUMPDEST JUMPDEST PUSH1 0x20 MUL ADD MLOAD DUP6 PUSH1 0x9 PUSH1 0x19 DUP2 LT PUSH2 0x3347 JUMPI PUSH2 0x3346 PUSH2 0x4461 JUMP JUMPDEST JUMPDEST PUSH1 0x20 MUL ADD MLOAD NOT AND DUP6 PUSH1 0x4 PUSH1 0x19 DUP2 LT PUSH2 0x3362 JUMPI PUSH2 0x3361 PUSH2 0x4461 JUMP JUMPDEST JUMPDEST PUSH1 0x20 MUL ADD MLOAD XOR DUP8 PUSH1 0x4 PUSH1 0x19 DUP2 LT PUSH2 0x337C JUMPI PUSH2 0x337B PUSH2 0x4461 JUMP JUMPDEST JUMPDEST PUSH1 0x20 MUL ADD DUP2 DUP2 MSTORE POP POP DUP5 PUSH1 0xF PUSH1 0x19 DUP2 LT PUSH2 0x3399 JUMPI PUSH2 0x3398 PUSH2 0x4461 JUMP JUMPDEST JUMPDEST PUSH1 0x20 MUL ADD MLOAD DUP6 PUSH1 0xA PUSH1 0x19 DUP2 LT PUSH2 0x33B2 JUMPI PUSH2 0x33B1 PUSH2 0x4461 JUMP JUMPDEST JUMPDEST PUSH1 0x20 MUL ADD MLOAD NOT AND DUP6 PUSH1 0x5 PUSH1 0x19 DUP2 LT PUSH2 0x33CD JUMPI PUSH2 0x33CC PUSH2 0x4461 JUMP JUMPDEST JUMPDEST PUSH1 0x20 MUL ADD MLOAD XOR DUP8 PUSH1 0x5 PUSH1 0x19 DUP2 LT PUSH2 0x33E7 JUMPI PUSH2 0x33E6 PUSH2 0x4461 JUMP JUMPDEST JUMPDEST PUSH1 0x20 MUL ADD DUP2 DUP2 MSTORE POP POP DUP5 PUSH1 0x10 PUSH1 0x19 DUP2 LT PUSH2 0x3404 JUMPI PUSH2 0x3403 PUSH2 0x4461 JUMP JUMPDEST JUMPDEST PUSH1 0x20 MUL ADD MLOAD DUP6 PUSH1 0xB PUSH1 0x19 DUP2 LT PUSH2 0x341D JUMPI PUSH2 0x341C PUSH2 0x4461 JUMP JUMPDEST JUMPDEST PUSH1 0x20 MUL ADD MLOAD NOT AND DUP6 PUSH1 0x6 PUSH1 0x19 DUP2 LT PUSH2 0x3438 JUMPI PUSH2 0x3437 PUSH2 0x4461 JUMP JUMPDEST JUMPDEST PUSH1 0x20 MUL ADD MLOAD XOR DUP8 PUSH1 0x6 PUSH1 0x19 DUP2 LT PUSH2 0x3452 JUMPI PUSH2 0x3451 PUSH2 0x4461 JUMP JUMPDEST JUMPDEST PUSH1 0x20 MUL ADD DUP2 DUP2 MSTORE POP POP DUP5 PUSH1 0x11 PUSH1 0x19 DUP2 LT PUSH2 0x346F JUMPI PUSH2 0x346E PUSH2 0x4461 JUMP JUMPDEST JUMPDEST PUSH1 0x20 MUL ADD MLOAD DUP6 PUSH1 0xC PUSH1 0x19 DUP2 LT PUSH2 0x3488 JUMPI PUSH2 0x3487 PUSH2 0x4461 JUMP JUMPDEST JUMPDEST PUSH1 0x20 MUL ADD MLOAD NOT AND DUP6 PUSH1 0x7 PUSH1 0x19 DUP2 LT PUSH2 0x34A3 JUMPI PUSH2 0x34A2 PUSH2 0x4461 JUMP JUMPDEST JUMPDEST PUSH1 0x20 MUL ADD MLOAD XOR DUP8 PUSH1 0x7 PUSH1 0x19 DUP2 LT PUSH2 0x34BD JUMPI PUSH2 0x34BC PUSH2 0x4461 JUMP JUMPDEST JUMPDEST PUSH1 0x20 MUL ADD DUP2 DUP2 MSTORE POP POP DUP5 PUSH1 0x12 PUSH1 0x19 DUP2 LT PUSH2 0x34DA JUMPI PUSH2 0x34D9 PUSH2 0x4461 JUMP JUMPDEST JUMPDEST PUSH1 0x20 MUL ADD MLOAD DUP6 PUSH1 0xD PUSH1 0x19 DUP2 LT PUSH2 0x34F3 JUMPI PUSH2 0x34F2 PUSH2 0x4461 JUMP JUMPDEST JUMPDEST PUSH1 0x20 MUL ADD MLOAD NOT AND DUP6 PUSH1 0x8 PUSH1 0x19 DUP2 LT PUSH2 0x350E JUMPI PUSH2 0x350D PUSH2 0x4461 JUMP JUMPDEST JUMPDEST PUSH1 0x20 MUL ADD MLOAD XOR DUP8 PUSH1 0x8 PUSH1 0x19 DUP2 LT PUSH2 0x3528 JUMPI PUSH2 0x3527 PUSH2 0x4461 JUMP JUMPDEST JUMPDEST PUSH1 0x20 MUL ADD DUP2 DUP2 MSTORE POP POP DUP5 PUSH1 0x13 PUSH1 0x19 DUP2 LT PUSH2 0x3545 JUMPI PUSH2 0x3544 PUSH2 0x4461 JUMP JUMPDEST JUMPDEST PUSH1 0x20 MUL ADD MLOAD DUP6 PUSH1 0xE PUSH1 0x19 DUP2 LT PUSH2 0x355E JUMPI PUSH2 0x355D PUSH2 0x4461 JUMP JUMPDEST JUMPDEST PUSH1 0x20 MUL ADD MLOAD NOT AND DUP6 PUSH1 0x9 PUSH1 0x19 DUP2 LT PUSH2 0x3579 JUMPI PUSH2 0x3578 PUSH2 0x4461 JUMP JUMPDEST JUMPDEST PUSH1 0x20 MUL ADD MLOAD XOR DUP8 PUSH1 0x9 PUSH1 0x19 DUP2 LT PUSH2 0x3593 JUMPI PUSH2 0x3592 PUSH2 0x4461 JUMP JUMPDEST JUMPDEST PUSH1 0x20 MUL ADD DUP2 DUP2 MSTORE POP POP DUP5 PUSH1 0x14 PUSH1 0x19 DUP2 LT PUSH2 0x35B0 JUMPI PUSH2 0x35AF PUSH2 0x4461 JUMP JUMPDEST JUMPDEST PUSH1 0x20 MUL ADD MLOAD DUP6 PUSH1 0xF PUSH1 0x19 DUP2 LT PUSH2 0x35C9 JUMPI PUSH2 0x35C8 PUSH2 0x4461 JUMP JUMPDEST JUMPDEST PUSH1 0x20 MUL ADD MLOAD NOT AND DUP6 PUSH1 0xA PUSH1 0x19 DUP2 LT PUSH2 0x35E4 JUMPI PUSH2 0x35E3 PUSH2 0x4461 JUMP JUMPDEST JUMPDEST PUSH1 0x20 MUL ADD MLOAD XOR DUP8 PUSH1 0xA PUSH1 0x19 DUP2 LT PUSH2 0x35FE JUMPI PUSH2 0x35FD PUSH2 0x4461 JUMP JUMPDEST JUMPDEST PUSH1 0x20 MUL ADD DUP2 DUP2 MSTORE POP POP DUP5 PUSH1 0x15 PUSH1 0x19 DUP2 LT PUSH2 0x361B JUMPI PUSH2 0x361A PUSH2 0x4461 JUMP JUMPDEST JUMPDEST PUSH1 0x20 MUL ADD MLOAD DUP6 PUSH1 0x10 PUSH1 0x19 DUP2 LT PUSH2 0x3634 JUMPI PUSH2 0x3633 PUSH2 0x4461 JUMP JUMPDEST JUMPDEST PUSH1 0x20 MUL ADD MLOAD NOT AND DUP6 PUSH1 0xB PUSH1 0x19 DUP2 LT PUSH2 0x364F JUMPI PUSH2 0x364E PUSH2 0x4461 JUMP JUMPDEST JUMPDEST PUSH1 0x20 MUL ADD MLOAD XOR DUP8 PUSH1 0xB PUSH1 0x19 DUP2 LT PUSH2 0x3669 JUMPI PUSH2 0x3668 PUSH2 0x4461 JUMP JUMPDEST JUMPDEST PUSH1 0x20 MUL ADD DUP2 DUP2 MSTORE POP POP DUP5 PUSH1 0x16 PUSH1 0x19 DUP2 LT PUSH2 0x3686 JUMPI PUSH2 0x3685 PUSH2 0x4461 JUMP JUMPDEST JUMPDEST PUSH1 0x20 MUL ADD MLOAD DUP6 PUSH1 0x11 PUSH1 0x19 DUP2 LT PUSH2 0x369F JUMPI PUSH2 0x369E PUSH2 0x4461 JUMP JUMPDEST JUMPDEST PUSH1 0x20 MUL ADD MLOAD NOT AND DUP6 PUSH1 0xC PUSH1 0x19 DUP2 LT PUSH2 0x36BA JUMPI PUSH2 0x36B9 PUSH2 0x4461 JUMP JUMPDEST JUMPDEST PUSH1 0x20 MUL ADD MLOAD XOR DUP8 PUSH1 0xC PUSH1 0x19 DUP2 LT PUSH2 0x36D4 JUMPI PUSH2 0x36D3 PUSH2 0x4461 JUMP JUMPDEST JUMPDEST PUSH1 0x20 MUL ADD DUP2 DUP2 MSTORE POP POP DUP5 PUSH1 0x17 PUSH1 0x19 DUP2 LT PUSH2 0x36F1 JUMPI PUSH2 0x36F0 PUSH2 0x4461 JUMP JUMPDEST JUMPDEST PUSH1 0x20 MUL ADD MLOAD DUP6 PUSH1 0x12 PUSH1 0x19 DUP2 LT PUSH2 0x370A JUMPI PUSH2 0x3709 PUSH2 0x4461 JUMP JUMPDEST JUMPDEST PUSH1 0x20 MUL ADD MLOAD NOT AND DUP6 PUSH1 0xD PUSH1 0x19 DUP2 LT PUSH2 0x3725 JUMPI PUSH2 0x3724 PUSH2 0x4461 JUMP JUMPDEST JUMPDEST PUSH1 0x20 MUL ADD MLOAD XOR DUP8 PUSH1 0xD PUSH1 0x19 DUP2 LT PUSH2 0x373F JUMPI PUSH2 0x373E PUSH2 0x4461 JUMP JUMPDEST JUMPDEST PUSH1 0x20 MUL ADD DUP2 DUP2 MSTORE POP POP DUP5 PUSH1 0x18 PUSH1 0x19 DUP2 LT PUSH2 0x375C JUMPI PUSH2 0x375B PUSH2 0x4461 JUMP JUMPDEST JUMPDEST PUSH1 0x20 MUL ADD MLOAD DUP6 PUSH1 0x13 PUSH1 0x19 DUP2 LT PUSH2 0x3775 JUMPI PUSH2 0x3774 PUSH2 0x4461 JUMP JUMPDEST JUMPDEST PUSH1 0x20 MUL ADD MLOAD NOT AND DUP6 PUSH1 0xE PUSH1 0x19 DUP2 LT PUSH2 0x3790 JUMPI PUSH2 0x378F PUSH2 0x4461 JUMP JUMPDEST JUMPDEST PUSH1 0x20 MUL ADD MLOAD XOR DUP8 PUSH1 0xE PUSH1 0x19 DUP2 LT PUSH2 0x37AA JUMPI PUSH2 0x37A9 PUSH2 0x4461 JUMP JUMPDEST JUMPDEST PUSH1 0x20 MUL ADD DUP2 DUP2 MSTORE POP POP DUP5 PUSH1 0x0 PUSH1 0x19 DUP2 LT PUSH2 0x37C7 JUMPI PUSH2 0x37C6 PUSH2 0x4461 JUMP JUMPDEST JUMPDEST PUSH1 0x20 MUL ADD MLOAD DUP6 PUSH1 0x14 PUSH1 0x19 DUP2 LT PUSH2 0x37E0 JUMPI PUSH2 0x37DF PUSH2 0x4461 JUMP JUMPDEST JUMPDEST PUSH1 0x20 MUL ADD MLOAD NOT AND DUP6 PUSH1 0xF PUSH1 0x19 DUP2 LT PUSH2 0x37FB JUMPI PUSH2 0x37FA PUSH2 0x4461 JUMP JUMPDEST JUMPDEST PUSH1 0x20 MUL ADD MLOAD XOR DUP8 PUSH1 0xF PUSH1 0x19 DUP2 LT PUSH2 0x3815 JUMPI PUSH2 0x3814 PUSH2 0x4461 JUMP JUMPDEST JUMPDEST PUSH1 0x20 MUL ADD DUP2 DUP2 MSTORE POP POP DUP5 PUSH1 0x1 PUSH1 0x19 DUP2 LT PUSH2 0x3832 JUMPI PUSH2 0x3831 PUSH2 0x4461 JUMP JUMPDEST JUMPDEST PUSH1 0x20 MUL ADD MLOAD DUP6 PUSH1 0x15 PUSH1 0x19 DUP2 LT PUSH2 0x384B JUMPI PUSH2 0x384A PUSH2 0x4461 JUMP JUMPDEST JUMPDEST PUSH1 0x20 MUL ADD MLOAD NOT AND DUP6 PUSH1 0x10 PUSH1 0x19 DUP2 LT PUSH2 0x3866 JUMPI PUSH2 0x3865 PUSH2 0x4461 JUMP JUMPDEST JUMPDEST PUSH1 0x20 MUL ADD MLOAD XOR DUP8 PUSH1 0x10 PUSH1 0x19 DUP2 LT PUSH2 0x3880 JUMPI PUSH2 0x387F PUSH2 0x4461 JUMP JUMPDEST JUMPDEST PUSH1 0x20 MUL ADD DUP2 DUP2 MSTORE POP POP DUP5 PUSH1 0x2 PUSH1 0x19 DUP2 LT PUSH2 0x389D JUMPI PUSH2 0x389C PUSH2 0x4461 JUMP JUMPDEST JUMPDEST PUSH1 0x20 MUL ADD MLOAD DUP6 PUSH1 0x16 PUSH1 0x19 DUP2 LT PUSH2 0x38B6 JUMPI PUSH2 0x38B5 PUSH2 0x4461 JUMP JUMPDEST JUMPDEST PUSH1 0x20 MUL ADD MLOAD NOT AND DUP6 PUSH1 0x11 PUSH1 0x19 DUP2 LT PUSH2 0x38D1 JUMPI PUSH2 0x38D0 PUSH2 0x4461 JUMP JUMPDEST JUMPDEST PUSH1 0x20 MUL ADD MLOAD XOR DUP8 PUSH1 0x11 PUSH1 0x19 DUP2 LT PUSH2 0x38EB JUMPI PUSH2 0x38EA PUSH2 0x4461 JUMP JUMPDEST JUMPDEST PUSH1 0x20 MUL ADD DUP2 DUP2 MSTORE POP POP DUP5 PUSH1 0x3 PUSH1 0x19 DUP2 LT PUSH2 0x3908 JUMPI PUSH2 0x3907 PUSH2 0x4461 JUMP JUMPDEST JUMPDEST PUSH1 0x20 MUL ADD MLOAD DUP6 PUSH1 0x17 PUSH1 0x19 DUP2 LT PUSH2 0x3921 JUMPI PUSH2 0x3920 PUSH2 0x4461 JUMP JUMPDEST JUMPDEST PUSH1 0x20 MUL ADD MLOAD NOT AND DUP6 PUSH1 0x12 PUSH1 0x19 DUP2 LT PUSH2 0x393C JUMPI PUSH2 0x393B PUSH2 0x4461 JUMP JUMPDEST JUMPDEST PUSH1 0x20 MUL ADD MLOAD XOR DUP8 PUSH1 0x12 PUSH1 0x19 DUP2 LT PUSH2 0x3956 JUMPI PUSH2 0x3955 PUSH2 0x4461 JUMP JUMPDEST JUMPDEST PUSH1 0x20 MUL ADD DUP2 DUP2 MSTORE POP POP DUP5 PUSH1 0x4 PUSH1 0x19 DUP2 LT PUSH2 0x3973 JUMPI PUSH2 0x3972 PUSH2 0x4461 JUMP JUMPDEST JUMPDEST PUSH1 0x20 MUL ADD MLOAD DUP6 PUSH1 0x18 PUSH1 0x19 DUP2 LT PUSH2 0x398C JUMPI PUSH2 0x398B PUSH2 0x4461 JUMP JUMPDEST JUMPDEST PUSH1 0x20 MUL ADD MLOAD NOT AND DUP6 PUSH1 0x13 PUSH1 0x19 DUP2 LT PUSH2 0x39A7 JUMPI PUSH2 0x39A6 PUSH2 0x4461 JUMP JUMPDEST JUMPDEST PUSH1 0x20 MUL ADD MLOAD XOR DUP8 PUSH1 0x13 PUSH1 0x19 DUP2 LT PUSH2 0x39C1 JUMPI PUSH2 0x39C0 PUSH2 0x4461 JUMP JUMPDEST JUMPDEST PUSH1 0x20 MUL ADD DUP2 DUP2 MSTORE POP POP DUP5 PUSH1 0x5 PUSH1 0x19 DUP2 LT PUSH2 0x39DE JUMPI PUSH2 0x39DD PUSH2 0x4461 JUMP JUMPDEST JUMPDEST PUSH1 0x20 MUL ADD MLOAD DUP6 PUSH1 0x0 PUSH1 0x19 DUP2 LT PUSH2 0x39F7 JUMPI PUSH2 0x39F6 PUSH2 0x4461 JUMP JUMPDEST JUMPDEST PUSH1 0x20 MUL ADD MLOAD NOT AND DUP6 PUSH1 0x14 PUSH1 0x19 DUP2 LT PUSH2 0x3A12 JUMPI PUSH2 0x3A11 PUSH2 0x4461 JUMP JUMPDEST JUMPDEST PUSH1 0x20 MUL ADD MLOAD XOR DUP8 PUSH1 0x14 PUSH1 0x19 DUP2 LT PUSH2 0x3A2C JUMPI PUSH2 0x3A2B PUSH2 0x4461 JUMP JUMPDEST JUMPDEST PUSH1 0x20 MUL ADD DUP2 DUP2 MSTORE POP POP DUP5 PUSH1 0x6 PUSH1 0x19 DUP2 LT PUSH2 0x3A49 JUMPI PUSH2 0x3A48 PUSH2 0x4461 JUMP JUMPDEST JUMPDEST PUSH1 0x20 MUL ADD MLOAD DUP6 PUSH1 0x1 PUSH1 0x19 DUP2 LT PUSH2 0x3A62 JUMPI PUSH2 0x3A61 PUSH2 0x4461 JUMP JUMPDEST JUMPDEST PUSH1 0x20 MUL ADD MLOAD NOT AND DUP6 PUSH1 0x15 PUSH1 0x19 DUP2 LT PUSH2 0x3A7D JUMPI PUSH2 0x3A7C PUSH2 0x4461 JUMP JUMPDEST JUMPDEST PUSH1 0x20 MUL ADD MLOAD XOR DUP8 PUSH1 0x15 PUSH1 0x19 DUP2 LT PUSH2 0x3A97 JUMPI PUSH2 0x3A96 PUSH2 0x4461 JUMP JUMPDEST JUMPDEST PUSH1 0x20 MUL ADD DUP2 DUP2 MSTORE POP POP DUP5 PUSH1 0x7 PUSH1 0x19 DUP2 LT PUSH2 0x3AB4 JUMPI PUSH2 0x3AB3 PUSH2 0x4461 JUMP JUMPDEST JUMPDEST PUSH1 0x20 MUL ADD MLOAD DUP6 PUSH1 0x2 PUSH1 0x19 DUP2 LT PUSH2 0x3ACD JUMPI PUSH2 0x3ACC PUSH2 0x4461 JUMP JUMPDEST JUMPDEST PUSH1 0x20 MUL ADD MLOAD NOT AND DUP6 PUSH1 0x16 PUSH1 0x19 DUP2 LT PUSH2 0x3AE8 JUMPI PUSH2 0x3AE7 PUSH2 0x4461 JUMP JUMPDEST JUMPDEST PUSH1 0x20 MUL ADD MLOAD XOR DUP8 PUSH1 0x16 PUSH1 0x19 DUP2 LT PUSH2 0x3B02 JUMPI PUSH2 0x3B01 PUSH2 0x4461 JUMP JUMPDEST JUMPDEST PUSH1 0x20 MUL ADD DUP2 DUP2 MSTORE POP POP DUP5 PUSH1 0x8 PUSH1 0x19 DUP2 LT PUSH2 0x3B1F JUMPI PUSH2 0x3B1E PUSH2 0x4461 JUMP JUMPDEST JUMPDEST PUSH1 0x20 MUL ADD MLOAD DUP6 PUSH1 0x3 PUSH1 0x19 DUP2 LT PUSH2 0x3B38 JUMPI PUSH2 0x3B37 PUSH2 0x4461 JUMP JUMPDEST JUMPDEST PUSH1 0x20 MUL ADD MLOAD NOT AND DUP6 PUSH1 0x17 PUSH1 0x19 DUP2 LT PUSH2 0x3B53 JUMPI PUSH2 0x3B52 PUSH2 0x4461 JUMP JUMPDEST JUMPDEST PUSH1 0x20 MUL ADD MLOAD XOR DUP8 PUSH1 0x17 PUSH1 0x19 DUP2 LT PUSH2 0x3B6D JUMPI PUSH2 0x3B6C PUSH2 0x4461 JUMP JUMPDEST JUMPDEST PUSH1 0x20 MUL ADD DUP2 DUP2 MSTORE POP POP DUP5 PUSH1 0x9 PUSH1 0x19 DUP2 LT PUSH2 0x3B8A JUMPI PUSH2 0x3B89 PUSH2 0x4461 JUMP JUMPDEST JUMPDEST PUSH1 0x20 MUL ADD MLOAD DUP6 PUSH1 0x4 PUSH1 0x19 DUP2 LT PUSH2 0x3BA3 JUMPI PUSH2 0x3BA2 PUSH2 0x4461 JUMP JUMPDEST JUMPDEST PUSH1 0x20 MUL ADD MLOAD NOT AND DUP6 PUSH1 0x18 PUSH1 0x19 DUP2 LT PUSH2 0x3BBE JUMPI PUSH2 0x3BBD PUSH2 0x4461 JUMP JUMPDEST JUMPDEST PUSH1 0x20 MUL ADD MLOAD XOR DUP8 PUSH1 0x18 PUSH1 0x19 DUP2 LT PUSH2 0x3BD8 JUMPI PUSH2 0x3BD7 PUSH2 0x4461 JUMP JUMPDEST JUMPDEST PUSH1 0x20 MUL ADD DUP2 DUP2 MSTORE POP POP DUP2 DUP2 PUSH1 0x18 DUP2 LT PUSH2 0x3BF4 JUMPI PUSH2 0x3BF3 PUSH2 0x4461 JUMP JUMPDEST JUMPDEST PUSH1 0x20 MUL ADD MLOAD DUP8 PUSH1 0x0 PUSH1 0x19 DUP2 LT PUSH2 0x3C0D JUMPI PUSH2 0x3C0C PUSH2 0x4461 JUMP JUMPDEST JUMPDEST PUSH1 0x20 MUL ADD MLOAD XOR DUP8 PUSH1 0x0 PUSH1 0x19 DUP2 LT PUSH2 0x3C27 JUMPI PUSH2 0x3C26 PUSH2 0x4461 JUMP JUMPDEST JUMPDEST PUSH1 0x20 MUL ADD DUP2 DUP2 MSTORE POP POP DUP1 DUP1 PUSH2 0x3C3B SWAP1 PUSH2 0x437F JUMP JUMPDEST SWAP2 POP POP PUSH2 0x1810 JUMP JUMPDEST POP DUP6 SWAP5 POP POP POP POP POP SWAP2 SWAP1 POP JUMP JUMPDEST PUSH1 0x40 MLOAD DUP1 PUSH2 0x200 ADD PUSH1 0x40 MSTORE DUP1 PUSH1 0x10 SWAP1 PUSH1 0x20 DUP3 MUL DUP1 CALLDATASIZE DUP4 CALLDATACOPY DUP1 DUP3 ADD SWAP2 POP POP SWAP1 POP POP SWAP1 JUMP JUMPDEST PUSH1 0x40 MLOAD DUP1 PUSH2 0x400 ADD PUSH1 0x40 MSTORE DUP1 PUSH1 0x20 SWAP1 PUSH1 0x20 DUP3 MUL DUP1 CALLDATASIZE DUP4 CALLDATACOPY DUP1 DUP3 ADD SWAP2 POP POP SWAP1 POP POP SWAP1 JUMP JUMPDEST PUSH1 0x40 MLOAD DUP1 PUSH2 0x100 ADD PUSH1 0x40 MSTORE DUP1 PUSH1 0x8 SWAP1 PUSH1 0x20 DUP3 MUL DUP1 CALLDATASIZE DUP4 CALLDATACOPY DUP1 DUP3 ADD SWAP2 POP POP SWAP1 POP POP SWAP1 JUMP JUMPDEST PUSH1 0x40 MLOAD DUP1 PUSH2 0x120 ADD PUSH1 0x40 MSTORE DUP1 PUSH1 0x9 SWAP1 PUSH1 0x20 DUP3 MUL DUP1 CALLDATASIZE DUP4 CALLDATACOPY DUP1 DUP3 ADD SWAP2 POP POP SWAP1 POP POP SWAP1 JUMP JUMPDEST PUSH1 0x40 MLOAD DUP1 PUSH2 0x320 ADD PUSH1 0x40 MSTORE DUP1 PUSH1 0x19 SWAP1 PUSH1 0x20 DUP3 MUL DUP1 CALLDATASIZE DUP4 CALLDATACOPY DUP1 DUP3 ADD SWAP2 POP POP SWAP1 POP POP SWAP1 JUMP JUMPDEST PUSH1 0x40 MLOAD DUP1 PUSH1 0xA0 ADD PUSH1 0x40 MSTORE DUP1 PUSH1 0x5 SWAP1 PUSH1 0x20 DUP3 MUL DUP1 CALLDATASIZE DUP4 CALLDATACOPY DUP1 DUP3 ADD SWAP2 POP POP SWAP1 POP POP SWAP1 JUMP JUMPDEST PUSH1 0x0 PUSH2 0x3D34 PUSH2 0x3D2F DUP5 PUSH2 0x41EC JUMP JUMPDEST PUSH2 0x41C7 JUMP JUMPDEST SWAP1 POP DUP1 DUP4 DUP3 MSTORE PUSH1 0x20 DUP3 ADD SWAP1 POP DUP3 DUP6 PUSH1 0x20 DUP7 MUL DUP3 ADD GT ISZERO PUSH2 0x3D57 JUMPI PUSH2 0x3D56 PUSH2 0x44C9 JUMP JUMPDEST JUMPDEST PUSH1 0x0 JUMPDEST DUP6 DUP2 LT ISZERO PUSH2 0x3D87 JUMPI DUP2 PUSH2 0x3D6D DUP9 DUP3 PUSH2 0x3E2A JUMP JUMPDEST DUP5 MSTORE PUSH1 0x20 DUP5 ADD SWAP4 POP PUSH1 0x20 DUP4 ADD SWAP3 POP POP PUSH1 0x1 DUP2 ADD SWAP1 POP PUSH2 0x3D5A JUMP JUMPDEST POP POP POP SWAP4 SWAP3 POP POP POP JUMP JUMPDEST PUSH1 0x0 DUP1 DUP4 PUSH1 0x1F DUP5 ADD SLT PUSH2 0x3DA7 JUMPI PUSH2 0x3DA6 PUSH2 0x44C4 JUMP JUMPDEST JUMPDEST DUP3 CALLDATALOAD SWAP1 POP PUSH8 0xFFFFFFFFFFFFFFFF DUP2 GT ISZERO PUSH2 0x3DC4 JUMPI PUSH2 0x3DC3 PUSH2 0x44BF JUMP JUMPDEST JUMPDEST PUSH1 0x20 DUP4 ADD SWAP2 POP DUP4 PUSH1 0x20 DUP3 MUL DUP4 ADD GT ISZERO PUSH2 0x3DE0 JUMPI PUSH2 0x3DDF PUSH2 0x44C9 JUMP JUMPDEST JUMPDEST SWAP3 POP SWAP3 SWAP1 POP JUMP JUMPDEST PUSH1 0x0 DUP3 PUSH1 0x1F DUP4 ADD SLT PUSH2 0x3DFC JUMPI PUSH2 0x3DFB PUSH2 0x44C4 JUMP JUMPDEST JUMPDEST DUP2 CALLDATALOAD PUSH2 0x3E0C DUP5 DUP3 PUSH1 0x20 DUP7 ADD PUSH2 0x3D21 JUMP JUMPDEST SWAP2 POP POP SWAP3 SWAP2 POP POP JUMP JUMPDEST PUSH1 0x0 DUP2 CALLDATALOAD SWAP1 POP PUSH2 0x3E24 DUP2 PUSH2 0x4512 JUMP JUMPDEST SWAP3 SWAP2 POP POP JUMP JUMPDEST PUSH1 0x0 DUP2 CALLDATALOAD SWAP1 POP PUSH2 0x3E39 DUP2 PUSH2 0x4529 JUMP JUMPDEST SWAP3 SWAP2 POP POP JUMP JUMPDEST PUSH1 0x0 PUSH1 0x20 DUP3 DUP5 SUB SLT ISZERO PUSH2 0x3E55 JUMPI PUSH2 0x3E54 PUSH2 0x44D3 JUMP JUMPDEST JUMPDEST PUSH1 0x0 PUSH2 0x3E63 DUP5 DUP3 DUP6 ADD PUSH2 0x3E2A JUMP JUMPDEST SWAP2 POP POP SWAP3 SWAP2 POP POP JUMP JUMPDEST PUSH1 0x0 DUP1 PUSH1 0x0 DUP1 PUSH1 0x0 DUP1 PUSH1 0x0 DUP1 PUSH1 0xC0 DUP10 DUP12 SUB SLT ISZERO PUSH2 0x3E8C JUMPI PUSH2 0x3E8B PUSH2 0x44D3 JUMP JUMPDEST JUMPDEST PUSH1 0x0 PUSH2 0x3E9A DUP12 DUP3 DUP13 ADD PUSH2 0x3E2A JUMP JUMPDEST SWAP9 POP POP PUSH1 0x20 PUSH2 0x3EAB DUP12 DUP3 DUP13 ADD PUSH2 0x3E15 JUMP JUMPDEST SWAP8 POP POP PUSH1 0x40 PUSH2 0x3EBC DUP12 DUP3 DUP13 ADD PUSH2 0x3E2A JUMP JUMPDEST SWAP7 POP POP PUSH1 0x60 PUSH2 0x3ECD DUP12 DUP3 DUP13 ADD PUSH2 0x3E2A JUMP JUMPDEST SWAP6 POP POP PUSH1 0x80 DUP10 ADD CALLDATALOAD PUSH8 0xFFFFFFFFFFFFFFFF DUP2 GT ISZERO PUSH2 0x3EEE JUMPI PUSH2 0x3EED PUSH2 0x44CE JUMP JUMPDEST JUMPDEST PUSH2 0x3EFA DUP12 DUP3 DUP13 ADD PUSH2 0x3D91 JUMP JUMPDEST SWAP5 POP SWAP5 POP POP PUSH1 0xA0 DUP10 ADD CALLDATALOAD PUSH8 0xFFFFFFFFFFFFFFFF DUP2 GT ISZERO PUSH2 0x3F1D JUMPI PUSH2 0x3F1C PUSH2 0x44CE JUMP JUMPDEST JUMPDEST PUSH2 0x3F29 DUP12 DUP3 DUP13 ADD PUSH2 0x3D91 JUMP JUMPDEST SWAP3 POP SWAP3 POP POP SWAP3 SWAP6 SWAP9 POP SWAP3 SWAP6 SWAP9 SWAP1 SWAP4 SWAP7 POP JUMP JUMPDEST PUSH1 0x0 DUP1 PUSH1 0x0 DUP1 PUSH1 0x0 DUP1 PUSH1 0xC0 DUP8 DUP10 SUB SLT ISZERO PUSH2 0x3F58 JUMPI PUSH2 0x3F57 PUSH2 0x44D3 JUMP JUMPDEST JUMPDEST PUSH1 0x0 PUSH2 0x3F66 DUP10 DUP3 DUP11 ADD PUSH2 0x3E2A JUMP JUMPDEST SWAP7 POP POP PUSH1 0x20 PUSH2 0x3F77 DUP10 DUP3 DUP11 ADD PUSH2 0x3E2A JUMP JUMPDEST SWAP6 POP POP PUSH1 0x40 PUSH2 0x3F88 DUP10 DUP3 DUP11 ADD PUSH2 0x3E2A JUMP JUMPDEST SWAP5 POP POP PUSH1 0x60 DUP8 ADD CALLDATALOAD PUSH8 0xFFFFFFFFFFFFFFFF DUP2 GT ISZERO PUSH2 0x3FA9 JUMPI PUSH2 0x3FA8 PUSH2 0x44CE JUMP JUMPDEST JUMPDEST PUSH2 0x3FB5 DUP10 DUP3 DUP11 ADD PUSH2 0x3DE7 JUMP JUMPDEST SWAP4 POP POP PUSH1 0x80 PUSH2 0x3FC6 DUP10 DUP3 DUP11 ADD PUSH2 0x3E2A JUMP JUMPDEST SWAP3 POP POP PUSH1 0xA0 PUSH2 0x3FD7 DUP10 DUP3 DUP11 ADD PUSH2 0x3E2A JUMP JUMPDEST SWAP2 POP POP SWAP3 SWAP6 POP SWAP3 SWAP6 POP SWAP3 SWAP6 JUMP JUMPDEST PUSH2 0x3FED DUP2 PUSH2 0x430A JUMP JUMPDEST DUP3 MSTORE POP POP JUMP JUMPDEST PUSH2 0x3FFC DUP2 PUSH2 0x432A JUMP JUMPDEST DUP3 MSTORE POP POP JUMP JUMPDEST PUSH2 0x400B DUP2 PUSH2 0x433C JUMP JUMPDEST DUP3 MSTORE POP POP JUMP JUMPDEST PUSH1 0x0 PUSH2 0x401E PUSH1 0xC DUP4 PUSH2 0x4218 JUMP JUMPDEST SWAP2 POP PUSH2 0x4029 DUP3 PUSH2 0x44E9 JUMP JUMPDEST PUSH1 0x20 DUP3 ADD SWAP1 POP SWAP2 SWAP1 POP JUMP JUMPDEST PUSH2 0x403D DUP2 PUSH2 0x4320 JUMP JUMPDEST DUP3 MSTORE POP POP JUMP JUMPDEST PUSH2 0x4054 PUSH2 0x404F DUP3 PUSH2 0x4320 JUMP JUMPDEST PUSH2 0x43C8 JUMP JUMPDEST DUP3 MSTORE POP POP JUMP JUMPDEST PUSH1 0x0 PUSH2 0x4066 DUP3 DUP6 PUSH2 0x4043 JUMP JUMPDEST PUSH1 0x20 DUP3 ADD SWAP2 POP PUSH2 0x4076 DUP3 DUP5 PUSH2 0x4043 JUMP JUMPDEST PUSH1 0x20 DUP3 ADD SWAP2 POP DUP2 SWAP1 POP SWAP4 SWAP3 POP POP POP JUMP JUMPDEST PUSH1 0x0 PUSH2 0x4092 DUP3 DUP7 PUSH2 0x4043 JUMP JUMPDEST PUSH1 0x20 DUP3 ADD SWAP2 POP PUSH2 0x40A2 DUP3 DUP6 PUSH2 0x4043 JUMP JUMPDEST PUSH1 0x20 DUP3 ADD SWAP2 POP PUSH2 0x40B2 DUP3 DUP5 PUSH2 0x4043 JUMP JUMPDEST PUSH1 0x20 DUP3 ADD SWAP2 POP DUP2 SWAP1 POP SWAP5 SWAP4 POP POP POP POP JUMP JUMPDEST PUSH1 0x0 PUSH2 0x40CF DUP3 DUP8 PUSH2 0x4043 JUMP JUMPDEST PUSH1 0x20 DUP3 ADD SWAP2 POP PUSH2 0x40DF DUP3 DUP7 PUSH2 0x4043 JUMP JUMPDEST PUSH1 0x20 DUP3 ADD SWAP2 POP PUSH2 0x40EF DUP3 DUP6 PUSH2 0x4043 JUMP JUMPDEST PUSH1 0x20 DUP3 ADD SWAP2 POP PUSH2 0x40FF DUP3 DUP5 PUSH2 0x4043 JUMP JUMPDEST PUSH1 0x20 DUP3 ADD SWAP2 POP DUP2 SWAP1 POP SWAP6 SWAP5 POP POP POP POP POP JUMP JUMPDEST PUSH1 0x0 PUSH1 0x20 DUP3 ADD SWAP1 POP PUSH2 0x4126 PUSH1 0x0 DUP4 ADD DUP5 PUSH2 0x3FE4 JUMP JUMPDEST SWAP3 SWAP2 POP POP JUMP JUMPDEST PUSH1 0x0 PUSH1 0x40 DUP3 ADD SWAP1 POP PUSH2 0x4141 PUSH1 0x0 DUP4 ADD DUP6 PUSH2 0x3FF3 JUMP JUMPDEST PUSH2 0x414E PUSH1 0x20 DUP4 ADD DUP5 PUSH2 0x3FF3 JUMP JUMPDEST SWAP4 SWAP3 POP POP POP JUMP JUMPDEST PUSH1 0x0 PUSH1 0x40 DUP3 ADD SWAP1 POP PUSH2 0x416A PUSH1 0x0 DUP4 ADD DUP6 PUSH2 0x4002 JUMP JUMPDEST PUSH2 0x4177 PUSH1 0x20 DUP4 ADD DUP5 PUSH2 0x4034 JUMP JUMPDEST SWAP4 SWAP3 POP POP POP JUMP JUMPDEST PUSH1 0x0 PUSH1 0x20 DUP3 ADD SWAP1 POP DUP2 DUP2 SUB PUSH1 0x0 DUP4 ADD MSTORE PUSH2 0x4197 DUP2 PUSH2 0x4011 JUMP JUMPDEST SWAP1 POP SWAP2 SWAP1 POP JUMP JUMPDEST PUSH1 0x0 PUSH1 0x40 DUP3 ADD SWAP1 POP PUSH2 0x41B3 PUSH1 0x0 DUP4 ADD DUP6 PUSH2 0x4034 JUMP JUMPDEST PUSH2 0x41C0 PUSH1 0x20 DUP4 ADD DUP5 PUSH2 0x4034 JUMP JUMPDEST SWAP4 SWAP3 POP POP POP JUMP JUMPDEST PUSH1 0x0 PUSH2 0x41D1 PUSH2 0x41E2 JUMP JUMPDEST SWAP1 POP PUSH2 0x41DD DUP3 DUP3 PUSH2 0x434E JUMP JUMPDEST SWAP2 SWAP1 POP JUMP JUMPDEST PUSH1 0x0 PUSH1 0x40 MLOAD SWAP1 POP SWAP1 JUMP JUMPDEST PUSH1 0x0 PUSH8 0xFFFFFFFFFFFFFFFF DUP3 GT ISZERO PUSH2 0x4207 JUMPI PUSH2 0x4206 PUSH2 0x4490 JUMP JUMPDEST JUMPDEST PUSH1 0x20 DUP3 MUL SWAP1 POP PUSH1 0x20 DUP2 ADD SWAP1 POP SWAP2 SWAP1 POP JUMP JUMPDEST PUSH1 0x0 DUP3 DUP3 MSTORE PUSH1 0x20 DUP3 ADD SWAP1 POP SWAP3 SWAP2 POP POP JUMP JUMPDEST PUSH1 0x0 PUSH2 0x4234 DUP3 PUSH2 0x4320 JUMP JUMPDEST SWAP2 POP PUSH2 0x423F DUP4 PUSH2 0x4320 JUMP JUMPDEST SWAP3 POP DUP3 PUSH32 0xFFFFFFFFFFFFFFFFFFFFFFFFFFFFFFFFFFFFFFFFFFFFFFFFFFFFFFFFFFFFFFFF SUB DUP3 GT ISZERO PUSH2 0x4274 JUMPI PUSH2 0x4273 PUSH2 0x4403 JUMP JUMPDEST JUMPDEST DUP3 DUP3 ADD SWAP1 POP SWAP3 SWAP2 POP POP JUMP JUMPDEST PUSH1 0x0 PUSH2 0x428A DUP3 PUSH2 0x4320 JUMP JUMPDEST SWAP2 POP PUSH2 0x4295 DUP4 PUSH2 0x4320 JUMP JUMPDEST SWAP3 POP DUP3 PUSH2 0x42A5 JUMPI PUSH2 0x42A4 PUSH2 0x4432 JUMP JUMPDEST JUMPDEST DUP3 DUP3 DIV SWAP1 POP SWAP3 SWAP2 POP POP JUMP JUMPDEST PUSH1 0x0 PUSH2 0x42BB DUP3 PUSH2 0x4320 JUMP JUMPDEST SWAP2 POP PUSH2 0x42C6 DUP4 PUSH2 0x4320 JUMP JUMPDEST SWAP3 POP DUP2 PUSH32 0xFFFFFFFFFFFFFFFFFFFFFFFFFFFFFFFFFFFFFFFFFFFFFFFFFFFFFFFFFFFFFFFF DIV DUP4 GT DUP3 ISZERO ISZERO AND ISZERO PUSH2 0x42FF JUMPI PUSH2 0x42FE PUSH2 0x4403 JUMP JUMPDEST JUMPDEST DUP3 DUP3 MUL SWAP1 POP SWAP3 SWAP2 POP POP JUMP JUMPDEST PUSH1 0x0 DUP2 ISZERO ISZERO SWAP1 POP SWAP2 SWAP1 POP JUMP JUMPDEST PUSH1 0x0 DUP2 SWAP1 POP SWAP2 SWAP1 POP JUMP JUMPDEST PUSH1 0x0 DUP2 SWAP1 POP SWAP2 SWAP1 POP JUMP JUMPDEST PUSH1 0x0 PUSH2 0x4335 DUP3 PUSH2 0x4320 JUMP JUMPDEST SWAP1 POP SWAP2 SWAP1 POP JUMP JUMPDEST PUSH1 0x0 PUSH2 0x4347 DUP3 PUSH2 0x4320 JUMP JUMPDEST SWAP1 POP SWAP2 SWAP1 POP JUMP JUMPDEST PUSH2 0x4357 DUP3 PUSH2 0x44D8 JUMP JUMPDEST DUP2 ADD DUP2 DUP2 LT PUSH8 0xFFFFFFFFFFFFFFFF DUP3 GT OR ISZERO PUSH2 0x4376 JUMPI PUSH2 0x4375 PUSH2 0x4490 JUMP JUMPDEST JUMPDEST DUP1 PUSH1 0x40 MSTORE POP POP POP JUMP JUMPDEST PUSH1 0x0 PUSH2 0x438A DUP3 PUSH2 0x4320 JUMP JUMPDEST SWAP2 POP PUSH32 0xFFFFFFFFFFFFFFFFFFFFFFFFFFFFFFFFFFFFFFFFFFFFFFFFFFFFFFFFFFFFFFFF DUP3 EQ ISZERO PUSH2 0x43BD JUMPI PUSH2 0x43BC PUSH2 0x4403 JUMP JUMPDEST JUMPDEST PUSH1 0x1 DUP3 ADD SWAP1 POP SWAP2 SWAP1 POP JUMP JUMPDEST PUSH1 0x0 DUP2 SWAP1 POP SWAP2 SWAP1 POP JUMP JUMPDEST PUSH1 0x0 PUSH2 0x43DD DUP3 PUSH2 0x4320 JUMP JUMPDEST SWAP2 POP PUSH2 0x43E8 DUP4 PUSH2 0x4320 JUMP JUMPDEST SWAP3 POP DUP3 PUSH2 0x43F8 JUMPI PUSH2 0x43F7 PUSH2 0x4432 JUMP JUMPDEST JUMPDEST DUP3 DUP3 MOD SWAP1 POP SWAP3 SWAP2 POP POP JUMP JUMPDEST PUSH32 0x4E487B7100000000000000000000000000000000000000000000000000000000 PUSH1 0x0 MSTORE PUSH1 0x11 PUSH1 0x4 MSTORE PUSH1 0x24 PUSH1 0x0 REVERT JUMPDEST PUSH32 0x4E487B7100000000000000000000000000000000000000000000000000000000 PUSH1 0x0 MSTORE PUSH1 0x12 PUSH1 0x4 MSTORE PUSH1 0x24 PUSH1 0x0 REVERT JUMPDEST PUSH32 0x4E487B7100000000000000000000000000000000000000000000000000000000 PUSH1 0x0 MSTORE PUSH1 0x32 PUSH1 0x4 MSTORE PUSH1 0x24 PUSH1 0x0 REVERT JUMPDEST PUSH32 0x4E487B7100000000000000000000000000000000000000000000000000000000 PUSH1 0x0 MSTORE PUSH1 0x41 PUSH1 0x4 MSTORE PUSH1 0x24 PUSH1 0x0 REVERT JUMPDEST PUSH1 0x0 DUP1 REVERT JUMPDEST PUSH1 0x0 DUP1 REVERT JUMPDEST PUSH1 0x0 DUP1 REVERT JUMPDEST PUSH1 0x0 DUP1 REVERT JUMPDEST PUSH1 0x0 DUP1 REVERT JUMPDEST PUSH1 0x0 PUSH1 0x1F NOT PUSH1 0x1F DUP4 ADD AND SWAP1 POP SWAP2 SWAP1 POP JUMP JUMPDEST PUSH32 0x73706F6E6765206572726F720000000000000000000000000000000000000000 PUSH1 0x0 DUP3 ADD MSTORE POP JUMP JUMPDEST PUSH2 0x451B DUP2 PUSH2 0x4316 JUMP JUMPDEST DUP2 EQ PUSH2 0x4526 JUMPI PUSH1 0x0 DUP1 REVERT JUMPDEST POP JUMP JUMPDEST PUSH2 0x4532 DUP2 PUSH2 0x4320 JUMP JUMPDEST DUP2 EQ PUSH2 0x453D JUMPI PUSH1 0x0 DUP1 REVERT JUMPDEST POP JUMP INVALID LOG2 PUSH5 0x6970667358 0x22 SLT KECCAK256 CALLCODE 0xCD MSIZE 0x5C 0xC2 SLT 0xBD CHAINID SELFBALANCE 0xE3 0x2D GASPRICE BALANCE SWAP10 SMOD 0x22 OR SWAP13 0xEB OR 0xF9 JUMPDEST 0x28 DIV 0xC9 0xAB 0xBD PUSH19 0xAEA6292564736F6C6343000806003300000000 "
		},
		"gasEstimates": {
			"creation": {
				"codeDepositCost": "3556400",
				"executionCost": "3990",
				"totalCost": "3560390"
			},
			"external": {
				"isEpochDataSet(uint256)": "2801",
				"setEpochData(uint256,uint256,uint256,uint256[],uint256,uint256)": "infinite",
				"verifyPoW(uint256,bytes32,uint256,uint256,uint256[],uint256[])": "infinite"
			},
			"internal": {
				"computeCacheRoot(uint256,uint256,uint256[] memory,uint256[] memory,uint256)": "infinite",
				"computeLeaf(uint256[] memory,uint256)": "infinite",
				"computeS(uint256,uint256)": "infinite",
				"computeSha3(uint256[16] memory,uint256[8] memory)": "infinite",
				"fnv(uint256,uint256)": "infinite",
				"getMerkleLeave(uint256,uint256)": "infinite",
				"hashimoto(bytes32,uint256,uint256[] memory,uint256[] memory,uint256)": "infinite",
				"reverseBytes(uint256)": "infinite",
				"toBE(uint256)": "infinite"
			}
		},
		"methodIdentifiers": {
			"isEpochDataSet(uint256)": "c7b81f4f",
			"setEpochData(uint256,uint256,uint256,uint256[],uint256,uint256)": "c891a29d",
			"verifyPoW(uint256,bytes32,uint256,uint256,uint256[],uint256[])": "29e265df"
		}
	},
	"abi": [
		{
			"inputs": [],
			"stateMutability": "nonpayable",
			"type": "constructor"
		},
		{
			"anonymous": false,
			"inputs": [
				{
					"indexed": true,
					"internalType": "address",
					"name": "sender",
					"type": "address"
				},
				{
					"indexed": false,
					"internalType": "uint256",
					"name": "error",
					"type": "uint256"
				},
				{
					"indexed": false,
					"internalType": "uint256",
					"name": "errorInfo",
					"type": "uint256"
				}
			],
			"name": "SetEpochData",
			"type": "event"
		},
		{
			"inputs": [
				{
					"internalType": "uint256",
					"name": "epochIndex",
					"type": "uint256"
				}
			],
			"name": "isEpochDataSet",
			"outputs": [
				{
					"internalType": "bool",
					"name": "",
					"type": "bool"
				}
			],
			"stateMutability": "view",
			"type": "function"
		},
		{
			"inputs": [
				{
					"internalType": "uint256",
					"name": "epoch",
					"type": "uint256"
				},
				{
					"internalType": "uint256",
					"name": "fullSizeIn128Resultion",
					"type": "uint256"
				},
				{
					"internalType": "uint256",
					"name": "branchDepth",
					"type": "uint256"
				},
				{
					"internalType": "uint256[]",
					"name": "merkleNodes",
					"type": "uint256[]"
				},
				{
					"internalType": "uint256",
					"name": "start",
					"type": "uint256"
				},
				{
					"internalType": "uint256",
					"name": "numElems",
					"type": "uint256"
				}
			],
			"name": "setEpochData",
			"outputs": [],
			"stateMutability": "nonpayable",
			"type": "function"
		},
		{
			"inputs": [
				{
					"internalType": "uint256",
					"name": "blockNumber",
					"type": "uint256"
				},
				{
					"internalType": "bytes32",
					"name": "rlpHeaderHashWithoutNonce",
					"type": "bytes32"
				},
				{
					"internalType": "uint256",
					"name": "nonce",
					"type": "uint256"
				},
				{
					"internalType": "uint256",
					"name": "difficulty",
					"type": "uint256"
				},
				{
					"internalType": "uint256[]",
					"name": "dataSetLookup",
					"type": "uint256[]"
				},
				{
					"internalType": "uint256[]",
					"name": "witnessForLookup",
					"type": "uint256[]"
				}
			],
			"name": "verifyPoW",
			"outputs": [
				{
					"internalType": "uint256",
					"name": "",
					"type": "uint256"
				},
				{
					"internalType": "uint256",
					"name": "",
					"type": "uint256"
				}
			],
			"stateMutability": "view",
			"type": "function"
		}
	]
}