{
	"data": {
		"bytecode": {
			"linkReferences": {},
			"object": "608060405260026024553480156200001657600080fd5b5060405162002a9d38038062002a9d83398181016040528101906200003c919062000f1e565b60008480519060200120905060006200005b866200037060201b60201c565b90506200006762000cba565b828160600181815250508160a00151816000019062ffffff16908162ffffff16815250508581602001907cffffffffffffffffffffffffffffffffffffffffffffffffffffffffff1690817cffffffffffffffffffffffffffffffffffffffffffffffffffffffffff168152505033600a60000160006101000a81548173ffffffffffffffffffffffffffffffffffffffff021916908373ffffffffffffffffffffffffffffffffffffffff16021790555042600260060160006101000a81548167ffffffffffffffff021916908367ffffffffffffffff16021790555083600260070190805190602001906200016092919062000d0c565b5080600260000160008201518160000160006101000a81548162ffffff021916908362ffffff16021790555060208201518160000160036101000a8154817cffffffffffffffffffffffffffffffffffffffffffffffffffffffffff02191690837cffffffffffffffffffffffffffffffffffffffffffffffffffffffffff1602179055506040820151816001015560608201518160020155905050600a60026003016000820160009054906101000a900473ffffffffffffffffffffffffffffffffffffffff168160000160006101000a81548173ffffffffffffffffffffffffffffffffffffffff021916908373ffffffffffffffffffffffffffffffffffffffff160217905550600182015481600101556002820160009054906101000a900460ff168160020160006101000a81548160ff021916908315150217905550905050846000806101000a81548173ffffffffffffffffffffffffffffffffffffffff021916908373ffffffffffffffffffffffffffffffffffffffff160217905550826001819055507fb94b45c8f04970f4988329b28c08230046dffa3bc0ef5bebf3a2ba158cefcb906002600001600101546002600001600201546002600701600260060160089054906101000a900473ffffffffffffffffffffffffffffffffffffffff166040516200035b94939291906200107c565b60405180910390a150505050505050620015f8565b6200037a62000d9d565b6200038462000d9d565b6000620003b1620003a0856200075860201b620006ed1760201c565b6200078860201b6200071b1760201c565b905060005b620003cc82620007f460201b620007721760201c565b156200074d576000811415620004195762000407620003f6836200082260201b6200079e1760201c565b6200089a60201b620008011760201c565b60001b83600001818152505062000737565b600181141562000460576200044e6200043d836200082260201b6200079e1760201c565b6200089a60201b620008011760201c565b60001b83602001818152505062000736565b6003811415620004a7576200049562000484836200082260201b6200079e1760201c565b6200089a60201b620008011760201c565b60001b83604001818152505062000735565b6004811415620004ee57620004dc620004cb836200082260201b6200079e1760201c565b6200089a60201b620008011760201c565b60001b83606001818152505062000734565b600581141562000535576200052362000512836200082260201b6200079e1760201c565b6200089a60201b620008011760201c565b60001b83608001818152505062000733565b60078114156200057a576200056a62000559836200082260201b6200079e1760201c565b6200089a60201b620008011760201c565b8361016001818152505062000732565b6008811415620005be57620005af6200059e836200082260201b6200079e1760201c565b6200089a60201b620008011760201c565b8360a001818152505062000731565b60098114156200060257620005f3620005e2836200082260201b6200079e1760201c565b6200089a60201b620008011760201c565b8360c001818152505062000730565b600a81141562000646576200063762000626836200082260201b6200079e1760201c565b6200089a60201b620008011760201c565b8360e00181815250506200072f565b600b8114156200068b576200067b6200066a836200082260201b6200079e1760201c565b6200089a60201b620008011760201c565b836101200181815250506200072e565b600c811415620006cf57620006c0620006af836200082260201b6200079e1760201c565b6200092c60201b620008841760201c565b8361018001819052506200072d565b600e811415620007145762000704620006f3836200082260201b6200079e1760201c565b6200089a60201b620008011760201c565b836101400181815250506200072c565b6200072a826200082260201b6200079e1760201c565b505b5b5b5b5b5b5b5b5b5b5b5b80806200074490620014b7565b915050620003b6565b829350505050919050565b6200076262000e17565b600060208301905060405180604001604052808451815260200182815250915050919050565b6200079262000e31565b620007a382620009fc60201b60201c565b620007ad57600080fd5b6000620007c4836020015162000a4e60201b60201c565b8360200151620007d5919062001155565b9050604051806040016040528084815260200182815250915050919050565b600080826000015190508060000151816020015162000814919062001155565b836020015110915050919050565b6200082c62000e17565b6200083d82620007f460201b60201c565b6200084757600080fd5b6000826020015190506000620008638262000b2160201b60201c565b9050808262000873919062001155565b84602001818152505060405180604001604052808281526020018381525092505050919050565b6000808260000151118015620008b557506021826000015111155b620008bf57600080fd5b6000620008d6836020015162000a4e60201b60201c565b90506000818460000151620008ec91906200134a565b905060008083866020015162000903919062001155565b90508051915060208310156200092057826020036101000a820491505b81945050505050919050565b606060008260000151116200094057600080fd5b600062000957836020015162000a4e60201b60201c565b905060008184600001516200096d91906200134a565b905060008167ffffffffffffffff8111156200098e576200098d62001563565b5b6040519080825280601f01601f191660200182016040528015620009c15781602001600182028036833780820191505090505b5090506000816020019050620009f0848760200151620009e2919062001155565b828562000c0d60201b60201c565b81945050505050919050565b6000808260000151141562000a15576000905062000a49565b60008083602001519050805160001a915060c060ff168260ff16101562000a425760009250505062000a49565b6001925050505b919050565b600080825160001a9050608060ff1681101562000a7057600091505062000b1c565b60b860ff1681108062000a97575060c060ff16811015801562000a96575060f860ff1681105b5b1562000aa857600191505062000b1c565b60c060ff1681101562000aeb5760018060b862000ac6919062001385565b60ff168262000ad691906200134a565b62000ae2919062001155565b91505062000b1c565b60018060f862000afc919062001385565b60ff168262000b0c91906200134a565b62000b18919062001155565b9150505b919050565b6000806000835160001a9050608060ff1681101562000b44576001915062000c03565b60b860ff1681101562000b79576001608060ff168262000b6591906200134a565b62000b71919062001155565b915062000c02565b60c060ff1681101562000bab5760b78103600185019450806020036101000a8551046001820181019350505062000c01565b60f860ff1681101562000be057600160c060ff168262000bcc91906200134a565b62000bd8919062001155565b915062000c00565b60f78103600185019450806020036101000a855104600182018101935050505b5b5b5b8192505050919050565b600081141562000c1d5762000cb5565b5b602060ff16811062000c705782518252602060ff168362000c40919062001155565b9250602060ff168262000c54919062001155565b9150602060ff168162000c6891906200134a565b905062000c1e565b6000600182602060ff1662000c8691906200134a565b61010062000c9591906200120d565b62000ca191906200134a565b905080198451168184511681811785525050505b505050565b6040518060800160405280600062ffffff16815260200160007cffffffffffffffffffffffffffffffffffffffffffffffffffffffffff16815260200160008019168152602001600080191681525090565b82805462000d1a906200144b565b90600052602060002090601f01602090048101928262000d3e576000855562000d8a565b82601f1062000d5957805160ff191683800117855562000d8a565b8280016001018555821562000d8a579182015b8281111562000d8957825182559160200191906001019062000d6c565b5b50905062000d99919062000e53565b5090565b604051806101a00160405280600080191681526020016000801916815260200160008019168152602001600080191681526020016000801916815260200160008152602001600081526020016000815260200160008019168152602001600081526020016000815260200160008152602001606081525090565b604051806040016040528060008152602001600081525090565b604051806040016040528062000e4662000e17565b8152602001600081525090565b5b8082111562000e6e57600081600090555060010162000e54565b5090565b600062000e8962000e8384620010f9565b620010d0565b90508281526020810184848401111562000ea85762000ea762001597565b5b62000eb584828562001415565b509392505050565b60008151905062000ece81620015c4565b92915050565b600082601f83011262000eec5762000eeb62001592565b5b815162000efe84826020860162000e72565b91505092915050565b60008151905062000f1881620015de565b92915050565b6000806000806080858703121562000f3b5762000f3a620015a1565b5b600085015167ffffffffffffffff81111562000f5c5762000f5b6200159c565b5b62000f6a8782880162000ed4565b945050602062000f7d8782880162000f07565b935050604062000f908782880162000ebd565b925050606085015167ffffffffffffffff81111562000fb45762000fb36200159c565b5b62000fc28782880162000ed4565b91505092959194509250565b62000fd981620013c0565b82525050565b62000fea81620013d4565b82525050565b6000815462000fff816200144b565b6200100b818662001144565b945060018216600081146200102957600181146200103c5762001073565b60ff198316865260208601935062001073565b62001047856200112f565b60005b838110156200106b578154818901526001820191506020810190506200104a565b808801955050505b50505092915050565b600060808201905062001093600083018762000fdf565b620010a2602083018662000fdf565b8181036040830152620010b6818562000ff0565b9050620010c7606083018462000fce565b95945050505050565b6000620010dc620010ef565b9050620010ea828262001481565b919050565b6000604051905090565b600067ffffffffffffffff82111562001117576200111662001563565b5b6200112282620015a6565b9050602081019050919050565b60008190508160005260206000209050919050565b600082825260208201905092915050565b60006200116282620013fe565b91506200116f83620013fe565b9250827fffffffffffffffffffffffffffffffffffffffffffffffffffffffffffffffff03821115620011a757620011a662001505565b5b828201905092915050565b6000808291508390505b60018511156200120457808604811115620011dc57620011db62001505565b5b6001851615620011ec5780820291505b8081029050620011fc85620015b7565b9450620011bc565b94509492505050565b60006200121a82620013fe565b91506200122783620013fe565b9250620012567fffffffffffffffffffffffffffffffffffffffffffffffffffffffffffffffff84846200125e565b905092915050565b60008262001270576001905062001343565b8162001280576000905062001343565b8160018114620012995760028114620012a457620012da565b600191505062001343565b60ff841115620012b957620012b862001505565b5b8360020a915084821115620012d357620012d262001505565b5b5062001343565b5060208310610133831016604e8410600b8410161715620013145782820a9050838111156200130e576200130d62001505565b5b62001343565b620013238484846001620011b2565b925090508184048111156200133d576200133c62001505565b5b81810290505b9392505050565b60006200135782620013fe565b91506200136483620013fe565b9250828210156200137a576200137962001505565b5b828203905092915050565b6000620013928262001408565b91506200139f8362001408565b925082821015620013b557620013b462001505565b5b828203905092915050565b6000620013cd82620013de565b9050919050565b6000819050919050565b600073ffffffffffffffffffffffffffffffffffffffff82169050919050565b6000819050919050565b600060ff82169050919050565b60005b838110156200143557808201518184015260208101905062001418565b8381111562001445576000848401525b50505050565b600060028204905060018216806200146457607f821691505b602082108114156200147b576200147a62001534565b5b50919050565b6200148c82620015a6565b810181811067ffffffffffffffff82111715620014ae57620014ad62001563565b5b80604052505050565b6000620014c482620013fe565b91507fffffffffffffffffffffffffffffffffffffffffffffffffffffffffffffffff821415620014fa57620014f962001505565b5b600182019050919050565b7f4e487b7100000000000000000000000000000000000000000000000000000000600052601160045260246000fd5b7f4e487b7100000000000000000000000000000000000000000000000000000000600052602260045260246000fd5b7f4e487b7100000000000000000000000000000000000000000000000000000000600052604160045260246000fd5b600080fd5b600080fd5b600080fd5b600080fd5b6000601f19601f8301169050919050565b60008160011c9050919050565b620015cf81620013c0565b8114620015db57600080fd5b50565b620015e981620013fe565b8114620015f557600080fd5b50565b61149580620016086000396000f3fe608060405234801561001057600080fd5b50600436106100575760003560e01c80631865c57d1461005c57806318d27ef21461007a57806329a12be9146100aa57806387ceacd1146100c8578063be0f79f7146100fb575b600080fd5b61006461012b565b604051610071919061101b565b60405180910390f35b610094600480360381019061008f9190610da3565b610623565b6040516100a19190610fa0565b60405180910390f35b6100b2610637565b6040516100bf9190610fbb565b60405180910390f35b6100e260048036038101906100dd9190610da3565b610641565b6040516100f29493929190610fd6565b60405180910390f35b61011560048036038101906101109190610da3565b6106dc565b6040516101229190610fa0565b60405180910390f35b610133610bc1565b600d60060160009054906101000a900467ffffffffffffffff1667ffffffffffffffff164211156103ac57600d600260008201816000016000820160009054906101000a900462ffffff168160000160006101000a81548162ffffff021916908362ffffff1602179055506000820160039054906101000a90047cffffffffffffffffffffffffffffffffffffffffffffffffffffffffff168160000160036101000a8154817cffffffffffffffffffffffffffffffffffffffffffffffffffffffffff02191690837cffffffffffffffffffffffffffffffffffffffffffffffffffffffffff1602179055506001820154816001015560028201548160020155505060038201816003016000820160009054906101000a900473ffffffffffffffffffffffffffffffffffffffff168160000160006101000a81548173ffffffffffffffffffffffffffffffffffffffff021916908373ffffffffffffffffffffffffffffffffffffffff160217905550600182015481600101556002820160009054906101000a900460ff168160020160006101000a81548160ff02191690831515021790555050506006820160009054906101000a900467ffffffffffffffff168160060160006101000a81548167ffffffffffffffff021916908367ffffffffffffffff1602179055506006820160089054906101000a900473ffffffffffffffffffffffffffffffffffffffff168160060160086101000a81548173ffffffffffffffffffffffffffffffffffffffff021916908373ffffffffffffffffffffffffffffffffffffffff160217905550600782018160070190805461039c90611366565b6103a7929190610c1c565b509050505b60026040518060a0016040529081600082016040518060800160405290816000820160009054906101000a900462ffffff1662ffffff1662ffffff1681526020016000820160039054906101000a90047cffffffffffffffffffffffffffffffffffffffffffffffffffffffffff167cffffffffffffffffffffffffffffffffffffffffffffffffffffffffff167cffffffffffffffffffffffffffffffffffffffffffffffffffffffffff168152602001600182015481526020016002820154815250508152602001600382016040518060600160405290816000820160009054906101000a900473ffffffffffffffffffffffffffffffffffffffff1673ffffffffffffffffffffffffffffffffffffffff1673ffffffffffffffffffffffffffffffffffffffff168152602001600182015481526020016002820160009054906101000a900460ff16151515158152505081526020016006820160009054906101000a900467ffffffffffffffff1667ffffffffffffffff1667ffffffffffffffff1681526020016006820160089054906101000a900473ffffffffffffffffffffffffffffffffffffffff1673ffffffffffffffffffffffffffffffffffffffff1673ffffffffffffffffffffffffffffffffffffffff16815260200160078201805461059c90611366565b80601f01602080910402602001604051908101604052809291908181526020018280546105c890611366565b80156106155780601f106105ea57610100808354040283529160200191610615565b820191906000526020600020905b8154815290600101906020018083116105f857829003601f168201915b505050505081525050905090565b600081600260000160020154149050919050565b6000600154905090565b600080600080600260000160020154600260000160000160009054906101000a900462ffffff16600260000160000160039054906101000a90047cffffffffffffffffffffffffffffffffffffffffffffffffffffffffff166002600001600101548262ffffff169250817cffffffffffffffffffffffffffffffffffffffffffffffffffffffffff16915093509350935093509193509193565b600081601e60020154149050919050565b6106f5610ca9565b600060208301905060405180604001604052808451815260200182815250915050919050565b610723610cc3565b61072c8261093b565b61073557600080fd5b60006107448360200151610989565b83602001516107539190611059565b9050604051806040016040528084815260200182815250915050919050565b60008082600001519050806000015181602001516107909190611059565b836020015110915050919050565b6107a6610ca9565b6107af82610772565b6107b857600080fd5b60008260200151905060006107cc82610a48565b905080826107da9190611059565b84602001818152505060405180604001604052808281526020018381525092505050919050565b600080826000015111801561081b57506021826000015111155b61082457600080fd5b60006108338360200151610989565b905060008184600001516108479190611220565b905060008083866020015161085c9190611059565b905080519150602083101561087857826020036101000a820491505b81945050505050919050565b6060600082600001511161089757600080fd5b60006108a68360200151610989565b905060008184600001516108ba9190611220565b905060008167ffffffffffffffff8111156108d8576108d76113f6565b5b6040519080825280601f01601f19166020018201604052801561090a5781602001600182028036833780820191505090505b509050600081602001905061092f8487602001516109289190611059565b8285610b24565b81945050505050919050565b600080826000015114156109525760009050610984565b60008083602001519050805160001a915060c060ff168260ff16101561097d57600092505050610984565b6001925050505b919050565b600080825160001a9050608060ff168110156109a9576000915050610a43565b60b860ff168110806109ce575060c060ff1681101580156109cd575060f860ff1681105b5b156109dd576001915050610a43565b60c060ff16811015610a185760018060b86109f89190611254565b60ff1682610a069190611220565b610a109190611059565b915050610a43565b60018060f8610a279190611254565b60ff1682610a359190611220565b610a3f9190611059565b9150505b919050565b6000806000835160001a9050608060ff16811015610a695760019150610b1a565b60b860ff16811015610a98576001608060ff1682610a879190611220565b610a919190611059565b9150610b19565b60c060ff16811015610ac85760b78103600185019450806020036101000a85510460018201810193505050610b18565b60f860ff16811015610af757600160c060ff1682610ae69190611220565b610af09190611059565b9150610b17565b60f78103600185019450806020036101000a855104600182018101935050505b5b5b5b8192505050919050565b6000811415610b3257610bbc565b5b602060ff168110610b7d5782518252602060ff1683610b529190611059565b9250602060ff1682610b649190611059565b9150602060ff1681610b769190611220565b9050610b33565b6000600182602060ff16610b919190611220565b610100610b9e9190611102565b610ba89190611220565b905080198451168184511681811785525050505b505050565b6040518060a00160405280610bd4610ce3565b8152602001610be1610d35565b8152602001600067ffffffffffffffff168152602001600073ffffffffffffffffffffffffffffffffffffffff168152602001606081525090565b828054610c2890611366565b90600052602060002090601f016020900481019282610c4a5760008555610c98565b82601f10610c5b5780548555610c98565b82800160010185558215610c9857600052602060002091601f016020900482015b82811115610c97578254825591600101919060010190610c7c565b5b509050610ca59190610d71565b5090565b604051806040016040528060008152602001600081525090565b6040518060400160405280610cd6610ca9565b8152602001600081525090565b6040518060800160405280600062ffffff16815260200160007cffffffffffffffffffffffffffffffffffffffffffffffffffffffffff16815260200160008019168152602001600080191681525090565b6040518060600160405280600073ffffffffffffffffffffffffffffffffffffffff168152602001600080191681526020016000151581525090565b5b80821115610d8a576000816000905550600101610d72565b5090565b600081359050610d9d81611448565b92915050565b600060208284031215610db957610db8611425565b5b6000610dc784828501610d8e565b91505092915050565b610dd981611288565b82525050565b610de88161129a565b82525050565b610df78161129a565b82525050565b610e06816112a6565b82525050565b610e15816112a6565b82525050565b6000610e268261103d565b610e308185611048565b9350610e40818560208601611333565b610e498161142a565b840191505092915050565b608082016000820151610e6a6000850182610f73565b506020820151610e7d6020850182610f64565b506040820151610e906040850182610dfd565b506060820151610ea36060850182610dfd565b50505050565b606082016000820151610ebf6000850182610dd0565b506020820151610ed26020850182610dfd565b506040820151610ee56040850182610ddf565b50505050565b600061014083016000830151610f046000860182610e54565b506020830151610f176080860182610ea9565b506040830151610f2a60e0860182610f91565b506060830151610f3e610100860182610dd0565b506080830151848203610120860152610f578282610e1b565b9150508091505092915050565b610f6d816112d0565b82525050565b610f7c816112f9565b82525050565b610f8b81611308565b82525050565b610f9a81611312565b82525050565b6000602082019050610fb56000830184610dee565b92915050565b6000602082019050610fd06000830184610e0c565b92915050565b6000608082019050610feb6000830187610e0c565b610ff86020830186610f82565b6110056040830185610f82565b6110126060830184610e0c565b95945050505050565b600060208201905081810360008301526110358184610eeb565b905092915050565b600081519050919050565b600082825260208201905092915050565b600061106482611308565b915061106f83611308565b9250827fffffffffffffffffffffffffffffffffffffffffffffffffffffffffffffffff038211156110a4576110a3611398565b5b828201905092915050565b6000808291508390505b60018511156110f9578086048111156110d5576110d4611398565b5b60018516156110e45780820291505b80810290506110f28561143b565b94506110b9565b94509492505050565b600061110d82611308565b915061111883611308565b92506111457fffffffffffffffffffffffffffffffffffffffffffffffffffffffffffffffff848461114d565b905092915050565b60008261115d5760019050611219565b8161116b5760009050611219565b8160018114611181576002811461118b576111ba565b6001915050611219565b60ff84111561119d5761119c611398565b5b8360020a9150848211156111b4576111b3611398565b5b50611219565b5060208310610133831016604e8410600b84101617156111ef5782820a9050838111156111ea576111e9611398565b5b611219565b6111fc84848460016110af565b9250905081840481111561121357611212611398565b5b81810290505b9392505050565b600061122b82611308565b915061123683611308565b92508282101561124957611248611398565b5b828203905092915050565b600061125f82611326565b915061126a83611326565b92508282101561127d5761127c611398565b5b828203905092915050565b6000611293826112b0565b9050919050565b60008115159050919050565b6000819050919050565b600073ffffffffffffffffffffffffffffffffffffffff82169050919050565b60007cffffffffffffffffffffffffffffffffffffffffffffffffffffffffff82169050919050565b600062ffffff82169050919050565b6000819050919050565b600067ffffffffffffffff82169050919050565b600060ff82169050919050565b60005b83811015611351578082015181840152602081019050611336565b83811115611360576000848401525b50505050565b6000600282049050600182168061137e57607f821691505b60208210811415611392576113916113c7565b5b50919050565b7f4e487b7100000000000000000000000000000000000000000000000000000000600052601160045260246000fd5b7f4e487b7100000000000000000000000000000000000000000000000000000000600052602260045260246000fd5b7f4e487b7100000000000000000000000000000000000000000000000000000000600052604160045260246000fd5b600080fd5b6000601f19601f8301169050919050565b60008160011c9050919050565b611451816112a6565b811461145c57600080fd5b5056fea26469706673582212206fe6655944d6542654d97708e4b2e69ac84546c710c2abb4b6f0224d458466d464736f6c63430008060033",
			"opcodes": "PUSH1 0x80 PUSH1 0x40 MSTORE PUSH1 0x2 PUSH1 0x24 SSTORE CALLVALUE DUP1 ISZERO PUSH3 0x16 JUMPI PUSH1 0x0 DUP1 REVERT JUMPDEST POP PUSH1 0x40 MLOAD PUSH3 0x2A9D CODESIZE SUB DUP1 PUSH3 0x2A9D DUP4 CODECOPY DUP2 DUP2 ADD PUSH1 0x40 MSTORE DUP2 ADD SWAP1 PUSH3 0x3C SWAP2 SWAP1 PUSH3 0xF1E JUMP JUMPDEST PUSH1 0x0 DUP5 DUP1 MLOAD SWAP1 PUSH1 0x20 ADD KECCAK256 SWAP1 POP PUSH1 0x0 PUSH3 0x5B DUP7 PUSH3 0x370 PUSH1 0x20 SHL PUSH1 0x20 SHR JUMP JUMPDEST SWAP1 POP PUSH3 0x67 PUSH3 0xCBA JUMP JUMPDEST DUP3 DUP2 PUSH1 0x60 ADD DUP2 DUP2 MSTORE POP POP DUP2 PUSH1 0xA0 ADD MLOAD DUP2 PUSH1 0x0 ADD SWAP1 PUSH3 0xFFFFFF AND SWAP1 DUP2 PUSH3 0xFFFFFF AND DUP2 MSTORE POP POP DUP6 DUP2 PUSH1 0x20 ADD SWAP1 PUSH29 0xFFFFFFFFFFFFFFFFFFFFFFFFFFFFFFFFFFFFFFFFFFFFFFFFFFFFFFFFFF AND SWAP1 DUP2 PUSH29 0xFFFFFFFFFFFFFFFFFFFFFFFFFFFFFFFFFFFFFFFFFFFFFFFFFFFFFFFFFF AND DUP2 MSTORE POP POP CALLER PUSH1 0xA PUSH1 0x0 ADD PUSH1 0x0 PUSH2 0x100 EXP DUP2 SLOAD DUP2 PUSH20 0xFFFFFFFFFFFFFFFFFFFFFFFFFFFFFFFFFFFFFFFF MUL NOT AND SWAP1 DUP4 PUSH20 0xFFFFFFFFFFFFFFFFFFFFFFFFFFFFFFFFFFFFFFFF AND MUL OR SWAP1 SSTORE POP TIMESTAMP PUSH1 0x2 PUSH1 0x6 ADD PUSH1 0x0 PUSH2 0x100 EXP DUP2 SLOAD DUP2 PUSH8 0xFFFFFFFFFFFFFFFF MUL NOT AND SWAP1 DUP4 PUSH8 0xFFFFFFFFFFFFFFFF AND MUL OR SWAP1 SSTORE POP DUP4 PUSH1 0x2 PUSH1 0x7 ADD SWAP1 DUP1 MLOAD SWAP1 PUSH1 0x20 ADD SWAP1 PUSH3 0x160 SWAP3 SWAP2 SWAP1 PUSH3 0xD0C JUMP JUMPDEST POP DUP1 PUSH1 0x2 PUSH1 0x0 ADD PUSH1 0x0 DUP3 ADD MLOAD DUP2 PUSH1 0x0 ADD PUSH1 0x0 PUSH2 0x100 EXP DUP2 SLOAD DUP2 PUSH3 0xFFFFFF MUL NOT AND SWAP1 DUP4 PUSH3 0xFFFFFF AND MUL OR SWAP1 SSTORE POP PUSH1 0x20 DUP3 ADD MLOAD DUP2 PUSH1 0x0 ADD PUSH1 0x3 PUSH2 0x100 EXP DUP2 SLOAD DUP2 PUSH29 0xFFFFFFFFFFFFFFFFFFFFFFFFFFFFFFFFFFFFFFFFFFFFFFFFFFFFFFFFFF MUL NOT AND SWAP1 DUP4 PUSH29 0xFFFFFFFFFFFFFFFFFFFFFFFFFFFFFFFFFFFFFFFFFFFFFFFFFFFFFFFFFF AND MUL OR SWAP1 SSTORE POP PUSH1 0x40 DUP3 ADD MLOAD DUP2 PUSH1 0x1 ADD SSTORE PUSH1 0x60 DUP3 ADD MLOAD DUP2 PUSH1 0x2 ADD SSTORE SWAP1 POP POP PUSH1 0xA PUSH1 0x2 PUSH1 0x3 ADD PUSH1 0x0 DUP3 ADD PUSH1 0x0 SWAP1 SLOAD SWAP1 PUSH2 0x100 EXP SWAP1 DIV PUSH20 0xFFFFFFFFFFFFFFFFFFFFFFFFFFFFFFFFFFFFFFFF AND DUP2 PUSH1 0x0 ADD PUSH1 0x0 PUSH2 0x100 EXP DUP2 SLOAD DUP2 PUSH20 0xFFFFFFFFFFFFFFFFFFFFFFFFFFFFFFFFFFFFFFFF MUL NOT AND SWAP1 DUP4 PUSH20 0xFFFFFFFFFFFFFFFFFFFFFFFFFFFFFFFFFFFFFFFF AND MUL OR SWAP1 SSTORE POP PUSH1 0x1 DUP3 ADD SLOAD DUP2 PUSH1 0x1 ADD SSTORE PUSH1 0x2 DUP3 ADD PUSH1 0x0 SWAP1 SLOAD SWAP1 PUSH2 0x100 EXP SWAP1 DIV PUSH1 0xFF AND DUP2 PUSH1 0x2 ADD PUSH1 0x0 PUSH2 0x100 EXP DUP2 SLOAD DUP2 PUSH1 0xFF MUL NOT AND SWAP1 DUP4 ISZERO ISZERO MUL OR SWAP1 SSTORE POP SWAP1 POP POP DUP5 PUSH1 0x0 DUP1 PUSH2 0x100 EXP DUP2 SLOAD DUP2 PUSH20 0xFFFFFFFFFFFFFFFFFFFFFFFFFFFFFFFFFFFFFFFF MUL NOT AND SWAP1 DUP4 PUSH20 0xFFFFFFFFFFFFFFFFFFFFFFFFFFFFFFFFFFFFFFFF AND MUL OR SWAP1 SSTORE POP DUP3 PUSH1 0x1 DUP2 SWAP1 SSTORE POP PUSH32 0xB94B45C8F04970F4988329B28C08230046DFFA3BC0EF5BEBF3A2BA158CEFCB90 PUSH1 0x2 PUSH1 0x0 ADD PUSH1 0x1 ADD SLOAD PUSH1 0x2 PUSH1 0x0 ADD PUSH1 0x2 ADD SLOAD PUSH1 0x2 PUSH1 0x7 ADD PUSH1 0x2 PUSH1 0x6 ADD PUSH1 0x8 SWAP1 SLOAD SWAP1 PUSH2 0x100 EXP SWAP1 DIV PUSH20 0xFFFFFFFFFFFFFFFFFFFFFFFFFFFFFFFFFFFFFFFF AND PUSH1 0x40 MLOAD PUSH3 0x35B SWAP5 SWAP4 SWAP3 SWAP2 SWAP1 PUSH3 0x107C JUMP JUMPDEST PUSH1 0x40 MLOAD DUP1 SWAP2 SUB SWAP1 LOG1 POP POP POP POP POP POP POP PUSH3 0x15F8 JUMP JUMPDEST PUSH3 0x37A PUSH3 0xD9D JUMP JUMPDEST PUSH3 0x384 PUSH3 0xD9D JUMP JUMPDEST PUSH1 0x0 PUSH3 0x3B1 PUSH3 0x3A0 DUP6 PUSH3 0x758 PUSH1 0x20 SHL PUSH3 0x6ED OR PUSH1 0x20 SHR JUMP JUMPDEST PUSH3 0x788 PUSH1 0x20 SHL PUSH3 0x71B OR PUSH1 0x20 SHR JUMP JUMPDEST SWAP1 POP PUSH1 0x0 JUMPDEST PUSH3 0x3CC DUP3 PUSH3 0x7F4 PUSH1 0x20 SHL PUSH3 0x772 OR PUSH1 0x20 SHR JUMP JUMPDEST ISZERO PUSH3 0x74D JUMPI PUSH1 0x0 DUP2 EQ ISZERO PUSH3 0x419 JUMPI PUSH3 0x407 PUSH3 0x3F6 DUP4 PUSH3 0x822 PUSH1 0x20 SHL PUSH3 0x79E OR PUSH1 0x20 SHR JUMP JUMPDEST PUSH3 0x89A PUSH1 0x20 SHL PUSH3 0x801 OR PUSH1 0x20 SHR JUMP JUMPDEST PUSH1 0x0 SHL DUP4 PUSH1 0x0 ADD DUP2 DUP2 MSTORE POP POP PUSH3 0x737 JUMP JUMPDEST PUSH1 0x1 DUP2 EQ ISZERO PUSH3 0x460 JUMPI PUSH3 0x44E PUSH3 0x43D DUP4 PUSH3 0x822 PUSH1 0x20 SHL PUSH3 0x79E OR PUSH1 0x20 SHR JUMP JUMPDEST PUSH3 0x89A PUSH1 0x20 SHL PUSH3 0x801 OR PUSH1 0x20 SHR JUMP JUMPDEST PUSH1 0x0 SHL DUP4 PUSH1 0x20 ADD DUP2 DUP2 MSTORE POP POP PUSH3 0x736 JUMP JUMPDEST PUSH1 0x3 DUP2 EQ ISZERO PUSH3 0x4A7 JUMPI PUSH3 0x495 PUSH3 0x484 DUP4 PUSH3 0x822 PUSH1 0x20 SHL PUSH3 0x79E OR PUSH1 0x20 SHR JUMP JUMPDEST PUSH3 0x89A PUSH1 0x20 SHL PUSH3 0x801 OR PUSH1 0x20 SHR JUMP JUMPDEST PUSH1 0x0 SHL DUP4 PUSH1 0x40 ADD DUP2 DUP2 MSTORE POP POP PUSH3 0x735 JUMP JUMPDEST PUSH1 0x4 DUP2 EQ ISZERO PUSH3 0x4EE JUMPI PUSH3 0x4DC PUSH3 0x4CB DUP4 PUSH3 0x822 PUSH1 0x20 SHL PUSH3 0x79E OR PUSH1 0x20 SHR JUMP JUMPDEST PUSH3 0x89A PUSH1 0x20 SHL PUSH3 0x801 OR PUSH1 0x20 SHR JUMP JUMPDEST PUSH1 0x0 SHL DUP4 PUSH1 0x60 ADD DUP2 DUP2 MSTORE POP POP PUSH3 0x734 JUMP JUMPDEST PUSH1 0x5 DUP2 EQ ISZERO PUSH3 0x535 JUMPI PUSH3 0x523 PUSH3 0x512 DUP4 PUSH3 0x822 PUSH1 0x20 SHL PUSH3 0x79E OR PUSH1 0x20 SHR JUMP JUMPDEST PUSH3 0x89A PUSH1 0x20 SHL PUSH3 0x801 OR PUSH1 0x20 SHR JUMP JUMPDEST PUSH1 0x0 SHL DUP4 PUSH1 0x80 ADD DUP2 DUP2 MSTORE POP POP PUSH3 0x733 JUMP JUMPDEST PUSH1 0x7 DUP2 EQ ISZERO PUSH3 0x57A JUMPI PUSH3 0x56A PUSH3 0x559 DUP4 PUSH3 0x822 PUSH1 0x20 SHL PUSH3 0x79E OR PUSH1 0x20 SHR JUMP JUMPDEST PUSH3 0x89A PUSH1 0x20 SHL PUSH3 0x801 OR PUSH1 0x20 SHR JUMP JUMPDEST DUP4 PUSH2 0x160 ADD DUP2 DUP2 MSTORE POP POP PUSH3 0x732 JUMP JUMPDEST PUSH1 0x8 DUP2 EQ ISZERO PUSH3 0x5BE JUMPI PUSH3 0x5AF PUSH3 0x59E DUP4 PUSH3 0x822 PUSH1 0x20 SHL PUSH3 0x79E OR PUSH1 0x20 SHR JUMP JUMPDEST PUSH3 0x89A PUSH1 0x20 SHL PUSH3 0x801 OR PUSH1 0x20 SHR JUMP JUMPDEST DUP4 PUSH1 0xA0 ADD DUP2 DUP2 MSTORE POP POP PUSH3 0x731 JUMP JUMPDEST PUSH1 0x9 DUP2 EQ ISZERO PUSH3 0x602 JUMPI PUSH3 0x5F3 PUSH3 0x5E2 DUP4 PUSH3 0x822 PUSH1 0x20 SHL PUSH3 0x79E OR PUSH1 0x20 SHR JUMP JUMPDEST PUSH3 0x89A PUSH1 0x20 SHL PUSH3 0x801 OR PUSH1 0x20 SHR JUMP JUMPDEST DUP4 PUSH1 0xC0 ADD DUP2 DUP2 MSTORE POP POP PUSH3 0x730 JUMP JUMPDEST PUSH1 0xA DUP2 EQ ISZERO PUSH3 0x646 JUMPI PUSH3 0x637 PUSH3 0x626 DUP4 PUSH3 0x822 PUSH1 0x20 SHL PUSH3 0x79E OR PUSH1 0x20 SHR JUMP JUMPDEST PUSH3 0x89A PUSH1 0x20 SHL PUSH3 0x801 OR PUSH1 0x20 SHR JUMP JUMPDEST DUP4 PUSH1 0xE0 ADD DUP2 DUP2 MSTORE POP POP PUSH3 0x72F JUMP JUMPDEST PUSH1 0xB DUP2 EQ ISZERO PUSH3 0x68B JUMPI PUSH3 0x67B PUSH3 0x66A DUP4 PUSH3 0x822 PUSH1 0x20 SHL PUSH3 0x79E OR PUSH1 0x20 SHR JUMP JUMPDEST PUSH3 0x89A PUSH1 0x20 SHL PUSH3 0x801 OR PUSH1 0x20 SHR JUMP JUMPDEST DUP4 PUSH2 0x120 ADD DUP2 DUP2 MSTORE POP POP PUSH3 0x72E JUMP JUMPDEST PUSH1 0xC DUP2 EQ ISZERO PUSH3 0x6CF JUMPI PUSH3 0x6C0 PUSH3 0x6AF DUP4 PUSH3 0x822 PUSH1 0x20 SHL PUSH3 0x79E OR PUSH1 0x20 SHR JUMP JUMPDEST PUSH3 0x92C PUSH1 0x20 SHL PUSH3 0x884 OR PUSH1 0x20 SHR JUMP JUMPDEST DUP4 PUSH2 0x180 ADD DUP2 SWAP1 MSTORE POP PUSH3 0x72D JUMP JUMPDEST PUSH1 0xE DUP2 EQ ISZERO PUSH3 0x714 JUMPI PUSH3 0x704 PUSH3 0x6F3 DUP4 PUSH3 0x822 PUSH1 0x20 SHL PUSH3 0x79E OR PUSH1 0x20 SHR JUMP JUMPDEST PUSH3 0x89A PUSH1 0x20 SHL PUSH3 0x801 OR PUSH1 0x20 SHR JUMP JUMPDEST DUP4 PUSH2 0x140 ADD DUP2 DUP2 MSTORE POP POP PUSH3 0x72C JUMP JUMPDEST PUSH3 0x72A DUP3 PUSH3 0x822 PUSH1 0x20 SHL PUSH3 0x79E OR PUSH1 0x20 SHR JUMP JUMPDEST POP JUMPDEST JUMPDEST JUMPDEST JUMPDEST JUMPDEST JUMPDEST JUMPDEST JUMPDEST JUMPDEST JUMPDEST JUMPDEST JUMPDEST DUP1 DUP1 PUSH3 0x744 SWAP1 PUSH3 0x14B7 JUMP JUMPDEST SWAP2 POP POP PUSH3 0x3B6 JUMP JUMPDEST DUP3 SWAP4 POP POP POP POP SWAP2 SWAP1 POP JUMP JUMPDEST PUSH3 0x762 PUSH3 0xE17 JUMP JUMPDEST PUSH1 0x0 PUSH1 0x20 DUP4 ADD SWAP1 POP PUSH1 0x40 MLOAD DUP1 PUSH1 0x40 ADD PUSH1 0x40 MSTORE DUP1 DUP5 MLOAD DUP2 MSTORE PUSH1 0x20 ADD DUP3 DUP2 MSTORE POP SWAP2 POP POP SWAP2 SWAP1 POP JUMP JUMPDEST PUSH3 0x792 PUSH3 0xE31 JUMP JUMPDEST PUSH3 0x7A3 DUP3 PUSH3 0x9FC PUSH1 0x20 SHL PUSH1 0x20 SHR JUMP JUMPDEST PUSH3 0x7AD JUMPI PUSH1 0x0 DUP1 REVERT JUMPDEST PUSH1 0x0 PUSH3 0x7C4 DUP4 PUSH1 0x20 ADD MLOAD PUSH3 0xA4E PUSH1 0x20 SHL PUSH1 0x20 SHR JUMP JUMPDEST DUP4 PUSH1 0x20 ADD MLOAD PUSH3 0x7D5 SWAP2 SWAP1 PUSH3 0x1155 JUMP JUMPDEST SWAP1 POP PUSH1 0x40 MLOAD DUP1 PUSH1 0x40 ADD PUSH1 0x40 MSTORE DUP1 DUP5 DUP2 MSTORE PUSH1 0x20 ADD DUP3 DUP2 MSTORE POP SWAP2 POP POP SWAP2 SWAP1 POP JUMP JUMPDEST PUSH1 0x0 DUP1 DUP3 PUSH1 0x0 ADD MLOAD SWAP1 POP DUP1 PUSH1 0x0 ADD MLOAD DUP2 PUSH1 0x20 ADD MLOAD PUSH3 0x814 SWAP2 SWAP1 PUSH3 0x1155 JUMP JUMPDEST DUP4 PUSH1 0x20 ADD MLOAD LT SWAP2 POP POP SWAP2 SWAP1 POP JUMP JUMPDEST PUSH3 0x82C PUSH3 0xE17 JUMP JUMPDEST PUSH3 0x83D DUP3 PUSH3 0x7F4 PUSH1 0x20 SHL PUSH1 0x20 SHR JUMP JUMPDEST PUSH3 0x847 JUMPI PUSH1 0x0 DUP1 REVERT JUMPDEST PUSH1 0x0 DUP3 PUSH1 0x20 ADD MLOAD SWAP1 POP PUSH1 0x0 PUSH3 0x863 DUP3 PUSH3 0xB21 PUSH1 0x20 SHL PUSH1 0x20 SHR JUMP JUMPDEST SWAP1 POP DUP1 DUP3 PUSH3 0x873 SWAP2 SWAP1 PUSH3 0x1155 JUMP JUMPDEST DUP5 PUSH1 0x20 ADD DUP2 DUP2 MSTORE POP POP PUSH1 0x40 MLOAD DUP1 PUSH1 0x40 ADD PUSH1 0x40 MSTORE DUP1 DUP3 DUP2 MSTORE PUSH1 0x20 ADD DUP4 DUP2 MSTORE POP SWAP3 POP POP POP SWAP2 SWAP1 POP JUMP JUMPDEST PUSH1 0x0 DUP1 DUP3 PUSH1 0x0 ADD MLOAD GT DUP1 ISZERO PUSH3 0x8B5 JUMPI POP PUSH1 0x21 DUP3 PUSH1 0x0 ADD MLOAD GT ISZERO JUMPDEST PUSH3 0x8BF JUMPI PUSH1 0x0 DUP1 REVERT JUMPDEST PUSH1 0x0 PUSH3 0x8D6 DUP4 PUSH1 0x20 ADD MLOAD PUSH3 0xA4E PUSH1 0x20 SHL PUSH1 0x20 SHR JUMP JUMPDEST SWAP1 POP PUSH1 0x0 DUP2 DUP5 PUSH1 0x0 ADD MLOAD PUSH3 0x8EC SWAP2 SWAP1 PUSH3 0x134A JUMP JUMPDEST SWAP1 POP PUSH1 0x0 DUP1 DUP4 DUP7 PUSH1 0x20 ADD MLOAD PUSH3 0x903 SWAP2 SWAP1 PUSH3 0x1155 JUMP JUMPDEST SWAP1 POP DUP1 MLOAD SWAP2 POP PUSH1 0x20 DUP4 LT ISZERO PUSH3 0x920 JUMPI DUP3 PUSH1 0x20 SUB PUSH2 0x100 EXP DUP3 DIV SWAP2 POP JUMPDEST DUP2 SWAP5 POP POP POP POP POP SWAP2 SWAP1 POP JUMP JUMPDEST PUSH1 0x60 PUSH1 0x0 DUP3 PUSH1 0x0 ADD MLOAD GT PUSH3 0x940 JUMPI PUSH1 0x0 DUP1 REVERT JUMPDEST PUSH1 0x0 PUSH3 0x957 DUP4 PUSH1 0x20 ADD MLOAD PUSH3 0xA4E PUSH1 0x20 SHL PUSH1 0x20 SHR JUMP JUMPDEST SWAP1 POP PUSH1 0x0 DUP2 DUP5 PUSH1 0x0 ADD MLOAD PUSH3 0x96D SWAP2 SWAP1 PUSH3 0x134A JUMP JUMPDEST SWAP1 POP PUSH1 0x0 DUP2 PUSH8 0xFFFFFFFFFFFFFFFF DUP2 GT ISZERO PUSH3 0x98E JUMPI PUSH3 0x98D PUSH3 0x1563 JUMP JUMPDEST JUMPDEST PUSH1 0x40 MLOAD SWAP1 DUP1 DUP3 MSTORE DUP1 PUSH1 0x1F ADD PUSH1 0x1F NOT AND PUSH1 0x20 ADD DUP3 ADD PUSH1 0x40 MSTORE DUP1 ISZERO PUSH3 0x9C1 JUMPI DUP2 PUSH1 0x20 ADD PUSH1 0x1 DUP3 MUL DUP1 CALLDATASIZE DUP4 CALLDATACOPY DUP1 DUP3 ADD SWAP2 POP POP SWAP1 POP JUMPDEST POP SWAP1 POP PUSH1 0x0 DUP2 PUSH1 0x20 ADD SWAP1 POP PUSH3 0x9F0 DUP5 DUP8 PUSH1 0x20 ADD MLOAD PUSH3 0x9E2 SWAP2 SWAP1 PUSH3 0x1155 JUMP JUMPDEST DUP3 DUP6 PUSH3 0xC0D PUSH1 0x20 SHL PUSH1 0x20 SHR JUMP JUMPDEST DUP2 SWAP5 POP POP POP POP POP SWAP2 SWAP1 POP JUMP JUMPDEST PUSH1 0x0 DUP1 DUP3 PUSH1 0x0 ADD MLOAD EQ ISZERO PUSH3 0xA15 JUMPI PUSH1 0x0 SWAP1 POP PUSH3 0xA49 JUMP JUMPDEST PUSH1 0x0 DUP1 DUP4 PUSH1 0x20 ADD MLOAD SWAP1 POP DUP1 MLOAD PUSH1 0x0 BYTE SWAP2 POP PUSH1 0xC0 PUSH1 0xFF AND DUP3 PUSH1 0xFF AND LT ISZERO PUSH3 0xA42 JUMPI PUSH1 0x0 SWAP3 POP POP POP PUSH3 0xA49 JUMP JUMPDEST PUSH1 0x1 SWAP3 POP POP POP JUMPDEST SWAP2 SWAP1 POP JUMP JUMPDEST PUSH1 0x0 DUP1 DUP3 MLOAD PUSH1 0x0 BYTE SWAP1 POP PUSH1 0x80 PUSH1 0xFF AND DUP2 LT ISZERO PUSH3 0xA70 JUMPI PUSH1 0x0 SWAP2 POP POP PUSH3 0xB1C JUMP JUMPDEST PUSH1 0xB8 PUSH1 0xFF AND DUP2 LT DUP1 PUSH3 0xA97 JUMPI POP PUSH1 0xC0 PUSH1 0xFF AND DUP2 LT ISZERO DUP1 ISZERO PUSH3 0xA96 JUMPI POP PUSH1 0xF8 PUSH1 0xFF AND DUP2 LT JUMPDEST JUMPDEST ISZERO PUSH3 0xAA8 JUMPI PUSH1 0x1 SWAP2 POP POP PUSH3 0xB1C JUMP JUMPDEST PUSH1 0xC0 PUSH1 0xFF AND DUP2 LT ISZERO PUSH3 0xAEB JUMPI PUSH1 0x1 DUP1 PUSH1 0xB8 PUSH3 0xAC6 SWAP2 SWAP1 PUSH3 0x1385 JUMP JUMPDEST PUSH1 0xFF AND DUP3 PUSH3 0xAD6 SWAP2 SWAP1 PUSH3 0x134A JUMP JUMPDEST PUSH3 0xAE2 SWAP2 SWAP1 PUSH3 0x1155 JUMP JUMPDEST SWAP2 POP POP PUSH3 0xB1C JUMP JUMPDEST PUSH1 0x1 DUP1 PUSH1 0xF8 PUSH3 0xAFC SWAP2 SWAP1 PUSH3 0x1385 JUMP JUMPDEST PUSH1 0xFF AND DUP3 PUSH3 0xB0C SWAP2 SWAP1 PUSH3 0x134A JUMP JUMPDEST PUSH3 0xB18 SWAP2 SWAP1 PUSH3 0x1155 JUMP JUMPDEST SWAP2 POP POP JUMPDEST SWAP2 SWAP1 POP JUMP JUMPDEST PUSH1 0x0 DUP1 PUSH1 0x0 DUP4 MLOAD PUSH1 0x0 BYTE SWAP1 POP PUSH1 0x80 PUSH1 0xFF AND DUP2 LT ISZERO PUSH3 0xB44 JUMPI PUSH1 0x1 SWAP2 POP PUSH3 0xC03 JUMP JUMPDEST PUSH1 0xB8 PUSH1 0xFF AND DUP2 LT ISZERO PUSH3 0xB79 JUMPI PUSH1 0x1 PUSH1 0x80 PUSH1 0xFF AND DUP3 PUSH3 0xB65 SWAP2 SWAP1 PUSH3 0x134A JUMP JUMPDEST PUSH3 0xB71 SWAP2 SWAP1 PUSH3 0x1155 JUMP JUMPDEST SWAP2 POP PUSH3 0xC02 JUMP JUMPDEST PUSH1 0xC0 PUSH1 0xFF AND DUP2 LT ISZERO PUSH3 0xBAB JUMPI PUSH1 0xB7 DUP2 SUB PUSH1 0x1 DUP6 ADD SWAP5 POP DUP1 PUSH1 0x20 SUB PUSH2 0x100 EXP DUP6 MLOAD DIV PUSH1 0x1 DUP3 ADD DUP2 ADD SWAP4 POP POP POP PUSH3 0xC01 JUMP JUMPDEST PUSH1 0xF8 PUSH1 0xFF AND DUP2 LT ISZERO PUSH3 0xBE0 JUMPI PUSH1 0x1 PUSH1 0xC0 PUSH1 0xFF AND DUP3 PUSH3 0xBCC SWAP2 SWAP1 PUSH3 0x134A JUMP JUMPDEST PUSH3 0xBD8 SWAP2 SWAP1 PUSH3 0x1155 JUMP JUMPDEST SWAP2 POP PUSH3 0xC00 JUMP JUMPDEST PUSH1 0xF7 DUP2 SUB PUSH1 0x1 DUP6 ADD SWAP5 POP DUP1 PUSH1 0x20 SUB PUSH2 0x100 EXP DUP6 MLOAD DIV PUSH1 0x1 DUP3 ADD DUP2 ADD SWAP4 POP POP POP JUMPDEST JUMPDEST JUMPDEST JUMPDEST DUP2 SWAP3 POP POP POP SWAP2 SWAP1 POP JUMP JUMPDEST PUSH1 0x0 DUP2 EQ ISZERO PUSH3 0xC1D JUMPI PUSH3 0xCB5 JUMP JUMPDEST JUMPDEST PUSH1 0x20 PUSH1 0xFF AND DUP2 LT PUSH3 0xC70 JUMPI DUP3 MLOAD DUP3 MSTORE PUSH1 0x20 PUSH1 0xFF AND DUP4 PUSH3 0xC40 SWAP2 SWAP1 PUSH3 0x1155 JUMP JUMPDEST SWAP3 POP PUSH1 0x20 PUSH1 0xFF AND DUP3 PUSH3 0xC54 SWAP2 SWAP1 PUSH3 0x1155 JUMP JUMPDEST SWAP2 POP PUSH1 0x20 PUSH1 0xFF AND DUP2 PUSH3 0xC68 SWAP2 SWAP1 PUSH3 0x134A JUMP JUMPDEST SWAP1 POP PUSH3 0xC1E JUMP JUMPDEST PUSH1 0x0 PUSH1 0x1 DUP3 PUSH1 0x20 PUSH1 0xFF AND PUSH3 0xC86 SWAP2 SWAP1 PUSH3 0x134A JUMP JUMPDEST PUSH2 0x100 PUSH3 0xC95 SWAP2 SWAP1 PUSH3 0x120D JUMP JUMPDEST PUSH3 0xCA1 SWAP2 SWAP1 PUSH3 0x134A JUMP JUMPDEST SWAP1 POP DUP1 NOT DUP5 MLOAD AND DUP2 DUP5 MLOAD AND DUP2 DUP2 OR DUP6 MSTORE POP POP POP JUMPDEST POP POP POP JUMP JUMPDEST PUSH1 0x40 MLOAD DUP1 PUSH1 0x80 ADD PUSH1 0x40 MSTORE DUP1 PUSH1 0x0 PUSH3 0xFFFFFF AND DUP2 MSTORE PUSH1 0x20 ADD PUSH1 0x0 PUSH29 0xFFFFFFFFFFFFFFFFFFFFFFFFFFFFFFFFFFFFFFFFFFFFFFFFFFFFFFFFFF AND DUP2 MSTORE PUSH1 0x20 ADD PUSH1 0x0 DUP1 NOT AND DUP2 MSTORE PUSH1 0x20 ADD PUSH1 0x0 DUP1 NOT AND DUP2 MSTORE POP SWAP1 JUMP JUMPDEST DUP3 DUP1 SLOAD PUSH3 0xD1A SWAP1 PUSH3 0x144B JUMP JUMPDEST SWAP1 PUSH1 0x0 MSTORE PUSH1 0x20 PUSH1 0x0 KECCAK256 SWAP1 PUSH1 0x1F ADD PUSH1 0x20 SWAP1 DIV DUP2 ADD SWAP3 DUP3 PUSH3 0xD3E JUMPI PUSH1 0x0 DUP6 SSTORE PUSH3 0xD8A JUMP JUMPDEST DUP3 PUSH1 0x1F LT PUSH3 0xD59 JUMPI DUP1 MLOAD PUSH1 0xFF NOT AND DUP4 DUP1 ADD OR DUP6 SSTORE PUSH3 0xD8A JUMP JUMPDEST DUP3 DUP1 ADD PUSH1 0x1 ADD DUP6 SSTORE DUP3 ISZERO PUSH3 0xD8A JUMPI SWAP2 DUP3 ADD JUMPDEST DUP3 DUP2 GT ISZERO PUSH3 0xD89 JUMPI DUP3 MLOAD DUP3 SSTORE SWAP2 PUSH1 0x20 ADD SWAP2 SWAP1 PUSH1 0x1 ADD SWAP1 PUSH3 0xD6C JUMP JUMPDEST JUMPDEST POP SWAP1 POP PUSH3 0xD99 SWAP2 SWAP1 PUSH3 0xE53 JUMP JUMPDEST POP SWAP1 JUMP JUMPDEST PUSH1 0x40 MLOAD DUP1 PUSH2 0x1A0 ADD PUSH1 0x40 MSTORE DUP1 PUSH1 0x0 DUP1 NOT AND DUP2 MSTORE PUSH1 0x20 ADD PUSH1 0x0 DUP1 NOT AND DUP2 MSTORE PUSH1 0x20 ADD PUSH1 0x0 DUP1 NOT AND DUP2 MSTORE PUSH1 0x20 ADD PUSH1 0x0 DUP1 NOT AND DUP2 MSTORE PUSH1 0x20 ADD PUSH1 0x0 DUP1 NOT AND DUP2 MSTORE PUSH1 0x20 ADD PUSH1 0x0 DUP2 MSTORE PUSH1 0x20 ADD PUSH1 0x0 DUP2 MSTORE PUSH1 0x20 ADD PUSH1 0x0 DUP2 MSTORE PUSH1 0x20 ADD PUSH1 0x0 DUP1 NOT AND DUP2 MSTORE PUSH1 0x20 ADD PUSH1 0x0 DUP2 MSTORE PUSH1 0x20 ADD PUSH1 0x0 DUP2 MSTORE PUSH1 0x20 ADD PUSH1 0x0 DUP2 MSTORE PUSH1 0x20 ADD PUSH1 0x60 DUP2 MSTORE POP SWAP1 JUMP JUMPDEST PUSH1 0x40 MLOAD DUP1 PUSH1 0x40 ADD PUSH1 0x40 MSTORE DUP1 PUSH1 0x0 DUP2 MSTORE PUSH1 0x20 ADD PUSH1 0x0 DUP2 MSTORE POP SWAP1 JUMP JUMPDEST PUSH1 0x40 MLOAD DUP1 PUSH1 0x40 ADD PUSH1 0x40 MSTORE DUP1 PUSH3 0xE46 PUSH3 0xE17 JUMP JUMPDEST DUP2 MSTORE PUSH1 0x20 ADD PUSH1 0x0 DUP2 MSTORE POP SWAP1 JUMP JUMPDEST JUMPDEST DUP1 DUP3 GT ISZERO PUSH3 0xE6E JUMPI PUSH1 0x0 DUP2 PUSH1 0x0 SWAP1 SSTORE POP PUSH1 0x1 ADD PUSH3 0xE54 JUMP JUMPDEST POP SWAP1 JUMP JUMPDEST PUSH1 0x0 PUSH3 0xE89 PUSH3 0xE83 DUP5 PUSH3 0x10F9 JUMP JUMPDEST PUSH3 0x10D0 JUMP JUMPDEST SWAP1 POP DUP3 DUP2 MSTORE PUSH1 0x20 DUP2 ADD DUP5 DUP5 DUP5 ADD GT ISZERO PUSH3 0xEA8 JUMPI PUSH3 0xEA7 PUSH3 0x1597 JUMP JUMPDEST JUMPDEST PUSH3 0xEB5 DUP5 DUP3 DUP6 PUSH3 0x1415 JUMP JUMPDEST POP SWAP4 SWAP3 POP POP POP JUMP JUMPDEST PUSH1 0x0 DUP2 MLOAD SWAP1 POP PUSH3 0xECE DUP2 PUSH3 0x15C4 JUMP JUMPDEST SWAP3 SWAP2 POP POP JUMP JUMPDEST PUSH1 0x0 DUP3 PUSH1 0x1F DUP4 ADD SLT PUSH3 0xEEC JUMPI PUSH3 0xEEB PUSH3 0x1592 JUMP JUMPDEST JUMPDEST DUP2 MLOAD PUSH3 0xEFE DUP5 DUP3 PUSH1 0x20 DUP7 ADD PUSH3 0xE72 JUMP JUMPDEST SWAP2 POP POP SWAP3 SWAP2 POP POP JUMP JUMPDEST PUSH1 0x0 DUP2 MLOAD SWAP1 POP PUSH3 0xF18 DUP2 PUSH3 0x15DE JUMP JUMPDEST SWAP3 SWAP2 POP POP JUMP JUMPDEST PUSH1 0x0 DUP1 PUSH1 0x0 DUP1 PUSH1 0x80 DUP6 DUP8 SUB SLT ISZERO PUSH3 0xF3B JUMPI PUSH3 0xF3A PUSH3 0x15A1 JUMP JUMPDEST JUMPDEST PUSH1 0x0 DUP6 ADD MLOAD PUSH8 0xFFFFFFFFFFFFFFFF DUP2 GT ISZERO PUSH3 0xF5C JUMPI PUSH3 0xF5B PUSH3 0x159C JUMP JUMPDEST JUMPDEST PUSH3 0xF6A DUP8 DUP3 DUP9 ADD PUSH3 0xED4 JUMP JUMPDEST SWAP5 POP POP PUSH1 0x20 PUSH3 0xF7D DUP8 DUP3 DUP9 ADD PUSH3 0xF07 JUMP JUMPDEST SWAP4 POP POP PUSH1 0x40 PUSH3 0xF90 DUP8 DUP3 DUP9 ADD PUSH3 0xEBD JUMP JUMPDEST SWAP3 POP POP PUSH1 0x60 DUP6 ADD MLOAD PUSH8 0xFFFFFFFFFFFFFFFF DUP2 GT ISZERO PUSH3 0xFB4 JUMPI PUSH3 0xFB3 PUSH3 0x159C JUMP JUMPDEST JUMPDEST PUSH3 0xFC2 DUP8 DUP3 DUP9 ADD PUSH3 0xED4 JUMP JUMPDEST SWAP2 POP POP SWAP3 SWAP6 SWAP2 SWAP5 POP SWAP3 POP JUMP JUMPDEST PUSH3 0xFD9 DUP2 PUSH3 0x13C0 JUMP JUMPDEST DUP3 MSTORE POP POP JUMP JUMPDEST PUSH3 0xFEA DUP2 PUSH3 0x13D4 JUMP JUMPDEST DUP3 MSTORE POP POP JUMP JUMPDEST PUSH1 0x0 DUP2 SLOAD PUSH3 0xFFF DUP2 PUSH3 0x144B JUMP JUMPDEST PUSH3 0x100B DUP2 DUP7 PUSH3 0x1144 JUMP JUMPDEST SWAP5 POP PUSH1 0x1 DUP3 AND PUSH1 0x0 DUP2 EQ PUSH3 0x1029 JUMPI PUSH1 0x1 DUP2 EQ PUSH3 0x103C JUMPI PUSH3 0x1073 JUMP JUMPDEST PUSH1 0xFF NOT DUP4 AND DUP7 MSTORE PUSH1 0x20 DUP7 ADD SWAP4 POP PUSH3 0x1073 JUMP JUMPDEST PUSH3 0x1047 DUP6 PUSH3 0x112F JUMP JUMPDEST PUSH1 0x0 JUMPDEST DUP4 DUP2 LT ISZERO PUSH3 0x106B JUMPI DUP2 SLOAD DUP2 DUP10 ADD MSTORE PUSH1 0x1 DUP3 ADD SWAP2 POP PUSH1 0x20 DUP2 ADD SWAP1 POP PUSH3 0x104A JUMP JUMPDEST DUP1 DUP9 ADD SWAP6 POP POP POP JUMPDEST POP POP POP SWAP3 SWAP2 POP POP JUMP JUMPDEST PUSH1 0x0 PUSH1 0x80 DUP3 ADD SWAP1 POP PUSH3 0x1093 PUSH1 0x0 DUP4 ADD DUP8 PUSH3 0xFDF JUMP JUMPDEST PUSH3 0x10A2 PUSH1 0x20 DUP4 ADD DUP7 PUSH3 0xFDF JUMP JUMPDEST DUP2 DUP2 SUB PUSH1 0x40 DUP4 ADD MSTORE PUSH3 0x10B6 DUP2 DUP6 PUSH3 0xFF0 JUMP JUMPDEST SWAP1 POP PUSH3 0x10C7 PUSH1 0x60 DUP4 ADD DUP5 PUSH3 0xFCE JUMP JUMPDEST SWAP6 SWAP5 POP POP POP POP POP JUMP JUMPDEST PUSH1 0x0 PUSH3 0x10DC PUSH3 0x10EF JUMP JUMPDEST SWAP1 POP PUSH3 0x10EA DUP3 DUP3 PUSH3 0x1481 JUMP JUMPDEST SWAP2 SWAP1 POP JUMP JUMPDEST PUSH1 0x0 PUSH1 0x40 MLOAD SWAP1 POP SWAP1 JUMP JUMPDEST PUSH1 0x0 PUSH8 0xFFFFFFFFFFFFFFFF DUP3 GT ISZERO PUSH3 0x1117 JUMPI PUSH3 0x1116 PUSH3 0x1563 JUMP JUMPDEST JUMPDEST PUSH3 0x1122 DUP3 PUSH3 0x15A6 JUMP JUMPDEST SWAP1 POP PUSH1 0x20 DUP2 ADD SWAP1 POP SWAP2 SWAP1 POP JUMP JUMPDEST PUSH1 0x0 DUP2 SWAP1 POP DUP2 PUSH1 0x0 MSTORE PUSH1 0x20 PUSH1 0x0 KECCAK256 SWAP1 POP SWAP2 SWAP1 POP JUMP JUMPDEST PUSH1 0x0 DUP3 DUP3 MSTORE PUSH1 0x20 DUP3 ADD SWAP1 POP SWAP3 SWAP2 POP POP JUMP JUMPDEST PUSH1 0x0 PUSH3 0x1162 DUP3 PUSH3 0x13FE JUMP JUMPDEST SWAP2 POP PUSH3 0x116F DUP4 PUSH3 0x13FE JUMP JUMPDEST SWAP3 POP DUP3 PUSH32 0xFFFFFFFFFFFFFFFFFFFFFFFFFFFFFFFFFFFFFFFFFFFFFFFFFFFFFFFFFFFFFFFF SUB DUP3 GT ISZERO PUSH3 0x11A7 JUMPI PUSH3 0x11A6 PUSH3 0x1505 JUMP JUMPDEST JUMPDEST DUP3 DUP3 ADD SWAP1 POP SWAP3 SWAP2 POP POP JUMP JUMPDEST PUSH1 0x0 DUP1 DUP3 SWAP2 POP DUP4 SWAP1 POP JUMPDEST PUSH1 0x1 DUP6 GT ISZERO PUSH3 0x1204 JUMPI DUP1 DUP7 DIV DUP2 GT ISZERO PUSH3 0x11DC JUMPI PUSH3 0x11DB PUSH3 0x1505 JUMP JUMPDEST JUMPDEST PUSH1 0x1 DUP6 AND ISZERO PUSH3 0x11EC JUMPI DUP1 DUP3 MUL SWAP2 POP JUMPDEST DUP1 DUP2 MUL SWAP1 POP PUSH3 0x11FC DUP6 PUSH3 0x15B7 JUMP JUMPDEST SWAP5 POP PUSH3 0x11BC JUMP JUMPDEST SWAP5 POP SWAP5 SWAP3 POP POP POP JUMP JUMPDEST PUSH1 0x0 PUSH3 0x121A DUP3 PUSH3 0x13FE JUMP JUMPDEST SWAP2 POP PUSH3 0x1227 DUP4 PUSH3 0x13FE JUMP JUMPDEST SWAP3 POP PUSH3 0x1256 PUSH32 0xFFFFFFFFFFFFFFFFFFFFFFFFFFFFFFFFFFFFFFFFFFFFFFFFFFFFFFFFFFFFFFFF DUP5 DUP5 PUSH3 0x125E JUMP JUMPDEST SWAP1 POP SWAP3 SWAP2 POP POP JUMP JUMPDEST PUSH1 0x0 DUP3 PUSH3 0x1270 JUMPI PUSH1 0x1 SWAP1 POP PUSH3 0x1343 JUMP JUMPDEST DUP2 PUSH3 0x1280 JUMPI PUSH1 0x0 SWAP1 POP PUSH3 0x1343 JUMP JUMPDEST DUP2 PUSH1 0x1 DUP2 EQ PUSH3 0x1299 JUMPI PUSH1 0x2 DUP2 EQ PUSH3 0x12A4 JUMPI PUSH3 0x12DA JUMP JUMPDEST PUSH1 0x1 SWAP2 POP POP PUSH3 0x1343 JUMP JUMPDEST PUSH1 0xFF DUP5 GT ISZERO PUSH3 0x12B9 JUMPI PUSH3 0x12B8 PUSH3 0x1505 JUMP JUMPDEST JUMPDEST DUP4 PUSH1 0x2 EXP SWAP2 POP DUP5 DUP3 GT ISZERO PUSH3 0x12D3 JUMPI PUSH3 0x12D2 PUSH3 0x1505 JUMP JUMPDEST JUMPDEST POP PUSH3 0x1343 JUMP JUMPDEST POP PUSH1 0x20 DUP4 LT PUSH2 0x133 DUP4 LT AND PUSH1 0x4E DUP5 LT PUSH1 0xB DUP5 LT AND OR ISZERO PUSH3 0x1314 JUMPI DUP3 DUP3 EXP SWAP1 POP DUP4 DUP2 GT ISZERO PUSH3 0x130E JUMPI PUSH3 0x130D PUSH3 0x1505 JUMP JUMPDEST JUMPDEST PUSH3 0x1343 JUMP JUMPDEST PUSH3 0x1323 DUP5 DUP5 DUP5 PUSH1 0x1 PUSH3 0x11B2 JUMP JUMPDEST SWAP3 POP SWAP1 POP DUP2 DUP5 DIV DUP2 GT ISZERO PUSH3 0x133D JUMPI PUSH3 0x133C PUSH3 0x1505 JUMP JUMPDEST JUMPDEST DUP2 DUP2 MUL SWAP1 POP JUMPDEST SWAP4 SWAP3 POP POP POP JUMP JUMPDEST PUSH1 0x0 PUSH3 0x1357 DUP3 PUSH3 0x13FE JUMP JUMPDEST SWAP2 POP PUSH3 0x1364 DUP4 PUSH3 0x13FE JUMP JUMPDEST SWAP3 POP DUP3 DUP3 LT ISZERO PUSH3 0x137A JUMPI PUSH3 0x1379 PUSH3 0x1505 JUMP JUMPDEST JUMPDEST DUP3 DUP3 SUB SWAP1 POP SWAP3 SWAP2 POP POP JUMP JUMPDEST PUSH1 0x0 PUSH3 0x1392 DUP3 PUSH3 0x1408 JUMP JUMPDEST SWAP2 POP PUSH3 0x139F DUP4 PUSH3 0x1408 JUMP JUMPDEST SWAP3 POP DUP3 DUP3 LT ISZERO PUSH3 0x13B5 JUMPI PUSH3 0x13B4 PUSH3 0x1505 JUMP JUMPDEST JUMPDEST DUP3 DUP3 SUB SWAP1 POP SWAP3 SWAP2 POP POP JUMP JUMPDEST PUSH1 0x0 PUSH3 0x13CD DUP3 PUSH3 0x13DE JUMP JUMPDEST SWAP1 POP SWAP2 SWAP1 POP JUMP JUMPDEST PUSH1 0x0 DUP2 SWAP1 POP SWAP2 SWAP1 POP JUMP JUMPDEST PUSH1 0x0 PUSH20 0xFFFFFFFFFFFFFFFFFFFFFFFFFFFFFFFFFFFFFFFF DUP3 AND SWAP1 POP SWAP2 SWAP1 POP JUMP JUMPDEST PUSH1 0x0 DUP2 SWAP1 POP SWAP2 SWAP1 POP JUMP JUMPDEST PUSH1 0x0 PUSH1 0xFF DUP3 AND SWAP1 POP SWAP2 SWAP1 POP JUMP JUMPDEST PUSH1 0x0 JUMPDEST DUP4 DUP2 LT ISZERO PUSH3 0x1435 JUMPI DUP1 DUP3 ADD MLOAD DUP2 DUP5 ADD MSTORE PUSH1 0x20 DUP2 ADD SWAP1 POP PUSH3 0x1418 JUMP JUMPDEST DUP4 DUP2 GT ISZERO PUSH3 0x1445 JUMPI PUSH1 0x0 DUP5 DUP5 ADD MSTORE JUMPDEST POP POP POP POP JUMP JUMPDEST PUSH1 0x0 PUSH1 0x2 DUP3 DIV SWAP1 POP PUSH1 0x1 DUP3 AND DUP1 PUSH3 0x1464 JUMPI PUSH1 0x7F DUP3 AND SWAP2 POP JUMPDEST PUSH1 0x20 DUP3 LT DUP2 EQ ISZERO PUSH3 0x147B JUMPI PUSH3 0x147A PUSH3 0x1534 JUMP JUMPDEST JUMPDEST POP SWAP2 SWAP1 POP JUMP JUMPDEST PUSH3 0x148C DUP3 PUSH3 0x15A6 JUMP JUMPDEST DUP2 ADD DUP2 DUP2 LT PUSH8 0xFFFFFFFFFFFFFFFF DUP3 GT OR ISZERO PUSH3 0x14AE JUMPI PUSH3 0x14AD PUSH3 0x1563 JUMP JUMPDEST JUMPDEST DUP1 PUSH1 0x40 MSTORE POP POP POP JUMP JUMPDEST PUSH1 0x0 PUSH3 0x14C4 DUP3 PUSH3 0x13FE JUMP JUMPDEST SWAP2 POP PUSH32 0xFFFFFFFFFFFFFFFFFFFFFFFFFFFFFFFFFFFFFFFFFFFFFFFFFFFFFFFFFFFFFFFF DUP3 EQ ISZERO PUSH3 0x14FA JUMPI PUSH3 0x14F9 PUSH3 0x1505 JUMP JUMPDEST JUMPDEST PUSH1 0x1 DUP3 ADD SWAP1 POP SWAP2 SWAP1 POP JUMP JUMPDEST PUSH32 0x4E487B7100000000000000000000000000000000000000000000000000000000 PUSH1 0x0 MSTORE PUSH1 0x11 PUSH1 0x4 MSTORE PUSH1 0x24 PUSH1 0x0 REVERT JUMPDEST PUSH32 0x4E487B7100000000000000000000000000000000000000000000000000000000 PUSH1 0x0 MSTORE PUSH1 0x22 PUSH1 0x4 MSTORE PUSH1 0x24 PUSH1 0x0 REVERT JUMPDEST PUSH32 0x4E487B7100000000000000000000000000000000000000000000000000000000 PUSH1 0x0 MSTORE PUSH1 0x41 PUSH1 0x4 MSTORE PUSH1 0x24 PUSH1 0x0 REVERT JUMPDEST PUSH1 0x0 DUP1 REVERT JUMPDEST PUSH1 0x0 DUP1 REVERT JUMPDEST PUSH1 0x0 DUP1 REVERT JUMPDEST PUSH1 0x0 DUP1 REVERT JUMPDEST PUSH1 0x0 PUSH1 0x1F NOT PUSH1 0x1F DUP4 ADD AND SWAP1 POP SWAP2 SWAP1 POP JUMP JUMPDEST PUSH1 0x0 DUP2 PUSH1 0x1 SHR SWAP1 POP SWAP2 SWAP1 POP JUMP JUMPDEST PUSH3 0x15CF DUP2 PUSH3 0x13C0 JUMP JUMPDEST DUP2 EQ PUSH3 0x15DB JUMPI PUSH1 0x0 DUP1 REVERT JUMPDEST POP JUMP JUMPDEST PUSH3 0x15E9 DUP2 PUSH3 0x13FE JUMP JUMPDEST DUP2 EQ PUSH3 0x15F5 JUMPI PUSH1 0x0 DUP1 REVERT JUMPDEST POP JUMP JUMPDEST PUSH2 0x1495 DUP1 PUSH3 0x1608 PUSH1 0x0 CODECOPY PUSH1 0x0 RETURN INVALID PUSH1 0x80 PUSH1 0x40 MSTORE CALLVALUE DUP1 ISZERO PUSH2 0x10 JUMPI PUSH1 0x0 DUP1 REVERT JUMPDEST POP PUSH1 0x4 CALLDATASIZE LT PUSH2 0x57 JUMPI PUSH1 0x0 CALLDATALOAD PUSH1 0xE0 SHR DUP1 PUSH4 0x1865C57D EQ PUSH2 0x5C JUMPI DUP1 PUSH4 0x18D27EF2 EQ PUSH2 0x7A JUMPI DUP1 PUSH4 0x29A12BE9 EQ PUSH2 0xAA JUMPI DUP1 PUSH4 0x87CEACD1 EQ PUSH2 0xC8 JUMPI DUP1 PUSH4 0xBE0F79F7 EQ PUSH2 0xFB JUMPI JUMPDEST PUSH1 0x0 DUP1 REVERT JUMPDEST PUSH2 0x64 PUSH2 0x12B JUMP JUMPDEST PUSH1 0x40 MLOAD PUSH2 0x71 SWAP2 SWAP1 PUSH2 0x101B JUMP JUMPDEST PUSH1 0x40 MLOAD DUP1 SWAP2 SUB SWAP1 RETURN JUMPDEST PUSH2 0x94 PUSH1 0x4 DUP1 CALLDATASIZE SUB DUP2 ADD SWAP1 PUSH2 0x8F SWAP2 SWAP1 PUSH2 0xDA3 JUMP JUMPDEST PUSH2 0x623 JUMP JUMPDEST PUSH1 0x40 MLOAD PUSH2 0xA1 SWAP2 SWAP1 PUSH2 0xFA0 JUMP JUMPDEST PUSH1 0x40 MLOAD DUP1 SWAP2 SUB SWAP1 RETURN JUMPDEST PUSH2 0xB2 PUSH2 0x637 JUMP JUMPDEST PUSH1 0x40 MLOAD PUSH2 0xBF SWAP2 SWAP1 PUSH2 0xFBB JUMP JUMPDEST PUSH1 0x40 MLOAD DUP1 SWAP2 SUB SWAP1 RETURN JUMPDEST PUSH2 0xE2 PUSH1 0x4 DUP1 CALLDATASIZE SUB DUP2 ADD SWAP1 PUSH2 0xDD SWAP2 SWAP1 PUSH2 0xDA3 JUMP JUMPDEST PUSH2 0x641 JUMP JUMPDEST PUSH1 0x40 MLOAD PUSH2 0xF2 SWAP5 SWAP4 SWAP3 SWAP2 SWAP1 PUSH2 0xFD6 JUMP JUMPDEST PUSH1 0x40 MLOAD DUP1 SWAP2 SUB SWAP1 RETURN JUMPDEST PUSH2 0x115 PUSH1 0x4 DUP1 CALLDATASIZE SUB DUP2 ADD SWAP1 PUSH2 0x110 SWAP2 SWAP1 PUSH2 0xDA3 JUMP JUMPDEST PUSH2 0x6DC JUMP JUMPDEST PUSH1 0x40 MLOAD PUSH2 0x122 SWAP2 SWAP1 PUSH2 0xFA0 JUMP JUMPDEST PUSH1 0x40 MLOAD DUP1 SWAP2 SUB SWAP1 RETURN JUMPDEST PUSH2 0x133 PUSH2 0xBC1 JUMP JUMPDEST PUSH1 0xD PUSH1 0x6 ADD PUSH1 0x0 SWAP1 SLOAD SWAP1 PUSH2 0x100 EXP SWAP1 DIV PUSH8 0xFFFFFFFFFFFFFFFF AND PUSH8 0xFFFFFFFFFFFFFFFF AND TIMESTAMP GT ISZERO PUSH2 0x3AC JUMPI PUSH1 0xD PUSH1 0x2 PUSH1 0x0 DUP3 ADD DUP2 PUSH1 0x0 ADD PUSH1 0x0 DUP3 ADD PUSH1 0x0 SWAP1 SLOAD SWAP1 PUSH2 0x100 EXP SWAP1 DIV PUSH3 0xFFFFFF AND DUP2 PUSH1 0x0 ADD PUSH1 0x0 PUSH2 0x100 EXP DUP2 SLOAD DUP2 PUSH3 0xFFFFFF MUL NOT AND SWAP1 DUP4 PUSH3 0xFFFFFF AND MUL OR SWAP1 SSTORE POP PUSH1 0x0 DUP3 ADD PUSH1 0x3 SWAP1 SLOAD SWAP1 PUSH2 0x100 EXP SWAP1 DIV PUSH29 0xFFFFFFFFFFFFFFFFFFFFFFFFFFFFFFFFFFFFFFFFFFFFFFFFFFFFFFFFFF AND DUP2 PUSH1 0x0 ADD PUSH1 0x3 PUSH2 0x100 EXP DUP2 SLOAD DUP2 PUSH29 0xFFFFFFFFFFFFFFFFFFFFFFFFFFFFFFFFFFFFFFFFFFFFFFFFFFFFFFFFFF MUL NOT AND SWAP1 DUP4 PUSH29 0xFFFFFFFFFFFFFFFFFFFFFFFFFFFFFFFFFFFFFFFFFFFFFFFFFFFFFFFFFF AND MUL OR SWAP1 SSTORE POP PUSH1 0x1 DUP3 ADD SLOAD DUP2 PUSH1 0x1 ADD SSTORE PUSH1 0x2 DUP3 ADD SLOAD DUP2 PUSH1 0x2 ADD SSTORE POP POP PUSH1 0x3 DUP3 ADD DUP2 PUSH1 0x3 ADD PUSH1 0x0 DUP3 ADD PUSH1 0x0 SWAP1 SLOAD SWAP1 PUSH2 0x100 EXP SWAP1 DIV PUSH20 0xFFFFFFFFFFFFFFFFFFFFFFFFFFFFFFFFFFFFFFFF AND DUP2 PUSH1 0x0 ADD PUSH1 0x0 PUSH2 0x100 EXP DUP2 SLOAD DUP2 PUSH20 0xFFFFFFFFFFFFFFFFFFFFFFFFFFFFFFFFFFFFFFFF MUL NOT AND SWAP1 DUP4 PUSH20 0xFFFFFFFFFFFFFFFFFFFFFFFFFFFFFFFFFFFFFFFF AND MUL OR SWAP1 SSTORE POP PUSH1 0x1 DUP3 ADD SLOAD DUP2 PUSH1 0x1 ADD SSTORE PUSH1 0x2 DUP3 ADD PUSH1 0x0 SWAP1 SLOAD SWAP1 PUSH2 0x100 EXP SWAP1 DIV PUSH1 0xFF AND DUP2 PUSH1 0x2 ADD PUSH1 0x0 PUSH2 0x100 EXP DUP2 SLOAD DUP2 PUSH1 0xFF MUL NOT AND SWAP1 DUP4 ISZERO ISZERO MUL OR SWAP1 SSTORE POP POP POP PUSH1 0x6 DUP3 ADD PUSH1 0x0 SWAP1 SLOAD SWAP1 PUSH2 0x100 EXP SWAP1 DIV PUSH8 0xFFFFFFFFFFFFFFFF AND DUP2 PUSH1 0x6 ADD PUSH1 0x0 PUSH2 0x100 EXP DUP2 SLOAD DUP2 PUSH8 0xFFFFFFFFFFFFFFFF MUL NOT AND SWAP1 DUP4 PUSH8 0xFFFFFFFFFFFFFFFF AND MUL OR SWAP1 SSTORE POP PUSH1 0x6 DUP3 ADD PUSH1 0x8 SWAP1 SLOAD SWAP1 PUSH2 0x100 EXP SWAP1 DIV PUSH20 0xFFFFFFFFFFFFFFFFFFFFFFFFFFFFFFFFFFFFFFFF AND DUP2 PUSH1 0x6 ADD PUSH1 0x8 PUSH2 0x100 EXP DUP2 SLOAD DUP2 PUSH20 0xFFFFFFFFFFFFFFFFFFFFFFFFFFFFFFFFFFFFFFFF MUL NOT AND SWAP1 DUP4 PUSH20 0xFFFFFFFFFFFFFFFFFFFFFFFFFFFFFFFFFFFFFFFF AND MUL OR SWAP1 SSTORE POP PUSH1 0x7 DUP3 ADD DUP2 PUSH1 0x7 ADD SWAP1 DUP1 SLOAD PUSH2 0x39C SWAP1 PUSH2 0x1366 JUMP JUMPDEST PUSH2 0x3A7 SWAP3 SWAP2 SWAP1 PUSH2 0xC1C JUMP JUMPDEST POP SWAP1 POP POP JUMPDEST PUSH1 0x2 PUSH1 0x40 MLOAD DUP1 PUSH1 0xA0 ADD PUSH1 0x40 MSTORE SWAP1 DUP2 PUSH1 0x0 DUP3 ADD PUSH1 0x40 MLOAD DUP1 PUSH1 0x80 ADD PUSH1 0x40 MSTORE SWAP1 DUP2 PUSH1 0x0 DUP3 ADD PUSH1 0x0 SWAP1 SLOAD SWAP1 PUSH2 0x100 EXP SWAP1 DIV PUSH3 0xFFFFFF AND PUSH3 0xFFFFFF AND PUSH3 0xFFFFFF AND DUP2 MSTORE PUSH1 0x20 ADD PUSH1 0x0 DUP3 ADD PUSH1 0x3 SWAP1 SLOAD SWAP1 PUSH2 0x100 EXP SWAP1 DIV PUSH29 0xFFFFFFFFFFFFFFFFFFFFFFFFFFFFFFFFFFFFFFFFFFFFFFFFFFFFFFFFFF AND PUSH29 0xFFFFFFFFFFFFFFFFFFFFFFFFFFFFFFFFFFFFFFFFFFFFFFFFFFFFFFFFFF AND PUSH29 0xFFFFFFFFFFFFFFFFFFFFFFFFFFFFFFFFFFFFFFFFFFFFFFFFFFFFFFFFFF AND DUP2 MSTORE PUSH1 0x20 ADD PUSH1 0x1 DUP3 ADD SLOAD DUP2 MSTORE PUSH1 0x20 ADD PUSH1 0x2 DUP3 ADD SLOAD DUP2 MSTORE POP POP DUP2 MSTORE PUSH1 0x20 ADD PUSH1 0x3 DUP3 ADD PUSH1 0x40 MLOAD DUP1 PUSH1 0x60 ADD PUSH1 0x40 MSTORE SWAP1 DUP2 PUSH1 0x0 DUP3 ADD PUSH1 0x0 SWAP1 SLOAD SWAP1 PUSH2 0x100 EXP SWAP1 DIV PUSH20 0xFFFFFFFFFFFFFFFFFFFFFFFFFFFFFFFFFFFFFFFF AND PUSH20 0xFFFFFFFFFFFFFFFFFFFFFFFFFFFFFFFFFFFFFFFF AND PUSH20 0xFFFFFFFFFFFFFFFFFFFFFFFFFFFFFFFFFFFFFFFF AND DUP2 MSTORE PUSH1 0x20 ADD PUSH1 0x1 DUP3 ADD SLOAD DUP2 MSTORE PUSH1 0x20 ADD PUSH1 0x2 DUP3 ADD PUSH1 0x0 SWAP1 SLOAD SWAP1 PUSH2 0x100 EXP SWAP1 DIV PUSH1 0xFF AND ISZERO ISZERO ISZERO ISZERO DUP2 MSTORE POP POP DUP2 MSTORE PUSH1 0x20 ADD PUSH1 0x6 DUP3 ADD PUSH1 0x0 SWAP1 SLOAD SWAP1 PUSH2 0x100 EXP SWAP1 DIV PUSH8 0xFFFFFFFFFFFFFFFF AND PUSH8 0xFFFFFFFFFFFFFFFF AND PUSH8 0xFFFFFFFFFFFFFFFF AND DUP2 MSTORE PUSH1 0x20 ADD PUSH1 0x6 DUP3 ADD PUSH1 0x8 SWAP1 SLOAD SWAP1 PUSH2 0x100 EXP SWAP1 DIV PUSH20 0xFFFFFFFFFFFFFFFFFFFFFFFFFFFFFFFFFFFFFFFF AND PUSH20 0xFFFFFFFFFFFFFFFFFFFFFFFFFFFFFFFFFFFFFFFF AND PUSH20 0xFFFFFFFFFFFFFFFFFFFFFFFFFFFFFFFFFFFFFFFF AND DUP2 MSTORE PUSH1 0x20 ADD PUSH1 0x7 DUP3 ADD DUP1 SLOAD PUSH2 0x59C SWAP1 PUSH2 0x1366 JUMP JUMPDEST DUP1 PUSH1 0x1F ADD PUSH1 0x20 DUP1 SWAP2 DIV MUL PUSH1 0x20 ADD PUSH1 0x40 MLOAD SWAP1 DUP2 ADD PUSH1 0x40 MSTORE DUP1 SWAP3 SWAP2 SWAP1 DUP2 DUP2 MSTORE PUSH1 0x20 ADD DUP3 DUP1 SLOAD PUSH2 0x5C8 SWAP1 PUSH2 0x1366 JUMP JUMPDEST DUP1 ISZERO PUSH2 0x615 JUMPI DUP1 PUSH1 0x1F LT PUSH2 0x5EA JUMPI PUSH2 0x100 DUP1 DUP4 SLOAD DIV MUL DUP4 MSTORE SWAP2 PUSH1 0x20 ADD SWAP2 PUSH2 0x615 JUMP JUMPDEST DUP3 ADD SWAP2 SWAP1 PUSH1 0x0 MSTORE PUSH1 0x20 PUSH1 0x0 KECCAK256 SWAP1 JUMPDEST DUP2 SLOAD DUP2 MSTORE SWAP1 PUSH1 0x1 ADD SWAP1 PUSH1 0x20 ADD DUP1 DUP4 GT PUSH2 0x5F8 JUMPI DUP3 SWAP1 SUB PUSH1 0x1F AND DUP3 ADD SWAP2 JUMPDEST POP POP POP POP POP DUP2 MSTORE POP POP SWAP1 POP SWAP1 JUMP JUMPDEST PUSH1 0x0 DUP2 PUSH1 0x2 PUSH1 0x0 ADD PUSH1 0x2 ADD SLOAD EQ SWAP1 POP SWAP2 SWAP1 POP JUMP JUMPDEST PUSH1 0x0 PUSH1 0x1 SLOAD SWAP1 POP SWAP1 JUMP JUMPDEST PUSH1 0x0 DUP1 PUSH1 0x0 DUP1 PUSH1 0x2 PUSH1 0x0 ADD PUSH1 0x2 ADD SLOAD PUSH1 0x2 PUSH1 0x0 ADD PUSH1 0x0 ADD PUSH1 0x0 SWAP1 SLOAD SWAP1 PUSH2 0x100 EXP SWAP1 DIV PUSH3 0xFFFFFF AND PUSH1 0x2 PUSH1 0x0 ADD PUSH1 0x0 ADD PUSH1 0x3 SWAP1 SLOAD SWAP1 PUSH2 0x100 EXP SWAP1 DIV PUSH29 0xFFFFFFFFFFFFFFFFFFFFFFFFFFFFFFFFFFFFFFFFFFFFFFFFFFFFFFFFFF AND PUSH1 0x2 PUSH1 0x0 ADD PUSH1 0x1 ADD SLOAD DUP3 PUSH3 0xFFFFFF AND SWAP3 POP DUP2 PUSH29 0xFFFFFFFFFFFFFFFFFFFFFFFFFFFFFFFFFFFFFFFFFFFFFFFFFFFFFFFFFF AND SWAP2 POP SWAP4 POP SWAP4 POP SWAP4 POP SWAP4 POP SWAP2 SWAP4 POP SWAP2 SWAP4 JUMP JUMPDEST PUSH1 0x0 DUP2 PUSH1 0x1E PUSH1 0x2 ADD SLOAD EQ SWAP1 POP SWAP2 SWAP1 POP JUMP JUMPDEST PUSH2 0x6F5 PUSH2 0xCA9 JUMP JUMPDEST PUSH1 0x0 PUSH1 0x20 DUP4 ADD SWAP1 POP PUSH1 0x40 MLOAD DUP1 PUSH1 0x40 ADD PUSH1 0x40 MSTORE DUP1 DUP5 MLOAD DUP2 MSTORE PUSH1 0x20 ADD DUP3 DUP2 MSTORE POP SWAP2 POP POP SWAP2 SWAP1 POP JUMP JUMPDEST PUSH2 0x723 PUSH2 0xCC3 JUMP JUMPDEST PUSH2 0x72C DUP3 PUSH2 0x93B JUMP JUMPDEST PUSH2 0x735 JUMPI PUSH1 0x0 DUP1 REVERT JUMPDEST PUSH1 0x0 PUSH2 0x744 DUP4 PUSH1 0x20 ADD MLOAD PUSH2 0x989 JUMP JUMPDEST DUP4 PUSH1 0x20 ADD MLOAD PUSH2 0x753 SWAP2 SWAP1 PUSH2 0x1059 JUMP JUMPDEST SWAP1 POP PUSH1 0x40 MLOAD DUP1 PUSH1 0x40 ADD PUSH1 0x40 MSTORE DUP1 DUP5 DUP2 MSTORE PUSH1 0x20 ADD DUP3 DUP2 MSTORE POP SWAP2 POP POP SWAP2 SWAP1 POP JUMP JUMPDEST PUSH1 0x0 DUP1 DUP3 PUSH1 0x0 ADD MLOAD SWAP1 POP DUP1 PUSH1 0x0 ADD MLOAD DUP2 PUSH1 0x20 ADD MLOAD PUSH2 0x790 SWAP2 SWAP1 PUSH2 0x1059 JUMP JUMPDEST DUP4 PUSH1 0x20 ADD MLOAD LT SWAP2 POP POP SWAP2 SWAP1 POP JUMP JUMPDEST PUSH2 0x7A6 PUSH2 0xCA9 JUMP JUMPDEST PUSH2 0x7AF DUP3 PUSH2 0x772 JUMP JUMPDEST PUSH2 0x7B8 JUMPI PUSH1 0x0 DUP1 REVERT JUMPDEST PUSH1 0x0 DUP3 PUSH1 0x20 ADD MLOAD SWAP1 POP PUSH1 0x0 PUSH2 0x7CC DUP3 PUSH2 0xA48 JUMP JUMPDEST SWAP1 POP DUP1 DUP3 PUSH2 0x7DA SWAP2 SWAP1 PUSH2 0x1059 JUMP JUMPDEST DUP5 PUSH1 0x20 ADD DUP2 DUP2 MSTORE POP POP PUSH1 0x40 MLOAD DUP1 PUSH1 0x40 ADD PUSH1 0x40 MSTORE DUP1 DUP3 DUP2 MSTORE PUSH1 0x20 ADD DUP4 DUP2 MSTORE POP SWAP3 POP POP POP SWAP2 SWAP1 POP JUMP JUMPDEST PUSH1 0x0 DUP1 DUP3 PUSH1 0x0 ADD MLOAD GT DUP1 ISZERO PUSH2 0x81B JUMPI POP PUSH1 0x21 DUP3 PUSH1 0x0 ADD MLOAD GT ISZERO JUMPDEST PUSH2 0x824 JUMPI PUSH1 0x0 DUP1 REVERT JUMPDEST PUSH1 0x0 PUSH2 0x833 DUP4 PUSH1 0x20 ADD MLOAD PUSH2 0x989 JUMP JUMPDEST SWAP1 POP PUSH1 0x0 DUP2 DUP5 PUSH1 0x0 ADD MLOAD PUSH2 0x847 SWAP2 SWAP1 PUSH2 0x1220 JUMP JUMPDEST SWAP1 POP PUSH1 0x0 DUP1 DUP4 DUP7 PUSH1 0x20 ADD MLOAD PUSH2 0x85C SWAP2 SWAP1 PUSH2 0x1059 JUMP JUMPDEST SWAP1 POP DUP1 MLOAD SWAP2 POP PUSH1 0x20 DUP4 LT ISZERO PUSH2 0x878 JUMPI DUP3 PUSH1 0x20 SUB PUSH2 0x100 EXP DUP3 DIV SWAP2 POP JUMPDEST DUP2 SWAP5 POP POP POP POP POP SWAP2 SWAP1 POP JUMP JUMPDEST PUSH1 0x60 PUSH1 0x0 DUP3 PUSH1 0x0 ADD MLOAD GT PUSH2 0x897 JUMPI PUSH1 0x0 DUP1 REVERT JUMPDEST PUSH1 0x0 PUSH2 0x8A6 DUP4 PUSH1 0x20 ADD MLOAD PUSH2 0x989 JUMP JUMPDEST SWAP1 POP PUSH1 0x0 DUP2 DUP5 PUSH1 0x0 ADD MLOAD PUSH2 0x8BA SWAP2 SWAP1 PUSH2 0x1220 JUMP JUMPDEST SWAP1 POP PUSH1 0x0 DUP2 PUSH8 0xFFFFFFFFFFFFFFFF DUP2 GT ISZERO PUSH2 0x8D8 JUMPI PUSH2 0x8D7 PUSH2 0x13F6 JUMP JUMPDEST JUMPDEST PUSH1 0x40 MLOAD SWAP1 DUP1 DUP3 MSTORE DUP1 PUSH1 0x1F ADD PUSH1 0x1F NOT AND PUSH1 0x20 ADD DUP3 ADD PUSH1 0x40 MSTORE DUP1 ISZERO PUSH2 0x90A JUMPI DUP2 PUSH1 0x20 ADD PUSH1 0x1 DUP3 MUL DUP1 CALLDATASIZE DUP4 CALLDATACOPY DUP1 DUP3 ADD SWAP2 POP POP SWAP1 POP JUMPDEST POP SWAP1 POP PUSH1 0x0 DUP2 PUSH1 0x20 ADD SWAP1 POP PUSH2 0x92F DUP5 DUP8 PUSH1 0x20 ADD MLOAD PUSH2 0x928 SWAP2 SWAP1 PUSH2 0x1059 JUMP JUMPDEST DUP3 DUP6 PUSH2 0xB24 JUMP JUMPDEST DUP2 SWAP5 POP POP POP POP POP SWAP2 SWAP1 POP JUMP JUMPDEST PUSH1 0x0 DUP1 DUP3 PUSH1 0x0 ADD MLOAD EQ ISZERO PUSH2 0x952 JUMPI PUSH1 0x0 SWAP1 POP PUSH2 0x984 JUMP JUMPDEST PUSH1 0x0 DUP1 DUP4 PUSH1 0x20 ADD MLOAD SWAP1 POP DUP1 MLOAD PUSH1 0x0 BYTE SWAP2 POP PUSH1 0xC0 PUSH1 0xFF AND DUP3 PUSH1 0xFF AND LT ISZERO PUSH2 0x97D JUMPI PUSH1 0x0 SWAP3 POP POP POP PUSH2 0x984 JUMP JUMPDEST PUSH1 0x1 SWAP3 POP POP POP JUMPDEST SWAP2 SWAP1 POP JUMP JUMPDEST PUSH1 0x0 DUP1 DUP3 MLOAD PUSH1 0x0 BYTE SWAP1 POP PUSH1 0x80 PUSH1 0xFF AND DUP2 LT ISZERO PUSH2 0x9A9 JUMPI PUSH1 0x0 SWAP2 POP POP PUSH2 0xA43 JUMP JUMPDEST PUSH1 0xB8 PUSH1 0xFF AND DUP2 LT DUP1 PUSH2 0x9CE JUMPI POP PUSH1 0xC0 PUSH1 0xFF AND DUP2 LT ISZERO DUP1 ISZERO PUSH2 0x9CD JUMPI POP PUSH1 0xF8 PUSH1 0xFF AND DUP2 LT JUMPDEST JUMPDEST ISZERO PUSH2 0x9DD JUMPI PUSH1 0x1 SWAP2 POP POP PUSH2 0xA43 JUMP JUMPDEST PUSH1 0xC0 PUSH1 0xFF AND DUP2 LT ISZERO PUSH2 0xA18 JUMPI PUSH1 0x1 DUP1 PUSH1 0xB8 PUSH2 0x9F8 SWAP2 SWAP1 PUSH2 0x1254 JUMP JUMPDEST PUSH1 0xFF AND DUP3 PUSH2 0xA06 SWAP2 SWAP1 PUSH2 0x1220 JUMP JUMPDEST PUSH2 0xA10 SWAP2 SWAP1 PUSH2 0x1059 JUMP JUMPDEST SWAP2 POP POP PUSH2 0xA43 JUMP JUMPDEST PUSH1 0x1 DUP1 PUSH1 0xF8 PUSH2 0xA27 SWAP2 SWAP1 PUSH2 0x1254 JUMP JUMPDEST PUSH1 0xFF AND DUP3 PUSH2 0xA35 SWAP2 SWAP1 PUSH2 0x1220 JUMP JUMPDEST PUSH2 0xA3F SWAP2 SWAP1 PUSH2 0x1059 JUMP JUMPDEST SWAP2 POP POP JUMPDEST SWAP2 SWAP1 POP JUMP JUMPDEST PUSH1 0x0 DUP1 PUSH1 0x0 DUP4 MLOAD PUSH1 0x0 BYTE SWAP1 POP PUSH1 0x80 PUSH1 0xFF AND DUP2 LT ISZERO PUSH2 0xA69 JUMPI PUSH1 0x1 SWAP2 POP PUSH2 0xB1A JUMP JUMPDEST PUSH1 0xB8 PUSH1 0xFF AND DUP2 LT ISZERO PUSH2 0xA98 JUMPI PUSH1 0x1 PUSH1 0x80 PUSH1 0xFF AND DUP3 PUSH2 0xA87 SWAP2 SWAP1 PUSH2 0x1220 JUMP JUMPDEST PUSH2 0xA91 SWAP2 SWAP1 PUSH2 0x1059 JUMP JUMPDEST SWAP2 POP PUSH2 0xB19 JUMP JUMPDEST PUSH1 0xC0 PUSH1 0xFF AND DUP2 LT ISZERO PUSH2 0xAC8 JUMPI PUSH1 0xB7 DUP2 SUB PUSH1 0x1 DUP6 ADD SWAP5 POP DUP1 PUSH1 0x20 SUB PUSH2 0x100 EXP DUP6 MLOAD DIV PUSH1 0x1 DUP3 ADD DUP2 ADD SWAP4 POP POP POP PUSH2 0xB18 JUMP JUMPDEST PUSH1 0xF8 PUSH1 0xFF AND DUP2 LT ISZERO PUSH2 0xAF7 JUMPI PUSH1 0x1 PUSH1 0xC0 PUSH1 0xFF AND DUP3 PUSH2 0xAE6 SWAP2 SWAP1 PUSH2 0x1220 JUMP JUMPDEST PUSH2 0xAF0 SWAP2 SWAP1 PUSH2 0x1059 JUMP JUMPDEST SWAP2 POP PUSH2 0xB17 JUMP JUMPDEST PUSH1 0xF7 DUP2 SUB PUSH1 0x1 DUP6 ADD SWAP5 POP DUP1 PUSH1 0x20 SUB PUSH2 0x100 EXP DUP6 MLOAD DIV PUSH1 0x1 DUP3 ADD DUP2 ADD SWAP4 POP POP POP JUMPDEST JUMPDEST JUMPDEST JUMPDEST DUP2 SWAP3 POP POP POP SWAP2 SWAP1 POP JUMP JUMPDEST PUSH1 0x0 DUP2 EQ ISZERO PUSH2 0xB32 JUMPI PUSH2 0xBBC JUMP JUMPDEST JUMPDEST PUSH1 0x20 PUSH1 0xFF AND DUP2 LT PUSH2 0xB7D JUMPI DUP3 MLOAD DUP3 MSTORE PUSH1 0x20 PUSH1 0xFF AND DUP4 PUSH2 0xB52 SWAP2 SWAP1 PUSH2 0x1059 JUMP JUMPDEST SWAP3 POP PUSH1 0x20 PUSH1 0xFF AND DUP3 PUSH2 0xB64 SWAP2 SWAP1 PUSH2 0x1059 JUMP JUMPDEST SWAP2 POP PUSH1 0x20 PUSH1 0xFF AND DUP2 PUSH2 0xB76 SWAP2 SWAP1 PUSH2 0x1220 JUMP JUMPDEST SWAP1 POP PUSH2 0xB33 JUMP JUMPDEST PUSH1 0x0 PUSH1 0x1 DUP3 PUSH1 0x20 PUSH1 0xFF AND PUSH2 0xB91 SWAP2 SWAP1 PUSH2 0x1220 JUMP JUMPDEST PUSH2 0x100 PUSH2 0xB9E SWAP2 SWAP1 PUSH2 0x1102 JUMP JUMPDEST PUSH2 0xBA8 SWAP2 SWAP1 PUSH2 0x1220 JUMP JUMPDEST SWAP1 POP DUP1 NOT DUP5 MLOAD AND DUP2 DUP5 MLOAD AND DUP2 DUP2 OR DUP6 MSTORE POP POP POP JUMPDEST POP POP POP JUMP JUMPDEST PUSH1 0x40 MLOAD DUP1 PUSH1 0xA0 ADD PUSH1 0x40 MSTORE DUP1 PUSH2 0xBD4 PUSH2 0xCE3 JUMP JUMPDEST DUP2 MSTORE PUSH1 0x20 ADD PUSH2 0xBE1 PUSH2 0xD35 JUMP JUMPDEST DUP2 MSTORE PUSH1 0x20 ADD PUSH1 0x0 PUSH8 0xFFFFFFFFFFFFFFFF AND DUP2 MSTORE PUSH1 0x20 ADD PUSH1 0x0 PUSH20 0xFFFFFFFFFFFFFFFFFFFFFFFFFFFFFFFFFFFFFFFF AND DUP2 MSTORE PUSH1 0x20 ADD PUSH1 0x60 DUP2 MSTORE POP SWAP1 JUMP JUMPDEST DUP3 DUP1 SLOAD PUSH2 0xC28 SWAP1 PUSH2 0x1366 JUMP JUMPDEST SWAP1 PUSH1 0x0 MSTORE PUSH1 0x20 PUSH1 0x0 KECCAK256 SWAP1 PUSH1 0x1F ADD PUSH1 0x20 SWAP1 DIV DUP2 ADD SWAP3 DUP3 PUSH2 0xC4A JUMPI PUSH1 0x0 DUP6 SSTORE PUSH2 0xC98 JUMP JUMPDEST DUP3 PUSH1 0x1F LT PUSH2 0xC5B JUMPI DUP1 SLOAD DUP6 SSTORE PUSH2 0xC98 JUMP JUMPDEST DUP3 DUP1 ADD PUSH1 0x1 ADD DUP6 SSTORE DUP3 ISZERO PUSH2 0xC98 JUMPI PUSH1 0x0 MSTORE PUSH1 0x20 PUSH1 0x0 KECCAK256 SWAP2 PUSH1 0x1F ADD PUSH1 0x20 SWAP1 DIV DUP3 ADD JUMPDEST DUP3 DUP2 GT ISZERO PUSH2 0xC97 JUMPI DUP3 SLOAD DUP3 SSTORE SWAP2 PUSH1 0x1 ADD SWAP2 SWAP1 PUSH1 0x1 ADD SWAP1 PUSH2 0xC7C JUMP JUMPDEST JUMPDEST POP SWAP1 POP PUSH2 0xCA5 SWAP2 SWAP1 PUSH2 0xD71 JUMP JUMPDEST POP SWAP1 JUMP JUMPDEST PUSH1 0x40 MLOAD DUP1 PUSH1 0x40 ADD PUSH1 0x40 MSTORE DUP1 PUSH1 0x0 DUP2 MSTORE PUSH1 0x20 ADD PUSH1 0x0 DUP2 MSTORE POP SWAP1 JUMP JUMPDEST PUSH1 0x40 MLOAD DUP1 PUSH1 0x40 ADD PUSH1 0x40 MSTORE DUP1 PUSH2 0xCD6 PUSH2 0xCA9 JUMP JUMPDEST DUP2 MSTORE PUSH1 0x20 ADD PUSH1 0x0 DUP2 MSTORE POP SWAP1 JUMP JUMPDEST PUSH1 0x40 MLOAD DUP1 PUSH1 0x80 ADD PUSH1 0x40 MSTORE DUP1 PUSH1 0x0 PUSH3 0xFFFFFF AND DUP2 MSTORE PUSH1 0x20 ADD PUSH1 0x0 PUSH29 0xFFFFFFFFFFFFFFFFFFFFFFFFFFFFFFFFFFFFFFFFFFFFFFFFFFFFFFFFFF AND DUP2 MSTORE PUSH1 0x20 ADD PUSH1 0x0 DUP1 NOT AND DUP2 MSTORE PUSH1 0x20 ADD PUSH1 0x0 DUP1 NOT AND DUP2 MSTORE POP SWAP1 JUMP JUMPDEST PUSH1 0x40 MLOAD DUP1 PUSH1 0x60 ADD PUSH1 0x40 MSTORE DUP1 PUSH1 0x0 PUSH20 0xFFFFFFFFFFFFFFFFFFFFFFFFFFFFFFFFFFFFFFFF AND DUP2 MSTORE PUSH1 0x20 ADD PUSH1 0x0 DUP1 NOT AND DUP2 MSTORE PUSH1 0x20 ADD PUSH1 0x0 ISZERO ISZERO DUP2 MSTORE POP SWAP1 JUMP JUMPDEST JUMPDEST DUP1 DUP3 GT ISZERO PUSH2 0xD8A JUMPI PUSH1 0x0 DUP2 PUSH1 0x0 SWAP1 SSTORE POP PUSH1 0x1 ADD PUSH2 0xD72 JUMP JUMPDEST POP SWAP1 JUMP JUMPDEST PUSH1 0x0 DUP2 CALLDATALOAD SWAP1 POP PUSH2 0xD9D DUP2 PUSH2 0x1448 JUMP JUMPDEST SWAP3 SWAP2 POP POP JUMP JUMPDEST PUSH1 0x0 PUSH1 0x20 DUP3 DUP5 SUB SLT ISZERO PUSH2 0xDB9 JUMPI PUSH2 0xDB8 PUSH2 0x1425 JUMP JUMPDEST JUMPDEST PUSH1 0x0 PUSH2 0xDC7 DUP5 DUP3 DUP6 ADD PUSH2 0xD8E JUMP JUMPDEST SWAP2 POP POP SWAP3 SWAP2 POP POP JUMP JUMPDEST PUSH2 0xDD9 DUP2 PUSH2 0x1288 JUMP JUMPDEST DUP3 MSTORE POP POP JUMP JUMPDEST PUSH2 0xDE8 DUP2 PUSH2 0x129A JUMP JUMPDEST DUP3 MSTORE POP POP JUMP JUMPDEST PUSH2 0xDF7 DUP2 PUSH2 0x129A JUMP JUMPDEST DUP3 MSTORE POP POP JUMP JUMPDEST PUSH2 0xE06 DUP2 PUSH2 0x12A6 JUMP JUMPDEST DUP3 MSTORE POP POP JUMP JUMPDEST PUSH2 0xE15 DUP2 PUSH2 0x12A6 JUMP JUMPDEST DUP3 MSTORE POP POP JUMP JUMPDEST PUSH1 0x0 PUSH2 0xE26 DUP3 PUSH2 0x103D JUMP JUMPDEST PUSH2 0xE30 DUP2 DUP6 PUSH2 0x1048 JUMP JUMPDEST SWAP4 POP PUSH2 0xE40 DUP2 DUP6 PUSH1 0x20 DUP7 ADD PUSH2 0x1333 JUMP JUMPDEST PUSH2 0xE49 DUP2 PUSH2 0x142A JUMP JUMPDEST DUP5 ADD SWAP2 POP POP SWAP3 SWAP2 POP POP JUMP JUMPDEST PUSH1 0x80 DUP3 ADD PUSH1 0x0 DUP3 ADD MLOAD PUSH2 0xE6A PUSH1 0x0 DUP6 ADD DUP3 PUSH2 0xF73 JUMP JUMPDEST POP PUSH1 0x20 DUP3 ADD MLOAD PUSH2 0xE7D PUSH1 0x20 DUP6 ADD DUP3 PUSH2 0xF64 JUMP JUMPDEST POP PUSH1 0x40 DUP3 ADD MLOAD PUSH2 0xE90 PUSH1 0x40 DUP6 ADD DUP3 PUSH2 0xDFD JUMP JUMPDEST POP PUSH1 0x60 DUP3 ADD MLOAD PUSH2 0xEA3 PUSH1 0x60 DUP6 ADD DUP3 PUSH2 0xDFD JUMP JUMPDEST POP POP POP POP JUMP JUMPDEST PUSH1 0x60 DUP3 ADD PUSH1 0x0 DUP3 ADD MLOAD PUSH2 0xEBF PUSH1 0x0 DUP6 ADD DUP3 PUSH2 0xDD0 JUMP JUMPDEST POP PUSH1 0x20 DUP3 ADD MLOAD PUSH2 0xED2 PUSH1 0x20 DUP6 ADD DUP3 PUSH2 0xDFD JUMP JUMPDEST POP PUSH1 0x40 DUP3 ADD MLOAD PUSH2 0xEE5 PUSH1 0x40 DUP6 ADD DUP3 PUSH2 0xDDF JUMP JUMPDEST POP POP POP POP JUMP JUMPDEST PUSH1 0x0 PUSH2 0x140 DUP4 ADD PUSH1 0x0 DUP4 ADD MLOAD PUSH2 0xF04 PUSH1 0x0 DUP7 ADD DUP3 PUSH2 0xE54 JUMP JUMPDEST POP PUSH1 0x20 DUP4 ADD MLOAD PUSH2 0xF17 PUSH1 0x80 DUP7 ADD DUP3 PUSH2 0xEA9 JUMP JUMPDEST POP PUSH1 0x40 DUP4 ADD MLOAD PUSH2 0xF2A PUSH1 0xE0 DUP7 ADD DUP3 PUSH2 0xF91 JUMP JUMPDEST POP PUSH1 0x60 DUP4 ADD MLOAD PUSH2 0xF3E PUSH2 0x100 DUP7 ADD DUP3 PUSH2 0xDD0 JUMP JUMPDEST POP PUSH1 0x80 DUP4 ADD MLOAD DUP5 DUP3 SUB PUSH2 0x120 DUP7 ADD MSTORE PUSH2 0xF57 DUP3 DUP3 PUSH2 0xE1B JUMP JUMPDEST SWAP2 POP POP DUP1 SWAP2 POP POP SWAP3 SWAP2 POP POP JUMP JUMPDEST PUSH2 0xF6D DUP2 PUSH2 0x12D0 JUMP JUMPDEST DUP3 MSTORE POP POP JUMP JUMPDEST PUSH2 0xF7C DUP2 PUSH2 0x12F9 JUMP JUMPDEST DUP3 MSTORE POP POP JUMP JUMPDEST PUSH2 0xF8B DUP2 PUSH2 0x1308 JUMP JUMPDEST DUP3 MSTORE POP POP JUMP JUMPDEST PUSH2 0xF9A DUP2 PUSH2 0x1312 JUMP JUMPDEST DUP3 MSTORE POP POP JUMP JUMPDEST PUSH1 0x0 PUSH1 0x20 DUP3 ADD SWAP1 POP PUSH2 0xFB5 PUSH1 0x0 DUP4 ADD DUP5 PUSH2 0xDEE JUMP JUMPDEST SWAP3 SWAP2 POP POP JUMP JUMPDEST PUSH1 0x0 PUSH1 0x20 DUP3 ADD SWAP1 POP PUSH2 0xFD0 PUSH1 0x0 DUP4 ADD DUP5 PUSH2 0xE0C JUMP JUMPDEST SWAP3 SWAP2 POP POP JUMP JUMPDEST PUSH1 0x0 PUSH1 0x80 DUP3 ADD SWAP1 POP PUSH2 0xFEB PUSH1 0x0 DUP4 ADD DUP8 PUSH2 0xE0C JUMP JUMPDEST PUSH2 0xFF8 PUSH1 0x20 DUP4 ADD DUP7 PUSH2 0xF82 JUMP JUMPDEST PUSH2 0x1005 PUSH1 0x40 DUP4 ADD DUP6 PUSH2 0xF82 JUMP JUMPDEST PUSH2 0x1012 PUSH1 0x60 DUP4 ADD DUP5 PUSH2 0xE0C JUMP JUMPDEST SWAP6 SWAP5 POP POP POP POP POP JUMP JUMPDEST PUSH1 0x0 PUSH1 0x20 DUP3 ADD SWAP1 POP DUP2 DUP2 SUB PUSH1 0x0 DUP4 ADD MSTORE PUSH2 0x1035 DUP2 DUP5 PUSH2 0xEEB JUMP JUMPDEST SWAP1 POP SWAP3 SWAP2 POP POP JUMP JUMPDEST PUSH1 0x0 DUP2 MLOAD SWAP1 POP SWAP2 SWAP1 POP JUMP JUMPDEST PUSH1 0x0 DUP3 DUP3 MSTORE PUSH1 0x20 DUP3 ADD SWAP1 POP SWAP3 SWAP2 POP POP JUMP JUMPDEST PUSH1 0x0 PUSH2 0x1064 DUP3 PUSH2 0x1308 JUMP JUMPDEST SWAP2 POP PUSH2 0x106F DUP4 PUSH2 0x1308 JUMP JUMPDEST SWAP3 POP DUP3 PUSH32 0xFFFFFFFFFFFFFFFFFFFFFFFFFFFFFFFFFFFFFFFFFFFFFFFFFFFFFFFFFFFFFFFF SUB DUP3 GT ISZERO PUSH2 0x10A4 JUMPI PUSH2 0x10A3 PUSH2 0x1398 JUMP JUMPDEST JUMPDEST DUP3 DUP3 ADD SWAP1 POP SWAP3 SWAP2 POP POP JUMP JUMPDEST PUSH1 0x0 DUP1 DUP3 SWAP2 POP DUP4 SWAP1 POP JUMPDEST PUSH1 0x1 DUP6 GT ISZERO PUSH2 0x10F9 JUMPI DUP1 DUP7 DIV DUP2 GT ISZERO PUSH2 0x10D5 JUMPI PUSH2 0x10D4 PUSH2 0x1398 JUMP JUMPDEST JUMPDEST PUSH1 0x1 DUP6 AND ISZERO PUSH2 0x10E4 JUMPI DUP1 DUP3 MUL SWAP2 POP JUMPDEST DUP1 DUP2 MUL SWAP1 POP PUSH2 0x10F2 DUP6 PUSH2 0x143B JUMP JUMPDEST SWAP5 POP PUSH2 0x10B9 JUMP JUMPDEST SWAP5 POP SWAP5 SWAP3 POP POP POP JUMP JUMPDEST PUSH1 0x0 PUSH2 0x110D DUP3 PUSH2 0x1308 JUMP JUMPDEST SWAP2 POP PUSH2 0x1118 DUP4 PUSH2 0x1308 JUMP JUMPDEST SWAP3 POP PUSH2 0x1145 PUSH32 0xFFFFFFFFFFFFFFFFFFFFFFFFFFFFFFFFFFFFFFFFFFFFFFFFFFFFFFFFFFFFFFFF DUP5 DUP5 PUSH2 0x114D JUMP JUMPDEST SWAP1 POP SWAP3 SWAP2 POP POP JUMP JUMPDEST PUSH1 0x0 DUP3 PUSH2 0x115D JUMPI PUSH1 0x1 SWAP1 POP PUSH2 0x1219 JUMP JUMPDEST DUP2 PUSH2 0x116B JUMPI PUSH1 0x0 SWAP1 POP PUSH2 0x1219 JUMP JUMPDEST DUP2 PUSH1 0x1 DUP2 EQ PUSH2 0x1181 JUMPI PUSH1 0x2 DUP2 EQ PUSH2 0x118B JUMPI PUSH2 0x11BA JUMP JUMPDEST PUSH1 0x1 SWAP2 POP POP PUSH2 0x1219 JUMP JUMPDEST PUSH1 0xFF DUP5 GT ISZERO PUSH2 0x119D JUMPI PUSH2 0x119C PUSH2 0x1398 JUMP JUMPDEST JUMPDEST DUP4 PUSH1 0x2 EXP SWAP2 POP DUP5 DUP3 GT ISZERO PUSH2 0x11B4 JUMPI PUSH2 0x11B3 PUSH2 0x1398 JUMP JUMPDEST JUMPDEST POP PUSH2 0x1219 JUMP JUMPDEST POP PUSH1 0x20 DUP4 LT PUSH2 0x133 DUP4 LT AND PUSH1 0x4E DUP5 LT PUSH1 0xB DUP5 LT AND OR ISZERO PUSH2 0x11EF JUMPI DUP3 DUP3 EXP SWAP1 POP DUP4 DUP2 GT ISZERO PUSH2 0x11EA JUMPI PUSH2 0x11E9 PUSH2 0x1398 JUMP JUMPDEST JUMPDEST PUSH2 0x1219 JUMP JUMPDEST PUSH2 0x11FC DUP5 DUP5 DUP5 PUSH1 0x1 PUSH2 0x10AF JUMP JUMPDEST SWAP3 POP SWAP1 POP DUP2 DUP5 DIV DUP2 GT ISZERO PUSH2 0x1213 JUMPI PUSH2 0x1212 PUSH2 0x1398 JUMP JUMPDEST JUMPDEST DUP2 DUP2 MUL SWAP1 POP JUMPDEST SWAP4 SWAP3 POP POP POP JUMP JUMPDEST PUSH1 0x0 PUSH2 0x122B DUP3 PUSH2 0x1308 JUMP JUMPDEST SWAP2 POP PUSH2 0x1236 DUP4 PUSH2 0x1308 JUMP JUMPDEST SWAP3 POP DUP3 DUP3 LT ISZERO PUSH2 0x1249 JUMPI PUSH2 0x1248 PUSH2 0x1398 JUMP JUMPDEST JUMPDEST DUP3 DUP3 SUB SWAP1 POP SWAP3 SWAP2 POP POP JUMP JUMPDEST PUSH1 0x0 PUSH2 0x125F DUP3 PUSH2 0x1326 JUMP JUMPDEST SWAP2 POP PUSH2 0x126A DUP4 PUSH2 0x1326 JUMP JUMPDEST SWAP3 POP DUP3 DUP3 LT ISZERO PUSH2 0x127D JUMPI PUSH2 0x127C PUSH2 0x1398 JUMP JUMPDEST JUMPDEST DUP3 DUP3 SUB SWAP1 POP SWAP3 SWAP2 POP POP JUMP JUMPDEST PUSH1 0x0 PUSH2 0x1293 DUP3 PUSH2 0x12B0 JUMP JUMPDEST SWAP1 POP SWAP2 SWAP1 POP JUMP JUMPDEST PUSH1 0x0 DUP2 ISZERO ISZERO SWAP1 POP SWAP2 SWAP1 POP JUMP JUMPDEST PUSH1 0x0 DUP2 SWAP1 POP SWAP2 SWAP1 POP JUMP JUMPDEST PUSH1 0x0 PUSH20 0xFFFFFFFFFFFFFFFFFFFFFFFFFFFFFFFFFFFFFFFF DUP3 AND SWAP1 POP SWAP2 SWAP1 POP JUMP JUMPDEST PUSH1 0x0 PUSH29 0xFFFFFFFFFFFFFFFFFFFFFFFFFFFFFFFFFFFFFFFFFFFFFFFFFFFFFFFFFF DUP3 AND SWAP1 POP SWAP2 SWAP1 POP JUMP JUMPDEST PUSH1 0x0 PUSH3 0xFFFFFF DUP3 AND SWAP1 POP SWAP2 SWAP1 POP JUMP JUMPDEST PUSH1 0x0 DUP2 SWAP1 POP SWAP2 SWAP1 POP JUMP JUMPDEST PUSH1 0x0 PUSH8 0xFFFFFFFFFFFFFFFF DUP3 AND SWAP1 POP SWAP2 SWAP1 POP JUMP JUMPDEST PUSH1 0x0 PUSH1 0xFF DUP3 AND SWAP1 POP SWAP2 SWAP1 POP JUMP JUMPDEST PUSH1 0x0 JUMPDEST DUP4 DUP2 LT ISZERO PUSH2 0x1351 JUMPI DUP1 DUP3 ADD MLOAD DUP2 DUP5 ADD MSTORE PUSH1 0x20 DUP2 ADD SWAP1 POP PUSH2 0x1336 JUMP JUMPDEST DUP4 DUP2 GT ISZERO PUSH2 0x1360 JUMPI PUSH1 0x0 DUP5 DUP5 ADD MSTORE JUMPDEST POP POP POP POP JUMP JUMPDEST PUSH1 0x0 PUSH1 0x2 DUP3 DIV SWAP1 POP PUSH1 0x1 DUP3 AND DUP1 PUSH2 0x137E JUMPI PUSH1 0x7F DUP3 AND SWAP2 POP JUMPDEST PUSH1 0x20 DUP3 LT DUP2 EQ ISZERO PUSH2 0x1392 JUMPI PUSH2 0x1391 PUSH2 0x13C7 JUMP JUMPDEST JUMPDEST POP SWAP2 SWAP1 POP JUMP JUMPDEST PUSH32 0x4E487B7100000000000000000000000000000000000000000000000000000000 PUSH1 0x0 MSTORE PUSH1 0x11 PUSH1 0x4 MSTORE PUSH1 0x24 PUSH1 0x0 REVERT JUMPDEST PUSH32 0x4E487B7100000000000000000000000000000000000000000000000000000000 PUSH1 0x0 MSTORE PUSH1 0x22 PUSH1 0x4 MSTORE PUSH1 0x24 PUSH1 0x0 REVERT JUMPDEST PUSH32 0x4E487B7100000000000000000000000000000000000000000000000000000000 PUSH1 0x0 MSTORE PUSH1 0x41 PUSH1 0x4 MSTORE PUSH1 0x24 PUSH1 0x0 REVERT JUMPDEST PUSH1 0x0 DUP1 REVERT JUMPDEST PUSH1 0x0 PUSH1 0x1F NOT PUSH1 0x1F DUP4 ADD AND SWAP1 POP SWAP2 SWAP1 POP JUMP JUMPDEST PUSH1 0x0 DUP2 PUSH1 0x1 SHR SWAP1 POP SWAP2 SWAP1 POP JUMP JUMPDEST PUSH2 0x1451 DUP2 PUSH2 0x12A6 JUMP JUMPDEST DUP2 EQ PUSH2 0x145C JUMPI PUSH1 0x0 DUP1 REVERT JUMPDEST POP JUMP INVALID LOG2 PUSH5 0x6970667358 0x22 SLT KECCAK256 PUSH16 0xE6655944D6542654D97708E4B2E69AC8 GASLIMIT CHAINID 0xC7 LT 0xC2 0xAB 0xB4 0xB6 CREATE 0x22 0x4D GASLIMIT DUP5 PUSH7 0xD464736F6C6343 STOP ADDMOD MOD STOP CALLER "
		},
		"gasEstimates": {
			"creation": {
				"codeDepositCost": "1053800",
				"executionCost": "infinite",
				"totalCost": "infinite"
			},
			"external": {
				"getGenesisBlockHash()": "2459",
				"getLastValidStateHeader(bytes32)": "infinite",
				"getState()": "infinite",
				"isConfirmingHeaderStored(bytes32)": "2786",
				"isLastHeaderStored(bytes32)": "2726"
			},
			"internal": {
				"calculateDifficulty(struct StateRelayCore.FullHeader memory,uint256)": "infinite",
				"challengerMessage(bytes32)": "infinite",
				"checkHeaderValidity(struct StateRelayCore.FullHeader memory,struct StateRelayCore.FullHeader memory)": "infinite",
				"combineArrays(address[] memory,address[] memory)": "infinite",
				"copy(bytes memory,uint256)": "infinite",
				"copyArrays(address[] memory,address[] memory,uint256)": "infinite",
				"disputeBlock(bytes calldata,bytes memory,uint256[] memory,uint256[] memory)": "infinite",
				"disputeState(bytes memory,bytes32,bytes memory,bytes memory,bytes32,bytes32,bytes memory,bytes memory,bytes32)": "infinite",
				"fromRlpEncodedToHeader(bytes memory)": "infinite",
				"gasLimitWithinBounds(int64,int64)": "infinite",
				"getLockedUntil()": "infinite",
				"getParentBlockNumberDiff(bytes memory)": "infinite",
				"getReceiptsRoot(bytes memory)": "infinite",
				"getRlpHeaderHashWithoutNonce(bytes calldata)": "infinite",
				"getStateRoot(bytes memory)": "infinite",
				"getTxRoot(bytes memory)": "infinite",
				"isHeaderSuccessorOfParent(struct StateRelayCore.Header memory,struct StateRelayCore.Header memory)": "infinite",
				"isUnlocked(bytes32)": "infinite",
				"parseRlpEncodedHeader(bytes memory)": "infinite",
				"sameHeader(struct StateRelayCore.Header memory,struct StateRelayCore.Header memory)": "infinite",
				"submitState(bytes memory,bytes memory,bytes memory,bytes memory,uint256)": "infinite",
				"sumbitterMessage(bytes memory)": "infinite",
				"verifyMerkleProof(bytes32,bytes memory,bytes memory,bytes memory,bytes32)": "infinite",
				"verifyValidity(bytes memory,bytes memory)": "infinite",
				"verifyValidityAndPoW(bytes calldata,bytes memory,uint256[] memory,uint256[] memory)": "infinite"
			}
		},
		"methodIdentifiers": {
			"getGenesisBlockHash()": "29a12be9",
			"getLastValidStateHeader(bytes32)": "87ceacd1",
			"getState()": "1865c57d",
			"isConfirmingHeaderStored(bytes32)": "be0f79f7",
			"isLastHeaderStored(bytes32)": "18d27ef2"
		}
	},
	"abi": [
		{
			"inputs": [
				{
					"internalType": "bytes",
					"name": "_rlpHeader",
					"type": "bytes"
				},
				{
					"internalType": "uint256",
					"name": "totalDifficulty",
					"type": "uint256"
				},
				{
					"internalType": "address",
					"name": "_ethashContractAddr",
					"type": "address"
				},
				{
					"internalType": "bytes",
					"name": "_state",
					"type": "bytes"
				}
			],
			"stateMutability": "nonpayable",
			"type": "constructor"
		},
		{
			"anonymous": false,
			"inputs": [
				{
					"indexed": false,
					"internalType": "uint256",
					"name": "returnCode",
					"type": "uint256"
				}
			],
			"name": "DisputeBlock",
			"type": "event"
		},
		{
			"anonymous": false,
			"inputs": [
				{
					"indexed": false,
					"internalType": "bytes32",
					"name": "_startingBlockHash",
					"type": "bytes32"
				},
				{
					"indexed": false,
					"internalType": "bytes32",
					"name": "_blockNhash",
					"type": "bytes32"
				},
				{
					"indexed": false,
					"internalType": "bytes32",
					"name": "intermediateBlockHash",
					"type": "bytes32"
				}
			],
			"name": "NewAnswer",
			"type": "event"
		},
		{
			"anonymous": false,
			"inputs": [
				{
					"indexed": false,
					"internalType": "bytes32",
					"name": "_startingBlockHash",
					"type": "bytes32"
				},
				{
					"indexed": false,
					"internalType": "bytes32",
					"name": "_blockNhash",
					"type": "bytes32"
				},
				{
					"indexed": false,
					"internalType": "bytes32",
					"name": "_blockIntermediateHash",
					"type": "bytes32"
				},
				{
					"indexed": false,
					"internalType": "bytes32",
					"name": "_confirmingBlockHash",
					"type": "bytes32"
				},
				{
					"indexed": false,
					"internalType": "bytes",
					"name": "_stateContent",
					"type": "bytes"
				},
				{
					"indexed": false,
					"internalType": "uint256",
					"name": "_updateLength",
					"type": "uint256"
				},
				{
					"indexed": false,
					"internalType": "uint256",
					"name": "timeout",
					"type": "uint256"
				}
			],
			"name": "NewPendingState",
			"type": "event"
		},
		{
			"anonymous": false,
			"inputs": [
				{
					"indexed": false,
					"internalType": "bytes32",
					"name": "_startingBlockHash",
					"type": "bytes32"
				},
				{
					"indexed": false,
					"internalType": "bytes32",
					"name": "_blockNhash",
					"type": "bytes32"
				}
			],
			"name": "NewRequest",
			"type": "event"
		},
		{
			"anonymous": false,
			"inputs": [
				{
					"indexed": false,
					"internalType": "bytes32",
					"name": "stateRoot",
					"type": "bytes32"
				},
				{
					"indexed": false,
					"internalType": "bytes32",
					"name": "blockHash",
					"type": "bytes32"
				},
				{
					"indexed": false,
					"internalType": "bytes",
					"name": "stateContent",
					"type": "bytes"
				},
				{
					"indexed": false,
					"internalType": "address",
					"name": "smartContractID",
					"type": "address"
				}
			],
			"name": "NewState",
			"type": "event"
		},
		{
			"anonymous": false,
			"inputs": [
				{
					"indexed": false,
					"internalType": "uint256",
					"name": "returnCode",
					"type": "uint256"
				},
				{
					"indexed": false,
					"internalType": "uint256",
					"name": "errorInfo",
					"type": "uint256"
				}
			],
			"name": "PoWValidationResult",
			"type": "event"
		},
		{
			"inputs": [],
			"name": "getGenesisBlockHash",
			"outputs": [
				{
					"internalType": "bytes32",
					"name": "hash",
					"type": "bytes32"
				}
			],
			"stateMutability": "view",
			"type": "function"
		},
		{
			"inputs": [
				{
					"internalType": "bytes32",
					"name": "blockHash",
					"type": "bytes32"
				}
			],
			"name": "getLastValidStateHeader",
			"outputs": [
				{
					"internalType": "bytes32",
					"name": "hash",
					"type": "bytes32"
				},
				{
					"internalType": "uint256",
					"name": "blockNumber",
					"type": "uint256"
				},
				{
					"internalType": "uint256",
					"name": "totalDifficulty",
					"type": "uint256"
				},
				{
					"internalType": "bytes32",
					"name": "stateRoot",
					"type": "bytes32"
				}
			],
			"stateMutability": "view",
			"type": "function"
		},
		{
			"inputs": [],
			"name": "getState",
			"outputs": [
				{
					"components": [
						{
							"components": [
								{
									"internalType": "uint24",
									"name": "blockNumber",
									"type": "uint24"
								},
								{
									"internalType": "uint232",
									"name": "totalDifficulty",
									"type": "uint232"
								},
								{
									"internalType": "bytes32",
									"name": "stateRoot",
									"type": "bytes32"
								},
								{
									"internalType": "bytes32",
									"name": "hash",
									"type": "bytes32"
								}
							],
							"internalType": "struct StateRelayCore.Header",
							"name": "header",
							"type": "tuple"
						},
						{
							"components": [
								{
									"internalType": "address",
									"name": "identifier",
									"type": "address"
								},
								{
									"internalType": "bytes32",
									"name": "blockchainId",
									"type": "bytes32"
								},
								{
									"internalType": "bool",
									"name": "verified",
									"type": "bool"
								}
							],
							"internalType": "struct StateRelayCore.Identity",
							"name": "submitter",
							"type": "tuple"
						},
						{
							"internalType": "uint64",
							"name": "lockedUntil",
							"type": "uint64"
						},
						{
							"internalType": "address",
							"name": "smartContractId",
							"type": "address"
						},
						{
							"internalType": "bytes",
							"name": "stateContent",
							"type": "bytes"
						}
					],
					"internalType": "struct StateRelayCore.State",
					"name": "",
					"type": "tuple"
				}
			],
			"stateMutability": "nonpayable",
			"type": "function"
		},
		{
			"inputs": [
				{
					"internalType": "bytes32",
					"name": "hash",
					"type": "bytes32"
				}
			],
			"name": "isConfirmingHeaderStored",
			"outputs": [
				{
					"internalType": "bool",
					"name": "",
					"type": "bool"
				}
			],
			"stateMutability": "view",
			"type": "function"
		},
		{
			"inputs": [
				{
					"internalType": "bytes32",
					"name": "hash",
					"type": "bytes32"
				}
			],
			"name": "isLastHeaderStored",
			"outputs": [
				{
					"internalType": "bool",
					"name": "",
					"type": "bool"
				}
			],
			"stateMutability": "view",
			"type": "function"
		}
	]
}