{
	"data": {
		"bytecode": {
			"linkReferences": {},
			"object": "6080604052600280556000600360146101000a81548160ff0219169083151502179055503480156200003057600080fd5b5060405162008c7638038062008c768339818101604052810190620000569190620000b6565b80806000806101000a81548173ffffffffffffffffffffffffffffffffffffffff021916908373ffffffffffffffffffffffffffffffffffffffff16021790555050506200013b565b600081519050620000b08162000121565b92915050565b600060208284031215620000cf57620000ce6200011c565b5b6000620000df848285016200009f565b91505092915050565b6000620000f582620000fc565b9050919050565b600073ffffffffffffffffffffffffffffffffffffffff82169050919050565b600080fd5b6200012c81620000e8565b81146200013857600080fd5b50565b618b2b806200014b6000396000f3fe60806040526004361061014b5760003560e01c80639c15d1a2116100b6578063d97cbcbc1161006f578063d97cbcbc146104d1578063e68c3bd71461050e578063ebb8d85f14610537578063ec1c278314610574578063f02910991461059f578063fc0e3d90146105ca5761014b565b80639c15d1a2146103e0578063abf61ce8146103f7578063ba27e8dc14610420578063cb82cc8f1461045f578063d6fc841a1461047b578063d909b365146104a65761014b565b80634303c19c116101085780634303c19c1461029857806352409d75146102d55780636687838e146103005780637b4d4bca1461033d5780638146b0711461037a5780639a0479cf146103a35761014b565b80631bab58f51461015057806325d5971f1461018d578063282c55ae146101b657806331e2d7e8146101f3578063351dd55d146102305780633d8dc2731461026d575b600080fd5b34801561015c57600080fd5b5061017760048036038101906101729190616289565b6105f5565b60405161018491906173d2565b60405180910390f35b34801561019957600080fd5b506101b460048036038101906101af919061678e565b610630565b005b3480156101c257600080fd5b506101dd60048036038101906101d89190616395565b610803565b6040516101ea919061713b565b60405180910390f35b3480156101ff57600080fd5b5061021a60048036038101906102159190616504565b61081b565b60405161022791906171d1565b60405180910390f35b34801561023c57600080fd5b50610257600480360381019061025291906162b6565b610939565b60405161026491906171d1565b60405180910390f35b34801561027957600080fd5b50610282610ab7565b60405161028f9190617847565b60405180910390f35b3480156102a457600080fd5b506102bf60048036038101906102ba91906166a3565b610afe565b6040516102cc9190617847565b60405180910390f35b3480156102e157600080fd5b506102ea610b89565b6040516102f79190617847565b60405180910390f35b34801561030c57600080fd5b50610327600480360381019061032291906163d5565b610b8e565b60405161033491906171d1565b60405180910390f35b34801561034957600080fd5b50610364600480360381019061035f9190616395565b610bb1565b60405161037191906177b6565b60405180910390f35b34801561038657600080fd5b506103a1600480360381019061039c9190616428565b610bcf565b005b3480156103af57600080fd5b506103ca60048036038101906103c591906163d5565b610e3c565b6040516103d791906171d1565b60405180910390f35b3480156103ec57600080fd5b506103f5610e5f565b005b34801561040357600080fd5b5061041e6004803603810190610419919061654d565b610ff7565b005b34801561042c57600080fd5b5061044760048036038101906104429190616395565b61142c565b6040516104569392919061739b565b60405180910390f35b6104796004803603810190610474919061678e565b611656565b005b34801561048757600080fd5b50610490611729565b60405161049d9190617847565b60405180910390f35b3480156104b257600080fd5b506104bb611732565b6040516104c891906171ec565b60405180910390f35b3480156104dd57600080fd5b506104f860048036038101906104f39190616395565b61175a565b60405161050591906171ec565b60405180910390f35b34801561051a57600080fd5b50610535600480360381019061053091906162f6565b61177a565b005b34801561054357600080fd5b5061055e60048036038101906105599190616395565b6117b1565b60405161056b9190617794565b60405180910390f35b34801561058057600080fd5b50610589611e22565b6040516105969190617847565b60405180910390f35b3480156105ab57600080fd5b506105b4611e27565b6040516105c19190617847565b60405180910390f35b3480156105d657600080fd5b506105df611e30565b6040516105ec9190617847565b60405180910390f35b606061062560405160200161060990617126565b6040516020818303038152906040528051906020012083611e77565b608001519050919050565b80600560003373ffffffffffffffffffffffffffffffffffffffff1673ffffffffffffffffffffffffffffffffffffffff1681526020019081526020016000205410156106b2576040517f08c379a00000000000000000000000000000000000000000000000000000000081526004016106a990617774565b60405180910390fd5b806106bc33611edd565b10610709576106cb3382611fd3565b7f141ef67c4a6d3ec2adfb2f66d33c2b11de5b4f34344757554d430570b18a92ec33826040516106fc9291906171a8565b60405180910390a1610800565b610712336120ac565b508061071d33611edd565b1061076a5761072c3382611fd3565b7f141ef67c4a6d3ec2adfb2f66d33c2b11de5b4f34344757554d430570b18a92ec338260405161075d9291906171a8565b60405180910390a1610800565b3373ffffffffffffffffffffffffffffffffffffffff16600360009054906101000a900473ffffffffffffffffffffffffffffffffffffffff1673ffffffffffffffffffffffffffffffffffffffff1614156107c557610800565b7f141ef67c4a6d3ec2adfb2f66d33c2b11de5b4f34344757554d430570b18a92ec3360006040516107f792919061717f565b60405180910390a15b50565b600061080f83836117b1565b60000151905092915050565b60003373ffffffffffffffffffffffffffffffffffffffff1661086260405160200161084690617126565b6040516020818303038152906040528051906020012033610803565b73ffffffffffffffffffffffffffffffffffffffff16146108b8576040517f08c379a00000000000000000000000000000000000000000000000000000000081526004016108af906174d4565b60405180910390fd5b60016108c2611e30565b1015610903576040517f08c379a00000000000000000000000000000000000000000000000000000000081526004016108fa90617754565b60405180910390fd5b61093260405160200161091590617126565b6040516020818303038152906040528051906020012033846120ff565b9050919050565b60006001610945611e30565b1015610986576040517f08c379a000000000000000000000000000000000000000000000000000000000815260040161097d90617754565b60405180910390fd5b600360009054906101000a900473ffffffffffffffffffffffffffffffffffffffff1673ffffffffffffffffffffffffffffffffffffffff163373ffffffffffffffffffffffffffffffffffffffff161480610a305750600073ffffffffffffffffffffffffffffffffffffffff16600360009054906101000a900473ffffffffffffffffffffffffffffffffffffffff1673ffffffffffffffffffffffffffffffffffffffff16145b15610aac5733600360006101000a81548173ffffffffffffffffffffffffffffffffffffffff021916908373ffffffffffffffffffffffffffffffffffffffff160217905550610aa5604051602001610a8890617126565b604051602081830303815290604052805190602001208484612888565b9050610ab1565b600090505b92915050565b6000600460003373ffffffffffffffffffffffffffffffffffffffff1673ffffffffffffffffffffffffffffffffffffffff16815260200190815260200160002054905090565b60006001610b0a611e30565b1015610b4b576040517f08c379a0000000000000000000000000000000000000000000000000000000008152600401610b4290617754565b60405180910390fd5b610b7e604051602001610b5d90617126565b604051602081830303815290604052805190602001203388888888886130db565b905095945050505050565b600181565b600081610b9b85856117b1565b6060015160000151604001511490509392505050565b610bb9615de6565b610bc383836117b1565b60800151905092915050565b3373ffffffffffffffffffffffffffffffffffffffff16610c14604051602001610bf890617126565b6040516020818303038152906040528051906020012033610803565b73ffffffffffffffffffffffffffffffffffffffff1614610c6a576040517f08c379a0000000000000000000000000000000000000000000000000000000008152600401610c61906174d4565b60405180910390fd5b6001610c74611e30565b1015610cb5576040517f08c379a0000000000000000000000000000000000000000000000000000000008152600401610cac90617754565b60405180910390fd5b600360149054906101000a900460ff1615610d05576040517f08c379a0000000000000000000000000000000000000000000000000000000008152600401610cfc90617694565b60405180910390fd5b6000610d3a604051602001610d1990617126565b604051602081830303815290604052805190602001203388888888886139c3565b14610e1957600160056000600360009054906101000a900473ffffffffffffffffffffffffffffffffffffffff1673ffffffffffffffffffffffffffffffffffffffff1673ffffffffffffffffffffffffffffffffffffffff1681526020019081526020016000206000828254610db19190617aa2565b925050819055507f592f8c203b912cf23ecf29063f3ff6a879fb9ee39bd2fc34c7a7ac0b877de878600360009054906101000a900473ffffffffffffffffffffffffffffffffffffffff166001604051610e0c929190617156565b60405180910390a1610e35565b6001600360146101000a81548160ff0219169083151502179055505b5050505050565b600081610e4985856117b1565b6080015160c00151604001511490509392505050565b600080610e90604051602001610e7490617126565b6040516020818303038152906040528051906020012033613a94565b8060ff16905080925081935050508115610ff3576002811415610f2b57600160056000600360009054906101000a900473ffffffffffffffffffffffffffffffffffffffff1673ffffffffffffffffffffffffffffffffffffffff1673ffffffffffffffffffffffffffffffffffffffff1681526020019081526020016000206000828254610f1f9190617aa2565b92505081905550610fb0565b600160056000610f5f604051602001610f4390617126565b6040516020818303038152906040528051906020012033610803565b73ffffffffffffffffffffffffffffffffffffffff1673ffffffffffffffffffffffffffffffffffffffff1681526020019081526020016000206000828254610fa89190617aa2565b925050819055505b6000600360006101000a81548173ffffffffffffffffffffffffffffffffffffffff021916908373ffffffffffffffffffffffffffffffffffffffff1602179055505b5050565b3373ffffffffffffffffffffffffffffffffffffffff1661103c60405160200161102090617126565b6040516020818303038152906040528051906020012033610803565b73ffffffffffffffffffffffffffffffffffffffff1614611092576040517f08c379a0000000000000000000000000000000000000000000000000000000008152600401611089906174d4565b60405180910390fd5b600161109d33613b57565b10156110de576040517f08c379a00000000000000000000000000000000000000000000000000000000081526004016110d590617754565b60405180910390fd5b8761110d6040516020016110f190617126565b6040516020818303038152906040528051906020012033610bb1565b60400151600001516040015114611159576040517f08c379a000000000000000000000000000000000000000000000000000000000815260040161115090617594565b60405180910390fd5b8361118860405160200161116c90617126565b604051602081830303815290604052805190602001203361175a565b146111c8576040517f08c379a00000000000000000000000000000000000000000000000000000000081526004016111bf906175b4565b60405180910390fd5b600360149054906101000a900460ff16611217576040517f08c379a000000000000000000000000000000000000000000000000000000000815260040161120e90617414565b60405180910390fd5b600061125060405160200161122b90617126565b60405160208183030381529060405280519060200120338c8c8c8c8c8c8c8c8c613bac565b60ff161461133257600160056000600360009054906101000a900473ffffffffffffffffffffffffffffffffffffffff1673ffffffffffffffffffffffffffffffffffffffff1673ffffffffffffffffffffffffffffffffffffffff16815260200190815260200160002060008282546112ca9190617aa2565b925050819055507f592f8c203b912cf23ecf29063f3ff6a879fb9ee39bd2fc34c7a7ac0b877de878600360009054906101000a900473ffffffffffffffffffffffffffffffffffffffff166001604051611325929190617156565b60405180910390a1611421565b6001600560003373ffffffffffffffffffffffffffffffffffffffff1673ffffffffffffffffffffffffffffffffffffffff16815260200190815260200160002060008282546113829190617aa2565b925050819055506000600360006101000a81548173ffffffffffffffffffffffffffffffffffffffff021916908373ffffffffffffffffffffffffffffffffffffffff1602179055506000600360146101000a81548160ff0219169083151502179055507f592f8c203b912cf23ecf29063f3ff6a879fb9ee39bd2fc34c7a7ac0b877de878336000604051611418929190617156565b60405180910390a15b505050505050505050565b6000806000806001600087815260200190815260200160002060008673ffffffffffffffffffffffffffffffffffffffff1673ffffffffffffffffffffffffffffffffffffffff1681526020019081526020016000206003016040518060a0016040529081600082016040518060600160405290816000820160009054906101000a900462ffffff1662ffffff1662ffffff1681526020016001820154815260200160028201548152505081526020016003820160009054906101000a900473ffffffffffffffffffffffffffffffffffffffff1673ffffffffffffffffffffffffffffffffffffffff1673ffffffffffffffffffffffffffffffffffffffff168152602001600482015481526020016005820160009054906101000a900473ffffffffffffffffffffffffffffffffffffffff1673ffffffffffffffffffffffffffffffffffffffff1673ffffffffffffffffffffffffffffffffffffffff1681526020016006820180546115a1906182e5565b80601f01602080910402602001604051908101604052809291908181526020018280546115cd906182e5565b801561161a5780601f106115ef5761010080835404028352916020019161161a565b820191906000526020600020905b8154815290600101906020018083116115fd57829003601f168201915b50505050508152505090508060000151604001518160000151600001518260000151602001518162ffffff169150935093509350509250925092565b348114611698576040517f08c379a000000000000000000000000000000000000000000000000000000000815260040161168f90617554565b60405180910390fd5b34600560003373ffffffffffffffffffffffffffffffffffffffff1673ffffffffffffffffffffffffffffffffffffffff168152602001908152602001600020546116e39190617aa2565b600560003373ffffffffffffffffffffffffffffffffffffffff1673ffffffffffffffffffffffffffffffffffffffff1681526020019081526020016000208190555050565b60006001905090565b60405160200161174190617126565b6040516020818303038152906040528051906020012081565b600061176683836117b1565b6080015160c0015160400151905092915050565b6117ab60405160200161178c90617126565b6040516020818303038152906040528051906020012085858585613c92565b50505050565b6117b9615e94565b6001600084815260200190815260200160002060008373ffffffffffffffffffffffffffffffffffffffff1673ffffffffffffffffffffffffffffffffffffffff1681526020019081526020016000206040518060a00160405290816000820160009054906101000a900473ffffffffffffffffffffffffffffffffffffffff1673ffffffffffffffffffffffffffffffffffffffff1673ffffffffffffffffffffffffffffffffffffffff168152602001600182015481526020016002820160009054906101000a900460ff16151515158152602001600382016040518060a0016040529081600082016040518060600160405290816000820160009054906101000a900462ffffff1662ffffff1662ffffff1681526020016001820154815260200160028201548152505081526020016003820160009054906101000a900473ffffffffffffffffffffffffffffffffffffffff1673ffffffffffffffffffffffffffffffffffffffff1673ffffffffffffffffffffffffffffffffffffffff168152602001600482015481526020016005820160009054906101000a900473ffffffffffffffffffffffffffffffffffffffff1673ffffffffffffffffffffffffffffffffffffffff1673ffffffffffffffffffffffffffffffffffffffff1681526020016006820180546119b0906182e5565b80601f01602080910402602001604051908101604052809291908181526020018280546119dc906182e5565b8015611a295780601f106119fe57610100808354040283529160200191611a29565b820191906000526020600020905b815481529060010190602001808311611a0c57829003601f168201915b5050505050815250508152602001600a8201604051806101600160405290816000820160009054906101000a900473ffffffffffffffffffffffffffffffffffffffff1673ffffffffffffffffffffffffffffffffffffffff1673ffffffffffffffffffffffffffffffffffffffff1681526020016001820160009054906101000a900473ffffffffffffffffffffffffffffffffffffffff1673ffffffffffffffffffffffffffffffffffffffff1673ffffffffffffffffffffffffffffffffffffffff168152602001600282016040518060a0016040529081600082016040518060600160405290816000820160009054906101000a900462ffffff1662ffffff1662ffffff1681526020016001820154815260200160028201548152505081526020016003820160009054906101000a900473ffffffffffffffffffffffffffffffffffffffff1673ffffffffffffffffffffffffffffffffffffffff1673ffffffffffffffffffffffffffffffffffffffff168152602001600482015481526020016005820160009054906101000a900473ffffffffffffffffffffffffffffffffffffffff1673ffffffffffffffffffffffffffffffffffffffff1673ffffffffffffffffffffffffffffffffffffffff168152602001600682018054611c14906182e5565b80601f0160208091040260200160405190810160405280929190818152602001828054611c40906182e5565b8015611c8d5780601f10611c6257610100808354040283529160200191611c8d565b820191906000526020600020905b815481529060010190602001808311611c7057829003601f168201915b5050505050815250508152602001600982016040518060600160405290816000820160009054906101000a900462ffffff1662ffffff1662ffffff168152602001600182015481526020016002820154815250508152602001600c82016040518060600160405290816000820160009054906101000a900462ffffff1662ffffff1662ffffff168152602001600182015481526020016002820154815250508152602001600f82016040518060600160405290816000820160009054906101000a900462ffffff1662ffffff1662ffffff168152602001600182015481526020016002820154815250508152602001601282016040518060600160405290816000820160009054906101000a900462ffffff1662ffffff1662ffffff168152602001600182015481526020016002820154815250508152602001601582015481526020016016820160009054906101000a900467ffffffffffffffff1667ffffffffffffffff1667ffffffffffffffff1681526020016017820154815260200160188201548152505081525050905092915050565b600181565b60006001905090565b6000600560003373ffffffffffffffffffffffffffffffffffffffff1673ffffffffffffffffffffffffffffffffffffffff16815260200190815260200160002054905090565b611e7f615eea565b611e8983836117b1565b60800151610100015167ffffffffffffffff16421115611ec757611ead83836117b1565b6080015160400151611ebf84846117b1565b606001819052505b611ed183836117b1565b60600151905092915050565b6000806001600460008573ffffffffffffffffffffffffffffffffffffffff1673ffffffffffffffffffffffffffffffffffffffff16815260200190815260200160002054611f2c9190617fce565b905080600560008573ffffffffffffffffffffffffffffffffffffffff1673ffffffffffffffffffffffffffffffffffffffff168152602001908152602001600020541015611f7f576000915050611fce565b80600560008573ffffffffffffffffffffffffffffffffffffffff1673ffffffffffffffffffffffffffffffffffffffff16815260200190815260200160002054611fca919061816c565b9150505b919050565b80600560008473ffffffffffffffffffffffffffffffffffffffff1673ffffffffffffffffffffffffffffffffffffffff1681526020019081526020016000205461201e919061816c565b600560008473ffffffffffffffffffffffffffffffffffffffff1673ffffffffffffffffffffffffffffffffffffffff168152602001908152602001600020819055508173ffffffffffffffffffffffffffffffffffffffff166108fc829081150290604051600060405180830381858888f193505050501580156120a7573d6000803e3d6000fd5b505050565b600080600090506120e16040516020016120c590617126565b604051602081830303815290604052805190602001208461438c565b156120f6576001816120f39190617aa2565b90505b80915050919050565b60008061210c85856117b1565b905060008160800151905080610100015167ffffffffffffffff16421115612169576040517f08c379a000000000000000000000000000000000000000000000000000000000815260040161216090617634565b60405180910390fd5b8060e001514211156121b0576040517f08c379a00000000000000000000000000000000000000000000000000000000081526004016121a7906173f4565b60405180910390fd5b3373ffffffffffffffffffffffffffffffffffffffff16816000015173ffffffffffffffffffffffffffffffffffffffff1614612222576040517f08c379a000000000000000000000000000000000000000000000000000000000815260040161221990617494565b60405180910390fd5b60018161014001511161226a576040517f08c379a000000000000000000000000000000000000000000000000000000000815260040161226190617534565b60405180910390fd5b61227c8160a0015182606001516143b5565b15806122975750612295816080015182606001516143b5565b155b6122d6576040517f08c379a00000000000000000000000000000000000000000000000000000000081526004016122cd90617574565b60405180910390fd5b6122df84614409565b816060018190525080610140015181606001516000015162ffffff161461233b576040517f08c379a000000000000000000000000000000000000000000000000000000000815260040161233290617674565b60405180910390fd5b42603c61ffff1661234c9190617aa2565b8160e0018181525050808260800181905250816001600088815260200190815260200160002060008773ffffffffffffffffffffffffffffffffffffffff1673ffffffffffffffffffffffffffffffffffffffff16815260200190815260200160002060008201518160000160006101000a81548173ffffffffffffffffffffffffffffffffffffffff021916908373ffffffffffffffffffffffffffffffffffffffff1602179055506020820151816001015560408201518160020160006101000a81548160ff02191690831515021790555060608201518160030160008201518160000160008201518160000160006101000a81548162ffffff021916908362ffffff1602179055506020820151816001015560408201518160020155505060208201518160030160006101000a81548173ffffffffffffffffffffffffffffffffffffffff021916908373ffffffffffffffffffffffffffffffffffffffff1602179055506040820151816004015560608201518160050160006101000a81548173ffffffffffffffffffffffffffffffffffffffff021916908373ffffffffffffffffffffffffffffffffffffffff1602179055506080820151816006019080519060200190612521929190615f4e565b505050608082015181600a0160008201518160000160006101000a81548173ffffffffffffffffffffffffffffffffffffffff021916908373ffffffffffffffffffffffffffffffffffffffff16021790555060208201518160010160006101000a81548173ffffffffffffffffffffffffffffffffffffffff021916908373ffffffffffffffffffffffffffffffffffffffff16021790555060408201518160020160008201518160000160008201518160000160006101000a81548162ffffff021916908362ffffff1602179055506020820151816001015560408201518160020155505060208201518160030160006101000a81548173ffffffffffffffffffffffffffffffffffffffff021916908373ffffffffffffffffffffffffffffffffffffffff1602179055506040820151816004015560608201518160050160006101000a81548173ffffffffffffffffffffffffffffffffffffffff021916908373ffffffffffffffffffffffffffffffffffffffff16021790555060808201518160060190805190602001906126bc929190615f4e565b50505060608201518160090160008201518160000160006101000a81548162ffffff021916908362ffffff16021790555060208201518160010155604082015181600201555050608082015181600c0160008201518160000160006101000a81548162ffffff021916908362ffffff1602179055506020820151816001015560408201518160020155505060a082015181600f0160008201518160000160006101000a81548162ffffff021916908362ffffff1602179055506020820151816001015560408201518160020155505060c08201518160120160008201518160000160006101000a81548162ffffff021916908362ffffff1602179055506020820151816001015560408201518160020155505060e082015181601501556101008201518160160160006101000a81548167ffffffffffffffff021916908367ffffffffffffffff1602179055506101208201518160170155610140820151816018015550509050507fc3c7ceaee95acff40f281332e5eebc30ea5cde12caf201511ad3b9340ad17c2d86868360a001516040015184608001516040015185606001516040015160405161287395949392919061724c565b60405180910390a16001925050509392505050565b60008061289585856117b1565b905060008160800151905080610100015167ffffffffffffffff164211156128f2576040517f08c379a00000000000000000000000000000000000000000000000000000000081526004016128e990617634565b60405180910390fd5b60018161014001511161293a576040517f08c379a000000000000000000000000000000000000000000000000000000000815260040161293190617534565b60405180910390fd5b3373ffffffffffffffffffffffffffffffffffffffff16816020015173ffffffffffffffffffffffffffffffffffffffff1614806129a85750600073ffffffffffffffffffffffffffffffffffffffff16816020015173ffffffffffffffffffffffffffffffffffffffff16145b6129e7576040517f08c379a00000000000000000000000000000000000000000000000000000000081526004016129de906175d4565b60405180910390fd5b6129f98160a0015182606001516143b5565b1580612a145750612a12816080015182606001516143b5565b155b612a53576040517f08c379a0000000000000000000000000000000000000000000000000000000008152600401612a4a90617574565b60405180910390fd5b838160800151604001511415612a755780606001518160a00181905250612a9d565b838160600151604001511415612a975780606001518160800181905250612a9c565b600080fd5b5b8060a001516000015160028260a0015160000151836080015160000151612ac49190618138565b612ace9190617bcc565b612ad89190617a69565b62ffffff168161014001818152505042603c61ffff16612af89190617aa2565b8160e001818152505033816020019073ffffffffffffffffffffffffffffffffffffffff16908173ffffffffffffffffffffffffffffffffffffffff1681525050808260800181905250816001600088815260200190815260200160002060008773ffffffffffffffffffffffffffffffffffffffff1673ffffffffffffffffffffffffffffffffffffffff16815260200190815260200160002060008201518160000160006101000a81548173ffffffffffffffffffffffffffffffffffffffff021916908373ffffffffffffffffffffffffffffffffffffffff1602179055506020820151816001015560408201518160020160006101000a81548160ff02191690831515021790555060608201518160030160008201518160000160008201518160000160006101000a81548162ffffff021916908362ffffff1602179055506020820151816001015560408201518160020155505060208201518160030160006101000a81548173ffffffffffffffffffffffffffffffffffffffff021916908373ffffffffffffffffffffffffffffffffffffffff1602179055506040820151816004015560608201518160050160006101000a81548173ffffffffffffffffffffffffffffffffffffffff021916908373ffffffffffffffffffffffffffffffffffffffff1602179055506080820151816006019080519060200190612d05929190615f4e565b505050608082015181600a0160008201518160000160006101000a81548173ffffffffffffffffffffffffffffffffffffffff021916908373ffffffffffffffffffffffffffffffffffffffff16021790555060208201518160010160006101000a81548173ffffffffffffffffffffffffffffffffffffffff021916908373ffffffffffffffffffffffffffffffffffffffff16021790555060408201518160020160008201518160000160008201518160000160006101000a81548162ffffff021916908362ffffff1602179055506020820151816001015560408201518160020155505060208201518160030160006101000a81548173ffffffffffffffffffffffffffffffffffffffff021916908373ffffffffffffffffffffffffffffffffffffffff1602179055506040820151816004015560608201518160050160006101000a81548173ffffffffffffffffffffffffffffffffffffffff021916908373ffffffffffffffffffffffffffffffffffffffff1602179055506080820151816006019080519060200190612ea0929190615f4e565b50505060608201518160090160008201518160000160006101000a81548162ffffff021916908362ffffff16021790555060208201518160010155604082015181600201555050608082015181600c0160008201518160000160006101000a81548162ffffff021916908362ffffff1602179055506020820151816001015560408201518160020155505060a082015181600f0160008201518160000160006101000a81548162ffffff021916908362ffffff1602179055506020820151816001015560408201518160020155505060c08201518160120160008201518160000160006101000a81548162ffffff021916908362ffffff1602179055506020820151816001015560408201518160020155505060e082015181601501556101008201518160160160006101000a81548167ffffffffffffffff021916908367ffffffffffffffff16021790555061012082015181601701556101408201518160180155505090505060018160a001516000015161301d9190617a69565b62ffffff168161014001511415613080577ff4d8fc56e3c807b8a0da72385d06a7e5cbd9874bedbd3c059286c0a743d5ba5586868360a00151604001518460800151604001516040516130739493929190617207565b60405180910390a16130ce565b7fcbd53ea5c10784f2353cb61601322409595e87156306134ad13181d7db4d1dd586868360a00151604001518460800151604001516040516130c59493929190617207565b60405180910390a15b6001925050509392505050565b60006130e5615fd4565b6130ed615de6565b60006130f98b8b6117b1565b90506000898051906020012090503373ffffffffffffffffffffffffffffffffffffffff166131288d8d610803565b73ffffffffffffffffffffffffffffffffffffffff161461317e576040517f08c379a000000000000000000000000000000000000000000000000000000000815260040161317590617714565b60405180910390fd5b6131898c8c83610b8e565b156131c9576040517f08c379a00000000000000000000000000000000000000000000000000000000081526004016131c090617654565b60405180910390fd5b6131d38c8c61438c565b613212576040517f08c379a000000000000000000000000000000000000000000000000000000000815260040161320990617514565b60405180910390fd5b3373ffffffffffffffffffffffffffffffffffffffff166132338d8d6117b1565b6000015173ffffffffffffffffffffffffffffffffffffffff161461328d576040517f08c379a000000000000000000000000000000000000000000000000000000000815260040161328490617614565b60405180910390fd5b6132968a614409565b935061025861ffff16426132aa9190617aa2565b83610100019067ffffffffffffffff16908167ffffffffffffffff1681525050838360400151600001819052508683604001516080018190525085836101200181815250508a836000019073ffffffffffffffffffffffffffffffffffffffff16908173ffffffffffffffffffffffffffffffffffffffff168152505061333089614409565b8360c0018190525061334188614409565b83606001819052508260c0015183608001819052508160600151600001518360a0018190525082606001516000015162ffffff16836101400181815250506006836040015160000151600001516133989190617a69565b62ffffff168360c001516000015162ffffff16146133eb576040517f08c379a00000000000000000000000000000000000000000000000000000000081526004016133e290617734565b60405180910390fd5b60028361012001516133fd9190617bfd565b83608001516000015162ffffff16613415919061816c565b8361014001511461345b576040517f08c379a0000000000000000000000000000000000000000000000000000000008152600401613452906174b4565b60405180910390fd5b82826080018190525081600160008e815260200190815260200160002060008d73ffffffffffffffffffffffffffffffffffffffff1673ffffffffffffffffffffffffffffffffffffffff16815260200190815260200160002060008201518160000160006101000a81548173ffffffffffffffffffffffffffffffffffffffff021916908373ffffffffffffffffffffffffffffffffffffffff1602179055506020820151816001015560408201518160020160006101000a81548160ff02191690831515021790555060608201518160030160008201518160000160008201518160000160006101000a81548162ffffff021916908362ffffff1602179055506020820151816001015560408201518160020155505060208201518160030160006101000a81548173ffffffffffffffffffffffffffffffffffffffff021916908373ffffffffffffffffffffffffffffffffffffffff1602179055506040820151816004015560608201518160050160006101000a81548173ffffffffffffffffffffffffffffffffffffffff021916908373ffffffffffffffffffffffffffffffffffffffff1602179055506080820151816006019080519060200190613627929190615f4e565b505050608082015181600a0160008201518160000160006101000a81548173ffffffffffffffffffffffffffffffffffffffff021916908373ffffffffffffffffffffffffffffffffffffffff16021790555060208201518160010160006101000a81548173ffffffffffffffffffffffffffffffffffffffff021916908373ffffffffffffffffffffffffffffffffffffffff16021790555060408201518160020160008201518160000160008201518160000160006101000a81548162ffffff021916908362ffffff1602179055506020820151816001015560408201518160020155505060208201518160030160006101000a81548173ffffffffffffffffffffffffffffffffffffffff021916908373ffffffffffffffffffffffffffffffffffffffff1602179055506040820151816004015560608201518160050160006101000a81548173ffffffffffffffffffffffffffffffffffffffff021916908373ffffffffffffffffffffffffffffffffffffffff16021790555060808201518160060190805190602001906137c2929190615f4e565b50505060608201518160090160008201518160000160006101000a81548162ffffff021916908362ffffff16021790555060208201518160010155604082015181600201555050608082015181600c0160008201518160000160006101000a81548162ffffff021916908362ffffff1602179055506020820151816001015560408201518160020155505060a082015181600f0160008201518160000160006101000a81548162ffffff021916908362ffffff1602179055506020820151816001015560408201518160020155505060c08201518160120160008201518160000160006101000a81548162ffffff021916908362ffffff1602179055506020820151816001015560408201518160020155505060e082015181601501556101008201518160160160006101000a81548167ffffffffffffffff021916908367ffffffffffffffff1602179055506101208201518160170155610140820151816018015550509050507fafcf03085af91069a019d83a83fb4de37586712d80f80f9ac3735c4f88acd9ad8c8c6139578f8f6117b1565b6060015160000151604001518660c00151604001518760600151604001518860c00151604001518960400151608001518a61012001518b61010001516040516139a89998979695949392919061729f565b60405180910390a16000945050505050979650505050505050565b6000806139d089896117b1565b90506001816080015160a001516000015162ffffff16826080015161014001516139fa919061816c565b14613a3a576040517f08c379a0000000000000000000000000000000000000000000000000000000008152600401613a31906176b4565b60405180910390fd5b6000613a4b8a8a8a8a8a8a8a61446f565b90507ff68bea46bc6fb530eae297355e0d416e2545678c786c03ed115311db0dd3614081604051613a7c9190617847565b60405180910390a18092505050979650505050505050565b6000806000613aa385856117b1565b6080015190508060e001514210158015613ae45750613aca8160a0015182606001516143b5565b80613ae35750613ae2816080015182606001516143b5565b5b5b15613af6576001809250925050613b50565b8060e001514210158015613b345750613b178160a0015182606001516143b5565b158015613b335750613b31816080015182606001516143b5565b155b5b15613b4757600160029250925050613b50565b60008092509250505b9250929050565b60006001600460008473ffffffffffffffffffffffffffffffffffffffff1673ffffffffffffffffffffffffffffffffffffffff16815260200190815260200160002054613ba59190617fce565b9050919050565b6000613bb98c8c8b610b8e565b613bf8576040517f08c379a0000000000000000000000000000000000000000000000000000000008152600401613bef906176f4565b60405180910390fd5b613c038c8c87610e3c565b613c42576040517f08c379a0000000000000000000000000000000000000000000000000000000008152600401613c3990617434565b60405180910390fd5b6001613c518a8c8b8b8b6145f3565b60ff16148015613c7057506001613c6b868c8787876145f3565b60ff16145b15613c7e5760019050613c83565b600090505b9b9a5050505050505050505050565b3373ffffffffffffffffffffffffffffffffffffffff168473ffffffffffffffffffffffffffffffffffffffff1614613d00576040517f08c379a0000000000000000000000000000000000000000000000000000000008152600401613cf790617474565b60405180910390fd5b613d0a85856117b1565b6040015115613d4e576040517f08c379a0000000000000000000000000000000000000000000000000000000008152600401613d45906174f4565b60405180910390fd5b600083805190602001209050613d62615e94565b613d6a615eea565b6000613d758761461f565b9050613d7f615fd4565b848160400181815250508160a00151816000019062ffffff16908162ffffff168152505081604001518160200181815250508984602001818152505033846000019073ffffffffffffffffffffffffffffffffffffffff16908173ffffffffffffffffffffffffffffffffffffffff1681525050600184604001901515908115158152505085836080018190525080836000018190525088836020019073ffffffffffffffffffffffffffffffffffffffff16908173ffffffffffffffffffffffffffffffffffffffff16815250508483604001818152505082846060018190525083600160008c815260200190815260200160002060008b73ffffffffffffffffffffffffffffffffffffffff1673ffffffffffffffffffffffffffffffffffffffff16815260200190815260200160002060008201518160000160006101000a81548173ffffffffffffffffffffffffffffffffffffffff021916908373ffffffffffffffffffffffffffffffffffffffff1602179055506020820151816001015560408201518160020160006101000a81548160ff02191690831515021790555060608201518160030160008201518160000160008201518160000160006101000a81548162ffffff021916908362ffffff1602179055506020820151816001015560408201518160020155505060208201518160030160006101000a81548173ffffffffffffffffffffffffffffffffffffffff021916908373ffffffffffffffffffffffffffffffffffffffff1602179055506040820151816004015560608201518160050160006101000a81548173ffffffffffffffffffffffffffffffffffffffff021916908373ffffffffffffffffffffffffffffffffffffffff1602179055506080820151816006019080519060200190614024929190615f4e565b505050608082015181600a0160008201518160000160006101000a81548173ffffffffffffffffffffffffffffffffffffffff021916908373ffffffffffffffffffffffffffffffffffffffff16021790555060208201518160010160006101000a81548173ffffffffffffffffffffffffffffffffffffffff021916908373ffffffffffffffffffffffffffffffffffffffff16021790555060408201518160020160008201518160000160008201518160000160006101000a81548162ffffff021916908362ffffff1602179055506020820151816001015560408201518160020155505060208201518160030160006101000a81548173ffffffffffffffffffffffffffffffffffffffff021916908373ffffffffffffffffffffffffffffffffffffffff1602179055506040820151816004015560608201518160050160006101000a81548173ffffffffffffffffffffffffffffffffffffffff021916908373ffffffffffffffffffffffffffffffffffffffff16021790555060808201518160060190805190602001906141bf929190615f4e565b50505060608201518160090160008201518160000160006101000a81548162ffffff021916908362ffffff16021790555060208201518160010155604082015181600201555050608082015181600c0160008201518160000160006101000a81548162ffffff021916908362ffffff1602179055506020820151816001015560408201518160020155505060a082015181600f0160008201518160000160006101000a81548162ffffff021916908362ffffff1602179055506020820151816001015560408201518160020155505060c08201518160120160008201518160000160006101000a81548162ffffff021916908362ffffff1602179055506020820151816001015560408201518160020155505060e082015181601501556101008201518160160160006101000a81548167ffffffffffffffff021916908367ffffffffffffffff1602179055506101208201518160170155610140820151816018015550509050507fd8ac5f1c08af7fa5c18f884fb1b8cce9877844992173a5958a4b8237ad9b74d98a8a8560000151602001518660000151604001518760800151886060015160405161437896959493929190617333565b60405180910390a150505050505050505050565b60004261439984846117b1565b60800151610100015167ffffffffffffffff1610905092915050565b60008160400151836040015114806143de5750816000015162ffffff16836000015162ffffff16145b806143f0575081602001518360200151145b156143fe5760019050614403565b600090505b92915050565b614411615fd4565b600061441c8361461f565b9050614426615fd4565b600084805190602001209050808260400181815250508260a00151826000019062ffffff16908162ffffff16815250508260400151826020018181525050819350505050919050565b60008060008060006144c78c8c8c8c8080601f016020809104026020016040519081016040528093929190818152602001838380828437600081840152601f19601f820116905080830192505050505050508b61487b565b8094508195508296508397505050505060008414156145e15760008060009054906101000a900473ffffffffffffffffffffffffffffffffffffffff1673ffffffffffffffffffffffffffffffffffffffff166329e265df8561452a8e8e6149ec565b86868d8d6040518763ffffffff1660e01b815260040161454f969594939291906177d8565b604080518083038186803b15801561456657600080fd5b505afa15801561457a573d6000803e3d6000fd5b505050506040513d601f19601f8201168201806040525081019061459e91906167bb565b80925081965050507f368fee0c56ae41c07d7c93332427c609564426ae664e6298300f00514aebe48e85826040516145d7929190617862565b60405180910390a1505b83945050505050979650505050505050565b60008061460286868686614bfd565b11156146115760019050614616565b600090505b95945050505050565b614627616000565b61462f616000565b600061464261463d85614f0a565b614f38565b905060005b61465082614f8f565b156148705760008114156146805761466f61466a83614fbb565b61501e565b60001b83600001818152505061485d565b60018114156146ab5761469a61469583614fbb565b61501e565b60001b83602001818152505061485c565b60038114156146d6576146c56146c083614fbb565b61501e565b60001b83604001818152505061485b565b6004811415614701576146f06146eb83614fbb565b61501e565b60001b83606001818152505061485a565b600581141561472c5761471b61471683614fbb565b61501e565b60001b836080018181525050614859565b60078114156147555761474661474183614fbb565b61501e565b83610160018181525050614858565b600881141561477d5761476f61476a83614fbb565b61501e565b8360a0018181525050614857565b60098114156147a55761479761479283614fbb565b61501e565b8360c0018181525050614856565b600a8114156147cd576147bf6147ba83614fbb565b61501e565b8360e0018181525050614855565b600b8114156147f6576147e76147e283614fbb565b61501e565b83610120018181525050614854565b600c81141561481e5761481061480b83614fbb565b6150a1565b836101800181905250614853565b600e8114156148475761483861483383614fbb565b61501e565b83610140018181525050614852565b61485082614fbb565b505b5b5b5b5b5b5b5b5b5b5b5b808061486890618348565b915050614647565b829350505050919050565b60008060008060008580519060200120905060006148998a8a6117b1565b9050600081608001519050828160a0015160400151146148ee576040517f08c379a00000000000000000000000000000000000000000000000000000000081526004016148e5906176d4565b60405180910390fd5b6148f88b8b61438c565b15614938576040517f08c379a000000000000000000000000000000000000000000000000000000000815260040161492f906175f4565b60405180910390fd5b60006149438a614409565b905060006149508a614409565b905061495e8d8d8484615158565b61499d576040517f08c379a000000000000000000000000000000000000000000000000000000000815260040161499490617454565b60405180910390fd5b60006149a88c61461f565b905060006149b58c61461f565b90506149c182826151ba565b84600001518361014001518461016001519a509a509a509a5050505050505050945094509450949050565b600080614a44614a3f85858080601f016020809104026020016040519081016040528093929190818152602001838380828437600081840152601f19601f82011690508083019250505050505050614f0a565b614f38565b905060006003905060008060005b614a5b85614f8f565b15614ab257600d831415614a6d578391505b6000614a7886614fbb565b9050806000015185614a8a9190617aa2565b9450600e841415614a9e5784915050614ab2565b8380614aa990618348565b94505050614a52565b600088886000908592614ac79392919061799a565b8a8a85908092614ad99392919061799a565b604051602001614aec94939291906170fe565b604051602081830303815290604052905060008383614b0b919061816c565b60038b8b9050614b1b919061816c565b614b25919061816c565b905060008160f01b905080600060028110614b4357614b42618480565b5b1a60f81b83600181518110614b5b57614b5a618480565b5b60200101907effffffffffffffffffffffffffffffffffffffffffffffffffffffffffffff1916908160001a90535080600160028110614b9e57614b9d618480565b5b1a60f81b83600281518110614bb657614bb5618480565b5b60200101907effffffffffffffffffffffffffffffffffffffffffffffffffffffffffffff1916908160001a90535082805190602001209850505050505050505092915050565b600080614c0984614f0a565b90506000614c16826152e1565b90506060806000869050600080614c2c8b6153f6565b9050600081511415614c48576001975050505050505050614f02565b60005b8651811015614ef9578151831115614c6e57600298505050505050505050614f02565b614c91878281518110614c8457614c83618480565b5b60200260200101516150a1565b955085805190602001208414614cb257600398505050505050505050614f02565b614cc3614cbe87614f0a565b6152e1565b9450601185511415614db6578151831415614d33578c80519060200120614d0486601081518110614cf757614cf6618480565b5b60200260200101516150a1565b805190602001201415614d2257600098505050505050505050614f02565b600498505050505050505050614f02565b6000828481518110614d4857614d47618480565b5b602001015160f81c60f81b60f81c905060108160ff161115614d765760059950505050505050505050614f02565b614d9c868260ff1681518110614d8f57614d8e618480565b5b602002602001015161501e565b60001b9450600184614dae9190617aa2565b935050614ee6565b600285511415614ed457614dee614de786600081518110614dda57614dd9618480565b5b60200260200101516150a1565b83856154cb565b83614df99190617aa2565b92508151831415614e5f578c80519060200120614e3086600181518110614e2357614e22618480565b5b60200260200101516150a1565b805190602001201415614e4e57600098505050505050505050614f02565b600698505050505050505050614f02565b6000614e8f614e8887600081518110614e7b57614e7a618480565b5b60200260200101516150a1565b84866154cb565b1415614ea657600798505050505050505050614f02565b614eca85600181518110614ebd57614ebc618480565b5b602002602001015161501e565b60001b9350614ee5565b600898505050505050505050614f02565b5b8080614ef190618348565b915050614c4b565b50505050505050505b949350505050565b614f1261607a565b600060208301905060405180604001604052808451815260200182815250915050919050565b614f40616094565b614f49826155fd565b614f5257600080fd5b6000614f61836020015161564b565b8360200151614f709190617aa2565b9050604051806040016040528084815260200182815250915050919050565b6000808260000151905080600001518160200151614fad9190617aa2565b836020015110915050919050565b614fc361607a565b614fcc82614f8f565b614fd557600080fd5b6000826020015190506000614fe98261570a565b90508082614ff79190617aa2565b84602001818152505060405180604001604052808281526020018381525092505050919050565b600080826000015111801561503857506021826000015111155b61504157600080fd5b6000615050836020015161564b565b90506000818460000151615064919061816c565b90506000808386602001516150799190617aa2565b905080519150602083101561509557826020036101000a820491505b81945050505050919050565b606060008260000151116150b457600080fd5b60006150c3836020015161564b565b905060008184600001516150d7919061816c565b905060008167ffffffffffffffff8111156150f5576150f46184af565b5b6040519080825280601f01601f1916602001820160405280156151275781602001600182028036833780820191505090505b509050600081602001905061514c8487602001516151459190617aa2565b82856157e6565b81945050505050919050565b6000816040015161516986866117b1565b6080015160a001516040015114801561519f5750826000015162ffffff16600183600001516151989190617a69565b62ffffff16145b156151ad57600190506151b2565b600090505b949350505050565b6000602060ff168361018001515111156151d757600390506152db565b600f60ff16426151e79190617aa2565b83610120015111156151fc57600590506152db565b677fffffffffffffff8360c00151111561521957600890506152db565b61138861ffff168360c00151101561523457600990506152db565b8260a0015160018360a0015161524a9190617aa2565b1461525857600490506152db565b8261012001518261012001511061527257600690506152db565b600061528383856101200151615883565b9050836101600151811461529b5760079150506152db565b6152ad8460c001518460c00151615a4b565b6152bb57600a9150506152db565b8360c001518460e0015111156152d557600b9150506152db565b60009150505b92915050565b60606152ec826155fd565b6152f557600080fd5b600061530083615abd565b905060008167ffffffffffffffff81111561531e5761531d6184af565b5b60405190808252806020026020018201604052801561535757816020015b61534461607a565b81526020019060019003908161533c5790505b5090506000615369856020015161564b565b85602001516153789190617aa2565b9050600080600090505b848110156153e9576153938361570a565b91506040518060400160405280838152602001848152508482815181106153bd576153bc618480565b5b602002602001018190525081836153d49190617aa2565b925080806153e190618348565b915050615382565b5082945050505050919050565b60606000600283516154089190617fce565b67ffffffffffffffff811115615421576154206184af565b5b6040519080825280601f01601f1916602001820160405280156154535781602001600182028036833780820191505090505b50905060005b81518110156154c15761546c8185615b4b565b82828151811061547f5761547e618480565b5b60200101907effffffffffffffffffffffffffffffffffffffffffffffffffffffffffffff1916908160001a90535080806154b990618348565b915050615459565b5080915050919050565b60008060006154d986615be3565b90506000815167ffffffffffffffff8111156154f8576154f76184af565b5b6040519080825280601f01601f19166020018201604052801561552a5781602001600182028036833780820191505090505b50905060008590505b8251866155409190617aa2565b8110156155cb57600087828151811061555c5761555b618480565b5b602001015160f81c60f81b905080838884615577919061816c565b8151811061558857615587618480565b5b60200101907effffffffffffffffffffffffffffffffffffffffffffffffffffffffffffff1916908160001a9053505080806155c390618348565b915050615533565b508080519060200120828051906020012014156155eb57815192506155f0565b600092505b8293505050509392505050565b600080826000015114156156145760009050615646565b60008083602001519050805160001a915060c060ff168260ff16101561563f57600092505050615646565b6001925050505b919050565b600080825160001a9050608060ff1681101561566b576000915050615705565b60b860ff16811080615690575060c060ff16811015801561568f575060f860ff1681105b5b1561569f576001915050615705565b60c060ff168110156156da5760018060b86156ba91906181a0565b60ff16826156c8919061816c565b6156d29190617aa2565b915050615705565b60018060f86156e991906181a0565b60ff16826156f7919061816c565b6157019190617aa2565b9150505b919050565b6000806000835160001a9050608060ff1681101561572b57600191506157dc565b60b860ff1681101561575a576001608060ff1682615749919061816c565b6157539190617aa2565b91506157db565b60c060ff1681101561578a5760b78103600185019450806020036101000a855104600182018101935050506157da565b60f860ff168110156157b957600160c060ff16826157a8919061816c565b6157b29190617aa2565b91506157d9565b60f78103600185019450806020036101000a855104600182018101935050505b5b5b5b8192505050919050565b60008114156157f45761587e565b5b602060ff16811061583f5782518252602060ff16836158149190617aa2565b9250602060ff16826158269190617aa2565b9150602060ff1681615838919061816c565b90506157f5565b6000600182602060ff16615853919061816c565b6101006158609190617cb2565b61586a919061816c565b905080198451168184511681811785525050505b505050565b600080600984610120015184615899919061816c565b6158a39190617bfd565b90507f1dcc4de8dec75d7aab85b567b6ccd41ad312451b948a7413f0a142fd40d49347846020015114156158e5578060016158de9190618028565b90506158f5565b8060026158f29190618028565b90505b7fffffffffffffffffffffffffffffffffffffffffffffffffffffffffffffff9d811215615941577fffffffffffffffffffffffffffffffffffffffffffffffffffffffffffffff9d90505b806108008561016001516159559190617af8565b61595f9190617dd0565b84610160015161596f91906179d5565b905062020000811215615983576202000090505b6000624c4b3f905062d228c860018660a001516159a09190617aa2565b106159b05762a344df90506159d2565b628c618060018660a001516159c59190617aa2565b106159d1576289543f90505b5b6000818660a00151106159f257818660a001516159ef919061816c565b90505b6000620186a082615a039190617bfd565b90506001811115615a3d57600281615a1b919061816c565b6002615a279190617cb2565b84615a329190617aa2565b945050505050615a45565b839450505050505b92915050565b60008061040083615a5c9190617b62565b905060008385615a6c91906180bc565b905060008160070b1215615aa9577fffffffffffffffffffffffffffffffffffffffffffffffffffffffffffffffff81615aa69190617ee7565b90505b8160070b8160070b13159250505092915050565b60008082600001511415615ad45760009050615b46565b600080615ae4846020015161564b565b8460200151615af39190617aa2565b9050600084600001518560200151615b0b9190617aa2565b90505b80821015615b3f57615b1f8261570a565b82615b2a9190617aa2565b91508280615b3790618348565b935050615b0e565b8293505050505b919050565b600080600284615b5b9190618391565b14615b9e57601082600285615b709190617bfd565b81518110615b8157615b80618480565b5b602001015160f81c60f81b60f81c615b9991906183c2565b615bd8565b601082600285615bae9190617bfd565b81518110615bbf57615bbe618480565b5b602001015160f81c60f81b60f81c615bd79190617c2e565b5b60f81b905092915050565b606080600083511115615ddd57600080615bfe600086615b4b565b60f81c905060018160ff161480615c18575060038160ff16145b15615ce257600160028651615c2d9190617fce565b615c37919061816c565b67ffffffffffffffff811115615c5057615c4f6184af565b5b6040519080825280601f01601f191660200182016040528015615c825781602001600182028036833780820191505090505b5092506000615c92600187615b4b565b90508084600081518110615ca957615ca8618480565b5b60200101907effffffffffffffffffffffffffffffffffffffffffffffffffffffffffffff1916908160001a9053506001925050615d4e565b6002808651615cf19190617fce565b615cfb919061816c565b67ffffffffffffffff811115615d1457615d136184af565b5b6040519080825280601f01601f191660200182016040528015615d465781602001600182028036833780820191505090505b509250600091505b60008260ff1690505b8351811015615dd957615d8460028460ff1683615d74919061816c565b615d7e9190617aa2565b87615b4b565b848281518110615d9757615d96618480565b5b60200101907effffffffffffffffffffffffffffffffffffffffffffffffffffffffffffff1916908160001a9053508080615dd190618348565b915050615d57565b5050505b80915050919050565b604051806101600160405280600073ffffffffffffffffffffffffffffffffffffffff168152602001600073ffffffffffffffffffffffffffffffffffffffff168152602001615e34615eea565b8152602001615e41615fd4565b8152602001615e4e615fd4565b8152602001615e5b615fd4565b8152602001615e68615fd4565b815260200160008152602001600067ffffffffffffffff16815260200160008152602001600081525090565b6040518060a00160405280600073ffffffffffffffffffffffffffffffffffffffff16815260200160008019168152602001600015158152602001615ed7615eea565b8152602001615ee4615de6565b81525090565b6040518060a00160405280615efd615fd4565b8152602001600073ffffffffffffffffffffffffffffffffffffffff16815260200160008019168152602001600073ffffffffffffffffffffffffffffffffffffffff168152602001606081525090565b828054615f5a906182e5565b90600052602060002090601f016020900481019282615f7c5760008555615fc3565b82601f10615f9557805160ff1916838001178555615fc3565b82800160010185558215615fc3579182015b82811115615fc2578251825591602001919060010190615fa7565b5b509050615fd091906160b4565b5090565b6040518060600160405280600062ffffff16815260200160008019168152602001600080191681525090565b604051806101a00160405280600080191681526020016000801916815260200160008019168152602001600080191681526020016000801916815260200160008152602001600081526020016000815260200160008019168152602001600081526020016000815260200160008152602001606081525090565b604051806040016040528060008152602001600081525090565b60405180604001604052806160a761607a565b8152602001600081525090565b5b808211156160cd5760008160009055506001016160b5565b5090565b60006160e46160df846178b0565b61788b565b90508083825260208201905082856020860282011115616107576161066184f2565b5b60005b85811015616137578161611d888261625f565b84526020840193506020830192505060018101905061610a565b5050509392505050565b600061615461614f846178dc565b61788b565b9050828152602081018484840111156161705761616f6184f7565b5b61617b8482856182a3565b509392505050565b60008135905061619281618ab0565b92915050565b600082601f8301126161ad576161ac6184e3565b5b81356161bd8482602086016160d1565b91505092915050565b6000813590506161d581618ac7565b92915050565b60008083601f8401126161f1576161f06184e3565b5b8235905067ffffffffffffffff81111561620e5761620d6184de565b5b60208301915083600182028301111561622a576162296184f2565b5b9250929050565b600082601f830112616246576162456184e3565b5b8135616256848260208601616141565b91505092915050565b60008135905061626e81618ade565b92915050565b60008151905061628381618ade565b92915050565b60006020828403121561629f5761629e618501565b5b60006162ad84828501616183565b91505092915050565b600080604083850312156162cd576162cc618501565b5b60006162db85828601616183565b92505060206162ec858286016161c6565b9150509250929050565b600080600080608085870312156163105761630f618501565b5b600061631e87828801616183565b945050602085013567ffffffffffffffff81111561633f5761633e6184fc565b5b61634b87828801616231565b935050604061635c8782880161625f565b925050606085013567ffffffffffffffff81111561637d5761637c6184fc565b5b61638987828801616231565b91505092959194509250565b600080604083850312156163ac576163ab618501565b5b60006163ba858286016161c6565b92505060206163cb85828601616183565b9150509250929050565b6000806000606084860312156163ee576163ed618501565b5b60006163fc868287016161c6565b935050602061640d86828701616183565b925050604061641e868287016161c6565b9150509250925092565b60008060008060006080868803121561644457616443618501565b5b600086013567ffffffffffffffff811115616462576164616184fc565b5b61646e888289016161db565b9550955050602086013567ffffffffffffffff811115616491576164906184fc565b5b61649d88828901616231565b935050604086013567ffffffffffffffff8111156164be576164bd6184fc565b5b6164ca88828901616198565b925050606086013567ffffffffffffffff8111156164eb576164ea6184fc565b5b6164f788828901616198565b9150509295509295909350565b60006020828403121561651a57616519618501565b5b600082013567ffffffffffffffff811115616538576165376184fc565b5b61654484828501616231565b91505092915050565b60008060008060008060008060006101208a8c0312156165705761656f618501565b5b60008a013567ffffffffffffffff81111561658e5761658d6184fc565b5b61659a8c828d01616231565b99505060206165ab8c828d016161c6565b98505060408a013567ffffffffffffffff8111156165cc576165cb6184fc565b5b6165d88c828d01616231565b97505060608a013567ffffffffffffffff8111156165f9576165f86184fc565b5b6166058c828d01616231565b96505060806166168c828d016161c6565b95505060a06166278c828d016161c6565b94505060c08a013567ffffffffffffffff811115616648576166476184fc565b5b6166548c828d01616231565b93505060e08a013567ffffffffffffffff811115616675576166746184fc565b5b6166818c828d01616231565b9250506101006166938c828d016161c6565b9150509295985092959850929598565b600080600080600060a086880312156166bf576166be618501565b5b600086013567ffffffffffffffff8111156166dd576166dc6184fc565b5b6166e988828901616231565b955050602086013567ffffffffffffffff81111561670a576167096184fc565b5b61671688828901616231565b945050604086013567ffffffffffffffff811115616737576167366184fc565b5b61674388828901616231565b935050606086013567ffffffffffffffff811115616764576167636184fc565b5b61677088828901616231565b92505060806167818882890161625f565b9150509295509295909350565b6000602082840312156167a4576167a3618501565b5b60006167b28482850161625f565b91505092915050565b600080604083850312156167d2576167d1618501565b5b60006167e085828601616274565b92505060206167f185828601616274565b9150509250929050565b600061680783836170c2565b60208301905092915050565b61681c816181d4565b82525050565b61682b816181d4565b82525050565b600061683c8261791d565b6168468185617940565b93506168518361790d565b8060005b8381101561688257815161686988826167fb565b975061687483617933565b925050600181019050616855565b5085935050505092915050565b616898816181e6565b82525050565b6168a7816181e6565b82525050565b6168b6816181f2565b82525050565b6168c5816181f2565b82525050565b60006168d78385617973565b93506168e48385846182a3565b82840190509392505050565b60006168fb82617928565b6169058185617951565b93506169158185602086016182b2565b61691e81618506565b840191505092915050565b600061693482617928565b61693e8185617962565b935061694e8185602086016182b2565b61695781618506565b840191505092915050565b61696b8161826d565b82525050565b600061697e60168361797e565b915061698982618524565b602082019050919050565b60006169a160178361797e565b91506169ac8261854d565b602082019050919050565b60006169c4601a8361797e565b91506169cf82618576565b602082019050919050565b60006169e760488361797e565b91506169f28261859f565b606082019050919050565b6000616a0a60018361798f565b9150616a1582618614565b600182019050919050565b6000616a2d60158361797e565b9150616a388261863d565b602082019050919050565b6000616a5060158361797e565b9150616a5b82618666565b602082019050919050565b6000616a7360158361797e565b9150616a7e8261868f565b602082019050919050565b6000616a96601a8361797e565b9150616aa1826186b8565b602082019050919050565b6000616ab9601f8361797e565b9150616ac4826186e1565b602082019050919050565b6000616adc601d8361797e565b9150616ae78261870a565b602082019050919050565b6000616aff601e8361797e565b9150616b0a82618733565b602082019050919050565b6000616b22602f8361797e565b9150616b2d8261875c565b604082019050919050565b6000616b4560178361797e565b9150616b50826187ab565b602082019050919050565b6000616b68601b8361797e565b9150616b73826187d4565b602082019050919050565b6000616b8b601e8361797e565b9150616b96826187fd565b602082019050919050565b6000616bae60168361797e565b9150616bb982618826565b602082019050919050565b6000616bd160198361797e565b9150616bdc8261884f565b602082019050919050565b6000616bf460128361797e565b9150616bff82618878565b602082019050919050565b6000616c1760148361797e565b9150616c22826188a1565b602082019050919050565b6000616c3a60148361797e565b9150616c45826188ca565b602082019050919050565b6000616c5d60178361797e565b9150616c68826188f3565b602082019050919050565b6000616c8060108361797e565b9150616c8b8261891c565b602082019050919050565b6000616ca3601a8361797e565b9150616cae82618945565b602082019050919050565b6000616cc6601d8361797e565b9150616cd18261896e565b602082019050919050565b6000616ce960148361797e565b9150616cf482618997565b602082019050919050565b6000616d0c60188361797e565b9150616d17826189c0565b602082019050919050565b6000616d2f60138361797e565b9150616d3a826189e9565b602082019050919050565b6000616d5260268361797e565b9150616d5d82618a12565b604082019050919050565b6000616d7560228361797e565b9150616d8082618a61565b604082019050919050565b606082016000820151616da160008501826170a4565b506020820151616db460208501826168ad565b506040820151616dc760408501826168ad565b50505050565b600060a083016000830151616de56000860182616813565b506020830151616df860208601826168ad565b506040830151616e0b604086018261688f565b5060608301518482036060860152616e23828261702e565b91505060808301518482036080860152616e3d8282616e4a565b9150508091505092915050565b600061026083016000830151616e636000860182616813565b506020830151616e766020860182616813565b5060408301518482036040860152616e8e828261702e565b9150506060830151616ea36060860182616d8b565b506080830151616eb660c0860182616d8b565b5060a0830151616eca610120860182616d8b565b5060c0830151616ede610180860182616d8b565b5060e0830151616ef26101e08601826170c2565b50610100830151616f076102008601826170ef565b50610120830151616f1c6102208601826170c2565b50610140830151616f316102408601826170c2565b508091505092915050565b600061026083016000830151616f556000860182616813565b506020830151616f686020860182616813565b5060408301518482036040860152616f80828261702e565b9150506060830151616f956060860182616d8b565b506080830151616fa860c0860182616d8b565b5060a0830151616fbc610120860182616d8b565b5060c0830151616fd0610180860182616d8b565b5060e0830151616fe46101e08601826170c2565b50610100830151616ff96102008601826170ef565b5061012083015161700e6102208601826170c2565b506101408301516170236102408601826170c2565b508091505092915050565b600060e0830160008301516170466000860182616d8b565b5060208301516170596060860182616813565b50604083015161706c60808601826168ad565b50606083015161707f60a0860182616813565b50608083015184820360c086015261709782826168f0565b9150508091505092915050565b6170ad81618233565b82525050565b6170bc8161827f565b82525050565b6170cb81618242565b82525050565b6170da81618242565b82525050565b6170e981618291565b82525050565b6170f88161824c565b82525050565b600061710b8286886168cb565b91506171188284866168cb565b915081905095945050505050565b6000617131826169fd565b9150819050919050565b60006020820190506171506000830184616822565b92915050565b600060408201905061716b6000830185616822565b617178602083018461689e565b9392505050565b60006040820190506171946000830185616822565b6171a16020830184616962565b9392505050565b60006040820190506171bd6000830185616822565b6171ca60208301846170d1565b9392505050565b60006020820190506171e6600083018461689e565b92915050565b600060208201905061720160008301846168bc565b92915050565b600060808201905061721c60008301876168bc565b6172296020830186616822565b61723660408301856168bc565b61724360608301846168bc565b95945050505050565b600060a08201905061726160008301886168bc565b61726e6020830187616822565b61727b60408301866168bc565b61728860608301856168bc565b61729560808301846168bc565b9695505050505050565b6000610120820190506172b5600083018c6168bc565b6172c2602083018b616822565b6172cf604083018a6168bc565b6172dc60608301896168bc565b6172e960808301886168bc565b6172f660a08301876168bc565b81810360c08301526173088186616929565b905061731760e08301856170d1565b6173256101008301846170e0565b9a9950505050505050505050565b600060c08201905061734860008301896168bc565b6173556020830188616822565b61736260408301876168bc565b61736f60608301866168bc565b81810360808301526173818185616929565b905061739060a0830184616822565b979650505050505050565b60006060820190506173b060008301866168bc565b6173bd60208301856170d1565b6173ca60408301846168bc565b949350505050565b600060208201905081810360008301526173ec8184616929565b905092915050565b6000602082019050818103600083015261740d81616971565b9050919050565b6000602082019050818103600083015261742d81616994565b9050919050565b6000602082019050818103600083015261744d816169b7565b9050919050565b6000602082019050818103600083015261746d816169da565b9050919050565b6000602082019050818103600083015261748d81616a20565b9050919050565b600060208201905081810360008301526174ad81616a43565b9050919050565b600060208201905081810360008301526174cd81616a66565b9050919050565b600060208201905081810360008301526174ed81616a89565b9050919050565b6000602082019050818103600083015261750d81616aac565b9050919050565b6000602082019050818103600083015261752d81616acf565b9050919050565b6000602082019050818103600083015261754d81616af2565b9050919050565b6000602082019050818103600083015261756d81616b15565b9050919050565b6000602082019050818103600083015261758d81616b38565b9050919050565b600060208201905081810360008301526175ad81616b5b565b9050919050565b600060208201905081810360008301526175cd81616b7e565b9050919050565b600060208201905081810360008301526175ed81616ba1565b9050919050565b6000602082019050818103600083015261760d81616bc4565b9050919050565b6000602082019050818103600083015261762d81616be7565b9050919050565b6000602082019050818103600083015261764d81616c0a565b9050919050565b6000602082019050818103600083015261766d81616c2d565b9050919050565b6000602082019050818103600083015261768d81616c50565b9050919050565b600060208201905081810360008301526176ad81616c73565b9050919050565b600060208201905081810360008301526176cd81616c96565b9050919050565b600060208201905081810360008301526176ed81616cb9565b9050919050565b6000602082019050818103600083015261770d81616cdc565b9050919050565b6000602082019050818103600083015261772d81616cff565b9050919050565b6000602082019050818103600083015261774d81616d22565b9050919050565b6000602082019050818103600083015261776d81616d45565b9050919050565b6000602082019050818103600083015261778d81616d68565b9050919050565b600060208201905081810360008301526177ae8184616dcd565b905092915050565b600060208201905081810360008301526177d08184616f3c565b905092915050565b600060c0820190506177ed60008301896170b3565b6177fa60208301886168bc565b61780760408301876170d1565b61781460608301866170d1565b81810360808301526178268185616831565b905081810360a083015261783a8184616831565b9050979650505050505050565b600060208201905061785c60008301846170d1565b92915050565b600060408201905061787760008301856170d1565b61788460208301846170d1565b9392505050565b60006178956178a6565b90506178a18282618317565b919050565b6000604051905090565b600067ffffffffffffffff8211156178cb576178ca6184af565b5b602082029050602081019050919050565b600067ffffffffffffffff8211156178f7576178f66184af565b5b61790082618506565b9050602081019050919050565b6000819050602082019050919050565b600081519050919050565b600081519050919050565b6000602082019050919050565b600082825260208201905092915050565b600082825260208201905092915050565b600082825260208201905092915050565b600081905092915050565b600082825260208201905092915050565b600081905092915050565b600080858511156179ae576179ad6184ed565b5b838611156179bf576179be6184e8565b5b6001850283019150848603905094509492505050565b60006179e0826181fc565b91506179eb836181fc565b9250817f7fffffffffffffffffffffffffffffffffffffffffffffffffffffffffffffff03831360008312151615617a2657617a256183f3565b5b817f8000000000000000000000000000000000000000000000000000000000000000038312600083121615617a5e57617a5d6183f3565b5b828201905092915050565b6000617a7482618233565b9150617a7f83618233565b92508262ffffff03821115617a9757617a966183f3565b5b828201905092915050565b6000617aad82618242565b9150617ab883618242565b9250827fffffffffffffffffffffffffffffffffffffffffffffffffffffffffffffffff03821115617aed57617aec6183f3565b5b828201905092915050565b6000617b03826181fc565b9150617b0e836181fc565b925082617b1e57617b1d618422565b5b600160000383147f800000000000000000000000000000000000000000000000000000000000000083141615617b5757617b566183f3565b5b828205905092915050565b6000617b6d82618206565b9150617b7883618206565b925082617b8857617b87618422565b5b600160000383147fffffffffffffffffffffffffffffffffffffffffffffffff800000000000000083141615617bc157617bc06183f3565b5b828205905092915050565b6000617bd782618233565b9150617be283618233565b925082617bf257617bf1618422565b5b828204905092915050565b6000617c0882618242565b9150617c1383618242565b925082617c2357617c22618422565b5b828204905092915050565b6000617c3982618260565b9150617c4483618260565b925082617c5457617c53618422565b5b828204905092915050565b6000808291508390505b6001851115617ca957808604811115617c8557617c846183f3565b5b6001851615617c945780820291505b8081029050617ca285618517565b9450617c69565b94509492505050565b6000617cbd82618242565b9150617cc883618242565b9250617cf57fffffffffffffffffffffffffffffffffffffffffffffffffffffffffffffffff8484617cfd565b905092915050565b600082617d0d5760019050617dc9565b81617d1b5760009050617dc9565b8160018114617d315760028114617d3b57617d6a565b6001915050617dc9565b60ff841115617d4d57617d4c6183f3565b5b8360020a915084821115617d6457617d636183f3565b5b50617dc9565b5060208310610133831016604e8410600b8410161715617d9f5782820a905083811115617d9a57617d996183f3565b5b617dc9565b617dac8484846001617c5f565b92509050818404811115617dc357617dc26183f3565b5b81810290505b9392505050565b6000617ddb826181fc565b9150617de6836181fc565b9250827f7fffffffffffffffffffffffffffffffffffffffffffffffffffffffffffffff0482116000841360008413161615617e2557617e246183f3565b5b817f80000000000000000000000000000000000000000000000000000000000000000583126000841260008413161615617e6257617e616183f3565b5b827f80000000000000000000000000000000000000000000000000000000000000000582126000841360008412161615617e9f57617e9e6183f3565b5b827f7fffffffffffffffffffffffffffffffffffffffffffffffffffffffffffffff0582126000841260008412161615617edc57617edb6183f3565b5b828202905092915050565b6000617ef282618206565b9150617efd83618206565b925082677fffffffffffffff0482116000841360008413161615617f2457617f236183f3565b5b817fffffffffffffffffffffffffffffffffffffffffffffffff80000000000000000583126000841260008413161615617f6157617f606183f3565b5b827fffffffffffffffffffffffffffffffffffffffffffffffff80000000000000000582126000841360008412161615617f9e57617f9d6183f3565b5b82677fffffffffffffff0582126000841260008412161615617fc357617fc26183f3565b5b828202905092915050565b6000617fd982618242565b9150617fe483618242565b9250817fffffffffffffffffffffffffffffffffffffffffffffffffffffffffffffffff048311821515161561801d5761801c6183f3565b5b828202905092915050565b6000618033826181fc565b915061803e836181fc565b9250827f800000000000000000000000000000000000000000000000000000000000000001821260008412151615618079576180786183f3565b5b827f7fffffffffffffffffffffffffffffffffffffffffffffffffffffffffffffff0182136000841216156180b1576180b06183f3565b5b828203905092915050565b60006180c782618206565b91506180d283618206565b9250827fffffffffffffffffffffffffffffffffffffffffffffffff80000000000000000182126000841215161561810d5761810c6183f3565b5b82677fffffffffffffff01821360008412161561812d5761812c6183f3565b5b828203905092915050565b600061814382618233565b915061814e83618233565b925082821015618161576181606183f3565b5b828203905092915050565b600061817782618242565b915061818283618242565b925082821015618195576181946183f3565b5b828203905092915050565b60006181ab82618260565b91506181b683618260565b9250828210156181c9576181c86183f3565b5b828203905092915050565b60006181df82618213565b9050919050565b60008115159050919050565b6000819050919050565b6000819050919050565b60008160070b9050919050565b600073ffffffffffffffffffffffffffffffffffffffff82169050919050565b600062ffffff82169050919050565b6000819050919050565b600067ffffffffffffffff82169050919050565b600060ff82169050919050565b600061827882618242565b9050919050565b600061828a82618233565b9050919050565b600061829c8261824c565b9050919050565b82818337600083830152505050565b60005b838110156182d05780820151818401526020810190506182b5565b838111156182df576000848401525b50505050565b600060028204905060018216806182fd57607f821691505b6020821081141561831157618310618451565b5b50919050565b61832082618506565b810181811067ffffffffffffffff8211171561833f5761833e6184af565b5b80604052505050565b600061835382618242565b91507fffffffffffffffffffffffffffffffffffffffffffffffffffffffffffffffff821415618386576183856183f3565b5b600182019050919050565b600061839c82618242565b91506183a783618242565b9250826183b7576183b6618422565b5b828206905092915050565b60006183cd82618260565b91506183d883618260565b9250826183e8576183e7618422565b5b828206905092915050565b7f4e487b7100000000000000000000000000000000000000000000000000000000600052601160045260246000fd5b7f4e487b7100000000000000000000000000000000000000000000000000000000600052601260045260246000fd5b7f4e487b7100000000000000000000000000000000000000000000000000000000600052602260045260246000fd5b7f4e487b7100000000000000000000000000000000000000000000000000000000600052603260045260246000fd5b7f4e487b7100000000000000000000000000000000000000000000000000000000600052604160045260246000fd5b600080fd5b600080fd5b600080fd5b600080fd5b600080fd5b600080fd5b600080fd5b600080fd5b6000601f19601f8301169050919050565b60008160011c9050919050565b7f746f6f206c61746520666f7220616e73776572696e6700000000000000000000600082015250565b7f7665726966792074686520626c6f636b206265666f7265000000000000000000600082015250565b7f636f6e6669726d696e6720626c6f636b20696e636f7272656374000000000000600082015250565b7f73746f72656420706172656e74206973206e6f7420612070726564656365737360008201527f6f72206f66206576616c7561746564206865616465722077697468696e20537460208201527f61746552656c6179000000000000000000000000000000000000000000000000604082015250565b7f3400000000000000000000000000000000000000000000000000000000000000600082015250565b7f6e6f74207468652073616d65206964656e746974790000000000000000000000600082015250565b7f7375626d6974746572206e6f7420616c6c6f7765640000000000000000000000600082015250565b7f6e6f7420696e7465726d656469617465426c6f636b0000000000000000000000600082015250565b7f75736572206e6f7420656e61626c656420746f20616e73776572000000000000600082015250565b7f6964656e7469747920697320616c726561647920696e697469616c697a656400600082015250565b7f6469737075746520706572696f64206973206e6f742065787069726564000000600082015250565b7f616c7265616479207265616368656420612073696e676c6520626c6f636b0000600082015250565b7f7472616e7366657220616d6f756e74206e6f7420657175616c20746f2066756e60008201527f6374696f6e20706172616d657465720000000000000000000000000000000000602082015250565b7f73756d626974746572206469646e277420616e73776572000000000000000000600082015250565b7f686173684e2070726f7669646564206973206e6f742076616c69640000000000600082015250565b7f68617368436f6e662070726f7669646564206973206e6f742076616c69640000600082015250565b7f6368616c6c656e676572206e6f7420616c6c6f77656400000000000000000000600082015250565b7f6469737075746520706572696f64206973206578706972656400000000000000600082015250565b7f6e6f742076616c6964206964656e746974790000000000000000000000000000600082015250565b7f746f6f206c61746520666f722064697370757465000000000000000000000000600082015250565b7f626c6f636b20616c726561647920657869737473000000000000000000000000600082015250565b7f6e6f7420626c6f636b20696e20746865206d6964646c65000000000000000000600082015250565b7f6e6f2063616c6c20697420616761696e00000000000000000000000000000000600082015250565b7f6e6f74207265616368656420612073696e676c6520626c6f636b000000000000600082015250565b7f70726f766964656420706172656e74206e6f74206576616c7561746564000000600082015250565b7f626c6f636b20646f6573206e6f74206578697374000000000000000000000000600082015250565b7f6964656e74697479206e6f7420696e697469616c697a65640000000000000000600082015250565b7f6e6f7420636f6e6669726d696e67426c6f636b00000000000000000000000000600082015250565b7f70726f766964656420666565206973206c657373207468616e2065787065637460008201527f6564206665650000000000000000000000000000000000000000000000000000602082015250565b7f616d6f756e7420686967686572207468616e206465706f73697465642073746160008201527f6b65000000000000000000000000000000000000000000000000000000000000602082015250565b618ab9816181d4565b8114618ac457600080fd5b50565b618ad0816181f2565b8114618adb57600080fd5b50565b618ae781618242565b8114618af257600080fd5b5056fea264697066735822122072f23e4827859c0d3ca55a3b29f0f38f0cc028b2c54b790008fb7e164fe4813264736f6c63430008060033",
			"opcodes": "PUSH1 0x80 PUSH1 0x40 MSTORE PUSH1 0x2 DUP1 SSTORE PUSH1 0x0 PUSH1 0x3 PUSH1 0x14 PUSH2 0x100 EXP DUP2 SLOAD DUP2 PUSH1 0xFF MUL NOT AND SWAP1 DUP4 ISZERO ISZERO MUL OR SWAP1 SSTORE POP CALLVALUE DUP1 ISZERO PUSH3 0x30 JUMPI PUSH1 0x0 DUP1 REVERT JUMPDEST POP PUSH1 0x40 MLOAD PUSH3 0x8C76 CODESIZE SUB DUP1 PUSH3 0x8C76 DUP4 CODECOPY DUP2 DUP2 ADD PUSH1 0x40 MSTORE DUP2 ADD SWAP1 PUSH3 0x56 SWAP2 SWAP1 PUSH3 0xB6 JUMP JUMPDEST DUP1 DUP1 PUSH1 0x0 DUP1 PUSH2 0x100 EXP DUP2 SLOAD DUP2 PUSH20 0xFFFFFFFFFFFFFFFFFFFFFFFFFFFFFFFFFFFFFFFF MUL NOT AND SWAP1 DUP4 PUSH20 0xFFFFFFFFFFFFFFFFFFFFFFFFFFFFFFFFFFFFFFFF AND MUL OR SWAP1 SSTORE POP POP POP PUSH3 0x13B JUMP JUMPDEST PUSH1 0x0 DUP2 MLOAD SWAP1 POP PUSH3 0xB0 DUP2 PUSH3 0x121 JUMP JUMPDEST SWAP3 SWAP2 POP POP JUMP JUMPDEST PUSH1 0x0 PUSH1 0x20 DUP3 DUP5 SUB SLT ISZERO PUSH3 0xCF JUMPI PUSH3 0xCE PUSH3 0x11C JUMP JUMPDEST JUMPDEST PUSH1 0x0 PUSH3 0xDF DUP5 DUP3 DUP6 ADD PUSH3 0x9F JUMP JUMPDEST SWAP2 POP POP SWAP3 SWAP2 POP POP JUMP JUMPDEST PUSH1 0x0 PUSH3 0xF5 DUP3 PUSH3 0xFC JUMP JUMPDEST SWAP1 POP SWAP2 SWAP1 POP JUMP JUMPDEST PUSH1 0x0 PUSH20 0xFFFFFFFFFFFFFFFFFFFFFFFFFFFFFFFFFFFFFFFF DUP3 AND SWAP1 POP SWAP2 SWAP1 POP JUMP JUMPDEST PUSH1 0x0 DUP1 REVERT JUMPDEST PUSH3 0x12C DUP2 PUSH3 0xE8 JUMP JUMPDEST DUP2 EQ PUSH3 0x138 JUMPI PUSH1 0x0 DUP1 REVERT JUMPDEST POP JUMP JUMPDEST PUSH2 0x8B2B DUP1 PUSH3 0x14B PUSH1 0x0 CODECOPY PUSH1 0x0 RETURN INVALID PUSH1 0x80 PUSH1 0x40 MSTORE PUSH1 0x4 CALLDATASIZE LT PUSH2 0x14B JUMPI PUSH1 0x0 CALLDATALOAD PUSH1 0xE0 SHR DUP1 PUSH4 0x9C15D1A2 GT PUSH2 0xB6 JUMPI DUP1 PUSH4 0xD97CBCBC GT PUSH2 0x6F JUMPI DUP1 PUSH4 0xD97CBCBC EQ PUSH2 0x4D1 JUMPI DUP1 PUSH4 0xE68C3BD7 EQ PUSH2 0x50E JUMPI DUP1 PUSH4 0xEBB8D85F EQ PUSH2 0x537 JUMPI DUP1 PUSH4 0xEC1C2783 EQ PUSH2 0x574 JUMPI DUP1 PUSH4 0xF0291099 EQ PUSH2 0x59F JUMPI DUP1 PUSH4 0xFC0E3D90 EQ PUSH2 0x5CA JUMPI PUSH2 0x14B JUMP JUMPDEST DUP1 PUSH4 0x9C15D1A2 EQ PUSH2 0x3E0 JUMPI DUP1 PUSH4 0xABF61CE8 EQ PUSH2 0x3F7 JUMPI DUP1 PUSH4 0xBA27E8DC EQ PUSH2 0x420 JUMPI DUP1 PUSH4 0xCB82CC8F EQ PUSH2 0x45F JUMPI DUP1 PUSH4 0xD6FC841A EQ PUSH2 0x47B JUMPI DUP1 PUSH4 0xD909B365 EQ PUSH2 0x4A6 JUMPI PUSH2 0x14B JUMP JUMPDEST DUP1 PUSH4 0x4303C19C GT PUSH2 0x108 JUMPI DUP1 PUSH4 0x4303C19C EQ PUSH2 0x298 JUMPI DUP1 PUSH4 0x52409D75 EQ PUSH2 0x2D5 JUMPI DUP1 PUSH4 0x6687838E EQ PUSH2 0x300 JUMPI DUP1 PUSH4 0x7B4D4BCA EQ PUSH2 0x33D JUMPI DUP1 PUSH4 0x8146B071 EQ PUSH2 0x37A JUMPI DUP1 PUSH4 0x9A0479CF EQ PUSH2 0x3A3 JUMPI PUSH2 0x14B JUMP JUMPDEST DUP1 PUSH4 0x1BAB58F5 EQ PUSH2 0x150 JUMPI DUP1 PUSH4 0x25D5971F EQ PUSH2 0x18D JUMPI DUP1 PUSH4 0x282C55AE EQ PUSH2 0x1B6 JUMPI DUP1 PUSH4 0x31E2D7E8 EQ PUSH2 0x1F3 JUMPI DUP1 PUSH4 0x351DD55D EQ PUSH2 0x230 JUMPI DUP1 PUSH4 0x3D8DC273 EQ PUSH2 0x26D JUMPI JUMPDEST PUSH1 0x0 DUP1 REVERT JUMPDEST CALLVALUE DUP1 ISZERO PUSH2 0x15C JUMPI PUSH1 0x0 DUP1 REVERT JUMPDEST POP PUSH2 0x177 PUSH1 0x4 DUP1 CALLDATASIZE SUB DUP2 ADD SWAP1 PUSH2 0x172 SWAP2 SWAP1 PUSH2 0x6289 JUMP JUMPDEST PUSH2 0x5F5 JUMP JUMPDEST PUSH1 0x40 MLOAD PUSH2 0x184 SWAP2 SWAP1 PUSH2 0x73D2 JUMP JUMPDEST PUSH1 0x40 MLOAD DUP1 SWAP2 SUB SWAP1 RETURN JUMPDEST CALLVALUE DUP1 ISZERO PUSH2 0x199 JUMPI PUSH1 0x0 DUP1 REVERT JUMPDEST POP PUSH2 0x1B4 PUSH1 0x4 DUP1 CALLDATASIZE SUB DUP2 ADD SWAP1 PUSH2 0x1AF SWAP2 SWAP1 PUSH2 0x678E JUMP JUMPDEST PUSH2 0x630 JUMP JUMPDEST STOP JUMPDEST CALLVALUE DUP1 ISZERO PUSH2 0x1C2 JUMPI PUSH1 0x0 DUP1 REVERT JUMPDEST POP PUSH2 0x1DD PUSH1 0x4 DUP1 CALLDATASIZE SUB DUP2 ADD SWAP1 PUSH2 0x1D8 SWAP2 SWAP1 PUSH2 0x6395 JUMP JUMPDEST PUSH2 0x803 JUMP JUMPDEST PUSH1 0x40 MLOAD PUSH2 0x1EA SWAP2 SWAP1 PUSH2 0x713B JUMP JUMPDEST PUSH1 0x40 MLOAD DUP1 SWAP2 SUB SWAP1 RETURN JUMPDEST CALLVALUE DUP1 ISZERO PUSH2 0x1FF JUMPI PUSH1 0x0 DUP1 REVERT JUMPDEST POP PUSH2 0x21A PUSH1 0x4 DUP1 CALLDATASIZE SUB DUP2 ADD SWAP1 PUSH2 0x215 SWAP2 SWAP1 PUSH2 0x6504 JUMP JUMPDEST PUSH2 0x81B JUMP JUMPDEST PUSH1 0x40 MLOAD PUSH2 0x227 SWAP2 SWAP1 PUSH2 0x71D1 JUMP JUMPDEST PUSH1 0x40 MLOAD DUP1 SWAP2 SUB SWAP1 RETURN JUMPDEST CALLVALUE DUP1 ISZERO PUSH2 0x23C JUMPI PUSH1 0x0 DUP1 REVERT JUMPDEST POP PUSH2 0x257 PUSH1 0x4 DUP1 CALLDATASIZE SUB DUP2 ADD SWAP1 PUSH2 0x252 SWAP2 SWAP1 PUSH2 0x62B6 JUMP JUMPDEST PUSH2 0x939 JUMP JUMPDEST PUSH1 0x40 MLOAD PUSH2 0x264 SWAP2 SWAP1 PUSH2 0x71D1 JUMP JUMPDEST PUSH1 0x40 MLOAD DUP1 SWAP2 SUB SWAP1 RETURN JUMPDEST CALLVALUE DUP1 ISZERO PUSH2 0x279 JUMPI PUSH1 0x0 DUP1 REVERT JUMPDEST POP PUSH2 0x282 PUSH2 0xAB7 JUMP JUMPDEST PUSH1 0x40 MLOAD PUSH2 0x28F SWAP2 SWAP1 PUSH2 0x7847 JUMP JUMPDEST PUSH1 0x40 MLOAD DUP1 SWAP2 SUB SWAP1 RETURN JUMPDEST CALLVALUE DUP1 ISZERO PUSH2 0x2A4 JUMPI PUSH1 0x0 DUP1 REVERT JUMPDEST POP PUSH2 0x2BF PUSH1 0x4 DUP1 CALLDATASIZE SUB DUP2 ADD SWAP1 PUSH2 0x2BA SWAP2 SWAP1 PUSH2 0x66A3 JUMP JUMPDEST PUSH2 0xAFE JUMP JUMPDEST PUSH1 0x40 MLOAD PUSH2 0x2CC SWAP2 SWAP1 PUSH2 0x7847 JUMP JUMPDEST PUSH1 0x40 MLOAD DUP1 SWAP2 SUB SWAP1 RETURN JUMPDEST CALLVALUE DUP1 ISZERO PUSH2 0x2E1 JUMPI PUSH1 0x0 DUP1 REVERT JUMPDEST POP PUSH2 0x2EA PUSH2 0xB89 JUMP JUMPDEST PUSH1 0x40 MLOAD PUSH2 0x2F7 SWAP2 SWAP1 PUSH2 0x7847 JUMP JUMPDEST PUSH1 0x40 MLOAD DUP1 SWAP2 SUB SWAP1 RETURN JUMPDEST CALLVALUE DUP1 ISZERO PUSH2 0x30C JUMPI PUSH1 0x0 DUP1 REVERT JUMPDEST POP PUSH2 0x327 PUSH1 0x4 DUP1 CALLDATASIZE SUB DUP2 ADD SWAP1 PUSH2 0x322 SWAP2 SWAP1 PUSH2 0x63D5 JUMP JUMPDEST PUSH2 0xB8E JUMP JUMPDEST PUSH1 0x40 MLOAD PUSH2 0x334 SWAP2 SWAP1 PUSH2 0x71D1 JUMP JUMPDEST PUSH1 0x40 MLOAD DUP1 SWAP2 SUB SWAP1 RETURN JUMPDEST CALLVALUE DUP1 ISZERO PUSH2 0x349 JUMPI PUSH1 0x0 DUP1 REVERT JUMPDEST POP PUSH2 0x364 PUSH1 0x4 DUP1 CALLDATASIZE SUB DUP2 ADD SWAP1 PUSH2 0x35F SWAP2 SWAP1 PUSH2 0x6395 JUMP JUMPDEST PUSH2 0xBB1 JUMP JUMPDEST PUSH1 0x40 MLOAD PUSH2 0x371 SWAP2 SWAP1 PUSH2 0x77B6 JUMP JUMPDEST PUSH1 0x40 MLOAD DUP1 SWAP2 SUB SWAP1 RETURN JUMPDEST CALLVALUE DUP1 ISZERO PUSH2 0x386 JUMPI PUSH1 0x0 DUP1 REVERT JUMPDEST POP PUSH2 0x3A1 PUSH1 0x4 DUP1 CALLDATASIZE SUB DUP2 ADD SWAP1 PUSH2 0x39C SWAP2 SWAP1 PUSH2 0x6428 JUMP JUMPDEST PUSH2 0xBCF JUMP JUMPDEST STOP JUMPDEST CALLVALUE DUP1 ISZERO PUSH2 0x3AF JUMPI PUSH1 0x0 DUP1 REVERT JUMPDEST POP PUSH2 0x3CA PUSH1 0x4 DUP1 CALLDATASIZE SUB DUP2 ADD SWAP1 PUSH2 0x3C5 SWAP2 SWAP1 PUSH2 0x63D5 JUMP JUMPDEST PUSH2 0xE3C JUMP JUMPDEST PUSH1 0x40 MLOAD PUSH2 0x3D7 SWAP2 SWAP1 PUSH2 0x71D1 JUMP JUMPDEST PUSH1 0x40 MLOAD DUP1 SWAP2 SUB SWAP1 RETURN JUMPDEST CALLVALUE DUP1 ISZERO PUSH2 0x3EC JUMPI PUSH1 0x0 DUP1 REVERT JUMPDEST POP PUSH2 0x3F5 PUSH2 0xE5F JUMP JUMPDEST STOP JUMPDEST CALLVALUE DUP1 ISZERO PUSH2 0x403 JUMPI PUSH1 0x0 DUP1 REVERT JUMPDEST POP PUSH2 0x41E PUSH1 0x4 DUP1 CALLDATASIZE SUB DUP2 ADD SWAP1 PUSH2 0x419 SWAP2 SWAP1 PUSH2 0x654D JUMP JUMPDEST PUSH2 0xFF7 JUMP JUMPDEST STOP JUMPDEST CALLVALUE DUP1 ISZERO PUSH2 0x42C JUMPI PUSH1 0x0 DUP1 REVERT JUMPDEST POP PUSH2 0x447 PUSH1 0x4 DUP1 CALLDATASIZE SUB DUP2 ADD SWAP1 PUSH2 0x442 SWAP2 SWAP1 PUSH2 0x6395 JUMP JUMPDEST PUSH2 0x142C JUMP JUMPDEST PUSH1 0x40 MLOAD PUSH2 0x456 SWAP4 SWAP3 SWAP2 SWAP1 PUSH2 0x739B JUMP JUMPDEST PUSH1 0x40 MLOAD DUP1 SWAP2 SUB SWAP1 RETURN JUMPDEST PUSH2 0x479 PUSH1 0x4 DUP1 CALLDATASIZE SUB DUP2 ADD SWAP1 PUSH2 0x474 SWAP2 SWAP1 PUSH2 0x678E JUMP JUMPDEST PUSH2 0x1656 JUMP JUMPDEST STOP JUMPDEST CALLVALUE DUP1 ISZERO PUSH2 0x487 JUMPI PUSH1 0x0 DUP1 REVERT JUMPDEST POP PUSH2 0x490 PUSH2 0x1729 JUMP JUMPDEST PUSH1 0x40 MLOAD PUSH2 0x49D SWAP2 SWAP1 PUSH2 0x7847 JUMP JUMPDEST PUSH1 0x40 MLOAD DUP1 SWAP2 SUB SWAP1 RETURN JUMPDEST CALLVALUE DUP1 ISZERO PUSH2 0x4B2 JUMPI PUSH1 0x0 DUP1 REVERT JUMPDEST POP PUSH2 0x4BB PUSH2 0x1732 JUMP JUMPDEST PUSH1 0x40 MLOAD PUSH2 0x4C8 SWAP2 SWAP1 PUSH2 0x71EC JUMP JUMPDEST PUSH1 0x40 MLOAD DUP1 SWAP2 SUB SWAP1 RETURN JUMPDEST CALLVALUE DUP1 ISZERO PUSH2 0x4DD JUMPI PUSH1 0x0 DUP1 REVERT JUMPDEST POP PUSH2 0x4F8 PUSH1 0x4 DUP1 CALLDATASIZE SUB DUP2 ADD SWAP1 PUSH2 0x4F3 SWAP2 SWAP1 PUSH2 0x6395 JUMP JUMPDEST PUSH2 0x175A JUMP JUMPDEST PUSH1 0x40 MLOAD PUSH2 0x505 SWAP2 SWAP1 PUSH2 0x71EC JUMP JUMPDEST PUSH1 0x40 MLOAD DUP1 SWAP2 SUB SWAP1 RETURN JUMPDEST CALLVALUE DUP1 ISZERO PUSH2 0x51A JUMPI PUSH1 0x0 DUP1 REVERT JUMPDEST POP PUSH2 0x535 PUSH1 0x4 DUP1 CALLDATASIZE SUB DUP2 ADD SWAP1 PUSH2 0x530 SWAP2 SWAP1 PUSH2 0x62F6 JUMP JUMPDEST PUSH2 0x177A JUMP JUMPDEST STOP JUMPDEST CALLVALUE DUP1 ISZERO PUSH2 0x543 JUMPI PUSH1 0x0 DUP1 REVERT JUMPDEST POP PUSH2 0x55E PUSH1 0x4 DUP1 CALLDATASIZE SUB DUP2 ADD SWAP1 PUSH2 0x559 SWAP2 SWAP1 PUSH2 0x6395 JUMP JUMPDEST PUSH2 0x17B1 JUMP JUMPDEST PUSH1 0x40 MLOAD PUSH2 0x56B SWAP2 SWAP1 PUSH2 0x7794 JUMP JUMPDEST PUSH1 0x40 MLOAD DUP1 SWAP2 SUB SWAP1 RETURN JUMPDEST CALLVALUE DUP1 ISZERO PUSH2 0x580 JUMPI PUSH1 0x0 DUP1 REVERT JUMPDEST POP PUSH2 0x589 PUSH2 0x1E22 JUMP JUMPDEST PUSH1 0x40 MLOAD PUSH2 0x596 SWAP2 SWAP1 PUSH2 0x7847 JUMP JUMPDEST PUSH1 0x40 MLOAD DUP1 SWAP2 SUB SWAP1 RETURN JUMPDEST CALLVALUE DUP1 ISZERO PUSH2 0x5AB JUMPI PUSH1 0x0 DUP1 REVERT JUMPDEST POP PUSH2 0x5B4 PUSH2 0x1E27 JUMP JUMPDEST PUSH1 0x40 MLOAD PUSH2 0x5C1 SWAP2 SWAP1 PUSH2 0x7847 JUMP JUMPDEST PUSH1 0x40 MLOAD DUP1 SWAP2 SUB SWAP1 RETURN JUMPDEST CALLVALUE DUP1 ISZERO PUSH2 0x5D6 JUMPI PUSH1 0x0 DUP1 REVERT JUMPDEST POP PUSH2 0x5DF PUSH2 0x1E30 JUMP JUMPDEST PUSH1 0x40 MLOAD PUSH2 0x5EC SWAP2 SWAP1 PUSH2 0x7847 JUMP JUMPDEST PUSH1 0x40 MLOAD DUP1 SWAP2 SUB SWAP1 RETURN JUMPDEST PUSH1 0x60 PUSH2 0x625 PUSH1 0x40 MLOAD PUSH1 0x20 ADD PUSH2 0x609 SWAP1 PUSH2 0x7126 JUMP JUMPDEST PUSH1 0x40 MLOAD PUSH1 0x20 DUP2 DUP4 SUB SUB DUP2 MSTORE SWAP1 PUSH1 0x40 MSTORE DUP1 MLOAD SWAP1 PUSH1 0x20 ADD KECCAK256 DUP4 PUSH2 0x1E77 JUMP JUMPDEST PUSH1 0x80 ADD MLOAD SWAP1 POP SWAP2 SWAP1 POP JUMP JUMPDEST DUP1 PUSH1 0x5 PUSH1 0x0 CALLER PUSH20 0xFFFFFFFFFFFFFFFFFFFFFFFFFFFFFFFFFFFFFFFF AND PUSH20 0xFFFFFFFFFFFFFFFFFFFFFFFFFFFFFFFFFFFFFFFF AND DUP2 MSTORE PUSH1 0x20 ADD SWAP1 DUP2 MSTORE PUSH1 0x20 ADD PUSH1 0x0 KECCAK256 SLOAD LT ISZERO PUSH2 0x6B2 JUMPI PUSH1 0x40 MLOAD PUSH32 0x8C379A000000000000000000000000000000000000000000000000000000000 DUP2 MSTORE PUSH1 0x4 ADD PUSH2 0x6A9 SWAP1 PUSH2 0x7774 JUMP JUMPDEST PUSH1 0x40 MLOAD DUP1 SWAP2 SUB SWAP1 REVERT JUMPDEST DUP1 PUSH2 0x6BC CALLER PUSH2 0x1EDD JUMP JUMPDEST LT PUSH2 0x709 JUMPI PUSH2 0x6CB CALLER DUP3 PUSH2 0x1FD3 JUMP JUMPDEST PUSH32 0x141EF67C4A6D3EC2ADFB2F66D33C2B11DE5B4F34344757554D430570B18A92EC CALLER DUP3 PUSH1 0x40 MLOAD PUSH2 0x6FC SWAP3 SWAP2 SWAP1 PUSH2 0x71A8 JUMP JUMPDEST PUSH1 0x40 MLOAD DUP1 SWAP2 SUB SWAP1 LOG1 PUSH2 0x800 JUMP JUMPDEST PUSH2 0x712 CALLER PUSH2 0x20AC JUMP JUMPDEST POP DUP1 PUSH2 0x71D CALLER PUSH2 0x1EDD JUMP JUMPDEST LT PUSH2 0x76A JUMPI PUSH2 0x72C CALLER DUP3 PUSH2 0x1FD3 JUMP JUMPDEST PUSH32 0x141EF67C4A6D3EC2ADFB2F66D33C2B11DE5B4F34344757554D430570B18A92EC CALLER DUP3 PUSH1 0x40 MLOAD PUSH2 0x75D SWAP3 SWAP2 SWAP1 PUSH2 0x71A8 JUMP JUMPDEST PUSH1 0x40 MLOAD DUP1 SWAP2 SUB SWAP1 LOG1 PUSH2 0x800 JUMP JUMPDEST CALLER PUSH20 0xFFFFFFFFFFFFFFFFFFFFFFFFFFFFFFFFFFFFFFFF AND PUSH1 0x3 PUSH1 0x0 SWAP1 SLOAD SWAP1 PUSH2 0x100 EXP SWAP1 DIV PUSH20 0xFFFFFFFFFFFFFFFFFFFFFFFFFFFFFFFFFFFFFFFF AND PUSH20 0xFFFFFFFFFFFFFFFFFFFFFFFFFFFFFFFFFFFFFFFF AND EQ ISZERO PUSH2 0x7C5 JUMPI PUSH2 0x800 JUMP JUMPDEST PUSH32 0x141EF67C4A6D3EC2ADFB2F66D33C2B11DE5B4F34344757554D430570B18A92EC CALLER PUSH1 0x0 PUSH1 0x40 MLOAD PUSH2 0x7F7 SWAP3 SWAP2 SWAP1 PUSH2 0x717F JUMP JUMPDEST PUSH1 0x40 MLOAD DUP1 SWAP2 SUB SWAP1 LOG1 JUMPDEST POP JUMP JUMPDEST PUSH1 0x0 PUSH2 0x80F DUP4 DUP4 PUSH2 0x17B1 JUMP JUMPDEST PUSH1 0x0 ADD MLOAD SWAP1 POP SWAP3 SWAP2 POP POP JUMP JUMPDEST PUSH1 0x0 CALLER PUSH20 0xFFFFFFFFFFFFFFFFFFFFFFFFFFFFFFFFFFFFFFFF AND PUSH2 0x862 PUSH1 0x40 MLOAD PUSH1 0x20 ADD PUSH2 0x846 SWAP1 PUSH2 0x7126 JUMP JUMPDEST PUSH1 0x40 MLOAD PUSH1 0x20 DUP2 DUP4 SUB SUB DUP2 MSTORE SWAP1 PUSH1 0x40 MSTORE DUP1 MLOAD SWAP1 PUSH1 0x20 ADD KECCAK256 CALLER PUSH2 0x803 JUMP JUMPDEST PUSH20 0xFFFFFFFFFFFFFFFFFFFFFFFFFFFFFFFFFFFFFFFF AND EQ PUSH2 0x8B8 JUMPI PUSH1 0x40 MLOAD PUSH32 0x8C379A000000000000000000000000000000000000000000000000000000000 DUP2 MSTORE PUSH1 0x4 ADD PUSH2 0x8AF SWAP1 PUSH2 0x74D4 JUMP JUMPDEST PUSH1 0x40 MLOAD DUP1 SWAP2 SUB SWAP1 REVERT JUMPDEST PUSH1 0x1 PUSH2 0x8C2 PUSH2 0x1E30 JUMP JUMPDEST LT ISZERO PUSH2 0x903 JUMPI PUSH1 0x40 MLOAD PUSH32 0x8C379A000000000000000000000000000000000000000000000000000000000 DUP2 MSTORE PUSH1 0x4 ADD PUSH2 0x8FA SWAP1 PUSH2 0x7754 JUMP JUMPDEST PUSH1 0x40 MLOAD DUP1 SWAP2 SUB SWAP1 REVERT JUMPDEST PUSH2 0x932 PUSH1 0x40 MLOAD PUSH1 0x20 ADD PUSH2 0x915 SWAP1 PUSH2 0x7126 JUMP JUMPDEST PUSH1 0x40 MLOAD PUSH1 0x20 DUP2 DUP4 SUB SUB DUP2 MSTORE SWAP1 PUSH1 0x40 MSTORE DUP1 MLOAD SWAP1 PUSH1 0x20 ADD KECCAK256 CALLER DUP5 PUSH2 0x20FF JUMP JUMPDEST SWAP1 POP SWAP2 SWAP1 POP JUMP JUMPDEST PUSH1 0x0 PUSH1 0x1 PUSH2 0x945 PUSH2 0x1E30 JUMP JUMPDEST LT ISZERO PUSH2 0x986 JUMPI PUSH1 0x40 MLOAD PUSH32 0x8C379A000000000000000000000000000000000000000000000000000000000 DUP2 MSTORE PUSH1 0x4 ADD PUSH2 0x97D SWAP1 PUSH2 0x7754 JUMP JUMPDEST PUSH1 0x40 MLOAD DUP1 SWAP2 SUB SWAP1 REVERT JUMPDEST PUSH1 0x3 PUSH1 0x0 SWAP1 SLOAD SWAP1 PUSH2 0x100 EXP SWAP1 DIV PUSH20 0xFFFFFFFFFFFFFFFFFFFFFFFFFFFFFFFFFFFFFFFF AND PUSH20 0xFFFFFFFFFFFFFFFFFFFFFFFFFFFFFFFFFFFFFFFF AND CALLER PUSH20 0xFFFFFFFFFFFFFFFFFFFFFFFFFFFFFFFFFFFFFFFF AND EQ DUP1 PUSH2 0xA30 JUMPI POP PUSH1 0x0 PUSH20 0xFFFFFFFFFFFFFFFFFFFFFFFFFFFFFFFFFFFFFFFF AND PUSH1 0x3 PUSH1 0x0 SWAP1 SLOAD SWAP1 PUSH2 0x100 EXP SWAP1 DIV PUSH20 0xFFFFFFFFFFFFFFFFFFFFFFFFFFFFFFFFFFFFFFFF AND PUSH20 0xFFFFFFFFFFFFFFFFFFFFFFFFFFFFFFFFFFFFFFFF AND EQ JUMPDEST ISZERO PUSH2 0xAAC JUMPI CALLER PUSH1 0x3 PUSH1 0x0 PUSH2 0x100 EXP DUP2 SLOAD DUP2 PUSH20 0xFFFFFFFFFFFFFFFFFFFFFFFFFFFFFFFFFFFFFFFF MUL NOT AND SWAP1 DUP4 PUSH20 0xFFFFFFFFFFFFFFFFFFFFFFFFFFFFFFFFFFFFFFFF AND MUL OR SWAP1 SSTORE POP PUSH2 0xAA5 PUSH1 0x40 MLOAD PUSH1 0x20 ADD PUSH2 0xA88 SWAP1 PUSH2 0x7126 JUMP JUMPDEST PUSH1 0x40 MLOAD PUSH1 0x20 DUP2 DUP4 SUB SUB DUP2 MSTORE SWAP1 PUSH1 0x40 MSTORE DUP1 MLOAD SWAP1 PUSH1 0x20 ADD KECCAK256 DUP5 DUP5 PUSH2 0x2888 JUMP JUMPDEST SWAP1 POP PUSH2 0xAB1 JUMP JUMPDEST PUSH1 0x0 SWAP1 POP JUMPDEST SWAP3 SWAP2 POP POP JUMP JUMPDEST PUSH1 0x0 PUSH1 0x4 PUSH1 0x0 CALLER PUSH20 0xFFFFFFFFFFFFFFFFFFFFFFFFFFFFFFFFFFFFFFFF AND PUSH20 0xFFFFFFFFFFFFFFFFFFFFFFFFFFFFFFFFFFFFFFFF AND DUP2 MSTORE PUSH1 0x20 ADD SWAP1 DUP2 MSTORE PUSH1 0x20 ADD PUSH1 0x0 KECCAK256 SLOAD SWAP1 POP SWAP1 JUMP JUMPDEST PUSH1 0x0 PUSH1 0x1 PUSH2 0xB0A PUSH2 0x1E30 JUMP JUMPDEST LT ISZERO PUSH2 0xB4B JUMPI PUSH1 0x40 MLOAD PUSH32 0x8C379A000000000000000000000000000000000000000000000000000000000 DUP2 MSTORE PUSH1 0x4 ADD PUSH2 0xB42 SWAP1 PUSH2 0x7754 JUMP JUMPDEST PUSH1 0x40 MLOAD DUP1 SWAP2 SUB SWAP1 REVERT JUMPDEST PUSH2 0xB7E PUSH1 0x40 MLOAD PUSH1 0x20 ADD PUSH2 0xB5D SWAP1 PUSH2 0x7126 JUMP JUMPDEST PUSH1 0x40 MLOAD PUSH1 0x20 DUP2 DUP4 SUB SUB DUP2 MSTORE SWAP1 PUSH1 0x40 MSTORE DUP1 MLOAD SWAP1 PUSH1 0x20 ADD KECCAK256 CALLER DUP9 DUP9 DUP9 DUP9 DUP9 PUSH2 0x30DB JUMP JUMPDEST SWAP1 POP SWAP6 SWAP5 POP POP POP POP POP JUMP JUMPDEST PUSH1 0x1 DUP2 JUMP JUMPDEST PUSH1 0x0 DUP2 PUSH2 0xB9B DUP6 DUP6 PUSH2 0x17B1 JUMP JUMPDEST PUSH1 0x60 ADD MLOAD PUSH1 0x0 ADD MLOAD PUSH1 0x40 ADD MLOAD EQ SWAP1 POP SWAP4 SWAP3 POP POP POP JUMP JUMPDEST PUSH2 0xBB9 PUSH2 0x5DE6 JUMP JUMPDEST PUSH2 0xBC3 DUP4 DUP4 PUSH2 0x17B1 JUMP JUMPDEST PUSH1 0x80 ADD MLOAD SWAP1 POP SWAP3 SWAP2 POP POP JUMP JUMPDEST CALLER PUSH20 0xFFFFFFFFFFFFFFFFFFFFFFFFFFFFFFFFFFFFFFFF AND PUSH2 0xC14 PUSH1 0x40 MLOAD PUSH1 0x20 ADD PUSH2 0xBF8 SWAP1 PUSH2 0x7126 JUMP JUMPDEST PUSH1 0x40 MLOAD PUSH1 0x20 DUP2 DUP4 SUB SUB DUP2 MSTORE SWAP1 PUSH1 0x40 MSTORE DUP1 MLOAD SWAP1 PUSH1 0x20 ADD KECCAK256 CALLER PUSH2 0x803 JUMP JUMPDEST PUSH20 0xFFFFFFFFFFFFFFFFFFFFFFFFFFFFFFFFFFFFFFFF AND EQ PUSH2 0xC6A JUMPI PUSH1 0x40 MLOAD PUSH32 0x8C379A000000000000000000000000000000000000000000000000000000000 DUP2 MSTORE PUSH1 0x4 ADD PUSH2 0xC61 SWAP1 PUSH2 0x74D4 JUMP JUMPDEST PUSH1 0x40 MLOAD DUP1 SWAP2 SUB SWAP1 REVERT JUMPDEST PUSH1 0x1 PUSH2 0xC74 PUSH2 0x1E30 JUMP JUMPDEST LT ISZERO PUSH2 0xCB5 JUMPI PUSH1 0x40 MLOAD PUSH32 0x8C379A000000000000000000000000000000000000000000000000000000000 DUP2 MSTORE PUSH1 0x4 ADD PUSH2 0xCAC SWAP1 PUSH2 0x7754 JUMP JUMPDEST PUSH1 0x40 MLOAD DUP1 SWAP2 SUB SWAP1 REVERT JUMPDEST PUSH1 0x3 PUSH1 0x14 SWAP1 SLOAD SWAP1 PUSH2 0x100 EXP SWAP1 DIV PUSH1 0xFF AND ISZERO PUSH2 0xD05 JUMPI PUSH1 0x40 MLOAD PUSH32 0x8C379A000000000000000000000000000000000000000000000000000000000 DUP2 MSTORE PUSH1 0x4 ADD PUSH2 0xCFC SWAP1 PUSH2 0x7694 JUMP JUMPDEST PUSH1 0x40 MLOAD DUP1 SWAP2 SUB SWAP1 REVERT JUMPDEST PUSH1 0x0 PUSH2 0xD3A PUSH1 0x40 MLOAD PUSH1 0x20 ADD PUSH2 0xD19 SWAP1 PUSH2 0x7126 JUMP JUMPDEST PUSH1 0x40 MLOAD PUSH1 0x20 DUP2 DUP4 SUB SUB DUP2 MSTORE SWAP1 PUSH1 0x40 MSTORE DUP1 MLOAD SWAP1 PUSH1 0x20 ADD KECCAK256 CALLER DUP9 DUP9 DUP9 DUP9 DUP9 PUSH2 0x39C3 JUMP JUMPDEST EQ PUSH2 0xE19 JUMPI PUSH1 0x1 PUSH1 0x5 PUSH1 0x0 PUSH1 0x3 PUSH1 0x0 SWAP1 SLOAD SWAP1 PUSH2 0x100 EXP SWAP1 DIV PUSH20 0xFFFFFFFFFFFFFFFFFFFFFFFFFFFFFFFFFFFFFFFF AND PUSH20 0xFFFFFFFFFFFFFFFFFFFFFFFFFFFFFFFFFFFFFFFF AND PUSH20 0xFFFFFFFFFFFFFFFFFFFFFFFFFFFFFFFFFFFFFFFF AND DUP2 MSTORE PUSH1 0x20 ADD SWAP1 DUP2 MSTORE PUSH1 0x20 ADD PUSH1 0x0 KECCAK256 PUSH1 0x0 DUP3 DUP3 SLOAD PUSH2 0xDB1 SWAP2 SWAP1 PUSH2 0x7AA2 JUMP JUMPDEST SWAP3 POP POP DUP2 SWAP1 SSTORE POP PUSH32 0x592F8C203B912CF23ECF29063F3FF6A879FB9EE39BD2FC34C7A7AC0B877DE878 PUSH1 0x3 PUSH1 0x0 SWAP1 SLOAD SWAP1 PUSH2 0x100 EXP SWAP1 DIV PUSH20 0xFFFFFFFFFFFFFFFFFFFFFFFFFFFFFFFFFFFFFFFF AND PUSH1 0x1 PUSH1 0x40 MLOAD PUSH2 0xE0C SWAP3 SWAP2 SWAP1 PUSH2 0x7156 JUMP JUMPDEST PUSH1 0x40 MLOAD DUP1 SWAP2 SUB SWAP1 LOG1 PUSH2 0xE35 JUMP JUMPDEST PUSH1 0x1 PUSH1 0x3 PUSH1 0x14 PUSH2 0x100 EXP DUP2 SLOAD DUP2 PUSH1 0xFF MUL NOT AND SWAP1 DUP4 ISZERO ISZERO MUL OR SWAP1 SSTORE POP JUMPDEST POP POP POP POP POP JUMP JUMPDEST PUSH1 0x0 DUP2 PUSH2 0xE49 DUP6 DUP6 PUSH2 0x17B1 JUMP JUMPDEST PUSH1 0x80 ADD MLOAD PUSH1 0xC0 ADD MLOAD PUSH1 0x40 ADD MLOAD EQ SWAP1 POP SWAP4 SWAP3 POP POP POP JUMP JUMPDEST PUSH1 0x0 DUP1 PUSH2 0xE90 PUSH1 0x40 MLOAD PUSH1 0x20 ADD PUSH2 0xE74 SWAP1 PUSH2 0x7126 JUMP JUMPDEST PUSH1 0x40 MLOAD PUSH1 0x20 DUP2 DUP4 SUB SUB DUP2 MSTORE SWAP1 PUSH1 0x40 MSTORE DUP1 MLOAD SWAP1 PUSH1 0x20 ADD KECCAK256 CALLER PUSH2 0x3A94 JUMP JUMPDEST DUP1 PUSH1 0xFF AND SWAP1 POP DUP1 SWAP3 POP DUP2 SWAP4 POP POP POP DUP2 ISZERO PUSH2 0xFF3 JUMPI PUSH1 0x2 DUP2 EQ ISZERO PUSH2 0xF2B JUMPI PUSH1 0x1 PUSH1 0x5 PUSH1 0x0 PUSH1 0x3 PUSH1 0x0 SWAP1 SLOAD SWAP1 PUSH2 0x100 EXP SWAP1 DIV PUSH20 0xFFFFFFFFFFFFFFFFFFFFFFFFFFFFFFFFFFFFFFFF AND PUSH20 0xFFFFFFFFFFFFFFFFFFFFFFFFFFFFFFFFFFFFFFFF AND PUSH20 0xFFFFFFFFFFFFFFFFFFFFFFFFFFFFFFFFFFFFFFFF AND DUP2 MSTORE PUSH1 0x20 ADD SWAP1 DUP2 MSTORE PUSH1 0x20 ADD PUSH1 0x0 KECCAK256 PUSH1 0x0 DUP3 DUP3 SLOAD PUSH2 0xF1F SWAP2 SWAP1 PUSH2 0x7AA2 JUMP JUMPDEST SWAP3 POP POP DUP2 SWAP1 SSTORE POP PUSH2 0xFB0 JUMP JUMPDEST PUSH1 0x1 PUSH1 0x5 PUSH1 0x0 PUSH2 0xF5F PUSH1 0x40 MLOAD PUSH1 0x20 ADD PUSH2 0xF43 SWAP1 PUSH2 0x7126 JUMP JUMPDEST PUSH1 0x40 MLOAD PUSH1 0x20 DUP2 DUP4 SUB SUB DUP2 MSTORE SWAP1 PUSH1 0x40 MSTORE DUP1 MLOAD SWAP1 PUSH1 0x20 ADD KECCAK256 CALLER PUSH2 0x803 JUMP JUMPDEST PUSH20 0xFFFFFFFFFFFFFFFFFFFFFFFFFFFFFFFFFFFFFFFF AND PUSH20 0xFFFFFFFFFFFFFFFFFFFFFFFFFFFFFFFFFFFFFFFF AND DUP2 MSTORE PUSH1 0x20 ADD SWAP1 DUP2 MSTORE PUSH1 0x20 ADD PUSH1 0x0 KECCAK256 PUSH1 0x0 DUP3 DUP3 SLOAD PUSH2 0xFA8 SWAP2 SWAP1 PUSH2 0x7AA2 JUMP JUMPDEST SWAP3 POP POP DUP2 SWAP1 SSTORE POP JUMPDEST PUSH1 0x0 PUSH1 0x3 PUSH1 0x0 PUSH2 0x100 EXP DUP2 SLOAD DUP2 PUSH20 0xFFFFFFFFFFFFFFFFFFFFFFFFFFFFFFFFFFFFFFFF MUL NOT AND SWAP1 DUP4 PUSH20 0xFFFFFFFFFFFFFFFFFFFFFFFFFFFFFFFFFFFFFFFF AND MUL OR SWAP1 SSTORE POP JUMPDEST POP POP JUMP JUMPDEST CALLER PUSH20 0xFFFFFFFFFFFFFFFFFFFFFFFFFFFFFFFFFFFFFFFF AND PUSH2 0x103C PUSH1 0x40 MLOAD PUSH1 0x20 ADD PUSH2 0x1020 SWAP1 PUSH2 0x7126 JUMP JUMPDEST PUSH1 0x40 MLOAD PUSH1 0x20 DUP2 DUP4 SUB SUB DUP2 MSTORE SWAP1 PUSH1 0x40 MSTORE DUP1 MLOAD SWAP1 PUSH1 0x20 ADD KECCAK256 CALLER PUSH2 0x803 JUMP JUMPDEST PUSH20 0xFFFFFFFFFFFFFFFFFFFFFFFFFFFFFFFFFFFFFFFF AND EQ PUSH2 0x1092 JUMPI PUSH1 0x40 MLOAD PUSH32 0x8C379A000000000000000000000000000000000000000000000000000000000 DUP2 MSTORE PUSH1 0x4 ADD PUSH2 0x1089 SWAP1 PUSH2 0x74D4 JUMP JUMPDEST PUSH1 0x40 MLOAD DUP1 SWAP2 SUB SWAP1 REVERT JUMPDEST PUSH1 0x1 PUSH2 0x109D CALLER PUSH2 0x3B57 JUMP JUMPDEST LT ISZERO PUSH2 0x10DE JUMPI PUSH1 0x40 MLOAD PUSH32 0x8C379A000000000000000000000000000000000000000000000000000000000 DUP2 MSTORE PUSH1 0x4 ADD PUSH2 0x10D5 SWAP1 PUSH2 0x7754 JUMP JUMPDEST PUSH1 0x40 MLOAD DUP1 SWAP2 SUB SWAP1 REVERT JUMPDEST DUP8 PUSH2 0x110D PUSH1 0x40 MLOAD PUSH1 0x20 ADD PUSH2 0x10F1 SWAP1 PUSH2 0x7126 JUMP JUMPDEST PUSH1 0x40 MLOAD PUSH1 0x20 DUP2 DUP4 SUB SUB DUP2 MSTORE SWAP1 PUSH1 0x40 MSTORE DUP1 MLOAD SWAP1 PUSH1 0x20 ADD KECCAK256 CALLER PUSH2 0xBB1 JUMP JUMPDEST PUSH1 0x40 ADD MLOAD PUSH1 0x0 ADD MLOAD PUSH1 0x40 ADD MLOAD EQ PUSH2 0x1159 JUMPI PUSH1 0x40 MLOAD PUSH32 0x8C379A000000000000000000000000000000000000000000000000000000000 DUP2 MSTORE PUSH1 0x4 ADD PUSH2 0x1150 SWAP1 PUSH2 0x7594 JUMP JUMPDEST PUSH1 0x40 MLOAD DUP1 SWAP2 SUB SWAP1 REVERT JUMPDEST DUP4 PUSH2 0x1188 PUSH1 0x40 MLOAD PUSH1 0x20 ADD PUSH2 0x116C SWAP1 PUSH2 0x7126 JUMP JUMPDEST PUSH1 0x40 MLOAD PUSH1 0x20 DUP2 DUP4 SUB SUB DUP2 MSTORE SWAP1 PUSH1 0x40 MSTORE DUP1 MLOAD SWAP1 PUSH1 0x20 ADD KECCAK256 CALLER PUSH2 0x175A JUMP JUMPDEST EQ PUSH2 0x11C8 JUMPI PUSH1 0x40 MLOAD PUSH32 0x8C379A000000000000000000000000000000000000000000000000000000000 DUP2 MSTORE PUSH1 0x4 ADD PUSH2 0x11BF SWAP1 PUSH2 0x75B4 JUMP JUMPDEST PUSH1 0x40 MLOAD DUP1 SWAP2 SUB SWAP1 REVERT JUMPDEST PUSH1 0x3 PUSH1 0x14 SWAP1 SLOAD SWAP1 PUSH2 0x100 EXP SWAP1 DIV PUSH1 0xFF AND PUSH2 0x1217 JUMPI PUSH1 0x40 MLOAD PUSH32 0x8C379A000000000000000000000000000000000000000000000000000000000 DUP2 MSTORE PUSH1 0x4 ADD PUSH2 0x120E SWAP1 PUSH2 0x7414 JUMP JUMPDEST PUSH1 0x40 MLOAD DUP1 SWAP2 SUB SWAP1 REVERT JUMPDEST PUSH1 0x0 PUSH2 0x1250 PUSH1 0x40 MLOAD PUSH1 0x20 ADD PUSH2 0x122B SWAP1 PUSH2 0x7126 JUMP JUMPDEST PUSH1 0x40 MLOAD PUSH1 0x20 DUP2 DUP4 SUB SUB DUP2 MSTORE SWAP1 PUSH1 0x40 MSTORE DUP1 MLOAD SWAP1 PUSH1 0x20 ADD KECCAK256 CALLER DUP13 DUP13 DUP13 DUP13 DUP13 DUP13 DUP13 DUP13 DUP13 PUSH2 0x3BAC JUMP JUMPDEST PUSH1 0xFF AND EQ PUSH2 0x1332 JUMPI PUSH1 0x1 PUSH1 0x5 PUSH1 0x0 PUSH1 0x3 PUSH1 0x0 SWAP1 SLOAD SWAP1 PUSH2 0x100 EXP SWAP1 DIV PUSH20 0xFFFFFFFFFFFFFFFFFFFFFFFFFFFFFFFFFFFFFFFF AND PUSH20 0xFFFFFFFFFFFFFFFFFFFFFFFFFFFFFFFFFFFFFFFF AND PUSH20 0xFFFFFFFFFFFFFFFFFFFFFFFFFFFFFFFFFFFFFFFF AND DUP2 MSTORE PUSH1 0x20 ADD SWAP1 DUP2 MSTORE PUSH1 0x20 ADD PUSH1 0x0 KECCAK256 PUSH1 0x0 DUP3 DUP3 SLOAD PUSH2 0x12CA SWAP2 SWAP1 PUSH2 0x7AA2 JUMP JUMPDEST SWAP3 POP POP DUP2 SWAP1 SSTORE POP PUSH32 0x592F8C203B912CF23ECF29063F3FF6A879FB9EE39BD2FC34C7A7AC0B877DE878 PUSH1 0x3 PUSH1 0x0 SWAP1 SLOAD SWAP1 PUSH2 0x100 EXP SWAP1 DIV PUSH20 0xFFFFFFFFFFFFFFFFFFFFFFFFFFFFFFFFFFFFFFFF AND PUSH1 0x1 PUSH1 0x40 MLOAD PUSH2 0x1325 SWAP3 SWAP2 SWAP1 PUSH2 0x7156 JUMP JUMPDEST PUSH1 0x40 MLOAD DUP1 SWAP2 SUB SWAP1 LOG1 PUSH2 0x1421 JUMP JUMPDEST PUSH1 0x1 PUSH1 0x5 PUSH1 0x0 CALLER PUSH20 0xFFFFFFFFFFFFFFFFFFFFFFFFFFFFFFFFFFFFFFFF AND PUSH20 0xFFFFFFFFFFFFFFFFFFFFFFFFFFFFFFFFFFFFFFFF AND DUP2 MSTORE PUSH1 0x20 ADD SWAP1 DUP2 MSTORE PUSH1 0x20 ADD PUSH1 0x0 KECCAK256 PUSH1 0x0 DUP3 DUP3 SLOAD PUSH2 0x1382 SWAP2 SWAP1 PUSH2 0x7AA2 JUMP JUMPDEST SWAP3 POP POP DUP2 SWAP1 SSTORE POP PUSH1 0x0 PUSH1 0x3 PUSH1 0x0 PUSH2 0x100 EXP DUP2 SLOAD DUP2 PUSH20 0xFFFFFFFFFFFFFFFFFFFFFFFFFFFFFFFFFFFFFFFF MUL NOT AND SWAP1 DUP4 PUSH20 0xFFFFFFFFFFFFFFFFFFFFFFFFFFFFFFFFFFFFFFFF AND MUL OR SWAP1 SSTORE POP PUSH1 0x0 PUSH1 0x3 PUSH1 0x14 PUSH2 0x100 EXP DUP2 SLOAD DUP2 PUSH1 0xFF MUL NOT AND SWAP1 DUP4 ISZERO ISZERO MUL OR SWAP1 SSTORE POP PUSH32 0x592F8C203B912CF23ECF29063F3FF6A879FB9EE39BD2FC34C7A7AC0B877DE878 CALLER PUSH1 0x0 PUSH1 0x40 MLOAD PUSH2 0x1418 SWAP3 SWAP2 SWAP1 PUSH2 0x7156 JUMP JUMPDEST PUSH1 0x40 MLOAD DUP1 SWAP2 SUB SWAP1 LOG1 JUMPDEST POP POP POP POP POP POP POP POP POP JUMP JUMPDEST PUSH1 0x0 DUP1 PUSH1 0x0 DUP1 PUSH1 0x1 PUSH1 0x0 DUP8 DUP2 MSTORE PUSH1 0x20 ADD SWAP1 DUP2 MSTORE PUSH1 0x20 ADD PUSH1 0x0 KECCAK256 PUSH1 0x0 DUP7 PUSH20 0xFFFFFFFFFFFFFFFFFFFFFFFFFFFFFFFFFFFFFFFF AND PUSH20 0xFFFFFFFFFFFFFFFFFFFFFFFFFFFFFFFFFFFFFFFF AND DUP2 MSTORE PUSH1 0x20 ADD SWAP1 DUP2 MSTORE PUSH1 0x20 ADD PUSH1 0x0 KECCAK256 PUSH1 0x3 ADD PUSH1 0x40 MLOAD DUP1 PUSH1 0xA0 ADD PUSH1 0x40 MSTORE SWAP1 DUP2 PUSH1 0x0 DUP3 ADD PUSH1 0x40 MLOAD DUP1 PUSH1 0x60 ADD PUSH1 0x40 MSTORE SWAP1 DUP2 PUSH1 0x0 DUP3 ADD PUSH1 0x0 SWAP1 SLOAD SWAP1 PUSH2 0x100 EXP SWAP1 DIV PUSH3 0xFFFFFF AND PUSH3 0xFFFFFF AND PUSH3 0xFFFFFF AND DUP2 MSTORE PUSH1 0x20 ADD PUSH1 0x1 DUP3 ADD SLOAD DUP2 MSTORE PUSH1 0x20 ADD PUSH1 0x2 DUP3 ADD SLOAD DUP2 MSTORE POP POP DUP2 MSTORE PUSH1 0x20 ADD PUSH1 0x3 DUP3 ADD PUSH1 0x0 SWAP1 SLOAD SWAP1 PUSH2 0x100 EXP SWAP1 DIV PUSH20 0xFFFFFFFFFFFFFFFFFFFFFFFFFFFFFFFFFFFFFFFF AND PUSH20 0xFFFFFFFFFFFFFFFFFFFFFFFFFFFFFFFFFFFFFFFF AND PUSH20 0xFFFFFFFFFFFFFFFFFFFFFFFFFFFFFFFFFFFFFFFF AND DUP2 MSTORE PUSH1 0x20 ADD PUSH1 0x4 DUP3 ADD SLOAD DUP2 MSTORE PUSH1 0x20 ADD PUSH1 0x5 DUP3 ADD PUSH1 0x0 SWAP1 SLOAD SWAP1 PUSH2 0x100 EXP SWAP1 DIV PUSH20 0xFFFFFFFFFFFFFFFFFFFFFFFFFFFFFFFFFFFFFFFF AND PUSH20 0xFFFFFFFFFFFFFFFFFFFFFFFFFFFFFFFFFFFFFFFF AND PUSH20 0xFFFFFFFFFFFFFFFFFFFFFFFFFFFFFFFFFFFFFFFF AND DUP2 MSTORE PUSH1 0x20 ADD PUSH1 0x6 DUP3 ADD DUP1 SLOAD PUSH2 0x15A1 SWAP1 PUSH2 0x82E5 JUMP JUMPDEST DUP1 PUSH1 0x1F ADD PUSH1 0x20 DUP1 SWAP2 DIV MUL PUSH1 0x20 ADD PUSH1 0x40 MLOAD SWAP1 DUP2 ADD PUSH1 0x40 MSTORE DUP1 SWAP3 SWAP2 SWAP1 DUP2 DUP2 MSTORE PUSH1 0x20 ADD DUP3 DUP1 SLOAD PUSH2 0x15CD SWAP1 PUSH2 0x82E5 JUMP JUMPDEST DUP1 ISZERO PUSH2 0x161A JUMPI DUP1 PUSH1 0x1F LT PUSH2 0x15EF JUMPI PUSH2 0x100 DUP1 DUP4 SLOAD DIV MUL DUP4 MSTORE SWAP2 PUSH1 0x20 ADD SWAP2 PUSH2 0x161A JUMP JUMPDEST DUP3 ADD SWAP2 SWAP1 PUSH1 0x0 MSTORE PUSH1 0x20 PUSH1 0x0 KECCAK256 SWAP1 JUMPDEST DUP2 SLOAD DUP2 MSTORE SWAP1 PUSH1 0x1 ADD SWAP1 PUSH1 0x20 ADD DUP1 DUP4 GT PUSH2 0x15FD JUMPI DUP3 SWAP1 SUB PUSH1 0x1F AND DUP3 ADD SWAP2 JUMPDEST POP POP POP POP POP DUP2 MSTORE POP POP SWAP1 POP DUP1 PUSH1 0x0 ADD MLOAD PUSH1 0x40 ADD MLOAD DUP2 PUSH1 0x0 ADD MLOAD PUSH1 0x0 ADD MLOAD DUP3 PUSH1 0x0 ADD MLOAD PUSH1 0x20 ADD MLOAD DUP2 PUSH3 0xFFFFFF AND SWAP2 POP SWAP4 POP SWAP4 POP SWAP4 POP POP SWAP3 POP SWAP3 POP SWAP3 JUMP JUMPDEST CALLVALUE DUP2 EQ PUSH2 0x1698 JUMPI PUSH1 0x40 MLOAD PUSH32 0x8C379A000000000000000000000000000000000000000000000000000000000 DUP2 MSTORE PUSH1 0x4 ADD PUSH2 0x168F SWAP1 PUSH2 0x7554 JUMP JUMPDEST PUSH1 0x40 MLOAD DUP1 SWAP2 SUB SWAP1 REVERT JUMPDEST CALLVALUE PUSH1 0x5 PUSH1 0x0 CALLER PUSH20 0xFFFFFFFFFFFFFFFFFFFFFFFFFFFFFFFFFFFFFFFF AND PUSH20 0xFFFFFFFFFFFFFFFFFFFFFFFFFFFFFFFFFFFFFFFF AND DUP2 MSTORE PUSH1 0x20 ADD SWAP1 DUP2 MSTORE PUSH1 0x20 ADD PUSH1 0x0 KECCAK256 SLOAD PUSH2 0x16E3 SWAP2 SWAP1 PUSH2 0x7AA2 JUMP JUMPDEST PUSH1 0x5 PUSH1 0x0 CALLER PUSH20 0xFFFFFFFFFFFFFFFFFFFFFFFFFFFFFFFFFFFFFFFF AND PUSH20 0xFFFFFFFFFFFFFFFFFFFFFFFFFFFFFFFFFFFFFFFF AND DUP2 MSTORE PUSH1 0x20 ADD SWAP1 DUP2 MSTORE PUSH1 0x20 ADD PUSH1 0x0 KECCAK256 DUP2 SWAP1 SSTORE POP POP JUMP JUMPDEST PUSH1 0x0 PUSH1 0x1 SWAP1 POP SWAP1 JUMP JUMPDEST PUSH1 0x40 MLOAD PUSH1 0x20 ADD PUSH2 0x1741 SWAP1 PUSH2 0x7126 JUMP JUMPDEST PUSH1 0x40 MLOAD PUSH1 0x20 DUP2 DUP4 SUB SUB DUP2 MSTORE SWAP1 PUSH1 0x40 MSTORE DUP1 MLOAD SWAP1 PUSH1 0x20 ADD KECCAK256 DUP2 JUMP JUMPDEST PUSH1 0x0 PUSH2 0x1766 DUP4 DUP4 PUSH2 0x17B1 JUMP JUMPDEST PUSH1 0x80 ADD MLOAD PUSH1 0xC0 ADD MLOAD PUSH1 0x40 ADD MLOAD SWAP1 POP SWAP3 SWAP2 POP POP JUMP JUMPDEST PUSH2 0x17AB PUSH1 0x40 MLOAD PUSH1 0x20 ADD PUSH2 0x178C SWAP1 PUSH2 0x7126 JUMP JUMPDEST PUSH1 0x40 MLOAD PUSH1 0x20 DUP2 DUP4 SUB SUB DUP2 MSTORE SWAP1 PUSH1 0x40 MSTORE DUP1 MLOAD SWAP1 PUSH1 0x20 ADD KECCAK256 DUP6 DUP6 DUP6 DUP6 PUSH2 0x3C92 JUMP JUMPDEST POP POP POP POP JUMP JUMPDEST PUSH2 0x17B9 PUSH2 0x5E94 JUMP JUMPDEST PUSH1 0x1 PUSH1 0x0 DUP5 DUP2 MSTORE PUSH1 0x20 ADD SWAP1 DUP2 MSTORE PUSH1 0x20 ADD PUSH1 0x0 KECCAK256 PUSH1 0x0 DUP4 PUSH20 0xFFFFFFFFFFFFFFFFFFFFFFFFFFFFFFFFFFFFFFFF AND PUSH20 0xFFFFFFFFFFFFFFFFFFFFFFFFFFFFFFFFFFFFFFFF AND DUP2 MSTORE PUSH1 0x20 ADD SWAP1 DUP2 MSTORE PUSH1 0x20 ADD PUSH1 0x0 KECCAK256 PUSH1 0x40 MLOAD DUP1 PUSH1 0xA0 ADD PUSH1 0x40 MSTORE SWAP1 DUP2 PUSH1 0x0 DUP3 ADD PUSH1 0x0 SWAP1 SLOAD SWAP1 PUSH2 0x100 EXP SWAP1 DIV PUSH20 0xFFFFFFFFFFFFFFFFFFFFFFFFFFFFFFFFFFFFFFFF AND PUSH20 0xFFFFFFFFFFFFFFFFFFFFFFFFFFFFFFFFFFFFFFFF AND PUSH20 0xFFFFFFFFFFFFFFFFFFFFFFFFFFFFFFFFFFFFFFFF AND DUP2 MSTORE PUSH1 0x20 ADD PUSH1 0x1 DUP3 ADD SLOAD DUP2 MSTORE PUSH1 0x20 ADD PUSH1 0x2 DUP3 ADD PUSH1 0x0 SWAP1 SLOAD SWAP1 PUSH2 0x100 EXP SWAP1 DIV PUSH1 0xFF AND ISZERO ISZERO ISZERO ISZERO DUP2 MSTORE PUSH1 0x20 ADD PUSH1 0x3 DUP3 ADD PUSH1 0x40 MLOAD DUP1 PUSH1 0xA0 ADD PUSH1 0x40 MSTORE SWAP1 DUP2 PUSH1 0x0 DUP3 ADD PUSH1 0x40 MLOAD DUP1 PUSH1 0x60 ADD PUSH1 0x40 MSTORE SWAP1 DUP2 PUSH1 0x0 DUP3 ADD PUSH1 0x0 SWAP1 SLOAD SWAP1 PUSH2 0x100 EXP SWAP1 DIV PUSH3 0xFFFFFF AND PUSH3 0xFFFFFF AND PUSH3 0xFFFFFF AND DUP2 MSTORE PUSH1 0x20 ADD PUSH1 0x1 DUP3 ADD SLOAD DUP2 MSTORE PUSH1 0x20 ADD PUSH1 0x2 DUP3 ADD SLOAD DUP2 MSTORE POP POP DUP2 MSTORE PUSH1 0x20 ADD PUSH1 0x3 DUP3 ADD PUSH1 0x0 SWAP1 SLOAD SWAP1 PUSH2 0x100 EXP SWAP1 DIV PUSH20 0xFFFFFFFFFFFFFFFFFFFFFFFFFFFFFFFFFFFFFFFF AND PUSH20 0xFFFFFFFFFFFFFFFFFFFFFFFFFFFFFFFFFFFFFFFF AND PUSH20 0xFFFFFFFFFFFFFFFFFFFFFFFFFFFFFFFFFFFFFFFF AND DUP2 MSTORE PUSH1 0x20 ADD PUSH1 0x4 DUP3 ADD SLOAD DUP2 MSTORE PUSH1 0x20 ADD PUSH1 0x5 DUP3 ADD PUSH1 0x0 SWAP1 SLOAD SWAP1 PUSH2 0x100 EXP SWAP1 DIV PUSH20 0xFFFFFFFFFFFFFFFFFFFFFFFFFFFFFFFFFFFFFFFF AND PUSH20 0xFFFFFFFFFFFFFFFFFFFFFFFFFFFFFFFFFFFFFFFF AND PUSH20 0xFFFFFFFFFFFFFFFFFFFFFFFFFFFFFFFFFFFFFFFF AND DUP2 MSTORE PUSH1 0x20 ADD PUSH1 0x6 DUP3 ADD DUP1 SLOAD PUSH2 0x19B0 SWAP1 PUSH2 0x82E5 JUMP JUMPDEST DUP1 PUSH1 0x1F ADD PUSH1 0x20 DUP1 SWAP2 DIV MUL PUSH1 0x20 ADD PUSH1 0x40 MLOAD SWAP1 DUP2 ADD PUSH1 0x40 MSTORE DUP1 SWAP3 SWAP2 SWAP1 DUP2 DUP2 MSTORE PUSH1 0x20 ADD DUP3 DUP1 SLOAD PUSH2 0x19DC SWAP1 PUSH2 0x82E5 JUMP JUMPDEST DUP1 ISZERO PUSH2 0x1A29 JUMPI DUP1 PUSH1 0x1F LT PUSH2 0x19FE JUMPI PUSH2 0x100 DUP1 DUP4 SLOAD DIV MUL DUP4 MSTORE SWAP2 PUSH1 0x20 ADD SWAP2 PUSH2 0x1A29 JUMP JUMPDEST DUP3 ADD SWAP2 SWAP1 PUSH1 0x0 MSTORE PUSH1 0x20 PUSH1 0x0 KECCAK256 SWAP1 JUMPDEST DUP2 SLOAD DUP2 MSTORE SWAP1 PUSH1 0x1 ADD SWAP1 PUSH1 0x20 ADD DUP1 DUP4 GT PUSH2 0x1A0C JUMPI DUP3 SWAP1 SUB PUSH1 0x1F AND DUP3 ADD SWAP2 JUMPDEST POP POP POP POP POP DUP2 MSTORE POP POP DUP2 MSTORE PUSH1 0x20 ADD PUSH1 0xA DUP3 ADD PUSH1 0x40 MLOAD DUP1 PUSH2 0x160 ADD PUSH1 0x40 MSTORE SWAP1 DUP2 PUSH1 0x0 DUP3 ADD PUSH1 0x0 SWAP1 SLOAD SWAP1 PUSH2 0x100 EXP SWAP1 DIV PUSH20 0xFFFFFFFFFFFFFFFFFFFFFFFFFFFFFFFFFFFFFFFF AND PUSH20 0xFFFFFFFFFFFFFFFFFFFFFFFFFFFFFFFFFFFFFFFF AND PUSH20 0xFFFFFFFFFFFFFFFFFFFFFFFFFFFFFFFFFFFFFFFF AND DUP2 MSTORE PUSH1 0x20 ADD PUSH1 0x1 DUP3 ADD PUSH1 0x0 SWAP1 SLOAD SWAP1 PUSH2 0x100 EXP SWAP1 DIV PUSH20 0xFFFFFFFFFFFFFFFFFFFFFFFFFFFFFFFFFFFFFFFF AND PUSH20 0xFFFFFFFFFFFFFFFFFFFFFFFFFFFFFFFFFFFFFFFF AND PUSH20 0xFFFFFFFFFFFFFFFFFFFFFFFFFFFFFFFFFFFFFFFF AND DUP2 MSTORE PUSH1 0x20 ADD PUSH1 0x2 DUP3 ADD PUSH1 0x40 MLOAD DUP1 PUSH1 0xA0 ADD PUSH1 0x40 MSTORE SWAP1 DUP2 PUSH1 0x0 DUP3 ADD PUSH1 0x40 MLOAD DUP1 PUSH1 0x60 ADD PUSH1 0x40 MSTORE SWAP1 DUP2 PUSH1 0x0 DUP3 ADD PUSH1 0x0 SWAP1 SLOAD SWAP1 PUSH2 0x100 EXP SWAP1 DIV PUSH3 0xFFFFFF AND PUSH3 0xFFFFFF AND PUSH3 0xFFFFFF AND DUP2 MSTORE PUSH1 0x20 ADD PUSH1 0x1 DUP3 ADD SLOAD DUP2 MSTORE PUSH1 0x20 ADD PUSH1 0x2 DUP3 ADD SLOAD DUP2 MSTORE POP POP DUP2 MSTORE PUSH1 0x20 ADD PUSH1 0x3 DUP3 ADD PUSH1 0x0 SWAP1 SLOAD SWAP1 PUSH2 0x100 EXP SWAP1 DIV PUSH20 0xFFFFFFFFFFFFFFFFFFFFFFFFFFFFFFFFFFFFFFFF AND PUSH20 0xFFFFFFFFFFFFFFFFFFFFFFFFFFFFFFFFFFFFFFFF AND PUSH20 0xFFFFFFFFFFFFFFFFFFFFFFFFFFFFFFFFFFFFFFFF AND DUP2 MSTORE PUSH1 0x20 ADD PUSH1 0x4 DUP3 ADD SLOAD DUP2 MSTORE PUSH1 0x20 ADD PUSH1 0x5 DUP3 ADD PUSH1 0x0 SWAP1 SLOAD SWAP1 PUSH2 0x100 EXP SWAP1 DIV PUSH20 0xFFFFFFFFFFFFFFFFFFFFFFFFFFFFFFFFFFFFFFFF AND PUSH20 0xFFFFFFFFFFFFFFFFFFFFFFFFFFFFFFFFFFFFFFFF AND PUSH20 0xFFFFFFFFFFFFFFFFFFFFFFFFFFFFFFFFFFFFFFFF AND DUP2 MSTORE PUSH1 0x20 ADD PUSH1 0x6 DUP3 ADD DUP1 SLOAD PUSH2 0x1C14 SWAP1 PUSH2 0x82E5 JUMP JUMPDEST DUP1 PUSH1 0x1F ADD PUSH1 0x20 DUP1 SWAP2 DIV MUL PUSH1 0x20 ADD PUSH1 0x40 MLOAD SWAP1 DUP2 ADD PUSH1 0x40 MSTORE DUP1 SWAP3 SWAP2 SWAP1 DUP2 DUP2 MSTORE PUSH1 0x20 ADD DUP3 DUP1 SLOAD PUSH2 0x1C40 SWAP1 PUSH2 0x82E5 JUMP JUMPDEST DUP1 ISZERO PUSH2 0x1C8D JUMPI DUP1 PUSH1 0x1F LT PUSH2 0x1C62 JUMPI PUSH2 0x100 DUP1 DUP4 SLOAD DIV MUL DUP4 MSTORE SWAP2 PUSH1 0x20 ADD SWAP2 PUSH2 0x1C8D JUMP JUMPDEST DUP3 ADD SWAP2 SWAP1 PUSH1 0x0 MSTORE PUSH1 0x20 PUSH1 0x0 KECCAK256 SWAP1 JUMPDEST DUP2 SLOAD DUP2 MSTORE SWAP1 PUSH1 0x1 ADD SWAP1 PUSH1 0x20 ADD DUP1 DUP4 GT PUSH2 0x1C70 JUMPI DUP3 SWAP1 SUB PUSH1 0x1F AND DUP3 ADD SWAP2 JUMPDEST POP POP POP POP POP DUP2 MSTORE POP POP DUP2 MSTORE PUSH1 0x20 ADD PUSH1 0x9 DUP3 ADD PUSH1 0x40 MLOAD DUP1 PUSH1 0x60 ADD PUSH1 0x40 MSTORE SWAP1 DUP2 PUSH1 0x0 DUP3 ADD PUSH1 0x0 SWAP1 SLOAD SWAP1 PUSH2 0x100 EXP SWAP1 DIV PUSH3 0xFFFFFF AND PUSH3 0xFFFFFF AND PUSH3 0xFFFFFF AND DUP2 MSTORE PUSH1 0x20 ADD PUSH1 0x1 DUP3 ADD SLOAD DUP2 MSTORE PUSH1 0x20 ADD PUSH1 0x2 DUP3 ADD SLOAD DUP2 MSTORE POP POP DUP2 MSTORE PUSH1 0x20 ADD PUSH1 0xC DUP3 ADD PUSH1 0x40 MLOAD DUP1 PUSH1 0x60 ADD PUSH1 0x40 MSTORE SWAP1 DUP2 PUSH1 0x0 DUP3 ADD PUSH1 0x0 SWAP1 SLOAD SWAP1 PUSH2 0x100 EXP SWAP1 DIV PUSH3 0xFFFFFF AND PUSH3 0xFFFFFF AND PUSH3 0xFFFFFF AND DUP2 MSTORE PUSH1 0x20 ADD PUSH1 0x1 DUP3 ADD SLOAD DUP2 MSTORE PUSH1 0x20 ADD PUSH1 0x2 DUP3 ADD SLOAD DUP2 MSTORE POP POP DUP2 MSTORE PUSH1 0x20 ADD PUSH1 0xF DUP3 ADD PUSH1 0x40 MLOAD DUP1 PUSH1 0x60 ADD PUSH1 0x40 MSTORE SWAP1 DUP2 PUSH1 0x0 DUP3 ADD PUSH1 0x0 SWAP1 SLOAD SWAP1 PUSH2 0x100 EXP SWAP1 DIV PUSH3 0xFFFFFF AND PUSH3 0xFFFFFF AND PUSH3 0xFFFFFF AND DUP2 MSTORE PUSH1 0x20 ADD PUSH1 0x1 DUP3 ADD SLOAD DUP2 MSTORE PUSH1 0x20 ADD PUSH1 0x2 DUP3 ADD SLOAD DUP2 MSTORE POP POP DUP2 MSTORE PUSH1 0x20 ADD PUSH1 0x12 DUP3 ADD PUSH1 0x40 MLOAD DUP1 PUSH1 0x60 ADD PUSH1 0x40 MSTORE SWAP1 DUP2 PUSH1 0x0 DUP3 ADD PUSH1 0x0 SWAP1 SLOAD SWAP1 PUSH2 0x100 EXP SWAP1 DIV PUSH3 0xFFFFFF AND PUSH3 0xFFFFFF AND PUSH3 0xFFFFFF AND DUP2 MSTORE PUSH1 0x20 ADD PUSH1 0x1 DUP3 ADD SLOAD DUP2 MSTORE PUSH1 0x20 ADD PUSH1 0x2 DUP3 ADD SLOAD DUP2 MSTORE POP POP DUP2 MSTORE PUSH1 0x20 ADD PUSH1 0x15 DUP3 ADD SLOAD DUP2 MSTORE PUSH1 0x20 ADD PUSH1 0x16 DUP3 ADD PUSH1 0x0 SWAP1 SLOAD SWAP1 PUSH2 0x100 EXP SWAP1 DIV PUSH8 0xFFFFFFFFFFFFFFFF AND PUSH8 0xFFFFFFFFFFFFFFFF AND PUSH8 0xFFFFFFFFFFFFFFFF AND DUP2 MSTORE PUSH1 0x20 ADD PUSH1 0x17 DUP3 ADD SLOAD DUP2 MSTORE PUSH1 0x20 ADD PUSH1 0x18 DUP3 ADD SLOAD DUP2 MSTORE POP POP DUP2 MSTORE POP POP SWAP1 POP SWAP3 SWAP2 POP POP JUMP JUMPDEST PUSH1 0x1 DUP2 JUMP JUMPDEST PUSH1 0x0 PUSH1 0x1 SWAP1 POP SWAP1 JUMP JUMPDEST PUSH1 0x0 PUSH1 0x5 PUSH1 0x0 CALLER PUSH20 0xFFFFFFFFFFFFFFFFFFFFFFFFFFFFFFFFFFFFFFFF AND PUSH20 0xFFFFFFFFFFFFFFFFFFFFFFFFFFFFFFFFFFFFFFFF AND DUP2 MSTORE PUSH1 0x20 ADD SWAP1 DUP2 MSTORE PUSH1 0x20 ADD PUSH1 0x0 KECCAK256 SLOAD SWAP1 POP SWAP1 JUMP JUMPDEST PUSH2 0x1E7F PUSH2 0x5EEA JUMP JUMPDEST PUSH2 0x1E89 DUP4 DUP4 PUSH2 0x17B1 JUMP JUMPDEST PUSH1 0x80 ADD MLOAD PUSH2 0x100 ADD MLOAD PUSH8 0xFFFFFFFFFFFFFFFF AND TIMESTAMP GT ISZERO PUSH2 0x1EC7 JUMPI PUSH2 0x1EAD DUP4 DUP4 PUSH2 0x17B1 JUMP JUMPDEST PUSH1 0x80 ADD MLOAD PUSH1 0x40 ADD MLOAD PUSH2 0x1EBF DUP5 DUP5 PUSH2 0x17B1 JUMP JUMPDEST PUSH1 0x60 ADD DUP2 SWAP1 MSTORE POP JUMPDEST PUSH2 0x1ED1 DUP4 DUP4 PUSH2 0x17B1 JUMP JUMPDEST PUSH1 0x60 ADD MLOAD SWAP1 POP SWAP3 SWAP2 POP POP JUMP JUMPDEST PUSH1 0x0 DUP1 PUSH1 0x1 PUSH1 0x4 PUSH1 0x0 DUP6 PUSH20 0xFFFFFFFFFFFFFFFFFFFFFFFFFFFFFFFFFFFFFFFF AND PUSH20 0xFFFFFFFFFFFFFFFFFFFFFFFFFFFFFFFFFFFFFFFF AND DUP2 MSTORE PUSH1 0x20 ADD SWAP1 DUP2 MSTORE PUSH1 0x20 ADD PUSH1 0x0 KECCAK256 SLOAD PUSH2 0x1F2C SWAP2 SWAP1 PUSH2 0x7FCE JUMP JUMPDEST SWAP1 POP DUP1 PUSH1 0x5 PUSH1 0x0 DUP6 PUSH20 0xFFFFFFFFFFFFFFFFFFFFFFFFFFFFFFFFFFFFFFFF AND PUSH20 0xFFFFFFFFFFFFFFFFFFFFFFFFFFFFFFFFFFFFFFFF AND DUP2 MSTORE PUSH1 0x20 ADD SWAP1 DUP2 MSTORE PUSH1 0x20 ADD PUSH1 0x0 KECCAK256 SLOAD LT ISZERO PUSH2 0x1F7F JUMPI PUSH1 0x0 SWAP2 POP POP PUSH2 0x1FCE JUMP JUMPDEST DUP1 PUSH1 0x5 PUSH1 0x0 DUP6 PUSH20 0xFFFFFFFFFFFFFFFFFFFFFFFFFFFFFFFFFFFFFFFF AND PUSH20 0xFFFFFFFFFFFFFFFFFFFFFFFFFFFFFFFFFFFFFFFF AND DUP2 MSTORE PUSH1 0x20 ADD SWAP1 DUP2 MSTORE PUSH1 0x20 ADD PUSH1 0x0 KECCAK256 SLOAD PUSH2 0x1FCA SWAP2 SWAP1 PUSH2 0x816C JUMP JUMPDEST SWAP2 POP POP JUMPDEST SWAP2 SWAP1 POP JUMP JUMPDEST DUP1 PUSH1 0x5 PUSH1 0x0 DUP5 PUSH20 0xFFFFFFFFFFFFFFFFFFFFFFFFFFFFFFFFFFFFFFFF AND PUSH20 0xFFFFFFFFFFFFFFFFFFFFFFFFFFFFFFFFFFFFFFFF AND DUP2 MSTORE PUSH1 0x20 ADD SWAP1 DUP2 MSTORE PUSH1 0x20 ADD PUSH1 0x0 KECCAK256 SLOAD PUSH2 0x201E SWAP2 SWAP1 PUSH2 0x816C JUMP JUMPDEST PUSH1 0x5 PUSH1 0x0 DUP5 PUSH20 0xFFFFFFFFFFFFFFFFFFFFFFFFFFFFFFFFFFFFFFFF AND PUSH20 0xFFFFFFFFFFFFFFFFFFFFFFFFFFFFFFFFFFFFFFFF AND DUP2 MSTORE PUSH1 0x20 ADD SWAP1 DUP2 MSTORE PUSH1 0x20 ADD PUSH1 0x0 KECCAK256 DUP2 SWAP1 SSTORE POP DUP2 PUSH20 0xFFFFFFFFFFFFFFFFFFFFFFFFFFFFFFFFFFFFFFFF AND PUSH2 0x8FC DUP3 SWAP1 DUP2 ISZERO MUL SWAP1 PUSH1 0x40 MLOAD PUSH1 0x0 PUSH1 0x40 MLOAD DUP1 DUP4 SUB DUP2 DUP6 DUP9 DUP9 CALL SWAP4 POP POP POP POP ISZERO DUP1 ISZERO PUSH2 0x20A7 JUMPI RETURNDATASIZE PUSH1 0x0 DUP1 RETURNDATACOPY RETURNDATASIZE PUSH1 0x0 REVERT JUMPDEST POP POP POP JUMP JUMPDEST PUSH1 0x0 DUP1 PUSH1 0x0 SWAP1 POP PUSH2 0x20E1 PUSH1 0x40 MLOAD PUSH1 0x20 ADD PUSH2 0x20C5 SWAP1 PUSH2 0x7126 JUMP JUMPDEST PUSH1 0x40 MLOAD PUSH1 0x20 DUP2 DUP4 SUB SUB DUP2 MSTORE SWAP1 PUSH1 0x40 MSTORE DUP1 MLOAD SWAP1 PUSH1 0x20 ADD KECCAK256 DUP5 PUSH2 0x438C JUMP JUMPDEST ISZERO PUSH2 0x20F6 JUMPI PUSH1 0x1 DUP2 PUSH2 0x20F3 SWAP2 SWAP1 PUSH2 0x7AA2 JUMP JUMPDEST SWAP1 POP JUMPDEST DUP1 SWAP2 POP POP SWAP2 SWAP1 POP JUMP JUMPDEST PUSH1 0x0 DUP1 PUSH2 0x210C DUP6 DUP6 PUSH2 0x17B1 JUMP JUMPDEST SWAP1 POP PUSH1 0x0 DUP2 PUSH1 0x80 ADD MLOAD SWAP1 POP DUP1 PUSH2 0x100 ADD MLOAD PUSH8 0xFFFFFFFFFFFFFFFF AND TIMESTAMP GT ISZERO PUSH2 0x2169 JUMPI PUSH1 0x40 MLOAD PUSH32 0x8C379A000000000000000000000000000000000000000000000000000000000 DUP2 MSTORE PUSH1 0x4 ADD PUSH2 0x2160 SWAP1 PUSH2 0x7634 JUMP JUMPDEST PUSH1 0x40 MLOAD DUP1 SWAP2 SUB SWAP1 REVERT JUMPDEST DUP1 PUSH1 0xE0 ADD MLOAD TIMESTAMP GT ISZERO PUSH2 0x21B0 JUMPI PUSH1 0x40 MLOAD PUSH32 0x8C379A000000000000000000000000000000000000000000000000000000000 DUP2 MSTORE PUSH1 0x4 ADD PUSH2 0x21A7 SWAP1 PUSH2 0x73F4 JUMP JUMPDEST PUSH1 0x40 MLOAD DUP1 SWAP2 SUB SWAP1 REVERT JUMPDEST CALLER PUSH20 0xFFFFFFFFFFFFFFFFFFFFFFFFFFFFFFFFFFFFFFFF AND DUP2 PUSH1 0x0 ADD MLOAD PUSH20 0xFFFFFFFFFFFFFFFFFFFFFFFFFFFFFFFFFFFFFFFF AND EQ PUSH2 0x2222 JUMPI PUSH1 0x40 MLOAD PUSH32 0x8C379A000000000000000000000000000000000000000000000000000000000 DUP2 MSTORE PUSH1 0x4 ADD PUSH2 0x2219 SWAP1 PUSH2 0x7494 JUMP JUMPDEST PUSH1 0x40 MLOAD DUP1 SWAP2 SUB SWAP1 REVERT JUMPDEST PUSH1 0x1 DUP2 PUSH2 0x140 ADD MLOAD GT PUSH2 0x226A JUMPI PUSH1 0x40 MLOAD PUSH32 0x8C379A000000000000000000000000000000000000000000000000000000000 DUP2 MSTORE PUSH1 0x4 ADD PUSH2 0x2261 SWAP1 PUSH2 0x7534 JUMP JUMPDEST PUSH1 0x40 MLOAD DUP1 SWAP2 SUB SWAP1 REVERT JUMPDEST PUSH2 0x227C DUP2 PUSH1 0xA0 ADD MLOAD DUP3 PUSH1 0x60 ADD MLOAD PUSH2 0x43B5 JUMP JUMPDEST ISZERO DUP1 PUSH2 0x2297 JUMPI POP PUSH2 0x2295 DUP2 PUSH1 0x80 ADD MLOAD DUP3 PUSH1 0x60 ADD MLOAD PUSH2 0x43B5 JUMP JUMPDEST ISZERO JUMPDEST PUSH2 0x22D6 JUMPI PUSH1 0x40 MLOAD PUSH32 0x8C379A000000000000000000000000000000000000000000000000000000000 DUP2 MSTORE PUSH1 0x4 ADD PUSH2 0x22CD SWAP1 PUSH2 0x7574 JUMP JUMPDEST PUSH1 0x40 MLOAD DUP1 SWAP2 SUB SWAP1 REVERT JUMPDEST PUSH2 0x22DF DUP5 PUSH2 0x4409 JUMP JUMPDEST DUP2 PUSH1 0x60 ADD DUP2 SWAP1 MSTORE POP DUP1 PUSH2 0x140 ADD MLOAD DUP2 PUSH1 0x60 ADD MLOAD PUSH1 0x0 ADD MLOAD PUSH3 0xFFFFFF AND EQ PUSH2 0x233B JUMPI PUSH1 0x40 MLOAD PUSH32 0x8C379A000000000000000000000000000000000000000000000000000000000 DUP2 MSTORE PUSH1 0x4 ADD PUSH2 0x2332 SWAP1 PUSH2 0x7674 JUMP JUMPDEST PUSH1 0x40 MLOAD DUP1 SWAP2 SUB SWAP1 REVERT JUMPDEST TIMESTAMP PUSH1 0x3C PUSH2 0xFFFF AND PUSH2 0x234C SWAP2 SWAP1 PUSH2 0x7AA2 JUMP JUMPDEST DUP2 PUSH1 0xE0 ADD DUP2 DUP2 MSTORE POP POP DUP1 DUP3 PUSH1 0x80 ADD DUP2 SWAP1 MSTORE POP DUP2 PUSH1 0x1 PUSH1 0x0 DUP9 DUP2 MSTORE PUSH1 0x20 ADD SWAP1 DUP2 MSTORE PUSH1 0x20 ADD PUSH1 0x0 KECCAK256 PUSH1 0x0 DUP8 PUSH20 0xFFFFFFFFFFFFFFFFFFFFFFFFFFFFFFFFFFFFFFFF AND PUSH20 0xFFFFFFFFFFFFFFFFFFFFFFFFFFFFFFFFFFFFFFFF AND DUP2 MSTORE PUSH1 0x20 ADD SWAP1 DUP2 MSTORE PUSH1 0x20 ADD PUSH1 0x0 KECCAK256 PUSH1 0x0 DUP3 ADD MLOAD DUP2 PUSH1 0x0 ADD PUSH1 0x0 PUSH2 0x100 EXP DUP2 SLOAD DUP2 PUSH20 0xFFFFFFFFFFFFFFFFFFFFFFFFFFFFFFFFFFFFFFFF MUL NOT AND SWAP1 DUP4 PUSH20 0xFFFFFFFFFFFFFFFFFFFFFFFFFFFFFFFFFFFFFFFF AND MUL OR SWAP1 SSTORE POP PUSH1 0x20 DUP3 ADD MLOAD DUP2 PUSH1 0x1 ADD SSTORE PUSH1 0x40 DUP3 ADD MLOAD DUP2 PUSH1 0x2 ADD PUSH1 0x0 PUSH2 0x100 EXP DUP2 SLOAD DUP2 PUSH1 0xFF MUL NOT AND SWAP1 DUP4 ISZERO ISZERO MUL OR SWAP1 SSTORE POP PUSH1 0x60 DUP3 ADD MLOAD DUP2 PUSH1 0x3 ADD PUSH1 0x0 DUP3 ADD MLOAD DUP2 PUSH1 0x0 ADD PUSH1 0x0 DUP3 ADD MLOAD DUP2 PUSH1 0x0 ADD PUSH1 0x0 PUSH2 0x100 EXP DUP2 SLOAD DUP2 PUSH3 0xFFFFFF MUL NOT AND SWAP1 DUP4 PUSH3 0xFFFFFF AND MUL OR SWAP1 SSTORE POP PUSH1 0x20 DUP3 ADD MLOAD DUP2 PUSH1 0x1 ADD SSTORE PUSH1 0x40 DUP3 ADD MLOAD DUP2 PUSH1 0x2 ADD SSTORE POP POP PUSH1 0x20 DUP3 ADD MLOAD DUP2 PUSH1 0x3 ADD PUSH1 0x0 PUSH2 0x100 EXP DUP2 SLOAD DUP2 PUSH20 0xFFFFFFFFFFFFFFFFFFFFFFFFFFFFFFFFFFFFFFFF MUL NOT AND SWAP1 DUP4 PUSH20 0xFFFFFFFFFFFFFFFFFFFFFFFFFFFFFFFFFFFFFFFF AND MUL OR SWAP1 SSTORE POP PUSH1 0x40 DUP3 ADD MLOAD DUP2 PUSH1 0x4 ADD SSTORE PUSH1 0x60 DUP3 ADD MLOAD DUP2 PUSH1 0x5 ADD PUSH1 0x0 PUSH2 0x100 EXP DUP2 SLOAD DUP2 PUSH20 0xFFFFFFFFFFFFFFFFFFFFFFFFFFFFFFFFFFFFFFFF MUL NOT AND SWAP1 DUP4 PUSH20 0xFFFFFFFFFFFFFFFFFFFFFFFFFFFFFFFFFFFFFFFF AND MUL OR SWAP1 SSTORE POP PUSH1 0x80 DUP3 ADD MLOAD DUP2 PUSH1 0x6 ADD SWAP1 DUP1 MLOAD SWAP1 PUSH1 0x20 ADD SWAP1 PUSH2 0x2521 SWAP3 SWAP2 SWAP1 PUSH2 0x5F4E JUMP JUMPDEST POP POP POP PUSH1 0x80 DUP3 ADD MLOAD DUP2 PUSH1 0xA ADD PUSH1 0x0 DUP3 ADD MLOAD DUP2 PUSH1 0x0 ADD PUSH1 0x0 PUSH2 0x100 EXP DUP2 SLOAD DUP2 PUSH20 0xFFFFFFFFFFFFFFFFFFFFFFFFFFFFFFFFFFFFFFFF MUL NOT AND SWAP1 DUP4 PUSH20 0xFFFFFFFFFFFFFFFFFFFFFFFFFFFFFFFFFFFFFFFF AND MUL OR SWAP1 SSTORE POP PUSH1 0x20 DUP3 ADD MLOAD DUP2 PUSH1 0x1 ADD PUSH1 0x0 PUSH2 0x100 EXP DUP2 SLOAD DUP2 PUSH20 0xFFFFFFFFFFFFFFFFFFFFFFFFFFFFFFFFFFFFFFFF MUL NOT AND SWAP1 DUP4 PUSH20 0xFFFFFFFFFFFFFFFFFFFFFFFFFFFFFFFFFFFFFFFF AND MUL OR SWAP1 SSTORE POP PUSH1 0x40 DUP3 ADD MLOAD DUP2 PUSH1 0x2 ADD PUSH1 0x0 DUP3 ADD MLOAD DUP2 PUSH1 0x0 ADD PUSH1 0x0 DUP3 ADD MLOAD DUP2 PUSH1 0x0 ADD PUSH1 0x0 PUSH2 0x100 EXP DUP2 SLOAD DUP2 PUSH3 0xFFFFFF MUL NOT AND SWAP1 DUP4 PUSH3 0xFFFFFF AND MUL OR SWAP1 SSTORE POP PUSH1 0x20 DUP3 ADD MLOAD DUP2 PUSH1 0x1 ADD SSTORE PUSH1 0x40 DUP3 ADD MLOAD DUP2 PUSH1 0x2 ADD SSTORE POP POP PUSH1 0x20 DUP3 ADD MLOAD DUP2 PUSH1 0x3 ADD PUSH1 0x0 PUSH2 0x100 EXP DUP2 SLOAD DUP2 PUSH20 0xFFFFFFFFFFFFFFFFFFFFFFFFFFFFFFFFFFFFFFFF MUL NOT AND SWAP1 DUP4 PUSH20 0xFFFFFFFFFFFFFFFFFFFFFFFFFFFFFFFFFFFFFFFF AND MUL OR SWAP1 SSTORE POP PUSH1 0x40 DUP3 ADD MLOAD DUP2 PUSH1 0x4 ADD SSTORE PUSH1 0x60 DUP3 ADD MLOAD DUP2 PUSH1 0x5 ADD PUSH1 0x0 PUSH2 0x100 EXP DUP2 SLOAD DUP2 PUSH20 0xFFFFFFFFFFFFFFFFFFFFFFFFFFFFFFFFFFFFFFFF MUL NOT AND SWAP1 DUP4 PUSH20 0xFFFFFFFFFFFFFFFFFFFFFFFFFFFFFFFFFFFFFFFF AND MUL OR SWAP1 SSTORE POP PUSH1 0x80 DUP3 ADD MLOAD DUP2 PUSH1 0x6 ADD SWAP1 DUP1 MLOAD SWAP1 PUSH1 0x20 ADD SWAP1 PUSH2 0x26BC SWAP3 SWAP2 SWAP1 PUSH2 0x5F4E JUMP JUMPDEST POP POP POP PUSH1 0x60 DUP3 ADD MLOAD DUP2 PUSH1 0x9 ADD PUSH1 0x0 DUP3 ADD MLOAD DUP2 PUSH1 0x0 ADD PUSH1 0x0 PUSH2 0x100 EXP DUP2 SLOAD DUP2 PUSH3 0xFFFFFF MUL NOT AND SWAP1 DUP4 PUSH3 0xFFFFFF AND MUL OR SWAP1 SSTORE POP PUSH1 0x20 DUP3 ADD MLOAD DUP2 PUSH1 0x1 ADD SSTORE PUSH1 0x40 DUP3 ADD MLOAD DUP2 PUSH1 0x2 ADD SSTORE POP POP PUSH1 0x80 DUP3 ADD MLOAD DUP2 PUSH1 0xC ADD PUSH1 0x0 DUP3 ADD MLOAD DUP2 PUSH1 0x0 ADD PUSH1 0x0 PUSH2 0x100 EXP DUP2 SLOAD DUP2 PUSH3 0xFFFFFF MUL NOT AND SWAP1 DUP4 PUSH3 0xFFFFFF AND MUL OR SWAP1 SSTORE POP PUSH1 0x20 DUP3 ADD MLOAD DUP2 PUSH1 0x1 ADD SSTORE PUSH1 0x40 DUP3 ADD MLOAD DUP2 PUSH1 0x2 ADD SSTORE POP POP PUSH1 0xA0 DUP3 ADD MLOAD DUP2 PUSH1 0xF ADD PUSH1 0x0 DUP3 ADD MLOAD DUP2 PUSH1 0x0 ADD PUSH1 0x0 PUSH2 0x100 EXP DUP2 SLOAD DUP2 PUSH3 0xFFFFFF MUL NOT AND SWAP1 DUP4 PUSH3 0xFFFFFF AND MUL OR SWAP1 SSTORE POP PUSH1 0x20 DUP3 ADD MLOAD DUP2 PUSH1 0x1 ADD SSTORE PUSH1 0x40 DUP3 ADD MLOAD DUP2 PUSH1 0x2 ADD SSTORE POP POP PUSH1 0xC0 DUP3 ADD MLOAD DUP2 PUSH1 0x12 ADD PUSH1 0x0 DUP3 ADD MLOAD DUP2 PUSH1 0x0 ADD PUSH1 0x0 PUSH2 0x100 EXP DUP2 SLOAD DUP2 PUSH3 0xFFFFFF MUL NOT AND SWAP1 DUP4 PUSH3 0xFFFFFF AND MUL OR SWAP1 SSTORE POP PUSH1 0x20 DUP3 ADD MLOAD DUP2 PUSH1 0x1 ADD SSTORE PUSH1 0x40 DUP3 ADD MLOAD DUP2 PUSH1 0x2 ADD SSTORE POP POP PUSH1 0xE0 DUP3 ADD MLOAD DUP2 PUSH1 0x15 ADD SSTORE PUSH2 0x100 DUP3 ADD MLOAD DUP2 PUSH1 0x16 ADD PUSH1 0x0 PUSH2 0x100 EXP DUP2 SLOAD DUP2 PUSH8 0xFFFFFFFFFFFFFFFF MUL NOT AND SWAP1 DUP4 PUSH8 0xFFFFFFFFFFFFFFFF AND MUL OR SWAP1 SSTORE POP PUSH2 0x120 DUP3 ADD MLOAD DUP2 PUSH1 0x17 ADD SSTORE PUSH2 0x140 DUP3 ADD MLOAD DUP2 PUSH1 0x18 ADD SSTORE POP POP SWAP1 POP POP PUSH32 0xC3C7CEAEE95ACFF40F281332E5EEBC30EA5CDE12CAF201511AD3B9340AD17C2D DUP7 DUP7 DUP4 PUSH1 0xA0 ADD MLOAD PUSH1 0x40 ADD MLOAD DUP5 PUSH1 0x80 ADD MLOAD PUSH1 0x40 ADD MLOAD DUP6 PUSH1 0x60 ADD MLOAD PUSH1 0x40 ADD MLOAD PUSH1 0x40 MLOAD PUSH2 0x2873 SWAP6 SWAP5 SWAP4 SWAP3 SWAP2 SWAP1 PUSH2 0x724C JUMP JUMPDEST PUSH1 0x40 MLOAD DUP1 SWAP2 SUB SWAP1 LOG1 PUSH1 0x1 SWAP3 POP POP POP SWAP4 SWAP3 POP POP POP JUMP JUMPDEST PUSH1 0x0 DUP1 PUSH2 0x2895 DUP6 DUP6 PUSH2 0x17B1 JUMP JUMPDEST SWAP1 POP PUSH1 0x0 DUP2 PUSH1 0x80 ADD MLOAD SWAP1 POP DUP1 PUSH2 0x100 ADD MLOAD PUSH8 0xFFFFFFFFFFFFFFFF AND TIMESTAMP GT ISZERO PUSH2 0x28F2 JUMPI PUSH1 0x40 MLOAD PUSH32 0x8C379A000000000000000000000000000000000000000000000000000000000 DUP2 MSTORE PUSH1 0x4 ADD PUSH2 0x28E9 SWAP1 PUSH2 0x7634 JUMP JUMPDEST PUSH1 0x40 MLOAD DUP1 SWAP2 SUB SWAP1 REVERT JUMPDEST PUSH1 0x1 DUP2 PUSH2 0x140 ADD MLOAD GT PUSH2 0x293A JUMPI PUSH1 0x40 MLOAD PUSH32 0x8C379A000000000000000000000000000000000000000000000000000000000 DUP2 MSTORE PUSH1 0x4 ADD PUSH2 0x2931 SWAP1 PUSH2 0x7534 JUMP JUMPDEST PUSH1 0x40 MLOAD DUP1 SWAP2 SUB SWAP1 REVERT JUMPDEST CALLER PUSH20 0xFFFFFFFFFFFFFFFFFFFFFFFFFFFFFFFFFFFFFFFF AND DUP2 PUSH1 0x20 ADD MLOAD PUSH20 0xFFFFFFFFFFFFFFFFFFFFFFFFFFFFFFFFFFFFFFFF AND EQ DUP1 PUSH2 0x29A8 JUMPI POP PUSH1 0x0 PUSH20 0xFFFFFFFFFFFFFFFFFFFFFFFFFFFFFFFFFFFFFFFF AND DUP2 PUSH1 0x20 ADD MLOAD PUSH20 0xFFFFFFFFFFFFFFFFFFFFFFFFFFFFFFFFFFFFFFFF AND EQ JUMPDEST PUSH2 0x29E7 JUMPI PUSH1 0x40 MLOAD PUSH32 0x8C379A000000000000000000000000000000000000000000000000000000000 DUP2 MSTORE PUSH1 0x4 ADD PUSH2 0x29DE SWAP1 PUSH2 0x75D4 JUMP JUMPDEST PUSH1 0x40 MLOAD DUP1 SWAP2 SUB SWAP1 REVERT JUMPDEST PUSH2 0x29F9 DUP2 PUSH1 0xA0 ADD MLOAD DUP3 PUSH1 0x60 ADD MLOAD PUSH2 0x43B5 JUMP JUMPDEST ISZERO DUP1 PUSH2 0x2A14 JUMPI POP PUSH2 0x2A12 DUP2 PUSH1 0x80 ADD MLOAD DUP3 PUSH1 0x60 ADD MLOAD PUSH2 0x43B5 JUMP JUMPDEST ISZERO JUMPDEST PUSH2 0x2A53 JUMPI PUSH1 0x40 MLOAD PUSH32 0x8C379A000000000000000000000000000000000000000000000000000000000 DUP2 MSTORE PUSH1 0x4 ADD PUSH2 0x2A4A SWAP1 PUSH2 0x7574 JUMP JUMPDEST PUSH1 0x40 MLOAD DUP1 SWAP2 SUB SWAP1 REVERT JUMPDEST DUP4 DUP2 PUSH1 0x80 ADD MLOAD PUSH1 0x40 ADD MLOAD EQ ISZERO PUSH2 0x2A75 JUMPI DUP1 PUSH1 0x60 ADD MLOAD DUP2 PUSH1 0xA0 ADD DUP2 SWAP1 MSTORE POP PUSH2 0x2A9D JUMP JUMPDEST DUP4 DUP2 PUSH1 0x60 ADD MLOAD PUSH1 0x40 ADD MLOAD EQ ISZERO PUSH2 0x2A97 JUMPI DUP1 PUSH1 0x60 ADD MLOAD DUP2 PUSH1 0x80 ADD DUP2 SWAP1 MSTORE POP PUSH2 0x2A9C JUMP JUMPDEST PUSH1 0x0 DUP1 REVERT JUMPDEST JUMPDEST DUP1 PUSH1 0xA0 ADD MLOAD PUSH1 0x0 ADD MLOAD PUSH1 0x2 DUP3 PUSH1 0xA0 ADD MLOAD PUSH1 0x0 ADD MLOAD DUP4 PUSH1 0x80 ADD MLOAD PUSH1 0x0 ADD MLOAD PUSH2 0x2AC4 SWAP2 SWAP1 PUSH2 0x8138 JUMP JUMPDEST PUSH2 0x2ACE SWAP2 SWAP1 PUSH2 0x7BCC JUMP JUMPDEST PUSH2 0x2AD8 SWAP2 SWAP1 PUSH2 0x7A69 JUMP JUMPDEST PUSH3 0xFFFFFF AND DUP2 PUSH2 0x140 ADD DUP2 DUP2 MSTORE POP POP TIMESTAMP PUSH1 0x3C PUSH2 0xFFFF AND PUSH2 0x2AF8 SWAP2 SWAP1 PUSH2 0x7AA2 JUMP JUMPDEST DUP2 PUSH1 0xE0 ADD DUP2 DUP2 MSTORE POP POP CALLER DUP2 PUSH1 0x20 ADD SWAP1 PUSH20 0xFFFFFFFFFFFFFFFFFFFFFFFFFFFFFFFFFFFFFFFF AND SWAP1 DUP2 PUSH20 0xFFFFFFFFFFFFFFFFFFFFFFFFFFFFFFFFFFFFFFFF AND DUP2 MSTORE POP POP DUP1 DUP3 PUSH1 0x80 ADD DUP2 SWAP1 MSTORE POP DUP2 PUSH1 0x1 PUSH1 0x0 DUP9 DUP2 MSTORE PUSH1 0x20 ADD SWAP1 DUP2 MSTORE PUSH1 0x20 ADD PUSH1 0x0 KECCAK256 PUSH1 0x0 DUP8 PUSH20 0xFFFFFFFFFFFFFFFFFFFFFFFFFFFFFFFFFFFFFFFF AND PUSH20 0xFFFFFFFFFFFFFFFFFFFFFFFFFFFFFFFFFFFFFFFF AND DUP2 MSTORE PUSH1 0x20 ADD SWAP1 DUP2 MSTORE PUSH1 0x20 ADD PUSH1 0x0 KECCAK256 PUSH1 0x0 DUP3 ADD MLOAD DUP2 PUSH1 0x0 ADD PUSH1 0x0 PUSH2 0x100 EXP DUP2 SLOAD DUP2 PUSH20 0xFFFFFFFFFFFFFFFFFFFFFFFFFFFFFFFFFFFFFFFF MUL NOT AND SWAP1 DUP4 PUSH20 0xFFFFFFFFFFFFFFFFFFFFFFFFFFFFFFFFFFFFFFFF AND MUL OR SWAP1 SSTORE POP PUSH1 0x20 DUP3 ADD MLOAD DUP2 PUSH1 0x1 ADD SSTORE PUSH1 0x40 DUP3 ADD MLOAD DUP2 PUSH1 0x2 ADD PUSH1 0x0 PUSH2 0x100 EXP DUP2 SLOAD DUP2 PUSH1 0xFF MUL NOT AND SWAP1 DUP4 ISZERO ISZERO MUL OR SWAP1 SSTORE POP PUSH1 0x60 DUP3 ADD MLOAD DUP2 PUSH1 0x3 ADD PUSH1 0x0 DUP3 ADD MLOAD DUP2 PUSH1 0x0 ADD PUSH1 0x0 DUP3 ADD MLOAD DUP2 PUSH1 0x0 ADD PUSH1 0x0 PUSH2 0x100 EXP DUP2 SLOAD DUP2 PUSH3 0xFFFFFF MUL NOT AND SWAP1 DUP4 PUSH3 0xFFFFFF AND MUL OR SWAP1 SSTORE POP PUSH1 0x20 DUP3 ADD MLOAD DUP2 PUSH1 0x1 ADD SSTORE PUSH1 0x40 DUP3 ADD MLOAD DUP2 PUSH1 0x2 ADD SSTORE POP POP PUSH1 0x20 DUP3 ADD MLOAD DUP2 PUSH1 0x3 ADD PUSH1 0x0 PUSH2 0x100 EXP DUP2 SLOAD DUP2 PUSH20 0xFFFFFFFFFFFFFFFFFFFFFFFFFFFFFFFFFFFFFFFF MUL NOT AND SWAP1 DUP4 PUSH20 0xFFFFFFFFFFFFFFFFFFFFFFFFFFFFFFFFFFFFFFFF AND MUL OR SWAP1 SSTORE POP PUSH1 0x40 DUP3 ADD MLOAD DUP2 PUSH1 0x4 ADD SSTORE PUSH1 0x60 DUP3 ADD MLOAD DUP2 PUSH1 0x5 ADD PUSH1 0x0 PUSH2 0x100 EXP DUP2 SLOAD DUP2 PUSH20 0xFFFFFFFFFFFFFFFFFFFFFFFFFFFFFFFFFFFFFFFF MUL NOT AND SWAP1 DUP4 PUSH20 0xFFFFFFFFFFFFFFFFFFFFFFFFFFFFFFFFFFFFFFFF AND MUL OR SWAP1 SSTORE POP PUSH1 0x80 DUP3 ADD MLOAD DUP2 PUSH1 0x6 ADD SWAP1 DUP1 MLOAD SWAP1 PUSH1 0x20 ADD SWAP1 PUSH2 0x2D05 SWAP3 SWAP2 SWAP1 PUSH2 0x5F4E JUMP JUMPDEST POP POP POP PUSH1 0x80 DUP3 ADD MLOAD DUP2 PUSH1 0xA ADD PUSH1 0x0 DUP3 ADD MLOAD DUP2 PUSH1 0x0 ADD PUSH1 0x0 PUSH2 0x100 EXP DUP2 SLOAD DUP2 PUSH20 0xFFFFFFFFFFFFFFFFFFFFFFFFFFFFFFFFFFFFFFFF MUL NOT AND SWAP1 DUP4 PUSH20 0xFFFFFFFFFFFFFFFFFFFFFFFFFFFFFFFFFFFFFFFF AND MUL OR SWAP1 SSTORE POP PUSH1 0x20 DUP3 ADD MLOAD DUP2 PUSH1 0x1 ADD PUSH1 0x0 PUSH2 0x100 EXP DUP2 SLOAD DUP2 PUSH20 0xFFFFFFFFFFFFFFFFFFFFFFFFFFFFFFFFFFFFFFFF MUL NOT AND SWAP1 DUP4 PUSH20 0xFFFFFFFFFFFFFFFFFFFFFFFFFFFFFFFFFFFFFFFF AND MUL OR SWAP1 SSTORE POP PUSH1 0x40 DUP3 ADD MLOAD DUP2 PUSH1 0x2 ADD PUSH1 0x0 DUP3 ADD MLOAD DUP2 PUSH1 0x0 ADD PUSH1 0x0 DUP3 ADD MLOAD DUP2 PUSH1 0x0 ADD PUSH1 0x0 PUSH2 0x100 EXP DUP2 SLOAD DUP2 PUSH3 0xFFFFFF MUL NOT AND SWAP1 DUP4 PUSH3 0xFFFFFF AND MUL OR SWAP1 SSTORE POP PUSH1 0x20 DUP3 ADD MLOAD DUP2 PUSH1 0x1 ADD SSTORE PUSH1 0x40 DUP3 ADD MLOAD DUP2 PUSH1 0x2 ADD SSTORE POP POP PUSH1 0x20 DUP3 ADD MLOAD DUP2 PUSH1 0x3 ADD PUSH1 0x0 PUSH2 0x100 EXP DUP2 SLOAD DUP2 PUSH20 0xFFFFFFFFFFFFFFFFFFFFFFFFFFFFFFFFFFFFFFFF MUL NOT AND SWAP1 DUP4 PUSH20 0xFFFFFFFFFFFFFFFFFFFFFFFFFFFFFFFFFFFFFFFF AND MUL OR SWAP1 SSTORE POP PUSH1 0x40 DUP3 ADD MLOAD DUP2 PUSH1 0x4 ADD SSTORE PUSH1 0x60 DUP3 ADD MLOAD DUP2 PUSH1 0x5 ADD PUSH1 0x0 PUSH2 0x100 EXP DUP2 SLOAD DUP2 PUSH20 0xFFFFFFFFFFFFFFFFFFFFFFFFFFFFFFFFFFFFFFFF MUL NOT AND SWAP1 DUP4 PUSH20 0xFFFFFFFFFFFFFFFFFFFFFFFFFFFFFFFFFFFFFFFF AND MUL OR SWAP1 SSTORE POP PUSH1 0x80 DUP3 ADD MLOAD DUP2 PUSH1 0x6 ADD SWAP1 DUP1 MLOAD SWAP1 PUSH1 0x20 ADD SWAP1 PUSH2 0x2EA0 SWAP3 SWAP2 SWAP1 PUSH2 0x5F4E JUMP JUMPDEST POP POP POP PUSH1 0x60 DUP3 ADD MLOAD DUP2 PUSH1 0x9 ADD PUSH1 0x0 DUP3 ADD MLOAD DUP2 PUSH1 0x0 ADD PUSH1 0x0 PUSH2 0x100 EXP DUP2 SLOAD DUP2 PUSH3 0xFFFFFF MUL NOT AND SWAP1 DUP4 PUSH3 0xFFFFFF AND MUL OR SWAP1 SSTORE POP PUSH1 0x20 DUP3 ADD MLOAD DUP2 PUSH1 0x1 ADD SSTORE PUSH1 0x40 DUP3 ADD MLOAD DUP2 PUSH1 0x2 ADD SSTORE POP POP PUSH1 0x80 DUP3 ADD MLOAD DUP2 PUSH1 0xC ADD PUSH1 0x0 DUP3 ADD MLOAD DUP2 PUSH1 0x0 ADD PUSH1 0x0 PUSH2 0x100 EXP DUP2 SLOAD DUP2 PUSH3 0xFFFFFF MUL NOT AND SWAP1 DUP4 PUSH3 0xFFFFFF AND MUL OR SWAP1 SSTORE POP PUSH1 0x20 DUP3 ADD MLOAD DUP2 PUSH1 0x1 ADD SSTORE PUSH1 0x40 DUP3 ADD MLOAD DUP2 PUSH1 0x2 ADD SSTORE POP POP PUSH1 0xA0 DUP3 ADD MLOAD DUP2 PUSH1 0xF ADD PUSH1 0x0 DUP3 ADD MLOAD DUP2 PUSH1 0x0 ADD PUSH1 0x0 PUSH2 0x100 EXP DUP2 SLOAD DUP2 PUSH3 0xFFFFFF MUL NOT AND SWAP1 DUP4 PUSH3 0xFFFFFF AND MUL OR SWAP1 SSTORE POP PUSH1 0x20 DUP3 ADD MLOAD DUP2 PUSH1 0x1 ADD SSTORE PUSH1 0x40 DUP3 ADD MLOAD DUP2 PUSH1 0x2 ADD SSTORE POP POP PUSH1 0xC0 DUP3 ADD MLOAD DUP2 PUSH1 0x12 ADD PUSH1 0x0 DUP3 ADD MLOAD DUP2 PUSH1 0x0 ADD PUSH1 0x0 PUSH2 0x100 EXP DUP2 SLOAD DUP2 PUSH3 0xFFFFFF MUL NOT AND SWAP1 DUP4 PUSH3 0xFFFFFF AND MUL OR SWAP1 SSTORE POP PUSH1 0x20 DUP3 ADD MLOAD DUP2 PUSH1 0x1 ADD SSTORE PUSH1 0x40 DUP3 ADD MLOAD DUP2 PUSH1 0x2 ADD SSTORE POP POP PUSH1 0xE0 DUP3 ADD MLOAD DUP2 PUSH1 0x15 ADD SSTORE PUSH2 0x100 DUP3 ADD MLOAD DUP2 PUSH1 0x16 ADD PUSH1 0x0 PUSH2 0x100 EXP DUP2 SLOAD DUP2 PUSH8 0xFFFFFFFFFFFFFFFF MUL NOT AND SWAP1 DUP4 PUSH8 0xFFFFFFFFFFFFFFFF AND MUL OR SWAP1 SSTORE POP PUSH2 0x120 DUP3 ADD MLOAD DUP2 PUSH1 0x17 ADD SSTORE PUSH2 0x140 DUP3 ADD MLOAD DUP2 PUSH1 0x18 ADD SSTORE POP POP SWAP1 POP POP PUSH1 0x1 DUP2 PUSH1 0xA0 ADD MLOAD PUSH1 0x0 ADD MLOAD PUSH2 0x301D SWAP2 SWAP1 PUSH2 0x7A69 JUMP JUMPDEST PUSH3 0xFFFFFF AND DUP2 PUSH2 0x140 ADD MLOAD EQ ISZERO PUSH2 0x3080 JUMPI PUSH32 0xF4D8FC56E3C807B8A0DA72385D06A7E5CBD9874BEDBD3C059286C0A743D5BA55 DUP7 DUP7 DUP4 PUSH1 0xA0 ADD MLOAD PUSH1 0x40 ADD MLOAD DUP5 PUSH1 0x80 ADD MLOAD PUSH1 0x40 ADD MLOAD PUSH1 0x40 MLOAD PUSH2 0x3073 SWAP5 SWAP4 SWAP3 SWAP2 SWAP1 PUSH2 0x7207 JUMP JUMPDEST PUSH1 0x40 MLOAD DUP1 SWAP2 SUB SWAP1 LOG1 PUSH2 0x30CE JUMP JUMPDEST PUSH32 0xCBD53EA5C10784F2353CB61601322409595E87156306134AD13181D7DB4D1DD5 DUP7 DUP7 DUP4 PUSH1 0xA0 ADD MLOAD PUSH1 0x40 ADD MLOAD DUP5 PUSH1 0x80 ADD MLOAD PUSH1 0x40 ADD MLOAD PUSH1 0x40 MLOAD PUSH2 0x30C5 SWAP5 SWAP4 SWAP3 SWAP2 SWAP1 PUSH2 0x7207 JUMP JUMPDEST PUSH1 0x40 MLOAD DUP1 SWAP2 SUB SWAP1 LOG1 JUMPDEST PUSH1 0x1 SWAP3 POP POP POP SWAP4 SWAP3 POP POP POP JUMP JUMPDEST PUSH1 0x0 PUSH2 0x30E5 PUSH2 0x5FD4 JUMP JUMPDEST PUSH2 0x30ED PUSH2 0x5DE6 JUMP JUMPDEST PUSH1 0x0 PUSH2 0x30F9 DUP12 DUP12 PUSH2 0x17B1 JUMP JUMPDEST SWAP1 POP PUSH1 0x0 DUP10 DUP1 MLOAD SWAP1 PUSH1 0x20 ADD KECCAK256 SWAP1 POP CALLER PUSH20 0xFFFFFFFFFFFFFFFFFFFFFFFFFFFFFFFFFFFFFFFF AND PUSH2 0x3128 DUP14 DUP14 PUSH2 0x803 JUMP JUMPDEST PUSH20 0xFFFFFFFFFFFFFFFFFFFFFFFFFFFFFFFFFFFFFFFF AND EQ PUSH2 0x317E JUMPI PUSH1 0x40 MLOAD PUSH32 0x8C379A000000000000000000000000000000000000000000000000000000000 DUP2 MSTORE PUSH1 0x4 ADD PUSH2 0x3175 SWAP1 PUSH2 0x7714 JUMP JUMPDEST PUSH1 0x40 MLOAD DUP1 SWAP2 SUB SWAP1 REVERT JUMPDEST PUSH2 0x3189 DUP13 DUP13 DUP4 PUSH2 0xB8E JUMP JUMPDEST ISZERO PUSH2 0x31C9 JUMPI PUSH1 0x40 MLOAD PUSH32 0x8C379A000000000000000000000000000000000000000000000000000000000 DUP2 MSTORE PUSH1 0x4 ADD PUSH2 0x31C0 SWAP1 PUSH2 0x7654 JUMP JUMPDEST PUSH1 0x40 MLOAD DUP1 SWAP2 SUB SWAP1 REVERT JUMPDEST PUSH2 0x31D3 DUP13 DUP13 PUSH2 0x438C JUMP JUMPDEST PUSH2 0x3212 JUMPI PUSH1 0x40 MLOAD PUSH32 0x8C379A000000000000000000000000000000000000000000000000000000000 DUP2 MSTORE PUSH1 0x4 ADD PUSH2 0x3209 SWAP1 PUSH2 0x7514 JUMP JUMPDEST PUSH1 0x40 MLOAD DUP1 SWAP2 SUB SWAP1 REVERT JUMPDEST CALLER PUSH20 0xFFFFFFFFFFFFFFFFFFFFFFFFFFFFFFFFFFFFFFFF AND PUSH2 0x3233 DUP14 DUP14 PUSH2 0x17B1 JUMP JUMPDEST PUSH1 0x0 ADD MLOAD PUSH20 0xFFFFFFFFFFFFFFFFFFFFFFFFFFFFFFFFFFFFFFFF AND EQ PUSH2 0x328D JUMPI PUSH1 0x40 MLOAD PUSH32 0x8C379A000000000000000000000000000000000000000000000000000000000 DUP2 MSTORE PUSH1 0x4 ADD PUSH2 0x3284 SWAP1 PUSH2 0x7614 JUMP JUMPDEST PUSH1 0x40 MLOAD DUP1 SWAP2 SUB SWAP1 REVERT JUMPDEST PUSH2 0x3296 DUP11 PUSH2 0x4409 JUMP JUMPDEST SWAP4 POP PUSH2 0x258 PUSH2 0xFFFF AND TIMESTAMP PUSH2 0x32AA SWAP2 SWAP1 PUSH2 0x7AA2 JUMP JUMPDEST DUP4 PUSH2 0x100 ADD SWAP1 PUSH8 0xFFFFFFFFFFFFFFFF AND SWAP1 DUP2 PUSH8 0xFFFFFFFFFFFFFFFF AND DUP2 MSTORE POP POP DUP4 DUP4 PUSH1 0x40 ADD MLOAD PUSH1 0x0 ADD DUP2 SWAP1 MSTORE POP DUP7 DUP4 PUSH1 0x40 ADD MLOAD PUSH1 0x80 ADD DUP2 SWAP1 MSTORE POP DUP6 DUP4 PUSH2 0x120 ADD DUP2 DUP2 MSTORE POP POP DUP11 DUP4 PUSH1 0x0 ADD SWAP1 PUSH20 0xFFFFFFFFFFFFFFFFFFFFFFFFFFFFFFFFFFFFFFFF AND SWAP1 DUP2 PUSH20 0xFFFFFFFFFFFFFFFFFFFFFFFFFFFFFFFFFFFFFFFF AND DUP2 MSTORE POP POP PUSH2 0x3330 DUP10 PUSH2 0x4409 JUMP JUMPDEST DUP4 PUSH1 0xC0 ADD DUP2 SWAP1 MSTORE POP PUSH2 0x3341 DUP9 PUSH2 0x4409 JUMP JUMPDEST DUP4 PUSH1 0x60 ADD DUP2 SWAP1 MSTORE POP DUP3 PUSH1 0xC0 ADD MLOAD DUP4 PUSH1 0x80 ADD DUP2 SWAP1 MSTORE POP DUP2 PUSH1 0x60 ADD MLOAD PUSH1 0x0 ADD MLOAD DUP4 PUSH1 0xA0 ADD DUP2 SWAP1 MSTORE POP DUP3 PUSH1 0x60 ADD MLOAD PUSH1 0x0 ADD MLOAD PUSH3 0xFFFFFF AND DUP4 PUSH2 0x140 ADD DUP2 DUP2 MSTORE POP POP PUSH1 0x6 DUP4 PUSH1 0x40 ADD MLOAD PUSH1 0x0 ADD MLOAD PUSH1 0x0 ADD MLOAD PUSH2 0x3398 SWAP2 SWAP1 PUSH2 0x7A69 JUMP JUMPDEST PUSH3 0xFFFFFF AND DUP4 PUSH1 0xC0 ADD MLOAD PUSH1 0x0 ADD MLOAD PUSH3 0xFFFFFF AND EQ PUSH2 0x33EB JUMPI PUSH1 0x40 MLOAD PUSH32 0x8C379A000000000000000000000000000000000000000000000000000000000 DUP2 MSTORE PUSH1 0x4 ADD PUSH2 0x33E2 SWAP1 PUSH2 0x7734 JUMP JUMPDEST PUSH1 0x40 MLOAD DUP1 SWAP2 SUB SWAP1 REVERT JUMPDEST PUSH1 0x2 DUP4 PUSH2 0x120 ADD MLOAD PUSH2 0x33FD SWAP2 SWAP1 PUSH2 0x7BFD JUMP JUMPDEST DUP4 PUSH1 0x80 ADD MLOAD PUSH1 0x0 ADD MLOAD PUSH3 0xFFFFFF AND PUSH2 0x3415 SWAP2 SWAP1 PUSH2 0x816C JUMP JUMPDEST DUP4 PUSH2 0x140 ADD MLOAD EQ PUSH2 0x345B JUMPI PUSH1 0x40 MLOAD PUSH32 0x8C379A000000000000000000000000000000000000000000000000000000000 DUP2 MSTORE PUSH1 0x4 ADD PUSH2 0x3452 SWAP1 PUSH2 0x74B4 JUMP JUMPDEST PUSH1 0x40 MLOAD DUP1 SWAP2 SUB SWAP1 REVERT JUMPDEST DUP3 DUP3 PUSH1 0x80 ADD DUP2 SWAP1 MSTORE POP DUP2 PUSH1 0x1 PUSH1 0x0 DUP15 DUP2 MSTORE PUSH1 0x20 ADD SWAP1 DUP2 MSTORE PUSH1 0x20 ADD PUSH1 0x0 KECCAK256 PUSH1 0x0 DUP14 PUSH20 0xFFFFFFFFFFFFFFFFFFFFFFFFFFFFFFFFFFFFFFFF AND PUSH20 0xFFFFFFFFFFFFFFFFFFFFFFFFFFFFFFFFFFFFFFFF AND DUP2 MSTORE PUSH1 0x20 ADD SWAP1 DUP2 MSTORE PUSH1 0x20 ADD PUSH1 0x0 KECCAK256 PUSH1 0x0 DUP3 ADD MLOAD DUP2 PUSH1 0x0 ADD PUSH1 0x0 PUSH2 0x100 EXP DUP2 SLOAD DUP2 PUSH20 0xFFFFFFFFFFFFFFFFFFFFFFFFFFFFFFFFFFFFFFFF MUL NOT AND SWAP1 DUP4 PUSH20 0xFFFFFFFFFFFFFFFFFFFFFFFFFFFFFFFFFFFFFFFF AND MUL OR SWAP1 SSTORE POP PUSH1 0x20 DUP3 ADD MLOAD DUP2 PUSH1 0x1 ADD SSTORE PUSH1 0x40 DUP3 ADD MLOAD DUP2 PUSH1 0x2 ADD PUSH1 0x0 PUSH2 0x100 EXP DUP2 SLOAD DUP2 PUSH1 0xFF MUL NOT AND SWAP1 DUP4 ISZERO ISZERO MUL OR SWAP1 SSTORE POP PUSH1 0x60 DUP3 ADD MLOAD DUP2 PUSH1 0x3 ADD PUSH1 0x0 DUP3 ADD MLOAD DUP2 PUSH1 0x0 ADD PUSH1 0x0 DUP3 ADD MLOAD DUP2 PUSH1 0x0 ADD PUSH1 0x0 PUSH2 0x100 EXP DUP2 SLOAD DUP2 PUSH3 0xFFFFFF MUL NOT AND SWAP1 DUP4 PUSH3 0xFFFFFF AND MUL OR SWAP1 SSTORE POP PUSH1 0x20 DUP3 ADD MLOAD DUP2 PUSH1 0x1 ADD SSTORE PUSH1 0x40 DUP3 ADD MLOAD DUP2 PUSH1 0x2 ADD SSTORE POP POP PUSH1 0x20 DUP3 ADD MLOAD DUP2 PUSH1 0x3 ADD PUSH1 0x0 PUSH2 0x100 EXP DUP2 SLOAD DUP2 PUSH20 0xFFFFFFFFFFFFFFFFFFFFFFFFFFFFFFFFFFFFFFFF MUL NOT AND SWAP1 DUP4 PUSH20 0xFFFFFFFFFFFFFFFFFFFFFFFFFFFFFFFFFFFFFFFF AND MUL OR SWAP1 SSTORE POP PUSH1 0x40 DUP3 ADD MLOAD DUP2 PUSH1 0x4 ADD SSTORE PUSH1 0x60 DUP3 ADD MLOAD DUP2 PUSH1 0x5 ADD PUSH1 0x0 PUSH2 0x100 EXP DUP2 SLOAD DUP2 PUSH20 0xFFFFFFFFFFFFFFFFFFFFFFFFFFFFFFFFFFFFFFFF MUL NOT AND SWAP1 DUP4 PUSH20 0xFFFFFFFFFFFFFFFFFFFFFFFFFFFFFFFFFFFFFFFF AND MUL OR SWAP1 SSTORE POP PUSH1 0x80 DUP3 ADD MLOAD DUP2 PUSH1 0x6 ADD SWAP1 DUP1 MLOAD SWAP1 PUSH1 0x20 ADD SWAP1 PUSH2 0x3627 SWAP3 SWAP2 SWAP1 PUSH2 0x5F4E JUMP JUMPDEST POP POP POP PUSH1 0x80 DUP3 ADD MLOAD DUP2 PUSH1 0xA ADD PUSH1 0x0 DUP3 ADD MLOAD DUP2 PUSH1 0x0 ADD PUSH1 0x0 PUSH2 0x100 EXP DUP2 SLOAD DUP2 PUSH20 0xFFFFFFFFFFFFFFFFFFFFFFFFFFFFFFFFFFFFFFFF MUL NOT AND SWAP1 DUP4 PUSH20 0xFFFFFFFFFFFFFFFFFFFFFFFFFFFFFFFFFFFFFFFF AND MUL OR SWAP1 SSTORE POP PUSH1 0x20 DUP3 ADD MLOAD DUP2 PUSH1 0x1 ADD PUSH1 0x0 PUSH2 0x100 EXP DUP2 SLOAD DUP2 PUSH20 0xFFFFFFFFFFFFFFFFFFFFFFFFFFFFFFFFFFFFFFFF MUL NOT AND SWAP1 DUP4 PUSH20 0xFFFFFFFFFFFFFFFFFFFFFFFFFFFFFFFFFFFFFFFF AND MUL OR SWAP1 SSTORE POP PUSH1 0x40 DUP3 ADD MLOAD DUP2 PUSH1 0x2 ADD PUSH1 0x0 DUP3 ADD MLOAD DUP2 PUSH1 0x0 ADD PUSH1 0x0 DUP3 ADD MLOAD DUP2 PUSH1 0x0 ADD PUSH1 0x0 PUSH2 0x100 EXP DUP2 SLOAD DUP2 PUSH3 0xFFFFFF MUL NOT AND SWAP1 DUP4 PUSH3 0xFFFFFF AND MUL OR SWAP1 SSTORE POP PUSH1 0x20 DUP3 ADD MLOAD DUP2 PUSH1 0x1 ADD SSTORE PUSH1 0x40 DUP3 ADD MLOAD DUP2 PUSH1 0x2 ADD SSTORE POP POP PUSH1 0x20 DUP3 ADD MLOAD DUP2 PUSH1 0x3 ADD PUSH1 0x0 PUSH2 0x100 EXP DUP2 SLOAD DUP2 PUSH20 0xFFFFFFFFFFFFFFFFFFFFFFFFFFFFFFFFFFFFFFFF MUL NOT AND SWAP1 DUP4 PUSH20 0xFFFFFFFFFFFFFFFFFFFFFFFFFFFFFFFFFFFFFFFF AND MUL OR SWAP1 SSTORE POP PUSH1 0x40 DUP3 ADD MLOAD DUP2 PUSH1 0x4 ADD SSTORE PUSH1 0x60 DUP3 ADD MLOAD DUP2 PUSH1 0x5 ADD PUSH1 0x0 PUSH2 0x100 EXP DUP2 SLOAD DUP2 PUSH20 0xFFFFFFFFFFFFFFFFFFFFFFFFFFFFFFFFFFFFFFFF MUL NOT AND SWAP1 DUP4 PUSH20 0xFFFFFFFFFFFFFFFFFFFFFFFFFFFFFFFFFFFFFFFF AND MUL OR SWAP1 SSTORE POP PUSH1 0x80 DUP3 ADD MLOAD DUP2 PUSH1 0x6 ADD SWAP1 DUP1 MLOAD SWAP1 PUSH1 0x20 ADD SWAP1 PUSH2 0x37C2 SWAP3 SWAP2 SWAP1 PUSH2 0x5F4E JUMP JUMPDEST POP POP POP PUSH1 0x60 DUP3 ADD MLOAD DUP2 PUSH1 0x9 ADD PUSH1 0x0 DUP3 ADD MLOAD DUP2 PUSH1 0x0 ADD PUSH1 0x0 PUSH2 0x100 EXP DUP2 SLOAD DUP2 PUSH3 0xFFFFFF MUL NOT AND SWAP1 DUP4 PUSH3 0xFFFFFF AND MUL OR SWAP1 SSTORE POP PUSH1 0x20 DUP3 ADD MLOAD DUP2 PUSH1 0x1 ADD SSTORE PUSH1 0x40 DUP3 ADD MLOAD DUP2 PUSH1 0x2 ADD SSTORE POP POP PUSH1 0x80 DUP3 ADD MLOAD DUP2 PUSH1 0xC ADD PUSH1 0x0 DUP3 ADD MLOAD DUP2 PUSH1 0x0 ADD PUSH1 0x0 PUSH2 0x100 EXP DUP2 SLOAD DUP2 PUSH3 0xFFFFFF MUL NOT AND SWAP1 DUP4 PUSH3 0xFFFFFF AND MUL OR SWAP1 SSTORE POP PUSH1 0x20 DUP3 ADD MLOAD DUP2 PUSH1 0x1 ADD SSTORE PUSH1 0x40 DUP3 ADD MLOAD DUP2 PUSH1 0x2 ADD SSTORE POP POP PUSH1 0xA0 DUP3 ADD MLOAD DUP2 PUSH1 0xF ADD PUSH1 0x0 DUP3 ADD MLOAD DUP2 PUSH1 0x0 ADD PUSH1 0x0 PUSH2 0x100 EXP DUP2 SLOAD DUP2 PUSH3 0xFFFFFF MUL NOT AND SWAP1 DUP4 PUSH3 0xFFFFFF AND MUL OR SWAP1 SSTORE POP PUSH1 0x20 DUP3 ADD MLOAD DUP2 PUSH1 0x1 ADD SSTORE PUSH1 0x40 DUP3 ADD MLOAD DUP2 PUSH1 0x2 ADD SSTORE POP POP PUSH1 0xC0 DUP3 ADD MLOAD DUP2 PUSH1 0x12 ADD PUSH1 0x0 DUP3 ADD MLOAD DUP2 PUSH1 0x0 ADD PUSH1 0x0 PUSH2 0x100 EXP DUP2 SLOAD DUP2 PUSH3 0xFFFFFF MUL NOT AND SWAP1 DUP4 PUSH3 0xFFFFFF AND MUL OR SWAP1 SSTORE POP PUSH1 0x20 DUP3 ADD MLOAD DUP2 PUSH1 0x1 ADD SSTORE PUSH1 0x40 DUP3 ADD MLOAD DUP2 PUSH1 0x2 ADD SSTORE POP POP PUSH1 0xE0 DUP3 ADD MLOAD DUP2 PUSH1 0x15 ADD SSTORE PUSH2 0x100 DUP3 ADD MLOAD DUP2 PUSH1 0x16 ADD PUSH1 0x0 PUSH2 0x100 EXP DUP2 SLOAD DUP2 PUSH8 0xFFFFFFFFFFFFFFFF MUL NOT AND SWAP1 DUP4 PUSH8 0xFFFFFFFFFFFFFFFF AND MUL OR SWAP1 SSTORE POP PUSH2 0x120 DUP3 ADD MLOAD DUP2 PUSH1 0x17 ADD SSTORE PUSH2 0x140 DUP3 ADD MLOAD DUP2 PUSH1 0x18 ADD SSTORE POP POP SWAP1 POP POP PUSH32 0xAFCF03085AF91069A019D83A83FB4DE37586712D80F80F9AC3735C4F88ACD9AD DUP13 DUP13 PUSH2 0x3957 DUP16 DUP16 PUSH2 0x17B1 JUMP JUMPDEST PUSH1 0x60 ADD MLOAD PUSH1 0x0 ADD MLOAD PUSH1 0x40 ADD MLOAD DUP7 PUSH1 0xC0 ADD MLOAD PUSH1 0x40 ADD MLOAD DUP8 PUSH1 0x60 ADD MLOAD PUSH1 0x40 ADD MLOAD DUP9 PUSH1 0xC0 ADD MLOAD PUSH1 0x40 ADD MLOAD DUP10 PUSH1 0x40 ADD MLOAD PUSH1 0x80 ADD MLOAD DUP11 PUSH2 0x120 ADD MLOAD DUP12 PUSH2 0x100 ADD MLOAD PUSH1 0x40 MLOAD PUSH2 0x39A8 SWAP10 SWAP9 SWAP8 SWAP7 SWAP6 SWAP5 SWAP4 SWAP3 SWAP2 SWAP1 PUSH2 0x729F JUMP JUMPDEST PUSH1 0x40 MLOAD DUP1 SWAP2 SUB SWAP1 LOG1 PUSH1 0x0 SWAP5 POP POP POP POP POP SWAP8 SWAP7 POP POP POP POP POP POP POP JUMP JUMPDEST PUSH1 0x0 DUP1 PUSH2 0x39D0 DUP10 DUP10 PUSH2 0x17B1 JUMP JUMPDEST SWAP1 POP PUSH1 0x1 DUP2 PUSH1 0x80 ADD MLOAD PUSH1 0xA0 ADD MLOAD PUSH1 0x0 ADD MLOAD PUSH3 0xFFFFFF AND DUP3 PUSH1 0x80 ADD MLOAD PUSH2 0x140 ADD MLOAD PUSH2 0x39FA SWAP2 SWAP1 PUSH2 0x816C JUMP JUMPDEST EQ PUSH2 0x3A3A JUMPI PUSH1 0x40 MLOAD PUSH32 0x8C379A000000000000000000000000000000000000000000000000000000000 DUP2 MSTORE PUSH1 0x4 ADD PUSH2 0x3A31 SWAP1 PUSH2 0x76B4 JUMP JUMPDEST PUSH1 0x40 MLOAD DUP1 SWAP2 SUB SWAP1 REVERT JUMPDEST PUSH1 0x0 PUSH2 0x3A4B DUP11 DUP11 DUP11 DUP11 DUP11 DUP11 DUP11 PUSH2 0x446F JUMP JUMPDEST SWAP1 POP PUSH32 0xF68BEA46BC6FB530EAE297355E0D416E2545678C786C03ED115311DB0DD36140 DUP2 PUSH1 0x40 MLOAD PUSH2 0x3A7C SWAP2 SWAP1 PUSH2 0x7847 JUMP JUMPDEST PUSH1 0x40 MLOAD DUP1 SWAP2 SUB SWAP1 LOG1 DUP1 SWAP3 POP POP POP SWAP8 SWAP7 POP POP POP POP POP POP POP JUMP JUMPDEST PUSH1 0x0 DUP1 PUSH1 0x0 PUSH2 0x3AA3 DUP6 DUP6 PUSH2 0x17B1 JUMP JUMPDEST PUSH1 0x80 ADD MLOAD SWAP1 POP DUP1 PUSH1 0xE0 ADD MLOAD TIMESTAMP LT ISZERO DUP1 ISZERO PUSH2 0x3AE4 JUMPI POP PUSH2 0x3ACA DUP2 PUSH1 0xA0 ADD MLOAD DUP3 PUSH1 0x60 ADD MLOAD PUSH2 0x43B5 JUMP JUMPDEST DUP1 PUSH2 0x3AE3 JUMPI POP PUSH2 0x3AE2 DUP2 PUSH1 0x80 ADD MLOAD DUP3 PUSH1 0x60 ADD MLOAD PUSH2 0x43B5 JUMP JUMPDEST JUMPDEST JUMPDEST ISZERO PUSH2 0x3AF6 JUMPI PUSH1 0x1 DUP1 SWAP3 POP SWAP3 POP POP PUSH2 0x3B50 JUMP JUMPDEST DUP1 PUSH1 0xE0 ADD MLOAD TIMESTAMP LT ISZERO DUP1 ISZERO PUSH2 0x3B34 JUMPI POP PUSH2 0x3B17 DUP2 PUSH1 0xA0 ADD MLOAD DUP3 PUSH1 0x60 ADD MLOAD PUSH2 0x43B5 JUMP JUMPDEST ISZERO DUP1 ISZERO PUSH2 0x3B33 JUMPI POP PUSH2 0x3B31 DUP2 PUSH1 0x80 ADD MLOAD DUP3 PUSH1 0x60 ADD MLOAD PUSH2 0x43B5 JUMP JUMPDEST ISZERO JUMPDEST JUMPDEST ISZERO PUSH2 0x3B47 JUMPI PUSH1 0x1 PUSH1 0x2 SWAP3 POP SWAP3 POP POP PUSH2 0x3B50 JUMP JUMPDEST PUSH1 0x0 DUP1 SWAP3 POP SWAP3 POP POP JUMPDEST SWAP3 POP SWAP3 SWAP1 POP JUMP JUMPDEST PUSH1 0x0 PUSH1 0x1 PUSH1 0x4 PUSH1 0x0 DUP5 PUSH20 0xFFFFFFFFFFFFFFFFFFFFFFFFFFFFFFFFFFFFFFFF AND PUSH20 0xFFFFFFFFFFFFFFFFFFFFFFFFFFFFFFFFFFFFFFFF AND DUP2 MSTORE PUSH1 0x20 ADD SWAP1 DUP2 MSTORE PUSH1 0x20 ADD PUSH1 0x0 KECCAK256 SLOAD PUSH2 0x3BA5 SWAP2 SWAP1 PUSH2 0x7FCE JUMP JUMPDEST SWAP1 POP SWAP2 SWAP1 POP JUMP JUMPDEST PUSH1 0x0 PUSH2 0x3BB9 DUP13 DUP13 DUP12 PUSH2 0xB8E JUMP JUMPDEST PUSH2 0x3BF8 JUMPI PUSH1 0x40 MLOAD PUSH32 0x8C379A000000000000000000000000000000000000000000000000000000000 DUP2 MSTORE PUSH1 0x4 ADD PUSH2 0x3BEF SWAP1 PUSH2 0x76F4 JUMP JUMPDEST PUSH1 0x40 MLOAD DUP1 SWAP2 SUB SWAP1 REVERT JUMPDEST PUSH2 0x3C03 DUP13 DUP13 DUP8 PUSH2 0xE3C JUMP JUMPDEST PUSH2 0x3C42 JUMPI PUSH1 0x40 MLOAD PUSH32 0x8C379A000000000000000000000000000000000000000000000000000000000 DUP2 MSTORE PUSH1 0x4 ADD PUSH2 0x3C39 SWAP1 PUSH2 0x7434 JUMP JUMPDEST PUSH1 0x40 MLOAD DUP1 SWAP2 SUB SWAP1 REVERT JUMPDEST PUSH1 0x1 PUSH2 0x3C51 DUP11 DUP13 DUP12 DUP12 DUP12 PUSH2 0x45F3 JUMP JUMPDEST PUSH1 0xFF AND EQ DUP1 ISZERO PUSH2 0x3C70 JUMPI POP PUSH1 0x1 PUSH2 0x3C6B DUP7 DUP13 DUP8 DUP8 DUP8 PUSH2 0x45F3 JUMP JUMPDEST PUSH1 0xFF AND EQ JUMPDEST ISZERO PUSH2 0x3C7E JUMPI PUSH1 0x1 SWAP1 POP PUSH2 0x3C83 JUMP JUMPDEST PUSH1 0x0 SWAP1 POP JUMPDEST SWAP12 SWAP11 POP POP POP POP POP POP POP POP POP POP POP JUMP JUMPDEST CALLER PUSH20 0xFFFFFFFFFFFFFFFFFFFFFFFFFFFFFFFFFFFFFFFF AND DUP5 PUSH20 0xFFFFFFFFFFFFFFFFFFFFFFFFFFFFFFFFFFFFFFFF AND EQ PUSH2 0x3D00 JUMPI PUSH1 0x40 MLOAD PUSH32 0x8C379A000000000000000000000000000000000000000000000000000000000 DUP2 MSTORE PUSH1 0x4 ADD PUSH2 0x3CF7 SWAP1 PUSH2 0x7474 JUMP JUMPDEST PUSH1 0x40 MLOAD DUP1 SWAP2 SUB SWAP1 REVERT JUMPDEST PUSH2 0x3D0A DUP6 DUP6 PUSH2 0x17B1 JUMP JUMPDEST PUSH1 0x40 ADD MLOAD ISZERO PUSH2 0x3D4E JUMPI PUSH1 0x40 MLOAD PUSH32 0x8C379A000000000000000000000000000000000000000000000000000000000 DUP2 MSTORE PUSH1 0x4 ADD PUSH2 0x3D45 SWAP1 PUSH2 0x74F4 JUMP JUMPDEST PUSH1 0x40 MLOAD DUP1 SWAP2 SUB SWAP1 REVERT JUMPDEST PUSH1 0x0 DUP4 DUP1 MLOAD SWAP1 PUSH1 0x20 ADD KECCAK256 SWAP1 POP PUSH2 0x3D62 PUSH2 0x5E94 JUMP JUMPDEST PUSH2 0x3D6A PUSH2 0x5EEA JUMP JUMPDEST PUSH1 0x0 PUSH2 0x3D75 DUP8 PUSH2 0x461F JUMP JUMPDEST SWAP1 POP PUSH2 0x3D7F PUSH2 0x5FD4 JUMP JUMPDEST DUP5 DUP2 PUSH1 0x40 ADD DUP2 DUP2 MSTORE POP POP DUP2 PUSH1 0xA0 ADD MLOAD DUP2 PUSH1 0x0 ADD SWAP1 PUSH3 0xFFFFFF AND SWAP1 DUP2 PUSH3 0xFFFFFF AND DUP2 MSTORE POP POP DUP2 PUSH1 0x40 ADD MLOAD DUP2 PUSH1 0x20 ADD DUP2 DUP2 MSTORE POP POP DUP10 DUP5 PUSH1 0x20 ADD DUP2 DUP2 MSTORE POP POP CALLER DUP5 PUSH1 0x0 ADD SWAP1 PUSH20 0xFFFFFFFFFFFFFFFFFFFFFFFFFFFFFFFFFFFFFFFF AND SWAP1 DUP2 PUSH20 0xFFFFFFFFFFFFFFFFFFFFFFFFFFFFFFFFFFFFFFFF AND DUP2 MSTORE POP POP PUSH1 0x1 DUP5 PUSH1 0x40 ADD SWAP1 ISZERO ISZERO SWAP1 DUP2 ISZERO ISZERO DUP2 MSTORE POP POP DUP6 DUP4 PUSH1 0x80 ADD DUP2 SWAP1 MSTORE POP DUP1 DUP4 PUSH1 0x0 ADD DUP2 SWAP1 MSTORE POP DUP9 DUP4 PUSH1 0x20 ADD SWAP1 PUSH20 0xFFFFFFFFFFFFFFFFFFFFFFFFFFFFFFFFFFFFFFFF AND SWAP1 DUP2 PUSH20 0xFFFFFFFFFFFFFFFFFFFFFFFFFFFFFFFFFFFFFFFF AND DUP2 MSTORE POP POP DUP5 DUP4 PUSH1 0x40 ADD DUP2 DUP2 MSTORE POP POP DUP3 DUP5 PUSH1 0x60 ADD DUP2 SWAP1 MSTORE POP DUP4 PUSH1 0x1 PUSH1 0x0 DUP13 DUP2 MSTORE PUSH1 0x20 ADD SWAP1 DUP2 MSTORE PUSH1 0x20 ADD PUSH1 0x0 KECCAK256 PUSH1 0x0 DUP12 PUSH20 0xFFFFFFFFFFFFFFFFFFFFFFFFFFFFFFFFFFFFFFFF AND PUSH20 0xFFFFFFFFFFFFFFFFFFFFFFFFFFFFFFFFFFFFFFFF AND DUP2 MSTORE PUSH1 0x20 ADD SWAP1 DUP2 MSTORE PUSH1 0x20 ADD PUSH1 0x0 KECCAK256 PUSH1 0x0 DUP3 ADD MLOAD DUP2 PUSH1 0x0 ADD PUSH1 0x0 PUSH2 0x100 EXP DUP2 SLOAD DUP2 PUSH20 0xFFFFFFFFFFFFFFFFFFFFFFFFFFFFFFFFFFFFFFFF MUL NOT AND SWAP1 DUP4 PUSH20 0xFFFFFFFFFFFFFFFFFFFFFFFFFFFFFFFFFFFFFFFF AND MUL OR SWAP1 SSTORE POP PUSH1 0x20 DUP3 ADD MLOAD DUP2 PUSH1 0x1 ADD SSTORE PUSH1 0x40 DUP3 ADD MLOAD DUP2 PUSH1 0x2 ADD PUSH1 0x0 PUSH2 0x100 EXP DUP2 SLOAD DUP2 PUSH1 0xFF MUL NOT AND SWAP1 DUP4 ISZERO ISZERO MUL OR SWAP1 SSTORE POP PUSH1 0x60 DUP3 ADD MLOAD DUP2 PUSH1 0x3 ADD PUSH1 0x0 DUP3 ADD MLOAD DUP2 PUSH1 0x0 ADD PUSH1 0x0 DUP3 ADD MLOAD DUP2 PUSH1 0x0 ADD PUSH1 0x0 PUSH2 0x100 EXP DUP2 SLOAD DUP2 PUSH3 0xFFFFFF MUL NOT AND SWAP1 DUP4 PUSH3 0xFFFFFF AND MUL OR SWAP1 SSTORE POP PUSH1 0x20 DUP3 ADD MLOAD DUP2 PUSH1 0x1 ADD SSTORE PUSH1 0x40 DUP3 ADD MLOAD DUP2 PUSH1 0x2 ADD SSTORE POP POP PUSH1 0x20 DUP3 ADD MLOAD DUP2 PUSH1 0x3 ADD PUSH1 0x0 PUSH2 0x100 EXP DUP2 SLOAD DUP2 PUSH20 0xFFFFFFFFFFFFFFFFFFFFFFFFFFFFFFFFFFFFFFFF MUL NOT AND SWAP1 DUP4 PUSH20 0xFFFFFFFFFFFFFFFFFFFFFFFFFFFFFFFFFFFFFFFF AND MUL OR SWAP1 SSTORE POP PUSH1 0x40 DUP3 ADD MLOAD DUP2 PUSH1 0x4 ADD SSTORE PUSH1 0x60 DUP3 ADD MLOAD DUP2 PUSH1 0x5 ADD PUSH1 0x0 PUSH2 0x100 EXP DUP2 SLOAD DUP2 PUSH20 0xFFFFFFFFFFFFFFFFFFFFFFFFFFFFFFFFFFFFFFFF MUL NOT AND SWAP1 DUP4 PUSH20 0xFFFFFFFFFFFFFFFFFFFFFFFFFFFFFFFFFFFFFFFF AND MUL OR SWAP1 SSTORE POP PUSH1 0x80 DUP3 ADD MLOAD DUP2 PUSH1 0x6 ADD SWAP1 DUP1 MLOAD SWAP1 PUSH1 0x20 ADD SWAP1 PUSH2 0x4024 SWAP3 SWAP2 SWAP1 PUSH2 0x5F4E JUMP JUMPDEST POP POP POP PUSH1 0x80 DUP3 ADD MLOAD DUP2 PUSH1 0xA ADD PUSH1 0x0 DUP3 ADD MLOAD DUP2 PUSH1 0x0 ADD PUSH1 0x0 PUSH2 0x100 EXP DUP2 SLOAD DUP2 PUSH20 0xFFFFFFFFFFFFFFFFFFFFFFFFFFFFFFFFFFFFFFFF MUL NOT AND SWAP1 DUP4 PUSH20 0xFFFFFFFFFFFFFFFFFFFFFFFFFFFFFFFFFFFFFFFF AND MUL OR SWAP1 SSTORE POP PUSH1 0x20 DUP3 ADD MLOAD DUP2 PUSH1 0x1 ADD PUSH1 0x0 PUSH2 0x100 EXP DUP2 SLOAD DUP2 PUSH20 0xFFFFFFFFFFFFFFFFFFFFFFFFFFFFFFFFFFFFFFFF MUL NOT AND SWAP1 DUP4 PUSH20 0xFFFFFFFFFFFFFFFFFFFFFFFFFFFFFFFFFFFFFFFF AND MUL OR SWAP1 SSTORE POP PUSH1 0x40 DUP3 ADD MLOAD DUP2 PUSH1 0x2 ADD PUSH1 0x0 DUP3 ADD MLOAD DUP2 PUSH1 0x0 ADD PUSH1 0x0 DUP3 ADD MLOAD DUP2 PUSH1 0x0 ADD PUSH1 0x0 PUSH2 0x100 EXP DUP2 SLOAD DUP2 PUSH3 0xFFFFFF MUL NOT AND SWAP1 DUP4 PUSH3 0xFFFFFF AND MUL OR SWAP1 SSTORE POP PUSH1 0x20 DUP3 ADD MLOAD DUP2 PUSH1 0x1 ADD SSTORE PUSH1 0x40 DUP3 ADD MLOAD DUP2 PUSH1 0x2 ADD SSTORE POP POP PUSH1 0x20 DUP3 ADD MLOAD DUP2 PUSH1 0x3 ADD PUSH1 0x0 PUSH2 0x100 EXP DUP2 SLOAD DUP2 PUSH20 0xFFFFFFFFFFFFFFFFFFFFFFFFFFFFFFFFFFFFFFFF MUL NOT AND SWAP1 DUP4 PUSH20 0xFFFFFFFFFFFFFFFFFFFFFFFFFFFFFFFFFFFFFFFF AND MUL OR SWAP1 SSTORE POP PUSH1 0x40 DUP3 ADD MLOAD DUP2 PUSH1 0x4 ADD SSTORE PUSH1 0x60 DUP3 ADD MLOAD DUP2 PUSH1 0x5 ADD PUSH1 0x0 PUSH2 0x100 EXP DUP2 SLOAD DUP2 PUSH20 0xFFFFFFFFFFFFFFFFFFFFFFFFFFFFFFFFFFFFFFFF MUL NOT AND SWAP1 DUP4 PUSH20 0xFFFFFFFFFFFFFFFFFFFFFFFFFFFFFFFFFFFFFFFF AND MUL OR SWAP1 SSTORE POP PUSH1 0x80 DUP3 ADD MLOAD DUP2 PUSH1 0x6 ADD SWAP1 DUP1 MLOAD SWAP1 PUSH1 0x20 ADD SWAP1 PUSH2 0x41BF SWAP3 SWAP2 SWAP1 PUSH2 0x5F4E JUMP JUMPDEST POP POP POP PUSH1 0x60 DUP3 ADD MLOAD DUP2 PUSH1 0x9 ADD PUSH1 0x0 DUP3 ADD MLOAD DUP2 PUSH1 0x0 ADD PUSH1 0x0 PUSH2 0x100 EXP DUP2 SLOAD DUP2 PUSH3 0xFFFFFF MUL NOT AND SWAP1 DUP4 PUSH3 0xFFFFFF AND MUL OR SWAP1 SSTORE POP PUSH1 0x20 DUP3 ADD MLOAD DUP2 PUSH1 0x1 ADD SSTORE PUSH1 0x40 DUP3 ADD MLOAD DUP2 PUSH1 0x2 ADD SSTORE POP POP PUSH1 0x80 DUP3 ADD MLOAD DUP2 PUSH1 0xC ADD PUSH1 0x0 DUP3 ADD MLOAD DUP2 PUSH1 0x0 ADD PUSH1 0x0 PUSH2 0x100 EXP DUP2 SLOAD DUP2 PUSH3 0xFFFFFF MUL NOT AND SWAP1 DUP4 PUSH3 0xFFFFFF AND MUL OR SWAP1 SSTORE POP PUSH1 0x20 DUP3 ADD MLOAD DUP2 PUSH1 0x1 ADD SSTORE PUSH1 0x40 DUP3 ADD MLOAD DUP2 PUSH1 0x2 ADD SSTORE POP POP PUSH1 0xA0 DUP3 ADD MLOAD DUP2 PUSH1 0xF ADD PUSH1 0x0 DUP3 ADD MLOAD DUP2 PUSH1 0x0 ADD PUSH1 0x0 PUSH2 0x100 EXP DUP2 SLOAD DUP2 PUSH3 0xFFFFFF MUL NOT AND SWAP1 DUP4 PUSH3 0xFFFFFF AND MUL OR SWAP1 SSTORE POP PUSH1 0x20 DUP3 ADD MLOAD DUP2 PUSH1 0x1 ADD SSTORE PUSH1 0x40 DUP3 ADD MLOAD DUP2 PUSH1 0x2 ADD SSTORE POP POP PUSH1 0xC0 DUP3 ADD MLOAD DUP2 PUSH1 0x12 ADD PUSH1 0x0 DUP3 ADD MLOAD DUP2 PUSH1 0x0 ADD PUSH1 0x0 PUSH2 0x100 EXP DUP2 SLOAD DUP2 PUSH3 0xFFFFFF MUL NOT AND SWAP1 DUP4 PUSH3 0xFFFFFF AND MUL OR SWAP1 SSTORE POP PUSH1 0x20 DUP3 ADD MLOAD DUP2 PUSH1 0x1 ADD SSTORE PUSH1 0x40 DUP3 ADD MLOAD DUP2 PUSH1 0x2 ADD SSTORE POP POP PUSH1 0xE0 DUP3 ADD MLOAD DUP2 PUSH1 0x15 ADD SSTORE PUSH2 0x100 DUP3 ADD MLOAD DUP2 PUSH1 0x16 ADD PUSH1 0x0 PUSH2 0x100 EXP DUP2 SLOAD DUP2 PUSH8 0xFFFFFFFFFFFFFFFF MUL NOT AND SWAP1 DUP4 PUSH8 0xFFFFFFFFFFFFFFFF AND MUL OR SWAP1 SSTORE POP PUSH2 0x120 DUP3 ADD MLOAD DUP2 PUSH1 0x17 ADD SSTORE PUSH2 0x140 DUP3 ADD MLOAD DUP2 PUSH1 0x18 ADD SSTORE POP POP SWAP1 POP POP PUSH32 0xD8AC5F1C08AF7FA5C18F884FB1B8CCE9877844992173A5958A4B8237AD9B74D9 DUP11 DUP11 DUP6 PUSH1 0x0 ADD MLOAD PUSH1 0x20 ADD MLOAD DUP7 PUSH1 0x0 ADD MLOAD PUSH1 0x40 ADD MLOAD DUP8 PUSH1 0x80 ADD MLOAD DUP9 PUSH1 0x60 ADD MLOAD PUSH1 0x40 MLOAD PUSH2 0x4378 SWAP7 SWAP6 SWAP5 SWAP4 SWAP3 SWAP2 SWAP1 PUSH2 0x7333 JUMP JUMPDEST PUSH1 0x40 MLOAD DUP1 SWAP2 SUB SWAP1 LOG1 POP POP POP POP POP POP POP POP POP POP JUMP JUMPDEST PUSH1 0x0 TIMESTAMP PUSH2 0x4399 DUP5 DUP5 PUSH2 0x17B1 JUMP JUMPDEST PUSH1 0x80 ADD MLOAD PUSH2 0x100 ADD MLOAD PUSH8 0xFFFFFFFFFFFFFFFF AND LT SWAP1 POP SWAP3 SWAP2 POP POP JUMP JUMPDEST PUSH1 0x0 DUP2 PUSH1 0x40 ADD MLOAD DUP4 PUSH1 0x40 ADD MLOAD EQ DUP1 PUSH2 0x43DE JUMPI POP DUP2 PUSH1 0x0 ADD MLOAD PUSH3 0xFFFFFF AND DUP4 PUSH1 0x0 ADD MLOAD PUSH3 0xFFFFFF AND EQ JUMPDEST DUP1 PUSH2 0x43F0 JUMPI POP DUP2 PUSH1 0x20 ADD MLOAD DUP4 PUSH1 0x20 ADD MLOAD EQ JUMPDEST ISZERO PUSH2 0x43FE JUMPI PUSH1 0x1 SWAP1 POP PUSH2 0x4403 JUMP JUMPDEST PUSH1 0x0 SWAP1 POP JUMPDEST SWAP3 SWAP2 POP POP JUMP JUMPDEST PUSH2 0x4411 PUSH2 0x5FD4 JUMP JUMPDEST PUSH1 0x0 PUSH2 0x441C DUP4 PUSH2 0x461F JUMP JUMPDEST SWAP1 POP PUSH2 0x4426 PUSH2 0x5FD4 JUMP JUMPDEST PUSH1 0x0 DUP5 DUP1 MLOAD SWAP1 PUSH1 0x20 ADD KECCAK256 SWAP1 POP DUP1 DUP3 PUSH1 0x40 ADD DUP2 DUP2 MSTORE POP POP DUP3 PUSH1 0xA0 ADD MLOAD DUP3 PUSH1 0x0 ADD SWAP1 PUSH3 0xFFFFFF AND SWAP1 DUP2 PUSH3 0xFFFFFF AND DUP2 MSTORE POP POP DUP3 PUSH1 0x40 ADD MLOAD DUP3 PUSH1 0x20 ADD DUP2 DUP2 MSTORE POP POP DUP2 SWAP4 POP POP POP POP SWAP2 SWAP1 POP JUMP JUMPDEST PUSH1 0x0 DUP1 PUSH1 0x0 DUP1 PUSH1 0x0 PUSH2 0x44C7 DUP13 DUP13 DUP13 DUP13 DUP1 DUP1 PUSH1 0x1F ADD PUSH1 0x20 DUP1 SWAP2 DIV MUL PUSH1 0x20 ADD PUSH1 0x40 MLOAD SWAP1 DUP2 ADD PUSH1 0x40 MSTORE DUP1 SWAP4 SWAP3 SWAP2 SWAP1 DUP2 DUP2 MSTORE PUSH1 0x20 ADD DUP4 DUP4 DUP1 DUP3 DUP5 CALLDATACOPY PUSH1 0x0 DUP2 DUP5 ADD MSTORE PUSH1 0x1F NOT PUSH1 0x1F DUP3 ADD AND SWAP1 POP DUP1 DUP4 ADD SWAP3 POP POP POP POP POP POP POP DUP12 PUSH2 0x487B JUMP JUMPDEST DUP1 SWAP5 POP DUP2 SWAP6 POP DUP3 SWAP7 POP DUP4 SWAP8 POP POP POP POP POP PUSH1 0x0 DUP5 EQ ISZERO PUSH2 0x45E1 JUMPI PUSH1 0x0 DUP1 PUSH1 0x0 SWAP1 SLOAD SWAP1 PUSH2 0x100 EXP SWAP1 DIV PUSH20 0xFFFFFFFFFFFFFFFFFFFFFFFFFFFFFFFFFFFFFFFF AND PUSH20 0xFFFFFFFFFFFFFFFFFFFFFFFFFFFFFFFFFFFFFFFF AND PUSH4 0x29E265DF DUP6 PUSH2 0x452A DUP15 DUP15 PUSH2 0x49EC JUMP JUMPDEST DUP7 DUP7 DUP14 DUP14 PUSH1 0x40 MLOAD DUP8 PUSH4 0xFFFFFFFF AND PUSH1 0xE0 SHL DUP2 MSTORE PUSH1 0x4 ADD PUSH2 0x454F SWAP7 SWAP6 SWAP5 SWAP4 SWAP3 SWAP2 SWAP1 PUSH2 0x77D8 JUMP JUMPDEST PUSH1 0x40 DUP1 MLOAD DUP1 DUP4 SUB DUP2 DUP7 DUP1 EXTCODESIZE ISZERO DUP1 ISZERO PUSH2 0x4566 JUMPI PUSH1 0x0 DUP1 REVERT JUMPDEST POP GAS STATICCALL ISZERO DUP1 ISZERO PUSH2 0x457A JUMPI RETURNDATASIZE PUSH1 0x0 DUP1 RETURNDATACOPY RETURNDATASIZE PUSH1 0x0 REVERT JUMPDEST POP POP POP POP PUSH1 0x40 MLOAD RETURNDATASIZE PUSH1 0x1F NOT PUSH1 0x1F DUP3 ADD AND DUP3 ADD DUP1 PUSH1 0x40 MSTORE POP DUP2 ADD SWAP1 PUSH2 0x459E SWAP2 SWAP1 PUSH2 0x67BB JUMP JUMPDEST DUP1 SWAP3 POP DUP2 SWAP7 POP POP POP PUSH32 0x368FEE0C56AE41C07D7C93332427C609564426AE664E6298300F00514AEBE48E DUP6 DUP3 PUSH1 0x40 MLOAD PUSH2 0x45D7 SWAP3 SWAP2 SWAP1 PUSH2 0x7862 JUMP JUMPDEST PUSH1 0x40 MLOAD DUP1 SWAP2 SUB SWAP1 LOG1 POP JUMPDEST DUP4 SWAP5 POP POP POP POP POP SWAP8 SWAP7 POP POP POP POP POP POP POP JUMP JUMPDEST PUSH1 0x0 DUP1 PUSH2 0x4602 DUP7 DUP7 DUP7 DUP7 PUSH2 0x4BFD JUMP JUMPDEST GT ISZERO PUSH2 0x4611 JUMPI PUSH1 0x1 SWAP1 POP PUSH2 0x4616 JUMP JUMPDEST PUSH1 0x0 SWAP1 POP JUMPDEST SWAP6 SWAP5 POP POP POP POP POP JUMP JUMPDEST PUSH2 0x4627 PUSH2 0x6000 JUMP JUMPDEST PUSH2 0x462F PUSH2 0x6000 JUMP JUMPDEST PUSH1 0x0 PUSH2 0x4642 PUSH2 0x463D DUP6 PUSH2 0x4F0A JUMP JUMPDEST PUSH2 0x4F38 JUMP JUMPDEST SWAP1 POP PUSH1 0x0 JUMPDEST PUSH2 0x4650 DUP3 PUSH2 0x4F8F JUMP JUMPDEST ISZERO PUSH2 0x4870 JUMPI PUSH1 0x0 DUP2 EQ ISZERO PUSH2 0x4680 JUMPI PUSH2 0x466F PUSH2 0x466A DUP4 PUSH2 0x4FBB JUMP JUMPDEST PUSH2 0x501E JUMP JUMPDEST PUSH1 0x0 SHL DUP4 PUSH1 0x0 ADD DUP2 DUP2 MSTORE POP POP PUSH2 0x485D JUMP JUMPDEST PUSH1 0x1 DUP2 EQ ISZERO PUSH2 0x46AB JUMPI PUSH2 0x469A PUSH2 0x4695 DUP4 PUSH2 0x4FBB JUMP JUMPDEST PUSH2 0x501E JUMP JUMPDEST PUSH1 0x0 SHL DUP4 PUSH1 0x20 ADD DUP2 DUP2 MSTORE POP POP PUSH2 0x485C JUMP JUMPDEST PUSH1 0x3 DUP2 EQ ISZERO PUSH2 0x46D6 JUMPI PUSH2 0x46C5 PUSH2 0x46C0 DUP4 PUSH2 0x4FBB JUMP JUMPDEST PUSH2 0x501E JUMP JUMPDEST PUSH1 0x0 SHL DUP4 PUSH1 0x40 ADD DUP2 DUP2 MSTORE POP POP PUSH2 0x485B JUMP JUMPDEST PUSH1 0x4 DUP2 EQ ISZERO PUSH2 0x4701 JUMPI PUSH2 0x46F0 PUSH2 0x46EB DUP4 PUSH2 0x4FBB JUMP JUMPDEST PUSH2 0x501E JUMP JUMPDEST PUSH1 0x0 SHL DUP4 PUSH1 0x60 ADD DUP2 DUP2 MSTORE POP POP PUSH2 0x485A JUMP JUMPDEST PUSH1 0x5 DUP2 EQ ISZERO PUSH2 0x472C JUMPI PUSH2 0x471B PUSH2 0x4716 DUP4 PUSH2 0x4FBB JUMP JUMPDEST PUSH2 0x501E JUMP JUMPDEST PUSH1 0x0 SHL DUP4 PUSH1 0x80 ADD DUP2 DUP2 MSTORE POP POP PUSH2 0x4859 JUMP JUMPDEST PUSH1 0x7 DUP2 EQ ISZERO PUSH2 0x4755 JUMPI PUSH2 0x4746 PUSH2 0x4741 DUP4 PUSH2 0x4FBB JUMP JUMPDEST PUSH2 0x501E JUMP JUMPDEST DUP4 PUSH2 0x160 ADD DUP2 DUP2 MSTORE POP POP PUSH2 0x4858 JUMP JUMPDEST PUSH1 0x8 DUP2 EQ ISZERO PUSH2 0x477D JUMPI PUSH2 0x476F PUSH2 0x476A DUP4 PUSH2 0x4FBB JUMP JUMPDEST PUSH2 0x501E JUMP JUMPDEST DUP4 PUSH1 0xA0 ADD DUP2 DUP2 MSTORE POP POP PUSH2 0x4857 JUMP JUMPDEST PUSH1 0x9 DUP2 EQ ISZERO PUSH2 0x47A5 JUMPI PUSH2 0x4797 PUSH2 0x4792 DUP4 PUSH2 0x4FBB JUMP JUMPDEST PUSH2 0x501E JUMP JUMPDEST DUP4 PUSH1 0xC0 ADD DUP2 DUP2 MSTORE POP POP PUSH2 0x4856 JUMP JUMPDEST PUSH1 0xA DUP2 EQ ISZERO PUSH2 0x47CD JUMPI PUSH2 0x47BF PUSH2 0x47BA DUP4 PUSH2 0x4FBB JUMP JUMPDEST PUSH2 0x501E JUMP JUMPDEST DUP4 PUSH1 0xE0 ADD DUP2 DUP2 MSTORE POP POP PUSH2 0x4855 JUMP JUMPDEST PUSH1 0xB DUP2 EQ ISZERO PUSH2 0x47F6 JUMPI PUSH2 0x47E7 PUSH2 0x47E2 DUP4 PUSH2 0x4FBB JUMP JUMPDEST PUSH2 0x501E JUMP JUMPDEST DUP4 PUSH2 0x120 ADD DUP2 DUP2 MSTORE POP POP PUSH2 0x4854 JUMP JUMPDEST PUSH1 0xC DUP2 EQ ISZERO PUSH2 0x481E JUMPI PUSH2 0x4810 PUSH2 0x480B DUP4 PUSH2 0x4FBB JUMP JUMPDEST PUSH2 0x50A1 JUMP JUMPDEST DUP4 PUSH2 0x180 ADD DUP2 SWAP1 MSTORE POP PUSH2 0x4853 JUMP JUMPDEST PUSH1 0xE DUP2 EQ ISZERO PUSH2 0x4847 JUMPI PUSH2 0x4838 PUSH2 0x4833 DUP4 PUSH2 0x4FBB JUMP JUMPDEST PUSH2 0x501E JUMP JUMPDEST DUP4 PUSH2 0x140 ADD DUP2 DUP2 MSTORE POP POP PUSH2 0x4852 JUMP JUMPDEST PUSH2 0x4850 DUP3 PUSH2 0x4FBB JUMP JUMPDEST POP JUMPDEST JUMPDEST JUMPDEST JUMPDEST JUMPDEST JUMPDEST JUMPDEST JUMPDEST JUMPDEST JUMPDEST JUMPDEST JUMPDEST DUP1 DUP1 PUSH2 0x4868 SWAP1 PUSH2 0x8348 JUMP JUMPDEST SWAP2 POP POP PUSH2 0x4647 JUMP JUMPDEST DUP3 SWAP4 POP POP POP POP SWAP2 SWAP1 POP JUMP JUMPDEST PUSH1 0x0 DUP1 PUSH1 0x0 DUP1 PUSH1 0x0 DUP6 DUP1 MLOAD SWAP1 PUSH1 0x20 ADD KECCAK256 SWAP1 POP PUSH1 0x0 PUSH2 0x4899 DUP11 DUP11 PUSH2 0x17B1 JUMP JUMPDEST SWAP1 POP PUSH1 0x0 DUP2 PUSH1 0x80 ADD MLOAD SWAP1 POP DUP3 DUP2 PUSH1 0xA0 ADD MLOAD PUSH1 0x40 ADD MLOAD EQ PUSH2 0x48EE JUMPI PUSH1 0x40 MLOAD PUSH32 0x8C379A000000000000000000000000000000000000000000000000000000000 DUP2 MSTORE PUSH1 0x4 ADD PUSH2 0x48E5 SWAP1 PUSH2 0x76D4 JUMP JUMPDEST PUSH1 0x40 MLOAD DUP1 SWAP2 SUB SWAP1 REVERT JUMPDEST PUSH2 0x48F8 DUP12 DUP12 PUSH2 0x438C JUMP JUMPDEST ISZERO PUSH2 0x4938 JUMPI PUSH1 0x40 MLOAD PUSH32 0x8C379A000000000000000000000000000000000000000000000000000000000 DUP2 MSTORE PUSH1 0x4 ADD PUSH2 0x492F SWAP1 PUSH2 0x75F4 JUMP JUMPDEST PUSH1 0x40 MLOAD DUP1 SWAP2 SUB SWAP1 REVERT JUMPDEST PUSH1 0x0 PUSH2 0x4943 DUP11 PUSH2 0x4409 JUMP JUMPDEST SWAP1 POP PUSH1 0x0 PUSH2 0x4950 DUP11 PUSH2 0x4409 JUMP JUMPDEST SWAP1 POP PUSH2 0x495E DUP14 DUP14 DUP5 DUP5 PUSH2 0x5158 JUMP JUMPDEST PUSH2 0x499D JUMPI PUSH1 0x40 MLOAD PUSH32 0x8C379A000000000000000000000000000000000000000000000000000000000 DUP2 MSTORE PUSH1 0x4 ADD PUSH2 0x4994 SWAP1 PUSH2 0x7454 JUMP JUMPDEST PUSH1 0x40 MLOAD DUP1 SWAP2 SUB SWAP1 REVERT JUMPDEST PUSH1 0x0 PUSH2 0x49A8 DUP13 PUSH2 0x461F JUMP JUMPDEST SWAP1 POP PUSH1 0x0 PUSH2 0x49B5 DUP13 PUSH2 0x461F JUMP JUMPDEST SWAP1 POP PUSH2 0x49C1 DUP3 DUP3 PUSH2 0x51BA JUMP JUMPDEST DUP5 PUSH1 0x0 ADD MLOAD DUP4 PUSH2 0x140 ADD MLOAD DUP5 PUSH2 0x160 ADD MLOAD SWAP11 POP SWAP11 POP SWAP11 POP SWAP11 POP POP POP POP POP POP POP POP SWAP5 POP SWAP5 POP SWAP5 POP SWAP5 SWAP1 POP JUMP JUMPDEST PUSH1 0x0 DUP1 PUSH2 0x4A44 PUSH2 0x4A3F DUP6 DUP6 DUP1 DUP1 PUSH1 0x1F ADD PUSH1 0x20 DUP1 SWAP2 DIV MUL PUSH1 0x20 ADD PUSH1 0x40 MLOAD SWAP1 DUP2 ADD PUSH1 0x40 MSTORE DUP1 SWAP4 SWAP3 SWAP2 SWAP1 DUP2 DUP2 MSTORE PUSH1 0x20 ADD DUP4 DUP4 DUP1 DUP3 DUP5 CALLDATACOPY PUSH1 0x0 DUP2 DUP5 ADD MSTORE PUSH1 0x1F NOT PUSH1 0x1F DUP3 ADD AND SWAP1 POP DUP1 DUP4 ADD SWAP3 POP POP POP POP POP POP POP PUSH2 0x4F0A JUMP JUMPDEST PUSH2 0x4F38 JUMP JUMPDEST SWAP1 POP PUSH1 0x0 PUSH1 0x3 SWAP1 POP PUSH1 0x0 DUP1 PUSH1 0x0 JUMPDEST PUSH2 0x4A5B DUP6 PUSH2 0x4F8F JUMP JUMPDEST ISZERO PUSH2 0x4AB2 JUMPI PUSH1 0xD DUP4 EQ ISZERO PUSH2 0x4A6D JUMPI DUP4 SWAP2 POP JUMPDEST PUSH1 0x0 PUSH2 0x4A78 DUP7 PUSH2 0x4FBB JUMP JUMPDEST SWAP1 POP DUP1 PUSH1 0x0 ADD MLOAD DUP6 PUSH2 0x4A8A SWAP2 SWAP1 PUSH2 0x7AA2 JUMP JUMPDEST SWAP5 POP PUSH1 0xE DUP5 EQ ISZERO PUSH2 0x4A9E JUMPI DUP5 SWAP2 POP POP PUSH2 0x4AB2 JUMP JUMPDEST DUP4 DUP1 PUSH2 0x4AA9 SWAP1 PUSH2 0x8348 JUMP JUMPDEST SWAP5 POP POP POP PUSH2 0x4A52 JUMP JUMPDEST PUSH1 0x0 DUP9 DUP9 PUSH1 0x0 SWAP1 DUP6 SWAP3 PUSH2 0x4AC7 SWAP4 SWAP3 SWAP2 SWAP1 PUSH2 0x799A JUMP JUMPDEST DUP11 DUP11 DUP6 SWAP1 DUP1 SWAP3 PUSH2 0x4AD9 SWAP4 SWAP3 SWAP2 SWAP1 PUSH2 0x799A JUMP JUMPDEST PUSH1 0x40 MLOAD PUSH1 0x20 ADD PUSH2 0x4AEC SWAP5 SWAP4 SWAP3 SWAP2 SWAP1 PUSH2 0x70FE JUMP JUMPDEST PUSH1 0x40 MLOAD PUSH1 0x20 DUP2 DUP4 SUB SUB DUP2 MSTORE SWAP1 PUSH1 0x40 MSTORE SWAP1 POP PUSH1 0x0 DUP4 DUP4 PUSH2 0x4B0B SWAP2 SWAP1 PUSH2 0x816C JUMP JUMPDEST PUSH1 0x3 DUP12 DUP12 SWAP1 POP PUSH2 0x4B1B SWAP2 SWAP1 PUSH2 0x816C JUMP JUMPDEST PUSH2 0x4B25 SWAP2 SWAP1 PUSH2 0x816C JUMP JUMPDEST SWAP1 POP PUSH1 0x0 DUP2 PUSH1 0xF0 SHL SWAP1 POP DUP1 PUSH1 0x0 PUSH1 0x2 DUP2 LT PUSH2 0x4B43 JUMPI PUSH2 0x4B42 PUSH2 0x8480 JUMP JUMPDEST JUMPDEST BYTE PUSH1 0xF8 SHL DUP4 PUSH1 0x1 DUP2 MLOAD DUP2 LT PUSH2 0x4B5B JUMPI PUSH2 0x4B5A PUSH2 0x8480 JUMP JUMPDEST JUMPDEST PUSH1 0x20 ADD ADD SWAP1 PUSH31 0xFFFFFFFFFFFFFFFFFFFFFFFFFFFFFFFFFFFFFFFFFFFFFFFFFFFFFFFFFFFFFF NOT AND SWAP1 DUP2 PUSH1 0x0 BYTE SWAP1 MSTORE8 POP DUP1 PUSH1 0x1 PUSH1 0x2 DUP2 LT PUSH2 0x4B9E JUMPI PUSH2 0x4B9D PUSH2 0x8480 JUMP JUMPDEST JUMPDEST BYTE PUSH1 0xF8 SHL DUP4 PUSH1 0x2 DUP2 MLOAD DUP2 LT PUSH2 0x4BB6 JUMPI PUSH2 0x4BB5 PUSH2 0x8480 JUMP JUMPDEST JUMPDEST PUSH1 0x20 ADD ADD SWAP1 PUSH31 0xFFFFFFFFFFFFFFFFFFFFFFFFFFFFFFFFFFFFFFFFFFFFFFFFFFFFFFFFFFFFFF NOT AND SWAP1 DUP2 PUSH1 0x0 BYTE SWAP1 MSTORE8 POP DUP3 DUP1 MLOAD SWAP1 PUSH1 0x20 ADD KECCAK256 SWAP9 POP POP POP POP POP POP POP POP POP SWAP3 SWAP2 POP POP JUMP JUMPDEST PUSH1 0x0 DUP1 PUSH2 0x4C09 DUP5 PUSH2 0x4F0A JUMP JUMPDEST SWAP1 POP PUSH1 0x0 PUSH2 0x4C16 DUP3 PUSH2 0x52E1 JUMP JUMPDEST SWAP1 POP PUSH1 0x60 DUP1 PUSH1 0x0 DUP7 SWAP1 POP PUSH1 0x0 DUP1 PUSH2 0x4C2C DUP12 PUSH2 0x53F6 JUMP JUMPDEST SWAP1 POP PUSH1 0x0 DUP2 MLOAD EQ ISZERO PUSH2 0x4C48 JUMPI PUSH1 0x1 SWAP8 POP POP POP POP POP POP POP POP PUSH2 0x4F02 JUMP JUMPDEST PUSH1 0x0 JUMPDEST DUP7 MLOAD DUP2 LT ISZERO PUSH2 0x4EF9 JUMPI DUP2 MLOAD DUP4 GT ISZERO PUSH2 0x4C6E JUMPI PUSH1 0x2 SWAP9 POP POP POP POP POP POP POP POP POP PUSH2 0x4F02 JUMP JUMPDEST PUSH2 0x4C91 DUP8 DUP3 DUP2 MLOAD DUP2 LT PUSH2 0x4C84 JUMPI PUSH2 0x4C83 PUSH2 0x8480 JUMP JUMPDEST JUMPDEST PUSH1 0x20 MUL PUSH1 0x20 ADD ADD MLOAD PUSH2 0x50A1 JUMP JUMPDEST SWAP6 POP DUP6 DUP1 MLOAD SWAP1 PUSH1 0x20 ADD KECCAK256 DUP5 EQ PUSH2 0x4CB2 JUMPI PUSH1 0x3 SWAP9 POP POP POP POP POP POP POP POP POP PUSH2 0x4F02 JUMP JUMPDEST PUSH2 0x4CC3 PUSH2 0x4CBE DUP8 PUSH2 0x4F0A JUMP JUMPDEST PUSH2 0x52E1 JUMP JUMPDEST SWAP5 POP PUSH1 0x11 DUP6 MLOAD EQ ISZERO PUSH2 0x4DB6 JUMPI DUP2 MLOAD DUP4 EQ ISZERO PUSH2 0x4D33 JUMPI DUP13 DUP1 MLOAD SWAP1 PUSH1 0x20 ADD KECCAK256 PUSH2 0x4D04 DUP7 PUSH1 0x10 DUP2 MLOAD DUP2 LT PUSH2 0x4CF7 JUMPI PUSH2 0x4CF6 PUSH2 0x8480 JUMP JUMPDEST JUMPDEST PUSH1 0x20 MUL PUSH1 0x20 ADD ADD MLOAD PUSH2 0x50A1 JUMP JUMPDEST DUP1 MLOAD SWAP1 PUSH1 0x20 ADD KECCAK256 EQ ISZERO PUSH2 0x4D22 JUMPI PUSH1 0x0 SWAP9 POP POP POP POP POP POP POP POP POP PUSH2 0x4F02 JUMP JUMPDEST PUSH1 0x4 SWAP9 POP POP POP POP POP POP POP POP POP PUSH2 0x4F02 JUMP JUMPDEST PUSH1 0x0 DUP3 DUP5 DUP2 MLOAD DUP2 LT PUSH2 0x4D48 JUMPI PUSH2 0x4D47 PUSH2 0x8480 JUMP JUMPDEST JUMPDEST PUSH1 0x20 ADD ADD MLOAD PUSH1 0xF8 SHR PUSH1 0xF8 SHL PUSH1 0xF8 SHR SWAP1 POP PUSH1 0x10 DUP2 PUSH1 0xFF AND GT ISZERO PUSH2 0x4D76 JUMPI PUSH1 0x5 SWAP10 POP POP POP POP POP POP POP POP POP POP PUSH2 0x4F02 JUMP JUMPDEST PUSH2 0x4D9C DUP7 DUP3 PUSH1 0xFF AND DUP2 MLOAD DUP2 LT PUSH2 0x4D8F JUMPI PUSH2 0x4D8E PUSH2 0x8480 JUMP JUMPDEST JUMPDEST PUSH1 0x20 MUL PUSH1 0x20 ADD ADD MLOAD PUSH2 0x501E JUMP JUMPDEST PUSH1 0x0 SHL SWAP5 POP PUSH1 0x1 DUP5 PUSH2 0x4DAE SWAP2 SWAP1 PUSH2 0x7AA2 JUMP JUMPDEST SWAP4 POP POP PUSH2 0x4EE6 JUMP JUMPDEST PUSH1 0x2 DUP6 MLOAD EQ ISZERO PUSH2 0x4ED4 JUMPI PUSH2 0x4DEE PUSH2 0x4DE7 DUP7 PUSH1 0x0 DUP2 MLOAD DUP2 LT PUSH2 0x4DDA JUMPI PUSH2 0x4DD9 PUSH2 0x8480 JUMP JUMPDEST JUMPDEST PUSH1 0x20 MUL PUSH1 0x20 ADD ADD MLOAD PUSH2 0x50A1 JUMP JUMPDEST DUP4 DUP6 PUSH2 0x54CB JUMP JUMPDEST DUP4 PUSH2 0x4DF9 SWAP2 SWAP1 PUSH2 0x7AA2 JUMP JUMPDEST SWAP3 POP DUP2 MLOAD DUP4 EQ ISZERO PUSH2 0x4E5F JUMPI DUP13 DUP1 MLOAD SWAP1 PUSH1 0x20 ADD KECCAK256 PUSH2 0x4E30 DUP7 PUSH1 0x1 DUP2 MLOAD DUP2 LT PUSH2 0x4E23 JUMPI PUSH2 0x4E22 PUSH2 0x8480 JUMP JUMPDEST JUMPDEST PUSH1 0x20 MUL PUSH1 0x20 ADD ADD MLOAD PUSH2 0x50A1 JUMP JUMPDEST DUP1 MLOAD SWAP1 PUSH1 0x20 ADD KECCAK256 EQ ISZERO PUSH2 0x4E4E JUMPI PUSH1 0x0 SWAP9 POP POP POP POP POP POP POP POP POP PUSH2 0x4F02 JUMP JUMPDEST PUSH1 0x6 SWAP9 POP POP POP POP POP POP POP POP POP PUSH2 0x4F02 JUMP JUMPDEST PUSH1 0x0 PUSH2 0x4E8F PUSH2 0x4E88 DUP8 PUSH1 0x0 DUP2 MLOAD DUP2 LT PUSH2 0x4E7B JUMPI PUSH2 0x4E7A PUSH2 0x8480 JUMP JUMPDEST JUMPDEST PUSH1 0x20 MUL PUSH1 0x20 ADD ADD MLOAD PUSH2 0x50A1 JUMP JUMPDEST DUP5 DUP7 PUSH2 0x54CB JUMP JUMPDEST EQ ISZERO PUSH2 0x4EA6 JUMPI PUSH1 0x7 SWAP9 POP POP POP POP POP POP POP POP POP PUSH2 0x4F02 JUMP JUMPDEST PUSH2 0x4ECA DUP6 PUSH1 0x1 DUP2 MLOAD DUP2 LT PUSH2 0x4EBD JUMPI PUSH2 0x4EBC PUSH2 0x8480 JUMP JUMPDEST JUMPDEST PUSH1 0x20 MUL PUSH1 0x20 ADD ADD MLOAD PUSH2 0x501E JUMP JUMPDEST PUSH1 0x0 SHL SWAP4 POP PUSH2 0x4EE5 JUMP JUMPDEST PUSH1 0x8 SWAP9 POP POP POP POP POP POP POP POP POP PUSH2 0x4F02 JUMP JUMPDEST JUMPDEST DUP1 DUP1 PUSH2 0x4EF1 SWAP1 PUSH2 0x8348 JUMP JUMPDEST SWAP2 POP POP PUSH2 0x4C4B JUMP JUMPDEST POP POP POP POP POP POP POP POP JUMPDEST SWAP5 SWAP4 POP POP POP POP JUMP JUMPDEST PUSH2 0x4F12 PUSH2 0x607A JUMP JUMPDEST PUSH1 0x0 PUSH1 0x20 DUP4 ADD SWAP1 POP PUSH1 0x40 MLOAD DUP1 PUSH1 0x40 ADD PUSH1 0x40 MSTORE DUP1 DUP5 MLOAD DUP2 MSTORE PUSH1 0x20 ADD DUP3 DUP2 MSTORE POP SWAP2 POP POP SWAP2 SWAP1 POP JUMP JUMPDEST PUSH2 0x4F40 PUSH2 0x6094 JUMP JUMPDEST PUSH2 0x4F49 DUP3 PUSH2 0x55FD JUMP JUMPDEST PUSH2 0x4F52 JUMPI PUSH1 0x0 DUP1 REVERT JUMPDEST PUSH1 0x0 PUSH2 0x4F61 DUP4 PUSH1 0x20 ADD MLOAD PUSH2 0x564B JUMP JUMPDEST DUP4 PUSH1 0x20 ADD MLOAD PUSH2 0x4F70 SWAP2 SWAP1 PUSH2 0x7AA2 JUMP JUMPDEST SWAP1 POP PUSH1 0x40 MLOAD DUP1 PUSH1 0x40 ADD PUSH1 0x40 MSTORE DUP1 DUP5 DUP2 MSTORE PUSH1 0x20 ADD DUP3 DUP2 MSTORE POP SWAP2 POP POP SWAP2 SWAP1 POP JUMP JUMPDEST PUSH1 0x0 DUP1 DUP3 PUSH1 0x0 ADD MLOAD SWAP1 POP DUP1 PUSH1 0x0 ADD MLOAD DUP2 PUSH1 0x20 ADD MLOAD PUSH2 0x4FAD SWAP2 SWAP1 PUSH2 0x7AA2 JUMP JUMPDEST DUP4 PUSH1 0x20 ADD MLOAD LT SWAP2 POP POP SWAP2 SWAP1 POP JUMP JUMPDEST PUSH2 0x4FC3 PUSH2 0x607A JUMP JUMPDEST PUSH2 0x4FCC DUP3 PUSH2 0x4F8F JUMP JUMPDEST PUSH2 0x4FD5 JUMPI PUSH1 0x0 DUP1 REVERT JUMPDEST PUSH1 0x0 DUP3 PUSH1 0x20 ADD MLOAD SWAP1 POP PUSH1 0x0 PUSH2 0x4FE9 DUP3 PUSH2 0x570A JUMP JUMPDEST SWAP1 POP DUP1 DUP3 PUSH2 0x4FF7 SWAP2 SWAP1 PUSH2 0x7AA2 JUMP JUMPDEST DUP5 PUSH1 0x20 ADD DUP2 DUP2 MSTORE POP POP PUSH1 0x40 MLOAD DUP1 PUSH1 0x40 ADD PUSH1 0x40 MSTORE DUP1 DUP3 DUP2 MSTORE PUSH1 0x20 ADD DUP4 DUP2 MSTORE POP SWAP3 POP POP POP SWAP2 SWAP1 POP JUMP JUMPDEST PUSH1 0x0 DUP1 DUP3 PUSH1 0x0 ADD MLOAD GT DUP1 ISZERO PUSH2 0x5038 JUMPI POP PUSH1 0x21 DUP3 PUSH1 0x0 ADD MLOAD GT ISZERO JUMPDEST PUSH2 0x5041 JUMPI PUSH1 0x0 DUP1 REVERT JUMPDEST PUSH1 0x0 PUSH2 0x5050 DUP4 PUSH1 0x20 ADD MLOAD PUSH2 0x564B JUMP JUMPDEST SWAP1 POP PUSH1 0x0 DUP2 DUP5 PUSH1 0x0 ADD MLOAD PUSH2 0x5064 SWAP2 SWAP1 PUSH2 0x816C JUMP JUMPDEST SWAP1 POP PUSH1 0x0 DUP1 DUP4 DUP7 PUSH1 0x20 ADD MLOAD PUSH2 0x5079 SWAP2 SWAP1 PUSH2 0x7AA2 JUMP JUMPDEST SWAP1 POP DUP1 MLOAD SWAP2 POP PUSH1 0x20 DUP4 LT ISZERO PUSH2 0x5095 JUMPI DUP3 PUSH1 0x20 SUB PUSH2 0x100 EXP DUP3 DIV SWAP2 POP JUMPDEST DUP2 SWAP5 POP POP POP POP POP SWAP2 SWAP1 POP JUMP JUMPDEST PUSH1 0x60 PUSH1 0x0 DUP3 PUSH1 0x0 ADD MLOAD GT PUSH2 0x50B4 JUMPI PUSH1 0x0 DUP1 REVERT JUMPDEST PUSH1 0x0 PUSH2 0x50C3 DUP4 PUSH1 0x20 ADD MLOAD PUSH2 0x564B JUMP JUMPDEST SWAP1 POP PUSH1 0x0 DUP2 DUP5 PUSH1 0x0 ADD MLOAD PUSH2 0x50D7 SWAP2 SWAP1 PUSH2 0x816C JUMP JUMPDEST SWAP1 POP PUSH1 0x0 DUP2 PUSH8 0xFFFFFFFFFFFFFFFF DUP2 GT ISZERO PUSH2 0x50F5 JUMPI PUSH2 0x50F4 PUSH2 0x84AF JUMP JUMPDEST JUMPDEST PUSH1 0x40 MLOAD SWAP1 DUP1 DUP3 MSTORE DUP1 PUSH1 0x1F ADD PUSH1 0x1F NOT AND PUSH1 0x20 ADD DUP3 ADD PUSH1 0x40 MSTORE DUP1 ISZERO PUSH2 0x5127 JUMPI DUP2 PUSH1 0x20 ADD PUSH1 0x1 DUP3 MUL DUP1 CALLDATASIZE DUP4 CALLDATACOPY DUP1 DUP3 ADD SWAP2 POP POP SWAP1 POP JUMPDEST POP SWAP1 POP PUSH1 0x0 DUP2 PUSH1 0x20 ADD SWAP1 POP PUSH2 0x514C DUP5 DUP8 PUSH1 0x20 ADD MLOAD PUSH2 0x5145 SWAP2 SWAP1 PUSH2 0x7AA2 JUMP JUMPDEST DUP3 DUP6 PUSH2 0x57E6 JUMP JUMPDEST DUP2 SWAP5 POP POP POP POP POP SWAP2 SWAP1 POP JUMP JUMPDEST PUSH1 0x0 DUP2 PUSH1 0x40 ADD MLOAD PUSH2 0x5169 DUP7 DUP7 PUSH2 0x17B1 JUMP JUMPDEST PUSH1 0x80 ADD MLOAD PUSH1 0xA0 ADD MLOAD PUSH1 0x40 ADD MLOAD EQ DUP1 ISZERO PUSH2 0x519F JUMPI POP DUP3 PUSH1 0x0 ADD MLOAD PUSH3 0xFFFFFF AND PUSH1 0x1 DUP4 PUSH1 0x0 ADD MLOAD PUSH2 0x5198 SWAP2 SWAP1 PUSH2 0x7A69 JUMP JUMPDEST PUSH3 0xFFFFFF AND EQ JUMPDEST ISZERO PUSH2 0x51AD JUMPI PUSH1 0x1 SWAP1 POP PUSH2 0x51B2 JUMP JUMPDEST PUSH1 0x0 SWAP1 POP JUMPDEST SWAP5 SWAP4 POP POP POP POP JUMP JUMPDEST PUSH1 0x0 PUSH1 0x20 PUSH1 0xFF AND DUP4 PUSH2 0x180 ADD MLOAD MLOAD GT ISZERO PUSH2 0x51D7 JUMPI PUSH1 0x3 SWAP1 POP PUSH2 0x52DB JUMP JUMPDEST PUSH1 0xF PUSH1 0xFF AND TIMESTAMP PUSH2 0x51E7 SWAP2 SWAP1 PUSH2 0x7AA2 JUMP JUMPDEST DUP4 PUSH2 0x120 ADD MLOAD GT ISZERO PUSH2 0x51FC JUMPI PUSH1 0x5 SWAP1 POP PUSH2 0x52DB JUMP JUMPDEST PUSH8 0x7FFFFFFFFFFFFFFF DUP4 PUSH1 0xC0 ADD MLOAD GT ISZERO PUSH2 0x5219 JUMPI PUSH1 0x8 SWAP1 POP PUSH2 0x52DB JUMP JUMPDEST PUSH2 0x1388 PUSH2 0xFFFF AND DUP4 PUSH1 0xC0 ADD MLOAD LT ISZERO PUSH2 0x5234 JUMPI PUSH1 0x9 SWAP1 POP PUSH2 0x52DB JUMP JUMPDEST DUP3 PUSH1 0xA0 ADD MLOAD PUSH1 0x1 DUP4 PUSH1 0xA0 ADD MLOAD PUSH2 0x524A SWAP2 SWAP1 PUSH2 0x7AA2 JUMP JUMPDEST EQ PUSH2 0x5258 JUMPI PUSH1 0x4 SWAP1 POP PUSH2 0x52DB JUMP JUMPDEST DUP3 PUSH2 0x120 ADD MLOAD DUP3 PUSH2 0x120 ADD MLOAD LT PUSH2 0x5272 JUMPI PUSH1 0x6 SWAP1 POP PUSH2 0x52DB JUMP JUMPDEST PUSH1 0x0 PUSH2 0x5283 DUP4 DUP6 PUSH2 0x120 ADD MLOAD PUSH2 0x5883 JUMP JUMPDEST SWAP1 POP DUP4 PUSH2 0x160 ADD MLOAD DUP2 EQ PUSH2 0x529B JUMPI PUSH1 0x7 SWAP2 POP POP PUSH2 0x52DB JUMP JUMPDEST PUSH2 0x52AD DUP5 PUSH1 0xC0 ADD MLOAD DUP5 PUSH1 0xC0 ADD MLOAD PUSH2 0x5A4B JUMP JUMPDEST PUSH2 0x52BB JUMPI PUSH1 0xA SWAP2 POP POP PUSH2 0x52DB JUMP JUMPDEST DUP4 PUSH1 0xC0 ADD MLOAD DUP5 PUSH1 0xE0 ADD MLOAD GT ISZERO PUSH2 0x52D5 JUMPI PUSH1 0xB SWAP2 POP POP PUSH2 0x52DB JUMP JUMPDEST PUSH1 0x0 SWAP2 POP POP JUMPDEST SWAP3 SWAP2 POP POP JUMP JUMPDEST PUSH1 0x60 PUSH2 0x52EC DUP3 PUSH2 0x55FD JUMP JUMPDEST PUSH2 0x52F5 JUMPI PUSH1 0x0 DUP1 REVERT JUMPDEST PUSH1 0x0 PUSH2 0x5300 DUP4 PUSH2 0x5ABD JUMP JUMPDEST SWAP1 POP PUSH1 0x0 DUP2 PUSH8 0xFFFFFFFFFFFFFFFF DUP2 GT ISZERO PUSH2 0x531E JUMPI PUSH2 0x531D PUSH2 0x84AF JUMP JUMPDEST JUMPDEST PUSH1 0x40 MLOAD SWAP1 DUP1 DUP3 MSTORE DUP1 PUSH1 0x20 MUL PUSH1 0x20 ADD DUP3 ADD PUSH1 0x40 MSTORE DUP1 ISZERO PUSH2 0x5357 JUMPI DUP2 PUSH1 0x20 ADD JUMPDEST PUSH2 0x5344 PUSH2 0x607A JUMP JUMPDEST DUP2 MSTORE PUSH1 0x20 ADD SWAP1 PUSH1 0x1 SWAP1 SUB SWAP1 DUP2 PUSH2 0x533C JUMPI SWAP1 POP JUMPDEST POP SWAP1 POP PUSH1 0x0 PUSH2 0x5369 DUP6 PUSH1 0x20 ADD MLOAD PUSH2 0x564B JUMP JUMPDEST DUP6 PUSH1 0x20 ADD MLOAD PUSH2 0x5378 SWAP2 SWAP1 PUSH2 0x7AA2 JUMP JUMPDEST SWAP1 POP PUSH1 0x0 DUP1 PUSH1 0x0 SWAP1 POP JUMPDEST DUP5 DUP2 LT ISZERO PUSH2 0x53E9 JUMPI PUSH2 0x5393 DUP4 PUSH2 0x570A JUMP JUMPDEST SWAP2 POP PUSH1 0x40 MLOAD DUP1 PUSH1 0x40 ADD PUSH1 0x40 MSTORE DUP1 DUP4 DUP2 MSTORE PUSH1 0x20 ADD DUP5 DUP2 MSTORE POP DUP5 DUP3 DUP2 MLOAD DUP2 LT PUSH2 0x53BD JUMPI PUSH2 0x53BC PUSH2 0x8480 JUMP JUMPDEST JUMPDEST PUSH1 0x20 MUL PUSH1 0x20 ADD ADD DUP2 SWAP1 MSTORE POP DUP2 DUP4 PUSH2 0x53D4 SWAP2 SWAP1 PUSH2 0x7AA2 JUMP JUMPDEST SWAP3 POP DUP1 DUP1 PUSH2 0x53E1 SWAP1 PUSH2 0x8348 JUMP JUMPDEST SWAP2 POP POP PUSH2 0x5382 JUMP JUMPDEST POP DUP3 SWAP5 POP POP POP POP POP SWAP2 SWAP1 POP JUMP JUMPDEST PUSH1 0x60 PUSH1 0x0 PUSH1 0x2 DUP4 MLOAD PUSH2 0x5408 SWAP2 SWAP1 PUSH2 0x7FCE JUMP JUMPDEST PUSH8 0xFFFFFFFFFFFFFFFF DUP2 GT ISZERO PUSH2 0x5421 JUMPI PUSH2 0x5420 PUSH2 0x84AF JUMP JUMPDEST JUMPDEST PUSH1 0x40 MLOAD SWAP1 DUP1 DUP3 MSTORE DUP1 PUSH1 0x1F ADD PUSH1 0x1F NOT AND PUSH1 0x20 ADD DUP3 ADD PUSH1 0x40 MSTORE DUP1 ISZERO PUSH2 0x5453 JUMPI DUP2 PUSH1 0x20 ADD PUSH1 0x1 DUP3 MUL DUP1 CALLDATASIZE DUP4 CALLDATACOPY DUP1 DUP3 ADD SWAP2 POP POP SWAP1 POP JUMPDEST POP SWAP1 POP PUSH1 0x0 JUMPDEST DUP2 MLOAD DUP2 LT ISZERO PUSH2 0x54C1 JUMPI PUSH2 0x546C DUP2 DUP6 PUSH2 0x5B4B JUMP JUMPDEST DUP3 DUP3 DUP2 MLOAD DUP2 LT PUSH2 0x547F JUMPI PUSH2 0x547E PUSH2 0x8480 JUMP JUMPDEST JUMPDEST PUSH1 0x20 ADD ADD SWAP1 PUSH31 0xFFFFFFFFFFFFFFFFFFFFFFFFFFFFFFFFFFFFFFFFFFFFFFFFFFFFFFFFFFFFFF NOT AND SWAP1 DUP2 PUSH1 0x0 BYTE SWAP1 MSTORE8 POP DUP1 DUP1 PUSH2 0x54B9 SWAP1 PUSH2 0x8348 JUMP JUMPDEST SWAP2 POP POP PUSH2 0x5459 JUMP JUMPDEST POP DUP1 SWAP2 POP POP SWAP2 SWAP1 POP JUMP JUMPDEST PUSH1 0x0 DUP1 PUSH1 0x0 PUSH2 0x54D9 DUP7 PUSH2 0x5BE3 JUMP JUMPDEST SWAP1 POP PUSH1 0x0 DUP2 MLOAD PUSH8 0xFFFFFFFFFFFFFFFF DUP2 GT ISZERO PUSH2 0x54F8 JUMPI PUSH2 0x54F7 PUSH2 0x84AF JUMP JUMPDEST JUMPDEST PUSH1 0x40 MLOAD SWAP1 DUP1 DUP3 MSTORE DUP1 PUSH1 0x1F ADD PUSH1 0x1F NOT AND PUSH1 0x20 ADD DUP3 ADD PUSH1 0x40 MSTORE DUP1 ISZERO PUSH2 0x552A JUMPI DUP2 PUSH1 0x20 ADD PUSH1 0x1 DUP3 MUL DUP1 CALLDATASIZE DUP4 CALLDATACOPY DUP1 DUP3 ADD SWAP2 POP POP SWAP1 POP JUMPDEST POP SWAP1 POP PUSH1 0x0 DUP6 SWAP1 POP JUMPDEST DUP3 MLOAD DUP7 PUSH2 0x5540 SWAP2 SWAP1 PUSH2 0x7AA2 JUMP JUMPDEST DUP2 LT ISZERO PUSH2 0x55CB JUMPI PUSH1 0x0 DUP8 DUP3 DUP2 MLOAD DUP2 LT PUSH2 0x555C JUMPI PUSH2 0x555B PUSH2 0x8480 JUMP JUMPDEST JUMPDEST PUSH1 0x20 ADD ADD MLOAD PUSH1 0xF8 SHR PUSH1 0xF8 SHL SWAP1 POP DUP1 DUP4 DUP9 DUP5 PUSH2 0x5577 SWAP2 SWAP1 PUSH2 0x816C JUMP JUMPDEST DUP2 MLOAD DUP2 LT PUSH2 0x5588 JUMPI PUSH2 0x5587 PUSH2 0x8480 JUMP JUMPDEST JUMPDEST PUSH1 0x20 ADD ADD SWAP1 PUSH31 0xFFFFFFFFFFFFFFFFFFFFFFFFFFFFFFFFFFFFFFFFFFFFFFFFFFFFFFFFFFFFFF NOT AND SWAP1 DUP2 PUSH1 0x0 BYTE SWAP1 MSTORE8 POP POP DUP1 DUP1 PUSH2 0x55C3 SWAP1 PUSH2 0x8348 JUMP JUMPDEST SWAP2 POP POP PUSH2 0x5533 JUMP JUMPDEST POP DUP1 DUP1 MLOAD SWAP1 PUSH1 0x20 ADD KECCAK256 DUP3 DUP1 MLOAD SWAP1 PUSH1 0x20 ADD KECCAK256 EQ ISZERO PUSH2 0x55EB JUMPI DUP2 MLOAD SWAP3 POP PUSH2 0x55F0 JUMP JUMPDEST PUSH1 0x0 SWAP3 POP JUMPDEST DUP3 SWAP4 POP POP POP POP SWAP4 SWAP3 POP POP POP JUMP JUMPDEST PUSH1 0x0 DUP1 DUP3 PUSH1 0x0 ADD MLOAD EQ ISZERO PUSH2 0x5614 JUMPI PUSH1 0x0 SWAP1 POP PUSH2 0x5646 JUMP JUMPDEST PUSH1 0x0 DUP1 DUP4 PUSH1 0x20 ADD MLOAD SWAP1 POP DUP1 MLOAD PUSH1 0x0 BYTE SWAP2 POP PUSH1 0xC0 PUSH1 0xFF AND DUP3 PUSH1 0xFF AND LT ISZERO PUSH2 0x563F JUMPI PUSH1 0x0 SWAP3 POP POP POP PUSH2 0x5646 JUMP JUMPDEST PUSH1 0x1 SWAP3 POP POP POP JUMPDEST SWAP2 SWAP1 POP JUMP JUMPDEST PUSH1 0x0 DUP1 DUP3 MLOAD PUSH1 0x0 BYTE SWAP1 POP PUSH1 0x80 PUSH1 0xFF AND DUP2 LT ISZERO PUSH2 0x566B JUMPI PUSH1 0x0 SWAP2 POP POP PUSH2 0x5705 JUMP JUMPDEST PUSH1 0xB8 PUSH1 0xFF AND DUP2 LT DUP1 PUSH2 0x5690 JUMPI POP PUSH1 0xC0 PUSH1 0xFF AND DUP2 LT ISZERO DUP1 ISZERO PUSH2 0x568F JUMPI POP PUSH1 0xF8 PUSH1 0xFF AND DUP2 LT JUMPDEST JUMPDEST ISZERO PUSH2 0x569F JUMPI PUSH1 0x1 SWAP2 POP POP PUSH2 0x5705 JUMP JUMPDEST PUSH1 0xC0 PUSH1 0xFF AND DUP2 LT ISZERO PUSH2 0x56DA JUMPI PUSH1 0x1 DUP1 PUSH1 0xB8 PUSH2 0x56BA SWAP2 SWAP1 PUSH2 0x81A0 JUMP JUMPDEST PUSH1 0xFF AND DUP3 PUSH2 0x56C8 SWAP2 SWAP1 PUSH2 0x816C JUMP JUMPDEST PUSH2 0x56D2 SWAP2 SWAP1 PUSH2 0x7AA2 JUMP JUMPDEST SWAP2 POP POP PUSH2 0x5705 JUMP JUMPDEST PUSH1 0x1 DUP1 PUSH1 0xF8 PUSH2 0x56E9 SWAP2 SWAP1 PUSH2 0x81A0 JUMP JUMPDEST PUSH1 0xFF AND DUP3 PUSH2 0x56F7 SWAP2 SWAP1 PUSH2 0x816C JUMP JUMPDEST PUSH2 0x5701 SWAP2 SWAP1 PUSH2 0x7AA2 JUMP JUMPDEST SWAP2 POP POP JUMPDEST SWAP2 SWAP1 POP JUMP JUMPDEST PUSH1 0x0 DUP1 PUSH1 0x0 DUP4 MLOAD PUSH1 0x0 BYTE SWAP1 POP PUSH1 0x80 PUSH1 0xFF AND DUP2 LT ISZERO PUSH2 0x572B JUMPI PUSH1 0x1 SWAP2 POP PUSH2 0x57DC JUMP JUMPDEST PUSH1 0xB8 PUSH1 0xFF AND DUP2 LT ISZERO PUSH2 0x575A JUMPI PUSH1 0x1 PUSH1 0x80 PUSH1 0xFF AND DUP3 PUSH2 0x5749 SWAP2 SWAP1 PUSH2 0x816C JUMP JUMPDEST PUSH2 0x5753 SWAP2 SWAP1 PUSH2 0x7AA2 JUMP JUMPDEST SWAP2 POP PUSH2 0x57DB JUMP JUMPDEST PUSH1 0xC0 PUSH1 0xFF AND DUP2 LT ISZERO PUSH2 0x578A JUMPI PUSH1 0xB7 DUP2 SUB PUSH1 0x1 DUP6 ADD SWAP5 POP DUP1 PUSH1 0x20 SUB PUSH2 0x100 EXP DUP6 MLOAD DIV PUSH1 0x1 DUP3 ADD DUP2 ADD SWAP4 POP POP POP PUSH2 0x57DA JUMP JUMPDEST PUSH1 0xF8 PUSH1 0xFF AND DUP2 LT ISZERO PUSH2 0x57B9 JUMPI PUSH1 0x1 PUSH1 0xC0 PUSH1 0xFF AND DUP3 PUSH2 0x57A8 SWAP2 SWAP1 PUSH2 0x816C JUMP JUMPDEST PUSH2 0x57B2 SWAP2 SWAP1 PUSH2 0x7AA2 JUMP JUMPDEST SWAP2 POP PUSH2 0x57D9 JUMP JUMPDEST PUSH1 0xF7 DUP2 SUB PUSH1 0x1 DUP6 ADD SWAP5 POP DUP1 PUSH1 0x20 SUB PUSH2 0x100 EXP DUP6 MLOAD DIV PUSH1 0x1 DUP3 ADD DUP2 ADD SWAP4 POP POP POP JUMPDEST JUMPDEST JUMPDEST JUMPDEST DUP2 SWAP3 POP POP POP SWAP2 SWAP1 POP JUMP JUMPDEST PUSH1 0x0 DUP2 EQ ISZERO PUSH2 0x57F4 JUMPI PUSH2 0x587E JUMP JUMPDEST JUMPDEST PUSH1 0x20 PUSH1 0xFF AND DUP2 LT PUSH2 0x583F JUMPI DUP3 MLOAD DUP3 MSTORE PUSH1 0x20 PUSH1 0xFF AND DUP4 PUSH2 0x5814 SWAP2 SWAP1 PUSH2 0x7AA2 JUMP JUMPDEST SWAP3 POP PUSH1 0x20 PUSH1 0xFF AND DUP3 PUSH2 0x5826 SWAP2 SWAP1 PUSH2 0x7AA2 JUMP JUMPDEST SWAP2 POP PUSH1 0x20 PUSH1 0xFF AND DUP2 PUSH2 0x5838 SWAP2 SWAP1 PUSH2 0x816C JUMP JUMPDEST SWAP1 POP PUSH2 0x57F5 JUMP JUMPDEST PUSH1 0x0 PUSH1 0x1 DUP3 PUSH1 0x20 PUSH1 0xFF AND PUSH2 0x5853 SWAP2 SWAP1 PUSH2 0x816C JUMP JUMPDEST PUSH2 0x100 PUSH2 0x5860 SWAP2 SWAP1 PUSH2 0x7CB2 JUMP JUMPDEST PUSH2 0x586A SWAP2 SWAP1 PUSH2 0x816C JUMP JUMPDEST SWAP1 POP DUP1 NOT DUP5 MLOAD AND DUP2 DUP5 MLOAD AND DUP2 DUP2 OR DUP6 MSTORE POP POP POP JUMPDEST POP POP POP JUMP JUMPDEST PUSH1 0x0 DUP1 PUSH1 0x9 DUP5 PUSH2 0x120 ADD MLOAD DUP5 PUSH2 0x5899 SWAP2 SWAP1 PUSH2 0x816C JUMP JUMPDEST PUSH2 0x58A3 SWAP2 SWAP1 PUSH2 0x7BFD JUMP JUMPDEST SWAP1 POP PUSH32 0x1DCC4DE8DEC75D7AAB85B567B6CCD41AD312451B948A7413F0A142FD40D49347 DUP5 PUSH1 0x20 ADD MLOAD EQ ISZERO PUSH2 0x58E5 JUMPI DUP1 PUSH1 0x1 PUSH2 0x58DE SWAP2 SWAP1 PUSH2 0x8028 JUMP JUMPDEST SWAP1 POP PUSH2 0x58F5 JUMP JUMPDEST DUP1 PUSH1 0x2 PUSH2 0x58F2 SWAP2 SWAP1 PUSH2 0x8028 JUMP JUMPDEST SWAP1 POP JUMPDEST PUSH32 0xFFFFFFFFFFFFFFFFFFFFFFFFFFFFFFFFFFFFFFFFFFFFFFFFFFFFFFFFFFFFFF9D DUP2 SLT ISZERO PUSH2 0x5941 JUMPI PUSH32 0xFFFFFFFFFFFFFFFFFFFFFFFFFFFFFFFFFFFFFFFFFFFFFFFFFFFFFFFFFFFFFF9D SWAP1 POP JUMPDEST DUP1 PUSH2 0x800 DUP6 PUSH2 0x160 ADD MLOAD PUSH2 0x5955 SWAP2 SWAP1 PUSH2 0x7AF8 JUMP JUMPDEST PUSH2 0x595F SWAP2 SWAP1 PUSH2 0x7DD0 JUMP JUMPDEST DUP5 PUSH2 0x160 ADD MLOAD PUSH2 0x596F SWAP2 SWAP1 PUSH2 0x79D5 JUMP JUMPDEST SWAP1 POP PUSH3 0x20000 DUP2 SLT ISZERO PUSH2 0x5983 JUMPI PUSH3 0x20000 SWAP1 POP JUMPDEST PUSH1 0x0 PUSH3 0x4C4B3F SWAP1 POP PUSH3 0xD228C8 PUSH1 0x1 DUP7 PUSH1 0xA0 ADD MLOAD PUSH2 0x59A0 SWAP2 SWAP1 PUSH2 0x7AA2 JUMP JUMPDEST LT PUSH2 0x59B0 JUMPI PUSH3 0xA344DF SWAP1 POP PUSH2 0x59D2 JUMP JUMPDEST PUSH3 0x8C6180 PUSH1 0x1 DUP7 PUSH1 0xA0 ADD MLOAD PUSH2 0x59C5 SWAP2 SWAP1 PUSH2 0x7AA2 JUMP JUMPDEST LT PUSH2 0x59D1 JUMPI PUSH3 0x89543F SWAP1 POP JUMPDEST JUMPDEST PUSH1 0x0 DUP2 DUP7 PUSH1 0xA0 ADD MLOAD LT PUSH2 0x59F2 JUMPI DUP2 DUP7 PUSH1 0xA0 ADD MLOAD PUSH2 0x59EF SWAP2 SWAP1 PUSH2 0x816C JUMP JUMPDEST SWAP1 POP JUMPDEST PUSH1 0x0 PUSH3 0x186A0 DUP3 PUSH2 0x5A03 SWAP2 SWAP1 PUSH2 0x7BFD JUMP JUMPDEST SWAP1 POP PUSH1 0x1 DUP2 GT ISZERO PUSH2 0x5A3D JUMPI PUSH1 0x2 DUP2 PUSH2 0x5A1B SWAP2 SWAP1 PUSH2 0x816C JUMP JUMPDEST PUSH1 0x2 PUSH2 0x5A27 SWAP2 SWAP1 PUSH2 0x7CB2 JUMP JUMPDEST DUP5 PUSH2 0x5A32 SWAP2 SWAP1 PUSH2 0x7AA2 JUMP JUMPDEST SWAP5 POP POP POP POP POP PUSH2 0x5A45 JUMP JUMPDEST DUP4 SWAP5 POP POP POP POP POP JUMPDEST SWAP3 SWAP2 POP POP JUMP JUMPDEST PUSH1 0x0 DUP1 PUSH2 0x400 DUP4 PUSH2 0x5A5C SWAP2 SWAP1 PUSH2 0x7B62 JUMP JUMPDEST SWAP1 POP PUSH1 0x0 DUP4 DUP6 PUSH2 0x5A6C SWAP2 SWAP1 PUSH2 0x80BC JUMP JUMPDEST SWAP1 POP PUSH1 0x0 DUP2 PUSH1 0x7 SIGNEXTEND SLT ISZERO PUSH2 0x5AA9 JUMPI PUSH32 0xFFFFFFFFFFFFFFFFFFFFFFFFFFFFFFFFFFFFFFFFFFFFFFFFFFFFFFFFFFFFFFFF DUP2 PUSH2 0x5AA6 SWAP2 SWAP1 PUSH2 0x7EE7 JUMP JUMPDEST SWAP1 POP JUMPDEST DUP2 PUSH1 0x7 SIGNEXTEND DUP2 PUSH1 0x7 SIGNEXTEND SGT ISZERO SWAP3 POP POP POP SWAP3 SWAP2 POP POP JUMP JUMPDEST PUSH1 0x0 DUP1 DUP3 PUSH1 0x0 ADD MLOAD EQ ISZERO PUSH2 0x5AD4 JUMPI PUSH1 0x0 SWAP1 POP PUSH2 0x5B46 JUMP JUMPDEST PUSH1 0x0 DUP1 PUSH2 0x5AE4 DUP5 PUSH1 0x20 ADD MLOAD PUSH2 0x564B JUMP JUMPDEST DUP5 PUSH1 0x20 ADD MLOAD PUSH2 0x5AF3 SWAP2 SWAP1 PUSH2 0x7AA2 JUMP JUMPDEST SWAP1 POP PUSH1 0x0 DUP5 PUSH1 0x0 ADD MLOAD DUP6 PUSH1 0x20 ADD MLOAD PUSH2 0x5B0B SWAP2 SWAP1 PUSH2 0x7AA2 JUMP JUMPDEST SWAP1 POP JUMPDEST DUP1 DUP3 LT ISZERO PUSH2 0x5B3F JUMPI PUSH2 0x5B1F DUP3 PUSH2 0x570A JUMP JUMPDEST DUP3 PUSH2 0x5B2A SWAP2 SWAP1 PUSH2 0x7AA2 JUMP JUMPDEST SWAP2 POP DUP3 DUP1 PUSH2 0x5B37 SWAP1 PUSH2 0x8348 JUMP JUMPDEST SWAP4 POP POP PUSH2 0x5B0E JUMP JUMPDEST DUP3 SWAP4 POP POP POP POP JUMPDEST SWAP2 SWAP1 POP JUMP JUMPDEST PUSH1 0x0 DUP1 PUSH1 0x2 DUP5 PUSH2 0x5B5B SWAP2 SWAP1 PUSH2 0x8391 JUMP JUMPDEST EQ PUSH2 0x5B9E JUMPI PUSH1 0x10 DUP3 PUSH1 0x2 DUP6 PUSH2 0x5B70 SWAP2 SWAP1 PUSH2 0x7BFD JUMP JUMPDEST DUP2 MLOAD DUP2 LT PUSH2 0x5B81 JUMPI PUSH2 0x5B80 PUSH2 0x8480 JUMP JUMPDEST JUMPDEST PUSH1 0x20 ADD ADD MLOAD PUSH1 0xF8 SHR PUSH1 0xF8 SHL PUSH1 0xF8 SHR PUSH2 0x5B99 SWAP2 SWAP1 PUSH2 0x83C2 JUMP JUMPDEST PUSH2 0x5BD8 JUMP JUMPDEST PUSH1 0x10 DUP3 PUSH1 0x2 DUP6 PUSH2 0x5BAE SWAP2 SWAP1 PUSH2 0x7BFD JUMP JUMPDEST DUP2 MLOAD DUP2 LT PUSH2 0x5BBF JUMPI PUSH2 0x5BBE PUSH2 0x8480 JUMP JUMPDEST JUMPDEST PUSH1 0x20 ADD ADD MLOAD PUSH1 0xF8 SHR PUSH1 0xF8 SHL PUSH1 0xF8 SHR PUSH2 0x5BD7 SWAP2 SWAP1 PUSH2 0x7C2E JUMP JUMPDEST JUMPDEST PUSH1 0xF8 SHL SWAP1 POP SWAP3 SWAP2 POP POP JUMP JUMPDEST PUSH1 0x60 DUP1 PUSH1 0x0 DUP4 MLOAD GT ISZERO PUSH2 0x5DDD JUMPI PUSH1 0x0 DUP1 PUSH2 0x5BFE PUSH1 0x0 DUP7 PUSH2 0x5B4B JUMP JUMPDEST PUSH1 0xF8 SHR SWAP1 POP PUSH1 0x1 DUP2 PUSH1 0xFF AND EQ DUP1 PUSH2 0x5C18 JUMPI POP PUSH1 0x3 DUP2 PUSH1 0xFF AND EQ JUMPDEST ISZERO PUSH2 0x5CE2 JUMPI PUSH1 0x1 PUSH1 0x2 DUP7 MLOAD PUSH2 0x5C2D SWAP2 SWAP1 PUSH2 0x7FCE JUMP JUMPDEST PUSH2 0x5C37 SWAP2 SWAP1 PUSH2 0x816C JUMP JUMPDEST PUSH8 0xFFFFFFFFFFFFFFFF DUP2 GT ISZERO PUSH2 0x5C50 JUMPI PUSH2 0x5C4F PUSH2 0x84AF JUMP JUMPDEST JUMPDEST PUSH1 0x40 MLOAD SWAP1 DUP1 DUP3 MSTORE DUP1 PUSH1 0x1F ADD PUSH1 0x1F NOT AND PUSH1 0x20 ADD DUP3 ADD PUSH1 0x40 MSTORE DUP1 ISZERO PUSH2 0x5C82 JUMPI DUP2 PUSH1 0x20 ADD PUSH1 0x1 DUP3 MUL DUP1 CALLDATASIZE DUP4 CALLDATACOPY DUP1 DUP3 ADD SWAP2 POP POP SWAP1 POP JUMPDEST POP SWAP3 POP PUSH1 0x0 PUSH2 0x5C92 PUSH1 0x1 DUP8 PUSH2 0x5B4B JUMP JUMPDEST SWAP1 POP DUP1 DUP5 PUSH1 0x0 DUP2 MLOAD DUP2 LT PUSH2 0x5CA9 JUMPI PUSH2 0x5CA8 PUSH2 0x8480 JUMP JUMPDEST JUMPDEST PUSH1 0x20 ADD ADD SWAP1 PUSH31 0xFFFFFFFFFFFFFFFFFFFFFFFFFFFFFFFFFFFFFFFFFFFFFFFFFFFFFFFFFFFFFF NOT AND SWAP1 DUP2 PUSH1 0x0 BYTE SWAP1 MSTORE8 POP PUSH1 0x1 SWAP3 POP POP PUSH2 0x5D4E JUMP JUMPDEST PUSH1 0x2 DUP1 DUP7 MLOAD PUSH2 0x5CF1 SWAP2 SWAP1 PUSH2 0x7FCE JUMP JUMPDEST PUSH2 0x5CFB SWAP2 SWAP1 PUSH2 0x816C JUMP JUMPDEST PUSH8 0xFFFFFFFFFFFFFFFF DUP2 GT ISZERO PUSH2 0x5D14 JUMPI PUSH2 0x5D13 PUSH2 0x84AF JUMP JUMPDEST JUMPDEST PUSH1 0x40 MLOAD SWAP1 DUP1 DUP3 MSTORE DUP1 PUSH1 0x1F ADD PUSH1 0x1F NOT AND PUSH1 0x20 ADD DUP3 ADD PUSH1 0x40 MSTORE DUP1 ISZERO PUSH2 0x5D46 JUMPI DUP2 PUSH1 0x20 ADD PUSH1 0x1 DUP3 MUL DUP1 CALLDATASIZE DUP4 CALLDATACOPY DUP1 DUP3 ADD SWAP2 POP POP SWAP1 POP JUMPDEST POP SWAP3 POP PUSH1 0x0 SWAP2 POP JUMPDEST PUSH1 0x0 DUP3 PUSH1 0xFF AND SWAP1 POP JUMPDEST DUP4 MLOAD DUP2 LT ISZERO PUSH2 0x5DD9 JUMPI PUSH2 0x5D84 PUSH1 0x2 DUP5 PUSH1 0xFF AND DUP4 PUSH2 0x5D74 SWAP2 SWAP1 PUSH2 0x816C JUMP JUMPDEST PUSH2 0x5D7E SWAP2 SWAP1 PUSH2 0x7AA2 JUMP JUMPDEST DUP8 PUSH2 0x5B4B JUMP JUMPDEST DUP5 DUP3 DUP2 MLOAD DUP2 LT PUSH2 0x5D97 JUMPI PUSH2 0x5D96 PUSH2 0x8480 JUMP JUMPDEST JUMPDEST PUSH1 0x20 ADD ADD SWAP1 PUSH31 0xFFFFFFFFFFFFFFFFFFFFFFFFFFFFFFFFFFFFFFFFFFFFFFFFFFFFFFFFFFFFFF NOT AND SWAP1 DUP2 PUSH1 0x0 BYTE SWAP1 MSTORE8 POP DUP1 DUP1 PUSH2 0x5DD1 SWAP1 PUSH2 0x8348 JUMP JUMPDEST SWAP2 POP POP PUSH2 0x5D57 JUMP JUMPDEST POP POP POP JUMPDEST DUP1 SWAP2 POP POP SWAP2 SWAP1 POP JUMP JUMPDEST PUSH1 0x40 MLOAD DUP1 PUSH2 0x160 ADD PUSH1 0x40 MSTORE DUP1 PUSH1 0x0 PUSH20 0xFFFFFFFFFFFFFFFFFFFFFFFFFFFFFFFFFFFFFFFF AND DUP2 MSTORE PUSH1 0x20 ADD PUSH1 0x0 PUSH20 0xFFFFFFFFFFFFFFFFFFFFFFFFFFFFFFFFFFFFFFFF AND DUP2 MSTORE PUSH1 0x20 ADD PUSH2 0x5E34 PUSH2 0x5EEA JUMP JUMPDEST DUP2 MSTORE PUSH1 0x20 ADD PUSH2 0x5E41 PUSH2 0x5FD4 JUMP JUMPDEST DUP2 MSTORE PUSH1 0x20 ADD PUSH2 0x5E4E PUSH2 0x5FD4 JUMP JUMPDEST DUP2 MSTORE PUSH1 0x20 ADD PUSH2 0x5E5B PUSH2 0x5FD4 JUMP JUMPDEST DUP2 MSTORE PUSH1 0x20 ADD PUSH2 0x5E68 PUSH2 0x5FD4 JUMP JUMPDEST DUP2 MSTORE PUSH1 0x20 ADD PUSH1 0x0 DUP2 MSTORE PUSH1 0x20 ADD PUSH1 0x0 PUSH8 0xFFFFFFFFFFFFFFFF AND DUP2 MSTORE PUSH1 0x20 ADD PUSH1 0x0 DUP2 MSTORE PUSH1 0x20 ADD PUSH1 0x0 DUP2 MSTORE POP SWAP1 JUMP JUMPDEST PUSH1 0x40 MLOAD DUP1 PUSH1 0xA0 ADD PUSH1 0x40 MSTORE DUP1 PUSH1 0x0 PUSH20 0xFFFFFFFFFFFFFFFFFFFFFFFFFFFFFFFFFFFFFFFF AND DUP2 MSTORE PUSH1 0x20 ADD PUSH1 0x0 DUP1 NOT AND DUP2 MSTORE PUSH1 0x20 ADD PUSH1 0x0 ISZERO ISZERO DUP2 MSTORE PUSH1 0x20 ADD PUSH2 0x5ED7 PUSH2 0x5EEA JUMP JUMPDEST DUP2 MSTORE PUSH1 0x20 ADD PUSH2 0x5EE4 PUSH2 0x5DE6 JUMP JUMPDEST DUP2 MSTORE POP SWAP1 JUMP JUMPDEST PUSH1 0x40 MLOAD DUP1 PUSH1 0xA0 ADD PUSH1 0x40 MSTORE DUP1 PUSH2 0x5EFD PUSH2 0x5FD4 JUMP JUMPDEST DUP2 MSTORE PUSH1 0x20 ADD PUSH1 0x0 PUSH20 0xFFFFFFFFFFFFFFFFFFFFFFFFFFFFFFFFFFFFFFFF AND DUP2 MSTORE PUSH1 0x20 ADD PUSH1 0x0 DUP1 NOT AND DUP2 MSTORE PUSH1 0x20 ADD PUSH1 0x0 PUSH20 0xFFFFFFFFFFFFFFFFFFFFFFFFFFFFFFFFFFFFFFFF AND DUP2 MSTORE PUSH1 0x20 ADD PUSH1 0x60 DUP2 MSTORE POP SWAP1 JUMP JUMPDEST DUP3 DUP1 SLOAD PUSH2 0x5F5A SWAP1 PUSH2 0x82E5 JUMP JUMPDEST SWAP1 PUSH1 0x0 MSTORE PUSH1 0x20 PUSH1 0x0 KECCAK256 SWAP1 PUSH1 0x1F ADD PUSH1 0x20 SWAP1 DIV DUP2 ADD SWAP3 DUP3 PUSH2 0x5F7C JUMPI PUSH1 0x0 DUP6 SSTORE PUSH2 0x5FC3 JUMP JUMPDEST DUP3 PUSH1 0x1F LT PUSH2 0x5F95 JUMPI DUP1 MLOAD PUSH1 0xFF NOT AND DUP4 DUP1 ADD OR DUP6 SSTORE PUSH2 0x5FC3 JUMP JUMPDEST DUP3 DUP1 ADD PUSH1 0x1 ADD DUP6 SSTORE DUP3 ISZERO PUSH2 0x5FC3 JUMPI SWAP2 DUP3 ADD JUMPDEST DUP3 DUP2 GT ISZERO PUSH2 0x5FC2 JUMPI DUP3 MLOAD DUP3 SSTORE SWAP2 PUSH1 0x20 ADD SWAP2 SWAP1 PUSH1 0x1 ADD SWAP1 PUSH2 0x5FA7 JUMP JUMPDEST JUMPDEST POP SWAP1 POP PUSH2 0x5FD0 SWAP2 SWAP1 PUSH2 0x60B4 JUMP JUMPDEST POP SWAP1 JUMP JUMPDEST PUSH1 0x40 MLOAD DUP1 PUSH1 0x60 ADD PUSH1 0x40 MSTORE DUP1 PUSH1 0x0 PUSH3 0xFFFFFF AND DUP2 MSTORE PUSH1 0x20 ADD PUSH1 0x0 DUP1 NOT AND DUP2 MSTORE PUSH1 0x20 ADD PUSH1 0x0 DUP1 NOT AND DUP2 MSTORE POP SWAP1 JUMP JUMPDEST PUSH1 0x40 MLOAD DUP1 PUSH2 0x1A0 ADD PUSH1 0x40 MSTORE DUP1 PUSH1 0x0 DUP1 NOT AND DUP2 MSTORE PUSH1 0x20 ADD PUSH1 0x0 DUP1 NOT AND DUP2 MSTORE PUSH1 0x20 ADD PUSH1 0x0 DUP1 NOT AND DUP2 MSTORE PUSH1 0x20 ADD PUSH1 0x0 DUP1 NOT AND DUP2 MSTORE PUSH1 0x20 ADD PUSH1 0x0 DUP1 NOT AND DUP2 MSTORE PUSH1 0x20 ADD PUSH1 0x0 DUP2 MSTORE PUSH1 0x20 ADD PUSH1 0x0 DUP2 MSTORE PUSH1 0x20 ADD PUSH1 0x0 DUP2 MSTORE PUSH1 0x20 ADD PUSH1 0x0 DUP1 NOT AND DUP2 MSTORE PUSH1 0x20 ADD PUSH1 0x0 DUP2 MSTORE PUSH1 0x20 ADD PUSH1 0x0 DUP2 MSTORE PUSH1 0x20 ADD PUSH1 0x0 DUP2 MSTORE PUSH1 0x20 ADD PUSH1 0x60 DUP2 MSTORE POP SWAP1 JUMP JUMPDEST PUSH1 0x40 MLOAD DUP1 PUSH1 0x40 ADD PUSH1 0x40 MSTORE DUP1 PUSH1 0x0 DUP2 MSTORE PUSH1 0x20 ADD PUSH1 0x0 DUP2 MSTORE POP SWAP1 JUMP JUMPDEST PUSH1 0x40 MLOAD DUP1 PUSH1 0x40 ADD PUSH1 0x40 MSTORE DUP1 PUSH2 0x60A7 PUSH2 0x607A JUMP JUMPDEST DUP2 MSTORE PUSH1 0x20 ADD PUSH1 0x0 DUP2 MSTORE POP SWAP1 JUMP JUMPDEST JUMPDEST DUP1 DUP3 GT ISZERO PUSH2 0x60CD JUMPI PUSH1 0x0 DUP2 PUSH1 0x0 SWAP1 SSTORE POP PUSH1 0x1 ADD PUSH2 0x60B5 JUMP JUMPDEST POP SWAP1 JUMP JUMPDEST PUSH1 0x0 PUSH2 0x60E4 PUSH2 0x60DF DUP5 PUSH2 0x78B0 JUMP JUMPDEST PUSH2 0x788B JUMP JUMPDEST SWAP1 POP DUP1 DUP4 DUP3 MSTORE PUSH1 0x20 DUP3 ADD SWAP1 POP DUP3 DUP6 PUSH1 0x20 DUP7 MUL DUP3 ADD GT ISZERO PUSH2 0x6107 JUMPI PUSH2 0x6106 PUSH2 0x84F2 JUMP JUMPDEST JUMPDEST PUSH1 0x0 JUMPDEST DUP6 DUP2 LT ISZERO PUSH2 0x6137 JUMPI DUP2 PUSH2 0x611D DUP9 DUP3 PUSH2 0x625F JUMP JUMPDEST DUP5 MSTORE PUSH1 0x20 DUP5 ADD SWAP4 POP PUSH1 0x20 DUP4 ADD SWAP3 POP POP PUSH1 0x1 DUP2 ADD SWAP1 POP PUSH2 0x610A JUMP JUMPDEST POP POP POP SWAP4 SWAP3 POP POP POP JUMP JUMPDEST PUSH1 0x0 PUSH2 0x6154 PUSH2 0x614F DUP5 PUSH2 0x78DC JUMP JUMPDEST PUSH2 0x788B JUMP JUMPDEST SWAP1 POP DUP3 DUP2 MSTORE PUSH1 0x20 DUP2 ADD DUP5 DUP5 DUP5 ADD GT ISZERO PUSH2 0x6170 JUMPI PUSH2 0x616F PUSH2 0x84F7 JUMP JUMPDEST JUMPDEST PUSH2 0x617B DUP5 DUP3 DUP6 PUSH2 0x82A3 JUMP JUMPDEST POP SWAP4 SWAP3 POP POP POP JUMP JUMPDEST PUSH1 0x0 DUP2 CALLDATALOAD SWAP1 POP PUSH2 0x6192 DUP2 PUSH2 0x8AB0 JUMP JUMPDEST SWAP3 SWAP2 POP POP JUMP JUMPDEST PUSH1 0x0 DUP3 PUSH1 0x1F DUP4 ADD SLT PUSH2 0x61AD JUMPI PUSH2 0x61AC PUSH2 0x84E3 JUMP JUMPDEST JUMPDEST DUP2 CALLDATALOAD PUSH2 0x61BD DUP5 DUP3 PUSH1 0x20 DUP7 ADD PUSH2 0x60D1 JUMP JUMPDEST SWAP2 POP POP SWAP3 SWAP2 POP POP JUMP JUMPDEST PUSH1 0x0 DUP2 CALLDATALOAD SWAP1 POP PUSH2 0x61D5 DUP2 PUSH2 0x8AC7 JUMP JUMPDEST SWAP3 SWAP2 POP POP JUMP JUMPDEST PUSH1 0x0 DUP1 DUP4 PUSH1 0x1F DUP5 ADD SLT PUSH2 0x61F1 JUMPI PUSH2 0x61F0 PUSH2 0x84E3 JUMP JUMPDEST JUMPDEST DUP3 CALLDATALOAD SWAP1 POP PUSH8 0xFFFFFFFFFFFFFFFF DUP2 GT ISZERO PUSH2 0x620E JUMPI PUSH2 0x620D PUSH2 0x84DE JUMP JUMPDEST JUMPDEST PUSH1 0x20 DUP4 ADD SWAP2 POP DUP4 PUSH1 0x1 DUP3 MUL DUP4 ADD GT ISZERO PUSH2 0x622A JUMPI PUSH2 0x6229 PUSH2 0x84F2 JUMP JUMPDEST JUMPDEST SWAP3 POP SWAP3 SWAP1 POP JUMP JUMPDEST PUSH1 0x0 DUP3 PUSH1 0x1F DUP4 ADD SLT PUSH2 0x6246 JUMPI PUSH2 0x6245 PUSH2 0x84E3 JUMP JUMPDEST JUMPDEST DUP2 CALLDATALOAD PUSH2 0x6256 DUP5 DUP3 PUSH1 0x20 DUP7 ADD PUSH2 0x6141 JUMP JUMPDEST SWAP2 POP POP SWAP3 SWAP2 POP POP JUMP JUMPDEST PUSH1 0x0 DUP2 CALLDATALOAD SWAP1 POP PUSH2 0x626E DUP2 PUSH2 0x8ADE JUMP JUMPDEST SWAP3 SWAP2 POP POP JUMP JUMPDEST PUSH1 0x0 DUP2 MLOAD SWAP1 POP PUSH2 0x6283 DUP2 PUSH2 0x8ADE JUMP JUMPDEST SWAP3 SWAP2 POP POP JUMP JUMPDEST PUSH1 0x0 PUSH1 0x20 DUP3 DUP5 SUB SLT ISZERO PUSH2 0x629F JUMPI PUSH2 0x629E PUSH2 0x8501 JUMP JUMPDEST JUMPDEST PUSH1 0x0 PUSH2 0x62AD DUP5 DUP3 DUP6 ADD PUSH2 0x6183 JUMP JUMPDEST SWAP2 POP POP SWAP3 SWAP2 POP POP JUMP JUMPDEST PUSH1 0x0 DUP1 PUSH1 0x40 DUP4 DUP6 SUB SLT ISZERO PUSH2 0x62CD JUMPI PUSH2 0x62CC PUSH2 0x8501 JUMP JUMPDEST JUMPDEST PUSH1 0x0 PUSH2 0x62DB DUP6 DUP3 DUP7 ADD PUSH2 0x6183 JUMP JUMPDEST SWAP3 POP POP PUSH1 0x20 PUSH2 0x62EC DUP6 DUP3 DUP7 ADD PUSH2 0x61C6 JUMP JUMPDEST SWAP2 POP POP SWAP3 POP SWAP3 SWAP1 POP JUMP JUMPDEST PUSH1 0x0 DUP1 PUSH1 0x0 DUP1 PUSH1 0x80 DUP6 DUP8 SUB SLT ISZERO PUSH2 0x6310 JUMPI PUSH2 0x630F PUSH2 0x8501 JUMP JUMPDEST JUMPDEST PUSH1 0x0 PUSH2 0x631E DUP8 DUP3 DUP9 ADD PUSH2 0x6183 JUMP JUMPDEST SWAP5 POP POP PUSH1 0x20 DUP6 ADD CALLDATALOAD PUSH8 0xFFFFFFFFFFFFFFFF DUP2 GT ISZERO PUSH2 0x633F JUMPI PUSH2 0x633E PUSH2 0x84FC JUMP JUMPDEST JUMPDEST PUSH2 0x634B DUP8 DUP3 DUP9 ADD PUSH2 0x6231 JUMP JUMPDEST SWAP4 POP POP PUSH1 0x40 PUSH2 0x635C DUP8 DUP3 DUP9 ADD PUSH2 0x625F JUMP JUMPDEST SWAP3 POP POP PUSH1 0x60 DUP6 ADD CALLDATALOAD PUSH8 0xFFFFFFFFFFFFFFFF DUP2 GT ISZERO PUSH2 0x637D JUMPI PUSH2 0x637C PUSH2 0x84FC JUMP JUMPDEST JUMPDEST PUSH2 0x6389 DUP8 DUP3 DUP9 ADD PUSH2 0x6231 JUMP JUMPDEST SWAP2 POP POP SWAP3 SWAP6 SWAP2 SWAP5 POP SWAP3 POP JUMP JUMPDEST PUSH1 0x0 DUP1 PUSH1 0x40 DUP4 DUP6 SUB SLT ISZERO PUSH2 0x63AC JUMPI PUSH2 0x63AB PUSH2 0x8501 JUMP JUMPDEST JUMPDEST PUSH1 0x0 PUSH2 0x63BA DUP6 DUP3 DUP7 ADD PUSH2 0x61C6 JUMP JUMPDEST SWAP3 POP POP PUSH1 0x20 PUSH2 0x63CB DUP6 DUP3 DUP7 ADD PUSH2 0x6183 JUMP JUMPDEST SWAP2 POP POP SWAP3 POP SWAP3 SWAP1 POP JUMP JUMPDEST PUSH1 0x0 DUP1 PUSH1 0x0 PUSH1 0x60 DUP5 DUP7 SUB SLT ISZERO PUSH2 0x63EE JUMPI PUSH2 0x63ED PUSH2 0x8501 JUMP JUMPDEST JUMPDEST PUSH1 0x0 PUSH2 0x63FC DUP7 DUP3 DUP8 ADD PUSH2 0x61C6 JUMP JUMPDEST SWAP4 POP POP PUSH1 0x20 PUSH2 0x640D DUP7 DUP3 DUP8 ADD PUSH2 0x6183 JUMP JUMPDEST SWAP3 POP POP PUSH1 0x40 PUSH2 0x641E DUP7 DUP3 DUP8 ADD PUSH2 0x61C6 JUMP JUMPDEST SWAP2 POP POP SWAP3 POP SWAP3 POP SWAP3 JUMP JUMPDEST PUSH1 0x0 DUP1 PUSH1 0x0 DUP1 PUSH1 0x0 PUSH1 0x80 DUP7 DUP9 SUB SLT ISZERO PUSH2 0x6444 JUMPI PUSH2 0x6443 PUSH2 0x8501 JUMP JUMPDEST JUMPDEST PUSH1 0x0 DUP7 ADD CALLDATALOAD PUSH8 0xFFFFFFFFFFFFFFFF DUP2 GT ISZERO PUSH2 0x6462 JUMPI PUSH2 0x6461 PUSH2 0x84FC JUMP JUMPDEST JUMPDEST PUSH2 0x646E DUP9 DUP3 DUP10 ADD PUSH2 0x61DB JUMP JUMPDEST SWAP6 POP SWAP6 POP POP PUSH1 0x20 DUP7 ADD CALLDATALOAD PUSH8 0xFFFFFFFFFFFFFFFF DUP2 GT ISZERO PUSH2 0x6491 JUMPI PUSH2 0x6490 PUSH2 0x84FC JUMP JUMPDEST JUMPDEST PUSH2 0x649D DUP9 DUP3 DUP10 ADD PUSH2 0x6231 JUMP JUMPDEST SWAP4 POP POP PUSH1 0x40 DUP7 ADD CALLDATALOAD PUSH8 0xFFFFFFFFFFFFFFFF DUP2 GT ISZERO PUSH2 0x64BE JUMPI PUSH2 0x64BD PUSH2 0x84FC JUMP JUMPDEST JUMPDEST PUSH2 0x64CA DUP9 DUP3 DUP10 ADD PUSH2 0x6198 JUMP JUMPDEST SWAP3 POP POP PUSH1 0x60 DUP7 ADD CALLDATALOAD PUSH8 0xFFFFFFFFFFFFFFFF DUP2 GT ISZERO PUSH2 0x64EB JUMPI PUSH2 0x64EA PUSH2 0x84FC JUMP JUMPDEST JUMPDEST PUSH2 0x64F7 DUP9 DUP3 DUP10 ADD PUSH2 0x6198 JUMP JUMPDEST SWAP2 POP POP SWAP3 SWAP6 POP SWAP3 SWAP6 SWAP1 SWAP4 POP JUMP JUMPDEST PUSH1 0x0 PUSH1 0x20 DUP3 DUP5 SUB SLT ISZERO PUSH2 0x651A JUMPI PUSH2 0x6519 PUSH2 0x8501 JUMP JUMPDEST JUMPDEST PUSH1 0x0 DUP3 ADD CALLDATALOAD PUSH8 0xFFFFFFFFFFFFFFFF DUP2 GT ISZERO PUSH2 0x6538 JUMPI PUSH2 0x6537 PUSH2 0x84FC JUMP JUMPDEST JUMPDEST PUSH2 0x6544 DUP5 DUP3 DUP6 ADD PUSH2 0x6231 JUMP JUMPDEST SWAP2 POP POP SWAP3 SWAP2 POP POP JUMP JUMPDEST PUSH1 0x0 DUP1 PUSH1 0x0 DUP1 PUSH1 0x0 DUP1 PUSH1 0x0 DUP1 PUSH1 0x0 PUSH2 0x120 DUP11 DUP13 SUB SLT ISZERO PUSH2 0x6570 JUMPI PUSH2 0x656F PUSH2 0x8501 JUMP JUMPDEST JUMPDEST PUSH1 0x0 DUP11 ADD CALLDATALOAD PUSH8 0xFFFFFFFFFFFFFFFF DUP2 GT ISZERO PUSH2 0x658E JUMPI PUSH2 0x658D PUSH2 0x84FC JUMP JUMPDEST JUMPDEST PUSH2 0x659A DUP13 DUP3 DUP14 ADD PUSH2 0x6231 JUMP JUMPDEST SWAP10 POP POP PUSH1 0x20 PUSH2 0x65AB DUP13 DUP3 DUP14 ADD PUSH2 0x61C6 JUMP JUMPDEST SWAP9 POP POP PUSH1 0x40 DUP11 ADD CALLDATALOAD PUSH8 0xFFFFFFFFFFFFFFFF DUP2 GT ISZERO PUSH2 0x65CC JUMPI PUSH2 0x65CB PUSH2 0x84FC JUMP JUMPDEST JUMPDEST PUSH2 0x65D8 DUP13 DUP3 DUP14 ADD PUSH2 0x6231 JUMP JUMPDEST SWAP8 POP POP PUSH1 0x60 DUP11 ADD CALLDATALOAD PUSH8 0xFFFFFFFFFFFFFFFF DUP2 GT ISZERO PUSH2 0x65F9 JUMPI PUSH2 0x65F8 PUSH2 0x84FC JUMP JUMPDEST JUMPDEST PUSH2 0x6605 DUP13 DUP3 DUP14 ADD PUSH2 0x6231 JUMP JUMPDEST SWAP7 POP POP PUSH1 0x80 PUSH2 0x6616 DUP13 DUP3 DUP14 ADD PUSH2 0x61C6 JUMP JUMPDEST SWAP6 POP POP PUSH1 0xA0 PUSH2 0x6627 DUP13 DUP3 DUP14 ADD PUSH2 0x61C6 JUMP JUMPDEST SWAP5 POP POP PUSH1 0xC0 DUP11 ADD CALLDATALOAD PUSH8 0xFFFFFFFFFFFFFFFF DUP2 GT ISZERO PUSH2 0x6648 JUMPI PUSH2 0x6647 PUSH2 0x84FC JUMP JUMPDEST JUMPDEST PUSH2 0x6654 DUP13 DUP3 DUP14 ADD PUSH2 0x6231 JUMP JUMPDEST SWAP4 POP POP PUSH1 0xE0 DUP11 ADD CALLDATALOAD PUSH8 0xFFFFFFFFFFFFFFFF DUP2 GT ISZERO PUSH2 0x6675 JUMPI PUSH2 0x6674 PUSH2 0x84FC JUMP JUMPDEST JUMPDEST PUSH2 0x6681 DUP13 DUP3 DUP14 ADD PUSH2 0x6231 JUMP JUMPDEST SWAP3 POP POP PUSH2 0x100 PUSH2 0x6693 DUP13 DUP3 DUP14 ADD PUSH2 0x61C6 JUMP JUMPDEST SWAP2 POP POP SWAP3 SWAP6 SWAP9 POP SWAP3 SWAP6 SWAP9 POP SWAP3 SWAP6 SWAP9 JUMP JUMPDEST PUSH1 0x0 DUP1 PUSH1 0x0 DUP1 PUSH1 0x0 PUSH1 0xA0 DUP7 DUP9 SUB SLT ISZERO PUSH2 0x66BF JUMPI PUSH2 0x66BE PUSH2 0x8501 JUMP JUMPDEST JUMPDEST PUSH1 0x0 DUP7 ADD CALLDATALOAD PUSH8 0xFFFFFFFFFFFFFFFF DUP2 GT ISZERO PUSH2 0x66DD JUMPI PUSH2 0x66DC PUSH2 0x84FC JUMP JUMPDEST JUMPDEST PUSH2 0x66E9 DUP9 DUP3 DUP10 ADD PUSH2 0x6231 JUMP JUMPDEST SWAP6 POP POP PUSH1 0x20 DUP7 ADD CALLDATALOAD PUSH8 0xFFFFFFFFFFFFFFFF DUP2 GT ISZERO PUSH2 0x670A JUMPI PUSH2 0x6709 PUSH2 0x84FC JUMP JUMPDEST JUMPDEST PUSH2 0x6716 DUP9 DUP3 DUP10 ADD PUSH2 0x6231 JUMP JUMPDEST SWAP5 POP POP PUSH1 0x40 DUP7 ADD CALLDATALOAD PUSH8 0xFFFFFFFFFFFFFFFF DUP2 GT ISZERO PUSH2 0x6737 JUMPI PUSH2 0x6736 PUSH2 0x84FC JUMP JUMPDEST JUMPDEST PUSH2 0x6743 DUP9 DUP3 DUP10 ADD PUSH2 0x6231 JUMP JUMPDEST SWAP4 POP POP PUSH1 0x60 DUP7 ADD CALLDATALOAD PUSH8 0xFFFFFFFFFFFFFFFF DUP2 GT ISZERO PUSH2 0x6764 JUMPI PUSH2 0x6763 PUSH2 0x84FC JUMP JUMPDEST JUMPDEST PUSH2 0x6770 DUP9 DUP3 DUP10 ADD PUSH2 0x6231 JUMP JUMPDEST SWAP3 POP POP PUSH1 0x80 PUSH2 0x6781 DUP9 DUP3 DUP10 ADD PUSH2 0x625F JUMP JUMPDEST SWAP2 POP POP SWAP3 SWAP6 POP SWAP3 SWAP6 SWAP1 SWAP4 POP JUMP JUMPDEST PUSH1 0x0 PUSH1 0x20 DUP3 DUP5 SUB SLT ISZERO PUSH2 0x67A4 JUMPI PUSH2 0x67A3 PUSH2 0x8501 JUMP JUMPDEST JUMPDEST PUSH1 0x0 PUSH2 0x67B2 DUP5 DUP3 DUP6 ADD PUSH2 0x625F JUMP JUMPDEST SWAP2 POP POP SWAP3 SWAP2 POP POP JUMP JUMPDEST PUSH1 0x0 DUP1 PUSH1 0x40 DUP4 DUP6 SUB SLT ISZERO PUSH2 0x67D2 JUMPI PUSH2 0x67D1 PUSH2 0x8501 JUMP JUMPDEST JUMPDEST PUSH1 0x0 PUSH2 0x67E0 DUP6 DUP3 DUP7 ADD PUSH2 0x6274 JUMP JUMPDEST SWAP3 POP POP PUSH1 0x20 PUSH2 0x67F1 DUP6 DUP3 DUP7 ADD PUSH2 0x6274 JUMP JUMPDEST SWAP2 POP POP SWAP3 POP SWAP3 SWAP1 POP JUMP JUMPDEST PUSH1 0x0 PUSH2 0x6807 DUP4 DUP4 PUSH2 0x70C2 JUMP JUMPDEST PUSH1 0x20 DUP4 ADD SWAP1 POP SWAP3 SWAP2 POP POP JUMP JUMPDEST PUSH2 0x681C DUP2 PUSH2 0x81D4 JUMP JUMPDEST DUP3 MSTORE POP POP JUMP JUMPDEST PUSH2 0x682B DUP2 PUSH2 0x81D4 JUMP JUMPDEST DUP3 MSTORE POP POP JUMP JUMPDEST PUSH1 0x0 PUSH2 0x683C DUP3 PUSH2 0x791D JUMP JUMPDEST PUSH2 0x6846 DUP2 DUP6 PUSH2 0x7940 JUMP JUMPDEST SWAP4 POP PUSH2 0x6851 DUP4 PUSH2 0x790D JUMP JUMPDEST DUP1 PUSH1 0x0 JUMPDEST DUP4 DUP2 LT ISZERO PUSH2 0x6882 JUMPI DUP2 MLOAD PUSH2 0x6869 DUP9 DUP3 PUSH2 0x67FB JUMP JUMPDEST SWAP8 POP PUSH2 0x6874 DUP4 PUSH2 0x7933 JUMP JUMPDEST SWAP3 POP POP PUSH1 0x1 DUP2 ADD SWAP1 POP PUSH2 0x6855 JUMP JUMPDEST POP DUP6 SWAP4 POP POP POP POP SWAP3 SWAP2 POP POP JUMP JUMPDEST PUSH2 0x6898 DUP2 PUSH2 0x81E6 JUMP JUMPDEST DUP3 MSTORE POP POP JUMP JUMPDEST PUSH2 0x68A7 DUP2 PUSH2 0x81E6 JUMP JUMPDEST DUP3 MSTORE POP POP JUMP JUMPDEST PUSH2 0x68B6 DUP2 PUSH2 0x81F2 JUMP JUMPDEST DUP3 MSTORE POP POP JUMP JUMPDEST PUSH2 0x68C5 DUP2 PUSH2 0x81F2 JUMP JUMPDEST DUP3 MSTORE POP POP JUMP JUMPDEST PUSH1 0x0 PUSH2 0x68D7 DUP4 DUP6 PUSH2 0x7973 JUMP JUMPDEST SWAP4 POP PUSH2 0x68E4 DUP4 DUP6 DUP5 PUSH2 0x82A3 JUMP JUMPDEST DUP3 DUP5 ADD SWAP1 POP SWAP4 SWAP3 POP POP POP JUMP JUMPDEST PUSH1 0x0 PUSH2 0x68FB DUP3 PUSH2 0x7928 JUMP JUMPDEST PUSH2 0x6905 DUP2 DUP6 PUSH2 0x7951 JUMP JUMPDEST SWAP4 POP PUSH2 0x6915 DUP2 DUP6 PUSH1 0x20 DUP7 ADD PUSH2 0x82B2 JUMP JUMPDEST PUSH2 0x691E DUP2 PUSH2 0x8506 JUMP JUMPDEST DUP5 ADD SWAP2 POP POP SWAP3 SWAP2 POP POP JUMP JUMPDEST PUSH1 0x0 PUSH2 0x6934 DUP3 PUSH2 0x7928 JUMP JUMPDEST PUSH2 0x693E DUP2 DUP6 PUSH2 0x7962 JUMP JUMPDEST SWAP4 POP PUSH2 0x694E DUP2 DUP6 PUSH1 0x20 DUP7 ADD PUSH2 0x82B2 JUMP JUMPDEST PUSH2 0x6957 DUP2 PUSH2 0x8506 JUMP JUMPDEST DUP5 ADD SWAP2 POP POP SWAP3 SWAP2 POP POP JUMP JUMPDEST PUSH2 0x696B DUP2 PUSH2 0x826D JUMP JUMPDEST DUP3 MSTORE POP POP JUMP JUMPDEST PUSH1 0x0 PUSH2 0x697E PUSH1 0x16 DUP4 PUSH2 0x797E JUMP JUMPDEST SWAP2 POP PUSH2 0x6989 DUP3 PUSH2 0x8524 JUMP JUMPDEST PUSH1 0x20 DUP3 ADD SWAP1 POP SWAP2 SWAP1 POP JUMP JUMPDEST PUSH1 0x0 PUSH2 0x69A1 PUSH1 0x17 DUP4 PUSH2 0x797E JUMP JUMPDEST SWAP2 POP PUSH2 0x69AC DUP3 PUSH2 0x854D JUMP JUMPDEST PUSH1 0x20 DUP3 ADD SWAP1 POP SWAP2 SWAP1 POP JUMP JUMPDEST PUSH1 0x0 PUSH2 0x69C4 PUSH1 0x1A DUP4 PUSH2 0x797E JUMP JUMPDEST SWAP2 POP PUSH2 0x69CF DUP3 PUSH2 0x8576 JUMP JUMPDEST PUSH1 0x20 DUP3 ADD SWAP1 POP SWAP2 SWAP1 POP JUMP JUMPDEST PUSH1 0x0 PUSH2 0x69E7 PUSH1 0x48 DUP4 PUSH2 0x797E JUMP JUMPDEST SWAP2 POP PUSH2 0x69F2 DUP3 PUSH2 0x859F JUMP JUMPDEST PUSH1 0x60 DUP3 ADD SWAP1 POP SWAP2 SWAP1 POP JUMP JUMPDEST PUSH1 0x0 PUSH2 0x6A0A PUSH1 0x1 DUP4 PUSH2 0x798F JUMP JUMPDEST SWAP2 POP PUSH2 0x6A15 DUP3 PUSH2 0x8614 JUMP JUMPDEST PUSH1 0x1 DUP3 ADD SWAP1 POP SWAP2 SWAP1 POP JUMP JUMPDEST PUSH1 0x0 PUSH2 0x6A2D PUSH1 0x15 DUP4 PUSH2 0x797E JUMP JUMPDEST SWAP2 POP PUSH2 0x6A38 DUP3 PUSH2 0x863D JUMP JUMPDEST PUSH1 0x20 DUP3 ADD SWAP1 POP SWAP2 SWAP1 POP JUMP JUMPDEST PUSH1 0x0 PUSH2 0x6A50 PUSH1 0x15 DUP4 PUSH2 0x797E JUMP JUMPDEST SWAP2 POP PUSH2 0x6A5B DUP3 PUSH2 0x8666 JUMP JUMPDEST PUSH1 0x20 DUP3 ADD SWAP1 POP SWAP2 SWAP1 POP JUMP JUMPDEST PUSH1 0x0 PUSH2 0x6A73 PUSH1 0x15 DUP4 PUSH2 0x797E JUMP JUMPDEST SWAP2 POP PUSH2 0x6A7E DUP3 PUSH2 0x868F JUMP JUMPDEST PUSH1 0x20 DUP3 ADD SWAP1 POP SWAP2 SWAP1 POP JUMP JUMPDEST PUSH1 0x0 PUSH2 0x6A96 PUSH1 0x1A DUP4 PUSH2 0x797E JUMP JUMPDEST SWAP2 POP PUSH2 0x6AA1 DUP3 PUSH2 0x86B8 JUMP JUMPDEST PUSH1 0x20 DUP3 ADD SWAP1 POP SWAP2 SWAP1 POP JUMP JUMPDEST PUSH1 0x0 PUSH2 0x6AB9 PUSH1 0x1F DUP4 PUSH2 0x797E JUMP JUMPDEST SWAP2 POP PUSH2 0x6AC4 DUP3 PUSH2 0x86E1 JUMP JUMPDEST PUSH1 0x20 DUP3 ADD SWAP1 POP SWAP2 SWAP1 POP JUMP JUMPDEST PUSH1 0x0 PUSH2 0x6ADC PUSH1 0x1D DUP4 PUSH2 0x797E JUMP JUMPDEST SWAP2 POP PUSH2 0x6AE7 DUP3 PUSH2 0x870A JUMP JUMPDEST PUSH1 0x20 DUP3 ADD SWAP1 POP SWAP2 SWAP1 POP JUMP JUMPDEST PUSH1 0x0 PUSH2 0x6AFF PUSH1 0x1E DUP4 PUSH2 0x797E JUMP JUMPDEST SWAP2 POP PUSH2 0x6B0A DUP3 PUSH2 0x8733 JUMP JUMPDEST PUSH1 0x20 DUP3 ADD SWAP1 POP SWAP2 SWAP1 POP JUMP JUMPDEST PUSH1 0x0 PUSH2 0x6B22 PUSH1 0x2F DUP4 PUSH2 0x797E JUMP JUMPDEST SWAP2 POP PUSH2 0x6B2D DUP3 PUSH2 0x875C JUMP JUMPDEST PUSH1 0x40 DUP3 ADD SWAP1 POP SWAP2 SWAP1 POP JUMP JUMPDEST PUSH1 0x0 PUSH2 0x6B45 PUSH1 0x17 DUP4 PUSH2 0x797E JUMP JUMPDEST SWAP2 POP PUSH2 0x6B50 DUP3 PUSH2 0x87AB JUMP JUMPDEST PUSH1 0x20 DUP3 ADD SWAP1 POP SWAP2 SWAP1 POP JUMP JUMPDEST PUSH1 0x0 PUSH2 0x6B68 PUSH1 0x1B DUP4 PUSH2 0x797E JUMP JUMPDEST SWAP2 POP PUSH2 0x6B73 DUP3 PUSH2 0x87D4 JUMP JUMPDEST PUSH1 0x20 DUP3 ADD SWAP1 POP SWAP2 SWAP1 POP JUMP JUMPDEST PUSH1 0x0 PUSH2 0x6B8B PUSH1 0x1E DUP4 PUSH2 0x797E JUMP JUMPDEST SWAP2 POP PUSH2 0x6B96 DUP3 PUSH2 0x87FD JUMP JUMPDEST PUSH1 0x20 DUP3 ADD SWAP1 POP SWAP2 SWAP1 POP JUMP JUMPDEST PUSH1 0x0 PUSH2 0x6BAE PUSH1 0x16 DUP4 PUSH2 0x797E JUMP JUMPDEST SWAP2 POP PUSH2 0x6BB9 DUP3 PUSH2 0x8826 JUMP JUMPDEST PUSH1 0x20 DUP3 ADD SWAP1 POP SWAP2 SWAP1 POP JUMP JUMPDEST PUSH1 0x0 PUSH2 0x6BD1 PUSH1 0x19 DUP4 PUSH2 0x797E JUMP JUMPDEST SWAP2 POP PUSH2 0x6BDC DUP3 PUSH2 0x884F JUMP JUMPDEST PUSH1 0x20 DUP3 ADD SWAP1 POP SWAP2 SWAP1 POP JUMP JUMPDEST PUSH1 0x0 PUSH2 0x6BF4 PUSH1 0x12 DUP4 PUSH2 0x797E JUMP JUMPDEST SWAP2 POP PUSH2 0x6BFF DUP3 PUSH2 0x8878 JUMP JUMPDEST PUSH1 0x20 DUP3 ADD SWAP1 POP SWAP2 SWAP1 POP JUMP JUMPDEST PUSH1 0x0 PUSH2 0x6C17 PUSH1 0x14 DUP4 PUSH2 0x797E JUMP JUMPDEST SWAP2 POP PUSH2 0x6C22 DUP3 PUSH2 0x88A1 JUMP JUMPDEST PUSH1 0x20 DUP3 ADD SWAP1 POP SWAP2 SWAP1 POP JUMP JUMPDEST PUSH1 0x0 PUSH2 0x6C3A PUSH1 0x14 DUP4 PUSH2 0x797E JUMP JUMPDEST SWAP2 POP PUSH2 0x6C45 DUP3 PUSH2 0x88CA JUMP JUMPDEST PUSH1 0x20 DUP3 ADD SWAP1 POP SWAP2 SWAP1 POP JUMP JUMPDEST PUSH1 0x0 PUSH2 0x6C5D PUSH1 0x17 DUP4 PUSH2 0x797E JUMP JUMPDEST SWAP2 POP PUSH2 0x6C68 DUP3 PUSH2 0x88F3 JUMP JUMPDEST PUSH1 0x20 DUP3 ADD SWAP1 POP SWAP2 SWAP1 POP JUMP JUMPDEST PUSH1 0x0 PUSH2 0x6C80 PUSH1 0x10 DUP4 PUSH2 0x797E JUMP JUMPDEST SWAP2 POP PUSH2 0x6C8B DUP3 PUSH2 0x891C JUMP JUMPDEST PUSH1 0x20 DUP3 ADD SWAP1 POP SWAP2 SWAP1 POP JUMP JUMPDEST PUSH1 0x0 PUSH2 0x6CA3 PUSH1 0x1A DUP4 PUSH2 0x797E JUMP JUMPDEST SWAP2 POP PUSH2 0x6CAE DUP3 PUSH2 0x8945 JUMP JUMPDEST PUSH1 0x20 DUP3 ADD SWAP1 POP SWAP2 SWAP1 POP JUMP JUMPDEST PUSH1 0x0 PUSH2 0x6CC6 PUSH1 0x1D DUP4 PUSH2 0x797E JUMP JUMPDEST SWAP2 POP PUSH2 0x6CD1 DUP3 PUSH2 0x896E JUMP JUMPDEST PUSH1 0x20 DUP3 ADD SWAP1 POP SWAP2 SWAP1 POP JUMP JUMPDEST PUSH1 0x0 PUSH2 0x6CE9 PUSH1 0x14 DUP4 PUSH2 0x797E JUMP JUMPDEST SWAP2 POP PUSH2 0x6CF4 DUP3 PUSH2 0x8997 JUMP JUMPDEST PUSH1 0x20 DUP3 ADD SWAP1 POP SWAP2 SWAP1 POP JUMP JUMPDEST PUSH1 0x0 PUSH2 0x6D0C PUSH1 0x18 DUP4 PUSH2 0x797E JUMP JUMPDEST SWAP2 POP PUSH2 0x6D17 DUP3 PUSH2 0x89C0 JUMP JUMPDEST PUSH1 0x20 DUP3 ADD SWAP1 POP SWAP2 SWAP1 POP JUMP JUMPDEST PUSH1 0x0 PUSH2 0x6D2F PUSH1 0x13 DUP4 PUSH2 0x797E JUMP JUMPDEST SWAP2 POP PUSH2 0x6D3A DUP3 PUSH2 0x89E9 JUMP JUMPDEST PUSH1 0x20 DUP3 ADD SWAP1 POP SWAP2 SWAP1 POP JUMP JUMPDEST PUSH1 0x0 PUSH2 0x6D52 PUSH1 0x26 DUP4 PUSH2 0x797E JUMP JUMPDEST SWAP2 POP PUSH2 0x6D5D DUP3 PUSH2 0x8A12 JUMP JUMPDEST PUSH1 0x40 DUP3 ADD SWAP1 POP SWAP2 SWAP1 POP JUMP JUMPDEST PUSH1 0x0 PUSH2 0x6D75 PUSH1 0x22 DUP4 PUSH2 0x797E JUMP JUMPDEST SWAP2 POP PUSH2 0x6D80 DUP3 PUSH2 0x8A61 JUMP JUMPDEST PUSH1 0x40 DUP3 ADD SWAP1 POP SWAP2 SWAP1 POP JUMP JUMPDEST PUSH1 0x60 DUP3 ADD PUSH1 0x0 DUP3 ADD MLOAD PUSH2 0x6DA1 PUSH1 0x0 DUP6 ADD DUP3 PUSH2 0x70A4 JUMP JUMPDEST POP PUSH1 0x20 DUP3 ADD MLOAD PUSH2 0x6DB4 PUSH1 0x20 DUP6 ADD DUP3 PUSH2 0x68AD JUMP JUMPDEST POP PUSH1 0x40 DUP3 ADD MLOAD PUSH2 0x6DC7 PUSH1 0x40 DUP6 ADD DUP3 PUSH2 0x68AD JUMP JUMPDEST POP POP POP POP JUMP JUMPDEST PUSH1 0x0 PUSH1 0xA0 DUP4 ADD PUSH1 0x0 DUP4 ADD MLOAD PUSH2 0x6DE5 PUSH1 0x0 DUP7 ADD DUP3 PUSH2 0x6813 JUMP JUMPDEST POP PUSH1 0x20 DUP4 ADD MLOAD PUSH2 0x6DF8 PUSH1 0x20 DUP7 ADD DUP3 PUSH2 0x68AD JUMP JUMPDEST POP PUSH1 0x40 DUP4 ADD MLOAD PUSH2 0x6E0B PUSH1 0x40 DUP7 ADD DUP3 PUSH2 0x688F JUMP JUMPDEST POP PUSH1 0x60 DUP4 ADD MLOAD DUP5 DUP3 SUB PUSH1 0x60 DUP7 ADD MSTORE PUSH2 0x6E23 DUP3 DUP3 PUSH2 0x702E JUMP JUMPDEST SWAP2 POP POP PUSH1 0x80 DUP4 ADD MLOAD DUP5 DUP3 SUB PUSH1 0x80 DUP7 ADD MSTORE PUSH2 0x6E3D DUP3 DUP3 PUSH2 0x6E4A JUMP JUMPDEST SWAP2 POP POP DUP1 SWAP2 POP POP SWAP3 SWAP2 POP POP JUMP JUMPDEST PUSH1 0x0 PUSH2 0x260 DUP4 ADD PUSH1 0x0 DUP4 ADD MLOAD PUSH2 0x6E63 PUSH1 0x0 DUP7 ADD DUP3 PUSH2 0x6813 JUMP JUMPDEST POP PUSH1 0x20 DUP4 ADD MLOAD PUSH2 0x6E76 PUSH1 0x20 DUP7 ADD DUP3 PUSH2 0x6813 JUMP JUMPDEST POP PUSH1 0x40 DUP4 ADD MLOAD DUP5 DUP3 SUB PUSH1 0x40 DUP7 ADD MSTORE PUSH2 0x6E8E DUP3 DUP3 PUSH2 0x702E JUMP JUMPDEST SWAP2 POP POP PUSH1 0x60 DUP4 ADD MLOAD PUSH2 0x6EA3 PUSH1 0x60 DUP7 ADD DUP3 PUSH2 0x6D8B JUMP JUMPDEST POP PUSH1 0x80 DUP4 ADD MLOAD PUSH2 0x6EB6 PUSH1 0xC0 DUP7 ADD DUP3 PUSH2 0x6D8B JUMP JUMPDEST POP PUSH1 0xA0 DUP4 ADD MLOAD PUSH2 0x6ECA PUSH2 0x120 DUP7 ADD DUP3 PUSH2 0x6D8B JUMP JUMPDEST POP PUSH1 0xC0 DUP4 ADD MLOAD PUSH2 0x6EDE PUSH2 0x180 DUP7 ADD DUP3 PUSH2 0x6D8B JUMP JUMPDEST POP PUSH1 0xE0 DUP4 ADD MLOAD PUSH2 0x6EF2 PUSH2 0x1E0 DUP7 ADD DUP3 PUSH2 0x70C2 JUMP JUMPDEST POP PUSH2 0x100 DUP4 ADD MLOAD PUSH2 0x6F07 PUSH2 0x200 DUP7 ADD DUP3 PUSH2 0x70EF JUMP JUMPDEST POP PUSH2 0x120 DUP4 ADD MLOAD PUSH2 0x6F1C PUSH2 0x220 DUP7 ADD DUP3 PUSH2 0x70C2 JUMP JUMPDEST POP PUSH2 0x140 DUP4 ADD MLOAD PUSH2 0x6F31 PUSH2 0x240 DUP7 ADD DUP3 PUSH2 0x70C2 JUMP JUMPDEST POP DUP1 SWAP2 POP POP SWAP3 SWAP2 POP POP JUMP JUMPDEST PUSH1 0x0 PUSH2 0x260 DUP4 ADD PUSH1 0x0 DUP4 ADD MLOAD PUSH2 0x6F55 PUSH1 0x0 DUP7 ADD DUP3 PUSH2 0x6813 JUMP JUMPDEST POP PUSH1 0x20 DUP4 ADD MLOAD PUSH2 0x6F68 PUSH1 0x20 DUP7 ADD DUP3 PUSH2 0x6813 JUMP JUMPDEST POP PUSH1 0x40 DUP4 ADD MLOAD DUP5 DUP3 SUB PUSH1 0x40 DUP7 ADD MSTORE PUSH2 0x6F80 DUP3 DUP3 PUSH2 0x702E JUMP JUMPDEST SWAP2 POP POP PUSH1 0x60 DUP4 ADD MLOAD PUSH2 0x6F95 PUSH1 0x60 DUP7 ADD DUP3 PUSH2 0x6D8B JUMP JUMPDEST POP PUSH1 0x80 DUP4 ADD MLOAD PUSH2 0x6FA8 PUSH1 0xC0 DUP7 ADD DUP3 PUSH2 0x6D8B JUMP JUMPDEST POP PUSH1 0xA0 DUP4 ADD MLOAD PUSH2 0x6FBC PUSH2 0x120 DUP7 ADD DUP3 PUSH2 0x6D8B JUMP JUMPDEST POP PUSH1 0xC0 DUP4 ADD MLOAD PUSH2 0x6FD0 PUSH2 0x180 DUP7 ADD DUP3 PUSH2 0x6D8B JUMP JUMPDEST POP PUSH1 0xE0 DUP4 ADD MLOAD PUSH2 0x6FE4 PUSH2 0x1E0 DUP7 ADD DUP3 PUSH2 0x70C2 JUMP JUMPDEST POP PUSH2 0x100 DUP4 ADD MLOAD PUSH2 0x6FF9 PUSH2 0x200 DUP7 ADD DUP3 PUSH2 0x70EF JUMP JUMPDEST POP PUSH2 0x120 DUP4 ADD MLOAD PUSH2 0x700E PUSH2 0x220 DUP7 ADD DUP3 PUSH2 0x70C2 JUMP JUMPDEST POP PUSH2 0x140 DUP4 ADD MLOAD PUSH2 0x7023 PUSH2 0x240 DUP7 ADD DUP3 PUSH2 0x70C2 JUMP JUMPDEST POP DUP1 SWAP2 POP POP SWAP3 SWAP2 POP POP JUMP JUMPDEST PUSH1 0x0 PUSH1 0xE0 DUP4 ADD PUSH1 0x0 DUP4 ADD MLOAD PUSH2 0x7046 PUSH1 0x0 DUP7 ADD DUP3 PUSH2 0x6D8B JUMP JUMPDEST POP PUSH1 0x20 DUP4 ADD MLOAD PUSH2 0x7059 PUSH1 0x60 DUP7 ADD DUP3 PUSH2 0x6813 JUMP JUMPDEST POP PUSH1 0x40 DUP4 ADD MLOAD PUSH2 0x706C PUSH1 0x80 DUP7 ADD DUP3 PUSH2 0x68AD JUMP JUMPDEST POP PUSH1 0x60 DUP4 ADD MLOAD PUSH2 0x707F PUSH1 0xA0 DUP7 ADD DUP3 PUSH2 0x6813 JUMP JUMPDEST POP PUSH1 0x80 DUP4 ADD MLOAD DUP5 DUP3 SUB PUSH1 0xC0 DUP7 ADD MSTORE PUSH2 0x7097 DUP3 DUP3 PUSH2 0x68F0 JUMP JUMPDEST SWAP2 POP POP DUP1 SWAP2 POP POP SWAP3 SWAP2 POP POP JUMP JUMPDEST PUSH2 0x70AD DUP2 PUSH2 0x8233 JUMP JUMPDEST DUP3 MSTORE POP POP JUMP JUMPDEST PUSH2 0x70BC DUP2 PUSH2 0x827F JUMP JUMPDEST DUP3 MSTORE POP POP JUMP JUMPDEST PUSH2 0x70CB DUP2 PUSH2 0x8242 JUMP JUMPDEST DUP3 MSTORE POP POP JUMP JUMPDEST PUSH2 0x70DA DUP2 PUSH2 0x8242 JUMP JUMPDEST DUP3 MSTORE POP POP JUMP JUMPDEST PUSH2 0x70E9 DUP2 PUSH2 0x8291 JUMP JUMPDEST DUP3 MSTORE POP POP JUMP JUMPDEST PUSH2 0x70F8 DUP2 PUSH2 0x824C JUMP JUMPDEST DUP3 MSTORE POP POP JUMP JUMPDEST PUSH1 0x0 PUSH2 0x710B DUP3 DUP7 DUP9 PUSH2 0x68CB JUMP JUMPDEST SWAP2 POP PUSH2 0x7118 DUP3 DUP5 DUP7 PUSH2 0x68CB JUMP JUMPDEST SWAP2 POP DUP2 SWAP1 POP SWAP6 SWAP5 POP POP POP POP POP JUMP JUMPDEST PUSH1 0x0 PUSH2 0x7131 DUP3 PUSH2 0x69FD JUMP JUMPDEST SWAP2 POP DUP2 SWAP1 POP SWAP2 SWAP1 POP JUMP JUMPDEST PUSH1 0x0 PUSH1 0x20 DUP3 ADD SWAP1 POP PUSH2 0x7150 PUSH1 0x0 DUP4 ADD DUP5 PUSH2 0x6822 JUMP JUMPDEST SWAP3 SWAP2 POP POP JUMP JUMPDEST PUSH1 0x0 PUSH1 0x40 DUP3 ADD SWAP1 POP PUSH2 0x716B PUSH1 0x0 DUP4 ADD DUP6 PUSH2 0x6822 JUMP JUMPDEST PUSH2 0x7178 PUSH1 0x20 DUP4 ADD DUP5 PUSH2 0x689E JUMP JUMPDEST SWAP4 SWAP3 POP POP POP JUMP JUMPDEST PUSH1 0x0 PUSH1 0x40 DUP3 ADD SWAP1 POP PUSH2 0x7194 PUSH1 0x0 DUP4 ADD DUP6 PUSH2 0x6822 JUMP JUMPDEST PUSH2 0x71A1 PUSH1 0x20 DUP4 ADD DUP5 PUSH2 0x6962 JUMP JUMPDEST SWAP4 SWAP3 POP POP POP JUMP JUMPDEST PUSH1 0x0 PUSH1 0x40 DUP3 ADD SWAP1 POP PUSH2 0x71BD PUSH1 0x0 DUP4 ADD DUP6 PUSH2 0x6822 JUMP JUMPDEST PUSH2 0x71CA PUSH1 0x20 DUP4 ADD DUP5 PUSH2 0x70D1 JUMP JUMPDEST SWAP4 SWAP3 POP POP POP JUMP JUMPDEST PUSH1 0x0 PUSH1 0x20 DUP3 ADD SWAP1 POP PUSH2 0x71E6 PUSH1 0x0 DUP4 ADD DUP5 PUSH2 0x689E JUMP JUMPDEST SWAP3 SWAP2 POP POP JUMP JUMPDEST PUSH1 0x0 PUSH1 0x20 DUP3 ADD SWAP1 POP PUSH2 0x7201 PUSH1 0x0 DUP4 ADD DUP5 PUSH2 0x68BC JUMP JUMPDEST SWAP3 SWAP2 POP POP JUMP JUMPDEST PUSH1 0x0 PUSH1 0x80 DUP3 ADD SWAP1 POP PUSH2 0x721C PUSH1 0x0 DUP4 ADD DUP8 PUSH2 0x68BC JUMP JUMPDEST PUSH2 0x7229 PUSH1 0x20 DUP4 ADD DUP7 PUSH2 0x6822 JUMP JUMPDEST PUSH2 0x7236 PUSH1 0x40 DUP4 ADD DUP6 PUSH2 0x68BC JUMP JUMPDEST PUSH2 0x7243 PUSH1 0x60 DUP4 ADD DUP5 PUSH2 0x68BC JUMP JUMPDEST SWAP6 SWAP5 POP POP POP POP POP JUMP JUMPDEST PUSH1 0x0 PUSH1 0xA0 DUP3 ADD SWAP1 POP PUSH2 0x7261 PUSH1 0x0 DUP4 ADD DUP9 PUSH2 0x68BC JUMP JUMPDEST PUSH2 0x726E PUSH1 0x20 DUP4 ADD DUP8 PUSH2 0x6822 JUMP JUMPDEST PUSH2 0x727B PUSH1 0x40 DUP4 ADD DUP7 PUSH2 0x68BC JUMP JUMPDEST PUSH2 0x7288 PUSH1 0x60 DUP4 ADD DUP6 PUSH2 0x68BC JUMP JUMPDEST PUSH2 0x7295 PUSH1 0x80 DUP4 ADD DUP5 PUSH2 0x68BC JUMP JUMPDEST SWAP7 SWAP6 POP POP POP POP POP POP JUMP JUMPDEST PUSH1 0x0 PUSH2 0x120 DUP3 ADD SWAP1 POP PUSH2 0x72B5 PUSH1 0x0 DUP4 ADD DUP13 PUSH2 0x68BC JUMP JUMPDEST PUSH2 0x72C2 PUSH1 0x20 DUP4 ADD DUP12 PUSH2 0x6822 JUMP JUMPDEST PUSH2 0x72CF PUSH1 0x40 DUP4 ADD DUP11 PUSH2 0x68BC JUMP JUMPDEST PUSH2 0x72DC PUSH1 0x60 DUP4 ADD DUP10 PUSH2 0x68BC JUMP JUMPDEST PUSH2 0x72E9 PUSH1 0x80 DUP4 ADD DUP9 PUSH2 0x68BC JUMP JUMPDEST PUSH2 0x72F6 PUSH1 0xA0 DUP4 ADD DUP8 PUSH2 0x68BC JUMP JUMPDEST DUP2 DUP2 SUB PUSH1 0xC0 DUP4 ADD MSTORE PUSH2 0x7308 DUP2 DUP7 PUSH2 0x6929 JUMP JUMPDEST SWAP1 POP PUSH2 0x7317 PUSH1 0xE0 DUP4 ADD DUP6 PUSH2 0x70D1 JUMP JUMPDEST PUSH2 0x7325 PUSH2 0x100 DUP4 ADD DUP5 PUSH2 0x70E0 JUMP JUMPDEST SWAP11 SWAP10 POP POP POP POP POP POP POP POP POP POP JUMP JUMPDEST PUSH1 0x0 PUSH1 0xC0 DUP3 ADD SWAP1 POP PUSH2 0x7348 PUSH1 0x0 DUP4 ADD DUP10 PUSH2 0x68BC JUMP JUMPDEST PUSH2 0x7355 PUSH1 0x20 DUP4 ADD DUP9 PUSH2 0x6822 JUMP JUMPDEST PUSH2 0x7362 PUSH1 0x40 DUP4 ADD DUP8 PUSH2 0x68BC JUMP JUMPDEST PUSH2 0x736F PUSH1 0x60 DUP4 ADD DUP7 PUSH2 0x68BC JUMP JUMPDEST DUP2 DUP2 SUB PUSH1 0x80 DUP4 ADD MSTORE PUSH2 0x7381 DUP2 DUP6 PUSH2 0x6929 JUMP JUMPDEST SWAP1 POP PUSH2 0x7390 PUSH1 0xA0 DUP4 ADD DUP5 PUSH2 0x6822 JUMP JUMPDEST SWAP8 SWAP7 POP POP POP POP POP POP POP JUMP JUMPDEST PUSH1 0x0 PUSH1 0x60 DUP3 ADD SWAP1 POP PUSH2 0x73B0 PUSH1 0x0 DUP4 ADD DUP7 PUSH2 0x68BC JUMP JUMPDEST PUSH2 0x73BD PUSH1 0x20 DUP4 ADD DUP6 PUSH2 0x70D1 JUMP JUMPDEST PUSH2 0x73CA PUSH1 0x40 DUP4 ADD DUP5 PUSH2 0x68BC JUMP JUMPDEST SWAP5 SWAP4 POP POP POP POP JUMP JUMPDEST PUSH1 0x0 PUSH1 0x20 DUP3 ADD SWAP1 POP DUP2 DUP2 SUB PUSH1 0x0 DUP4 ADD MSTORE PUSH2 0x73EC DUP2 DUP5 PUSH2 0x6929 JUMP JUMPDEST SWAP1 POP SWAP3 SWAP2 POP POP JUMP JUMPDEST PUSH1 0x0 PUSH1 0x20 DUP3 ADD SWAP1 POP DUP2 DUP2 SUB PUSH1 0x0 DUP4 ADD MSTORE PUSH2 0x740D DUP2 PUSH2 0x6971 JUMP JUMPDEST SWAP1 POP SWAP2 SWAP1 POP JUMP JUMPDEST PUSH1 0x0 PUSH1 0x20 DUP3 ADD SWAP1 POP DUP2 DUP2 SUB PUSH1 0x0 DUP4 ADD MSTORE PUSH2 0x742D DUP2 PUSH2 0x6994 JUMP JUMPDEST SWAP1 POP SWAP2 SWAP1 POP JUMP JUMPDEST PUSH1 0x0 PUSH1 0x20 DUP3 ADD SWAP1 POP DUP2 DUP2 SUB PUSH1 0x0 DUP4 ADD MSTORE PUSH2 0x744D DUP2 PUSH2 0x69B7 JUMP JUMPDEST SWAP1 POP SWAP2 SWAP1 POP JUMP JUMPDEST PUSH1 0x0 PUSH1 0x20 DUP3 ADD SWAP1 POP DUP2 DUP2 SUB PUSH1 0x0 DUP4 ADD MSTORE PUSH2 0x746D DUP2 PUSH2 0x69DA JUMP JUMPDEST SWAP1 POP SWAP2 SWAP1 POP JUMP JUMPDEST PUSH1 0x0 PUSH1 0x20 DUP3 ADD SWAP1 POP DUP2 DUP2 SUB PUSH1 0x0 DUP4 ADD MSTORE PUSH2 0x748D DUP2 PUSH2 0x6A20 JUMP JUMPDEST SWAP1 POP SWAP2 SWAP1 POP JUMP JUMPDEST PUSH1 0x0 PUSH1 0x20 DUP3 ADD SWAP1 POP DUP2 DUP2 SUB PUSH1 0x0 DUP4 ADD MSTORE PUSH2 0x74AD DUP2 PUSH2 0x6A43 JUMP JUMPDEST SWAP1 POP SWAP2 SWAP1 POP JUMP JUMPDEST PUSH1 0x0 PUSH1 0x20 DUP3 ADD SWAP1 POP DUP2 DUP2 SUB PUSH1 0x0 DUP4 ADD MSTORE PUSH2 0x74CD DUP2 PUSH2 0x6A66 JUMP JUMPDEST SWAP1 POP SWAP2 SWAP1 POP JUMP JUMPDEST PUSH1 0x0 PUSH1 0x20 DUP3 ADD SWAP1 POP DUP2 DUP2 SUB PUSH1 0x0 DUP4 ADD MSTORE PUSH2 0x74ED DUP2 PUSH2 0x6A89 JUMP JUMPDEST SWAP1 POP SWAP2 SWAP1 POP JUMP JUMPDEST PUSH1 0x0 PUSH1 0x20 DUP3 ADD SWAP1 POP DUP2 DUP2 SUB PUSH1 0x0 DUP4 ADD MSTORE PUSH2 0x750D DUP2 PUSH2 0x6AAC JUMP JUMPDEST SWAP1 POP SWAP2 SWAP1 POP JUMP JUMPDEST PUSH1 0x0 PUSH1 0x20 DUP3 ADD SWAP1 POP DUP2 DUP2 SUB PUSH1 0x0 DUP4 ADD MSTORE PUSH2 0x752D DUP2 PUSH2 0x6ACF JUMP JUMPDEST SWAP1 POP SWAP2 SWAP1 POP JUMP JUMPDEST PUSH1 0x0 PUSH1 0x20 DUP3 ADD SWAP1 POP DUP2 DUP2 SUB PUSH1 0x0 DUP4 ADD MSTORE PUSH2 0x754D DUP2 PUSH2 0x6AF2 JUMP JUMPDEST SWAP1 POP SWAP2 SWAP1 POP JUMP JUMPDEST PUSH1 0x0 PUSH1 0x20 DUP3 ADD SWAP1 POP DUP2 DUP2 SUB PUSH1 0x0 DUP4 ADD MSTORE PUSH2 0x756D DUP2 PUSH2 0x6B15 JUMP JUMPDEST SWAP1 POP SWAP2 SWAP1 POP JUMP JUMPDEST PUSH1 0x0 PUSH1 0x20 DUP3 ADD SWAP1 POP DUP2 DUP2 SUB PUSH1 0x0 DUP4 ADD MSTORE PUSH2 0x758D DUP2 PUSH2 0x6B38 JUMP JUMPDEST SWAP1 POP SWAP2 SWAP1 POP JUMP JUMPDEST PUSH1 0x0 PUSH1 0x20 DUP3 ADD SWAP1 POP DUP2 DUP2 SUB PUSH1 0x0 DUP4 ADD MSTORE PUSH2 0x75AD DUP2 PUSH2 0x6B5B JUMP JUMPDEST SWAP1 POP SWAP2 SWAP1 POP JUMP JUMPDEST PUSH1 0x0 PUSH1 0x20 DUP3 ADD SWAP1 POP DUP2 DUP2 SUB PUSH1 0x0 DUP4 ADD MSTORE PUSH2 0x75CD DUP2 PUSH2 0x6B7E JUMP JUMPDEST SWAP1 POP SWAP2 SWAP1 POP JUMP JUMPDEST PUSH1 0x0 PUSH1 0x20 DUP3 ADD SWAP1 POP DUP2 DUP2 SUB PUSH1 0x0 DUP4 ADD MSTORE PUSH2 0x75ED DUP2 PUSH2 0x6BA1 JUMP JUMPDEST SWAP1 POP SWAP2 SWAP1 POP JUMP JUMPDEST PUSH1 0x0 PUSH1 0x20 DUP3 ADD SWAP1 POP DUP2 DUP2 SUB PUSH1 0x0 DUP4 ADD MSTORE PUSH2 0x760D DUP2 PUSH2 0x6BC4 JUMP JUMPDEST SWAP1 POP SWAP2 SWAP1 POP JUMP JUMPDEST PUSH1 0x0 PUSH1 0x20 DUP3 ADD SWAP1 POP DUP2 DUP2 SUB PUSH1 0x0 DUP4 ADD MSTORE PUSH2 0x762D DUP2 PUSH2 0x6BE7 JUMP JUMPDEST SWAP1 POP SWAP2 SWAP1 POP JUMP JUMPDEST PUSH1 0x0 PUSH1 0x20 DUP3 ADD SWAP1 POP DUP2 DUP2 SUB PUSH1 0x0 DUP4 ADD MSTORE PUSH2 0x764D DUP2 PUSH2 0x6C0A JUMP JUMPDEST SWAP1 POP SWAP2 SWAP1 POP JUMP JUMPDEST PUSH1 0x0 PUSH1 0x20 DUP3 ADD SWAP1 POP DUP2 DUP2 SUB PUSH1 0x0 DUP4 ADD MSTORE PUSH2 0x766D DUP2 PUSH2 0x6C2D JUMP JUMPDEST SWAP1 POP SWAP2 SWAP1 POP JUMP JUMPDEST PUSH1 0x0 PUSH1 0x20 DUP3 ADD SWAP1 POP DUP2 DUP2 SUB PUSH1 0x0 DUP4 ADD MSTORE PUSH2 0x768D DUP2 PUSH2 0x6C50 JUMP JUMPDEST SWAP1 POP SWAP2 SWAP1 POP JUMP JUMPDEST PUSH1 0x0 PUSH1 0x20 DUP3 ADD SWAP1 POP DUP2 DUP2 SUB PUSH1 0x0 DUP4 ADD MSTORE PUSH2 0x76AD DUP2 PUSH2 0x6C73 JUMP JUMPDEST SWAP1 POP SWAP2 SWAP1 POP JUMP JUMPDEST PUSH1 0x0 PUSH1 0x20 DUP3 ADD SWAP1 POP DUP2 DUP2 SUB PUSH1 0x0 DUP4 ADD MSTORE PUSH2 0x76CD DUP2 PUSH2 0x6C96 JUMP JUMPDEST SWAP1 POP SWAP2 SWAP1 POP JUMP JUMPDEST PUSH1 0x0 PUSH1 0x20 DUP3 ADD SWAP1 POP DUP2 DUP2 SUB PUSH1 0x0 DUP4 ADD MSTORE PUSH2 0x76ED DUP2 PUSH2 0x6CB9 JUMP JUMPDEST SWAP1 POP SWAP2 SWAP1 POP JUMP JUMPDEST PUSH1 0x0 PUSH1 0x20 DUP3 ADD SWAP1 POP DUP2 DUP2 SUB PUSH1 0x0 DUP4 ADD MSTORE PUSH2 0x770D DUP2 PUSH2 0x6CDC JUMP JUMPDEST SWAP1 POP SWAP2 SWAP1 POP JUMP JUMPDEST PUSH1 0x0 PUSH1 0x20 DUP3 ADD SWAP1 POP DUP2 DUP2 SUB PUSH1 0x0 DUP4 ADD MSTORE PUSH2 0x772D DUP2 PUSH2 0x6CFF JUMP JUMPDEST SWAP1 POP SWAP2 SWAP1 POP JUMP JUMPDEST PUSH1 0x0 PUSH1 0x20 DUP3 ADD SWAP1 POP DUP2 DUP2 SUB PUSH1 0x0 DUP4 ADD MSTORE PUSH2 0x774D DUP2 PUSH2 0x6D22 JUMP JUMPDEST SWAP1 POP SWAP2 SWAP1 POP JUMP JUMPDEST PUSH1 0x0 PUSH1 0x20 DUP3 ADD SWAP1 POP DUP2 DUP2 SUB PUSH1 0x0 DUP4 ADD MSTORE PUSH2 0x776D DUP2 PUSH2 0x6D45 JUMP JUMPDEST SWAP1 POP SWAP2 SWAP1 POP JUMP JUMPDEST PUSH1 0x0 PUSH1 0x20 DUP3 ADD SWAP1 POP DUP2 DUP2 SUB PUSH1 0x0 DUP4 ADD MSTORE PUSH2 0x778D DUP2 PUSH2 0x6D68 JUMP JUMPDEST SWAP1 POP SWAP2 SWAP1 POP JUMP JUMPDEST PUSH1 0x0 PUSH1 0x20 DUP3 ADD SWAP1 POP DUP2 DUP2 SUB PUSH1 0x0 DUP4 ADD MSTORE PUSH2 0x77AE DUP2 DUP5 PUSH2 0x6DCD JUMP JUMPDEST SWAP1 POP SWAP3 SWAP2 POP POP JUMP JUMPDEST PUSH1 0x0 PUSH1 0x20 DUP3 ADD SWAP1 POP DUP2 DUP2 SUB PUSH1 0x0 DUP4 ADD MSTORE PUSH2 0x77D0 DUP2 DUP5 PUSH2 0x6F3C JUMP JUMPDEST SWAP1 POP SWAP3 SWAP2 POP POP JUMP JUMPDEST PUSH1 0x0 PUSH1 0xC0 DUP3 ADD SWAP1 POP PUSH2 0x77ED PUSH1 0x0 DUP4 ADD DUP10 PUSH2 0x70B3 JUMP JUMPDEST PUSH2 0x77FA PUSH1 0x20 DUP4 ADD DUP9 PUSH2 0x68BC JUMP JUMPDEST PUSH2 0x7807 PUSH1 0x40 DUP4 ADD DUP8 PUSH2 0x70D1 JUMP JUMPDEST PUSH2 0x7814 PUSH1 0x60 DUP4 ADD DUP7 PUSH2 0x70D1 JUMP JUMPDEST DUP2 DUP2 SUB PUSH1 0x80 DUP4 ADD MSTORE PUSH2 0x7826 DUP2 DUP6 PUSH2 0x6831 JUMP JUMPDEST SWAP1 POP DUP2 DUP2 SUB PUSH1 0xA0 DUP4 ADD MSTORE PUSH2 0x783A DUP2 DUP5 PUSH2 0x6831 JUMP JUMPDEST SWAP1 POP SWAP8 SWAP7 POP POP POP POP POP POP POP JUMP JUMPDEST PUSH1 0x0 PUSH1 0x20 DUP3 ADD SWAP1 POP PUSH2 0x785C PUSH1 0x0 DUP4 ADD DUP5 PUSH2 0x70D1 JUMP JUMPDEST SWAP3 SWAP2 POP POP JUMP JUMPDEST PUSH1 0x0 PUSH1 0x40 DUP3 ADD SWAP1 POP PUSH2 0x7877 PUSH1 0x0 DUP4 ADD DUP6 PUSH2 0x70D1 JUMP JUMPDEST PUSH2 0x7884 PUSH1 0x20 DUP4 ADD DUP5 PUSH2 0x70D1 JUMP JUMPDEST SWAP4 SWAP3 POP POP POP JUMP JUMPDEST PUSH1 0x0 PUSH2 0x7895 PUSH2 0x78A6 JUMP JUMPDEST SWAP1 POP PUSH2 0x78A1 DUP3 DUP3 PUSH2 0x8317 JUMP JUMPDEST SWAP2 SWAP1 POP JUMP JUMPDEST PUSH1 0x0 PUSH1 0x40 MLOAD SWAP1 POP SWAP1 JUMP JUMPDEST PUSH1 0x0 PUSH8 0xFFFFFFFFFFFFFFFF DUP3 GT ISZERO PUSH2 0x78CB JUMPI PUSH2 0x78CA PUSH2 0x84AF JUMP JUMPDEST JUMPDEST PUSH1 0x20 DUP3 MUL SWAP1 POP PUSH1 0x20 DUP2 ADD SWAP1 POP SWAP2 SWAP1 POP JUMP JUMPDEST PUSH1 0x0 PUSH8 0xFFFFFFFFFFFFFFFF DUP3 GT ISZERO PUSH2 0x78F7 JUMPI PUSH2 0x78F6 PUSH2 0x84AF JUMP JUMPDEST JUMPDEST PUSH2 0x7900 DUP3 PUSH2 0x8506 JUMP JUMPDEST SWAP1 POP PUSH1 0x20 DUP2 ADD SWAP1 POP SWAP2 SWAP1 POP JUMP JUMPDEST PUSH1 0x0 DUP2 SWAP1 POP PUSH1 0x20 DUP3 ADD SWAP1 POP SWAP2 SWAP1 POP JUMP JUMPDEST PUSH1 0x0 DUP2 MLOAD SWAP1 POP SWAP2 SWAP1 POP JUMP JUMPDEST PUSH1 0x0 DUP2 MLOAD SWAP1 POP SWAP2 SWAP1 POP JUMP JUMPDEST PUSH1 0x0 PUSH1 0x20 DUP3 ADD SWAP1 POP SWAP2 SWAP1 POP JUMP JUMPDEST PUSH1 0x0 DUP3 DUP3 MSTORE PUSH1 0x20 DUP3 ADD SWAP1 POP SWAP3 SWAP2 POP POP JUMP JUMPDEST PUSH1 0x0 DUP3 DUP3 MSTORE PUSH1 0x20 DUP3 ADD SWAP1 POP SWAP3 SWAP2 POP POP JUMP JUMPDEST PUSH1 0x0 DUP3 DUP3 MSTORE PUSH1 0x20 DUP3 ADD SWAP1 POP SWAP3 SWAP2 POP POP JUMP JUMPDEST PUSH1 0x0 DUP2 SWAP1 POP SWAP3 SWAP2 POP POP JUMP JUMPDEST PUSH1 0x0 DUP3 DUP3 MSTORE PUSH1 0x20 DUP3 ADD SWAP1 POP SWAP3 SWAP2 POP POP JUMP JUMPDEST PUSH1 0x0 DUP2 SWAP1 POP SWAP3 SWAP2 POP POP JUMP JUMPDEST PUSH1 0x0 DUP1 DUP6 DUP6 GT ISZERO PUSH2 0x79AE JUMPI PUSH2 0x79AD PUSH2 0x84ED JUMP JUMPDEST JUMPDEST DUP4 DUP7 GT ISZERO PUSH2 0x79BF JUMPI PUSH2 0x79BE PUSH2 0x84E8 JUMP JUMPDEST JUMPDEST PUSH1 0x1 DUP6 MUL DUP4 ADD SWAP2 POP DUP5 DUP7 SUB SWAP1 POP SWAP5 POP SWAP5 SWAP3 POP POP POP JUMP JUMPDEST PUSH1 0x0 PUSH2 0x79E0 DUP3 PUSH2 0x81FC JUMP JUMPDEST SWAP2 POP PUSH2 0x79EB DUP4 PUSH2 0x81FC JUMP JUMPDEST SWAP3 POP DUP2 PUSH32 0x7FFFFFFFFFFFFFFFFFFFFFFFFFFFFFFFFFFFFFFFFFFFFFFFFFFFFFFFFFFFFFFF SUB DUP4 SGT PUSH1 0x0 DUP4 SLT ISZERO AND ISZERO PUSH2 0x7A26 JUMPI PUSH2 0x7A25 PUSH2 0x83F3 JUMP JUMPDEST JUMPDEST DUP2 PUSH32 0x8000000000000000000000000000000000000000000000000000000000000000 SUB DUP4 SLT PUSH1 0x0 DUP4 SLT AND ISZERO PUSH2 0x7A5E JUMPI PUSH2 0x7A5D PUSH2 0x83F3 JUMP JUMPDEST JUMPDEST DUP3 DUP3 ADD SWAP1 POP SWAP3 SWAP2 POP POP JUMP JUMPDEST PUSH1 0x0 PUSH2 0x7A74 DUP3 PUSH2 0x8233 JUMP JUMPDEST SWAP2 POP PUSH2 0x7A7F DUP4 PUSH2 0x8233 JUMP JUMPDEST SWAP3 POP DUP3 PUSH3 0xFFFFFF SUB DUP3 GT ISZERO PUSH2 0x7A97 JUMPI PUSH2 0x7A96 PUSH2 0x83F3 JUMP JUMPDEST JUMPDEST DUP3 DUP3 ADD SWAP1 POP SWAP3 SWAP2 POP POP JUMP JUMPDEST PUSH1 0x0 PUSH2 0x7AAD DUP3 PUSH2 0x8242 JUMP JUMPDEST SWAP2 POP PUSH2 0x7AB8 DUP4 PUSH2 0x8242 JUMP JUMPDEST SWAP3 POP DUP3 PUSH32 0xFFFFFFFFFFFFFFFFFFFFFFFFFFFFFFFFFFFFFFFFFFFFFFFFFFFFFFFFFFFFFFFF SUB DUP3 GT ISZERO PUSH2 0x7AED JUMPI PUSH2 0x7AEC PUSH2 0x83F3 JUMP JUMPDEST JUMPDEST DUP3 DUP3 ADD SWAP1 POP SWAP3 SWAP2 POP POP JUMP JUMPDEST PUSH1 0x0 PUSH2 0x7B03 DUP3 PUSH2 0x81FC JUMP JUMPDEST SWAP2 POP PUSH2 0x7B0E DUP4 PUSH2 0x81FC JUMP JUMPDEST SWAP3 POP DUP3 PUSH2 0x7B1E JUMPI PUSH2 0x7B1D PUSH2 0x8422 JUMP JUMPDEST JUMPDEST PUSH1 0x1 PUSH1 0x0 SUB DUP4 EQ PUSH32 0x8000000000000000000000000000000000000000000000000000000000000000 DUP4 EQ AND ISZERO PUSH2 0x7B57 JUMPI PUSH2 0x7B56 PUSH2 0x83F3 JUMP JUMPDEST JUMPDEST DUP3 DUP3 SDIV SWAP1 POP SWAP3 SWAP2 POP POP JUMP JUMPDEST PUSH1 0x0 PUSH2 0x7B6D DUP3 PUSH2 0x8206 JUMP JUMPDEST SWAP2 POP PUSH2 0x7B78 DUP4 PUSH2 0x8206 JUMP JUMPDEST SWAP3 POP DUP3 PUSH2 0x7B88 JUMPI PUSH2 0x7B87 PUSH2 0x8422 JUMP JUMPDEST JUMPDEST PUSH1 0x1 PUSH1 0x0 SUB DUP4 EQ PUSH32 0xFFFFFFFFFFFFFFFFFFFFFFFFFFFFFFFFFFFFFFFFFFFFFFFF8000000000000000 DUP4 EQ AND ISZERO PUSH2 0x7BC1 JUMPI PUSH2 0x7BC0 PUSH2 0x83F3 JUMP JUMPDEST JUMPDEST DUP3 DUP3 SDIV SWAP1 POP SWAP3 SWAP2 POP POP JUMP JUMPDEST PUSH1 0x0 PUSH2 0x7BD7 DUP3 PUSH2 0x8233 JUMP JUMPDEST SWAP2 POP PUSH2 0x7BE2 DUP4 PUSH2 0x8233 JUMP JUMPDEST SWAP3 POP DUP3 PUSH2 0x7BF2 JUMPI PUSH2 0x7BF1 PUSH2 0x8422 JUMP JUMPDEST JUMPDEST DUP3 DUP3 DIV SWAP1 POP SWAP3 SWAP2 POP POP JUMP JUMPDEST PUSH1 0x0 PUSH2 0x7C08 DUP3 PUSH2 0x8242 JUMP JUMPDEST SWAP2 POP PUSH2 0x7C13 DUP4 PUSH2 0x8242 JUMP JUMPDEST SWAP3 POP DUP3 PUSH2 0x7C23 JUMPI PUSH2 0x7C22 PUSH2 0x8422 JUMP JUMPDEST JUMPDEST DUP3 DUP3 DIV SWAP1 POP SWAP3 SWAP2 POP POP JUMP JUMPDEST PUSH1 0x0 PUSH2 0x7C39 DUP3 PUSH2 0x8260 JUMP JUMPDEST SWAP2 POP PUSH2 0x7C44 DUP4 PUSH2 0x8260 JUMP JUMPDEST SWAP3 POP DUP3 PUSH2 0x7C54 JUMPI PUSH2 0x7C53 PUSH2 0x8422 JUMP JUMPDEST JUMPDEST DUP3 DUP3 DIV SWAP1 POP SWAP3 SWAP2 POP POP JUMP JUMPDEST PUSH1 0x0 DUP1 DUP3 SWAP2 POP DUP4 SWAP1 POP JUMPDEST PUSH1 0x1 DUP6 GT ISZERO PUSH2 0x7CA9 JUMPI DUP1 DUP7 DIV DUP2 GT ISZERO PUSH2 0x7C85 JUMPI PUSH2 0x7C84 PUSH2 0x83F3 JUMP JUMPDEST JUMPDEST PUSH1 0x1 DUP6 AND ISZERO PUSH2 0x7C94 JUMPI DUP1 DUP3 MUL SWAP2 POP JUMPDEST DUP1 DUP2 MUL SWAP1 POP PUSH2 0x7CA2 DUP6 PUSH2 0x8517 JUMP JUMPDEST SWAP5 POP PUSH2 0x7C69 JUMP JUMPDEST SWAP5 POP SWAP5 SWAP3 POP POP POP JUMP JUMPDEST PUSH1 0x0 PUSH2 0x7CBD DUP3 PUSH2 0x8242 JUMP JUMPDEST SWAP2 POP PUSH2 0x7CC8 DUP4 PUSH2 0x8242 JUMP JUMPDEST SWAP3 POP PUSH2 0x7CF5 PUSH32 0xFFFFFFFFFFFFFFFFFFFFFFFFFFFFFFFFFFFFFFFFFFFFFFFFFFFFFFFFFFFFFFFF DUP5 DUP5 PUSH2 0x7CFD JUMP JUMPDEST SWAP1 POP SWAP3 SWAP2 POP POP JUMP JUMPDEST PUSH1 0x0 DUP3 PUSH2 0x7D0D JUMPI PUSH1 0x1 SWAP1 POP PUSH2 0x7DC9 JUMP JUMPDEST DUP2 PUSH2 0x7D1B JUMPI PUSH1 0x0 SWAP1 POP PUSH2 0x7DC9 JUMP JUMPDEST DUP2 PUSH1 0x1 DUP2 EQ PUSH2 0x7D31 JUMPI PUSH1 0x2 DUP2 EQ PUSH2 0x7D3B JUMPI PUSH2 0x7D6A JUMP JUMPDEST PUSH1 0x1 SWAP2 POP POP PUSH2 0x7DC9 JUMP JUMPDEST PUSH1 0xFF DUP5 GT ISZERO PUSH2 0x7D4D JUMPI PUSH2 0x7D4C PUSH2 0x83F3 JUMP JUMPDEST JUMPDEST DUP4 PUSH1 0x2 EXP SWAP2 POP DUP5 DUP3 GT ISZERO PUSH2 0x7D64 JUMPI PUSH2 0x7D63 PUSH2 0x83F3 JUMP JUMPDEST JUMPDEST POP PUSH2 0x7DC9 JUMP JUMPDEST POP PUSH1 0x20 DUP4 LT PUSH2 0x133 DUP4 LT AND PUSH1 0x4E DUP5 LT PUSH1 0xB DUP5 LT AND OR ISZERO PUSH2 0x7D9F JUMPI DUP3 DUP3 EXP SWAP1 POP DUP4 DUP2 GT ISZERO PUSH2 0x7D9A JUMPI PUSH2 0x7D99 PUSH2 0x83F3 JUMP JUMPDEST JUMPDEST PUSH2 0x7DC9 JUMP JUMPDEST PUSH2 0x7DAC DUP5 DUP5 DUP5 PUSH1 0x1 PUSH2 0x7C5F JUMP JUMPDEST SWAP3 POP SWAP1 POP DUP2 DUP5 DIV DUP2 GT ISZERO PUSH2 0x7DC3 JUMPI PUSH2 0x7DC2 PUSH2 0x83F3 JUMP JUMPDEST JUMPDEST DUP2 DUP2 MUL SWAP1 POP JUMPDEST SWAP4 SWAP3 POP POP POP JUMP JUMPDEST PUSH1 0x0 PUSH2 0x7DDB DUP3 PUSH2 0x81FC JUMP JUMPDEST SWAP2 POP PUSH2 0x7DE6 DUP4 PUSH2 0x81FC JUMP JUMPDEST SWAP3 POP DUP3 PUSH32 0x7FFFFFFFFFFFFFFFFFFFFFFFFFFFFFFFFFFFFFFFFFFFFFFFFFFFFFFFFFFFFFFF DIV DUP3 GT PUSH1 0x0 DUP5 SGT PUSH1 0x0 DUP5 SGT AND AND ISZERO PUSH2 0x7E25 JUMPI PUSH2 0x7E24 PUSH2 0x83F3 JUMP JUMPDEST JUMPDEST DUP2 PUSH32 0x8000000000000000000000000000000000000000000000000000000000000000 SDIV DUP4 SLT PUSH1 0x0 DUP5 SLT PUSH1 0x0 DUP5 SGT AND AND ISZERO PUSH2 0x7E62 JUMPI PUSH2 0x7E61 PUSH2 0x83F3 JUMP JUMPDEST JUMPDEST DUP3 PUSH32 0x8000000000000000000000000000000000000000000000000000000000000000 SDIV DUP3 SLT PUSH1 0x0 DUP5 SGT PUSH1 0x0 DUP5 SLT AND AND ISZERO PUSH2 0x7E9F JUMPI PUSH2 0x7E9E PUSH2 0x83F3 JUMP JUMPDEST JUMPDEST DUP3 PUSH32 0x7FFFFFFFFFFFFFFFFFFFFFFFFFFFFFFFFFFFFFFFFFFFFFFFFFFFFFFFFFFFFFFF SDIV DUP3 SLT PUSH1 0x0 DUP5 SLT PUSH1 0x0 DUP5 SLT AND AND ISZERO PUSH2 0x7EDC JUMPI PUSH2 0x7EDB PUSH2 0x83F3 JUMP JUMPDEST JUMPDEST DUP3 DUP3 MUL SWAP1 POP SWAP3 SWAP2 POP POP JUMP JUMPDEST PUSH1 0x0 PUSH2 0x7EF2 DUP3 PUSH2 0x8206 JUMP JUMPDEST SWAP2 POP PUSH2 0x7EFD DUP4 PUSH2 0x8206 JUMP JUMPDEST SWAP3 POP DUP3 PUSH8 0x7FFFFFFFFFFFFFFF DIV DUP3 GT PUSH1 0x0 DUP5 SGT PUSH1 0x0 DUP5 SGT AND AND ISZERO PUSH2 0x7F24 JUMPI PUSH2 0x7F23 PUSH2 0x83F3 JUMP JUMPDEST JUMPDEST DUP2 PUSH32 0xFFFFFFFFFFFFFFFFFFFFFFFFFFFFFFFFFFFFFFFFFFFFFFFF8000000000000000 SDIV DUP4 SLT PUSH1 0x0 DUP5 SLT PUSH1 0x0 DUP5 SGT AND AND ISZERO PUSH2 0x7F61 JUMPI PUSH2 0x7F60 PUSH2 0x83F3 JUMP JUMPDEST JUMPDEST DUP3 PUSH32 0xFFFFFFFFFFFFFFFFFFFFFFFFFFFFFFFFFFFFFFFFFFFFFFFF8000000000000000 SDIV DUP3 SLT PUSH1 0x0 DUP5 SGT PUSH1 0x0 DUP5 SLT AND AND ISZERO PUSH2 0x7F9E JUMPI PUSH2 0x7F9D PUSH2 0x83F3 JUMP JUMPDEST JUMPDEST DUP3 PUSH8 0x7FFFFFFFFFFFFFFF SDIV DUP3 SLT PUSH1 0x0 DUP5 SLT PUSH1 0x0 DUP5 SLT AND AND ISZERO PUSH2 0x7FC3 JUMPI PUSH2 0x7FC2 PUSH2 0x83F3 JUMP JUMPDEST JUMPDEST DUP3 DUP3 MUL SWAP1 POP SWAP3 SWAP2 POP POP JUMP JUMPDEST PUSH1 0x0 PUSH2 0x7FD9 DUP3 PUSH2 0x8242 JUMP JUMPDEST SWAP2 POP PUSH2 0x7FE4 DUP4 PUSH2 0x8242 JUMP JUMPDEST SWAP3 POP DUP2 PUSH32 0xFFFFFFFFFFFFFFFFFFFFFFFFFFFFFFFFFFFFFFFFFFFFFFFFFFFFFFFFFFFFFFFF DIV DUP4 GT DUP3 ISZERO ISZERO AND ISZERO PUSH2 0x801D JUMPI PUSH2 0x801C PUSH2 0x83F3 JUMP JUMPDEST JUMPDEST DUP3 DUP3 MUL SWAP1 POP SWAP3 SWAP2 POP POP JUMP JUMPDEST PUSH1 0x0 PUSH2 0x8033 DUP3 PUSH2 0x81FC JUMP JUMPDEST SWAP2 POP PUSH2 0x803E DUP4 PUSH2 0x81FC JUMP JUMPDEST SWAP3 POP DUP3 PUSH32 0x8000000000000000000000000000000000000000000000000000000000000000 ADD DUP3 SLT PUSH1 0x0 DUP5 SLT ISZERO AND ISZERO PUSH2 0x8079 JUMPI PUSH2 0x8078 PUSH2 0x83F3 JUMP JUMPDEST JUMPDEST DUP3 PUSH32 0x7FFFFFFFFFFFFFFFFFFFFFFFFFFFFFFFFFFFFFFFFFFFFFFFFFFFFFFFFFFFFFFF ADD DUP3 SGT PUSH1 0x0 DUP5 SLT AND ISZERO PUSH2 0x80B1 JUMPI PUSH2 0x80B0 PUSH2 0x83F3 JUMP JUMPDEST JUMPDEST DUP3 DUP3 SUB SWAP1 POP SWAP3 SWAP2 POP POP JUMP JUMPDEST PUSH1 0x0 PUSH2 0x80C7 DUP3 PUSH2 0x8206 JUMP JUMPDEST SWAP2 POP PUSH2 0x80D2 DUP4 PUSH2 0x8206 JUMP JUMPDEST SWAP3 POP DUP3 PUSH32 0xFFFFFFFFFFFFFFFFFFFFFFFFFFFFFFFFFFFFFFFFFFFFFFFF8000000000000000 ADD DUP3 SLT PUSH1 0x0 DUP5 SLT ISZERO AND ISZERO PUSH2 0x810D JUMPI PUSH2 0x810C PUSH2 0x83F3 JUMP JUMPDEST JUMPDEST DUP3 PUSH8 0x7FFFFFFFFFFFFFFF ADD DUP3 SGT PUSH1 0x0 DUP5 SLT AND ISZERO PUSH2 0x812D JUMPI PUSH2 0x812C PUSH2 0x83F3 JUMP JUMPDEST JUMPDEST DUP3 DUP3 SUB SWAP1 POP SWAP3 SWAP2 POP POP JUMP JUMPDEST PUSH1 0x0 PUSH2 0x8143 DUP3 PUSH2 0x8233 JUMP JUMPDEST SWAP2 POP PUSH2 0x814E DUP4 PUSH2 0x8233 JUMP JUMPDEST SWAP3 POP DUP3 DUP3 LT ISZERO PUSH2 0x8161 JUMPI PUSH2 0x8160 PUSH2 0x83F3 JUMP JUMPDEST JUMPDEST DUP3 DUP3 SUB SWAP1 POP SWAP3 SWAP2 POP POP JUMP JUMPDEST PUSH1 0x0 PUSH2 0x8177 DUP3 PUSH2 0x8242 JUMP JUMPDEST SWAP2 POP PUSH2 0x8182 DUP4 PUSH2 0x8242 JUMP JUMPDEST SWAP3 POP DUP3 DUP3 LT ISZERO PUSH2 0x8195 JUMPI PUSH2 0x8194 PUSH2 0x83F3 JUMP JUMPDEST JUMPDEST DUP3 DUP3 SUB SWAP1 POP SWAP3 SWAP2 POP POP JUMP JUMPDEST PUSH1 0x0 PUSH2 0x81AB DUP3 PUSH2 0x8260 JUMP JUMPDEST SWAP2 POP PUSH2 0x81B6 DUP4 PUSH2 0x8260 JUMP JUMPDEST SWAP3 POP DUP3 DUP3 LT ISZERO PUSH2 0x81C9 JUMPI PUSH2 0x81C8 PUSH2 0x83F3 JUMP JUMPDEST JUMPDEST DUP3 DUP3 SUB SWAP1 POP SWAP3 SWAP2 POP POP JUMP JUMPDEST PUSH1 0x0 PUSH2 0x81DF DUP3 PUSH2 0x8213 JUMP JUMPDEST SWAP1 POP SWAP2 SWAP1 POP JUMP JUMPDEST PUSH1 0x0 DUP2 ISZERO ISZERO SWAP1 POP SWAP2 SWAP1 POP JUMP JUMPDEST PUSH1 0x0 DUP2 SWAP1 POP SWAP2 SWAP1 POP JUMP JUMPDEST PUSH1 0x0 DUP2 SWAP1 POP SWAP2 SWAP1 POP JUMP JUMPDEST PUSH1 0x0 DUP2 PUSH1 0x7 SIGNEXTEND SWAP1 POP SWAP2 SWAP1 POP JUMP JUMPDEST PUSH1 0x0 PUSH20 0xFFFFFFFFFFFFFFFFFFFFFFFFFFFFFFFFFFFFFFFF DUP3 AND SWAP1 POP SWAP2 SWAP1 POP JUMP JUMPDEST PUSH1 0x0 PUSH3 0xFFFFFF DUP3 AND SWAP1 POP SWAP2 SWAP1 POP JUMP JUMPDEST PUSH1 0x0 DUP2 SWAP1 POP SWAP2 SWAP1 POP JUMP JUMPDEST PUSH1 0x0 PUSH8 0xFFFFFFFFFFFFFFFF DUP3 AND SWAP1 POP SWAP2 SWAP1 POP JUMP JUMPDEST PUSH1 0x0 PUSH1 0xFF DUP3 AND SWAP1 POP SWAP2 SWAP1 POP JUMP JUMPDEST PUSH1 0x0 PUSH2 0x8278 DUP3 PUSH2 0x8242 JUMP JUMPDEST SWAP1 POP SWAP2 SWAP1 POP JUMP JUMPDEST PUSH1 0x0 PUSH2 0x828A DUP3 PUSH2 0x8233 JUMP JUMPDEST SWAP1 POP SWAP2 SWAP1 POP JUMP JUMPDEST PUSH1 0x0 PUSH2 0x829C DUP3 PUSH2 0x824C JUMP JUMPDEST SWAP1 POP SWAP2 SWAP1 POP JUMP JUMPDEST DUP3 DUP2 DUP4 CALLDATACOPY PUSH1 0x0 DUP4 DUP4 ADD MSTORE POP POP POP JUMP JUMPDEST PUSH1 0x0 JUMPDEST DUP4 DUP2 LT ISZERO PUSH2 0x82D0 JUMPI DUP1 DUP3 ADD MLOAD DUP2 DUP5 ADD MSTORE PUSH1 0x20 DUP2 ADD SWAP1 POP PUSH2 0x82B5 JUMP JUMPDEST DUP4 DUP2 GT ISZERO PUSH2 0x82DF JUMPI PUSH1 0x0 DUP5 DUP5 ADD MSTORE JUMPDEST POP POP POP POP JUMP JUMPDEST PUSH1 0x0 PUSH1 0x2 DUP3 DIV SWAP1 POP PUSH1 0x1 DUP3 AND DUP1 PUSH2 0x82FD JUMPI PUSH1 0x7F DUP3 AND SWAP2 POP JUMPDEST PUSH1 0x20 DUP3 LT DUP2 EQ ISZERO PUSH2 0x8311 JUMPI PUSH2 0x8310 PUSH2 0x8451 JUMP JUMPDEST JUMPDEST POP SWAP2 SWAP1 POP JUMP JUMPDEST PUSH2 0x8320 DUP3 PUSH2 0x8506 JUMP JUMPDEST DUP2 ADD DUP2 DUP2 LT PUSH8 0xFFFFFFFFFFFFFFFF DUP3 GT OR ISZERO PUSH2 0x833F JUMPI PUSH2 0x833E PUSH2 0x84AF JUMP JUMPDEST JUMPDEST DUP1 PUSH1 0x40 MSTORE POP POP POP JUMP JUMPDEST PUSH1 0x0 PUSH2 0x8353 DUP3 PUSH2 0x8242 JUMP JUMPDEST SWAP2 POP PUSH32 0xFFFFFFFFFFFFFFFFFFFFFFFFFFFFFFFFFFFFFFFFFFFFFFFFFFFFFFFFFFFFFFFF DUP3 EQ ISZERO PUSH2 0x8386 JUMPI PUSH2 0x8385 PUSH2 0x83F3 JUMP JUMPDEST JUMPDEST PUSH1 0x1 DUP3 ADD SWAP1 POP SWAP2 SWAP1 POP JUMP JUMPDEST PUSH1 0x0 PUSH2 0x839C DUP3 PUSH2 0x8242 JUMP JUMPDEST SWAP2 POP PUSH2 0x83A7 DUP4 PUSH2 0x8242 JUMP JUMPDEST SWAP3 POP DUP3 PUSH2 0x83B7 JUMPI PUSH2 0x83B6 PUSH2 0x8422 JUMP JUMPDEST JUMPDEST DUP3 DUP3 MOD SWAP1 POP SWAP3 SWAP2 POP POP JUMP JUMPDEST PUSH1 0x0 PUSH2 0x83CD DUP3 PUSH2 0x8260 JUMP JUMPDEST SWAP2 POP PUSH2 0x83D8 DUP4 PUSH2 0x8260 JUMP JUMPDEST SWAP3 POP DUP3 PUSH2 0x83E8 JUMPI PUSH2 0x83E7 PUSH2 0x8422 JUMP JUMPDEST JUMPDEST DUP3 DUP3 MOD SWAP1 POP SWAP3 SWAP2 POP POP JUMP JUMPDEST PUSH32 0x4E487B7100000000000000000000000000000000000000000000000000000000 PUSH1 0x0 MSTORE PUSH1 0x11 PUSH1 0x4 MSTORE PUSH1 0x24 PUSH1 0x0 REVERT JUMPDEST PUSH32 0x4E487B7100000000000000000000000000000000000000000000000000000000 PUSH1 0x0 MSTORE PUSH1 0x12 PUSH1 0x4 MSTORE PUSH1 0x24 PUSH1 0x0 REVERT JUMPDEST PUSH32 0x4E487B7100000000000000000000000000000000000000000000000000000000 PUSH1 0x0 MSTORE PUSH1 0x22 PUSH1 0x4 MSTORE PUSH1 0x24 PUSH1 0x0 REVERT JUMPDEST PUSH32 0x4E487B7100000000000000000000000000000000000000000000000000000000 PUSH1 0x0 MSTORE PUSH1 0x32 PUSH1 0x4 MSTORE PUSH1 0x24 PUSH1 0x0 REVERT JUMPDEST PUSH32 0x4E487B7100000000000000000000000000000000000000000000000000000000 PUSH1 0x0 MSTORE PUSH1 0x41 PUSH1 0x4 MSTORE PUSH1 0x24 PUSH1 0x0 REVERT JUMPDEST PUSH1 0x0 DUP1 REVERT JUMPDEST PUSH1 0x0 DUP1 REVERT JUMPDEST PUSH1 0x0 DUP1 REVERT JUMPDEST PUSH1 0x0 DUP1 REVERT JUMPDEST PUSH1 0x0 DUP1 REVERT JUMPDEST PUSH1 0x0 DUP1 REVERT JUMPDEST PUSH1 0x0 DUP1 REVERT JUMPDEST PUSH1 0x0 DUP1 REVERT JUMPDEST PUSH1 0x0 PUSH1 0x1F NOT PUSH1 0x1F DUP4 ADD AND SWAP1 POP SWAP2 SWAP1 POP JUMP JUMPDEST PUSH1 0x0 DUP2 PUSH1 0x1 SHR SWAP1 POP SWAP2 SWAP1 POP JUMP JUMPDEST PUSH32 0x746F6F206C61746520666F7220616E73776572696E6700000000000000000000 PUSH1 0x0 DUP3 ADD MSTORE POP JUMP JUMPDEST PUSH32 0x7665726966792074686520626C6F636B206265666F7265000000000000000000 PUSH1 0x0 DUP3 ADD MSTORE POP JUMP JUMPDEST PUSH32 0x636F6E6669726D696E6720626C6F636B20696E636F7272656374000000000000 PUSH1 0x0 DUP3 ADD MSTORE POP JUMP JUMPDEST PUSH32 0x73746F72656420706172656E74206973206E6F74206120707265646563657373 PUSH1 0x0 DUP3 ADD MSTORE PUSH32 0x6F72206F66206576616C7561746564206865616465722077697468696E205374 PUSH1 0x20 DUP3 ADD MSTORE PUSH32 0x61746552656C6179000000000000000000000000000000000000000000000000 PUSH1 0x40 DUP3 ADD MSTORE POP JUMP JUMPDEST PUSH32 0x3400000000000000000000000000000000000000000000000000000000000000 PUSH1 0x0 DUP3 ADD MSTORE POP JUMP JUMPDEST PUSH32 0x6E6F74207468652073616D65206964656E746974790000000000000000000000 PUSH1 0x0 DUP3 ADD MSTORE POP JUMP JUMPDEST PUSH32 0x7375626D6974746572206E6F7420616C6C6F7765640000000000000000000000 PUSH1 0x0 DUP3 ADD MSTORE POP JUMP JUMPDEST PUSH32 0x6E6F7420696E7465726D656469617465426C6F636B0000000000000000000000 PUSH1 0x0 DUP3 ADD MSTORE POP JUMP JUMPDEST PUSH32 0x75736572206E6F7420656E61626C656420746F20616E73776572000000000000 PUSH1 0x0 DUP3 ADD MSTORE POP JUMP JUMPDEST PUSH32 0x6964656E7469747920697320616C726561647920696E697469616C697A656400 PUSH1 0x0 DUP3 ADD MSTORE POP JUMP JUMPDEST PUSH32 0x6469737075746520706572696F64206973206E6F742065787069726564000000 PUSH1 0x0 DUP3 ADD MSTORE POP JUMP JUMPDEST PUSH32 0x616C7265616479207265616368656420612073696E676C6520626C6F636B0000 PUSH1 0x0 DUP3 ADD MSTORE POP JUMP JUMPDEST PUSH32 0x7472616E7366657220616D6F756E74206E6F7420657175616C20746F2066756E PUSH1 0x0 DUP3 ADD MSTORE PUSH32 0x6374696F6E20706172616D657465720000000000000000000000000000000000 PUSH1 0x20 DUP3 ADD MSTORE POP JUMP JUMPDEST PUSH32 0x73756D626974746572206469646E277420616E73776572000000000000000000 PUSH1 0x0 DUP3 ADD MSTORE POP JUMP JUMPDEST PUSH32 0x686173684E2070726F7669646564206973206E6F742076616C69640000000000 PUSH1 0x0 DUP3 ADD MSTORE POP JUMP JUMPDEST PUSH32 0x68617368436F6E662070726F7669646564206973206E6F742076616C69640000 PUSH1 0x0 DUP3 ADD MSTORE POP JUMP JUMPDEST PUSH32 0x6368616C6C656E676572206E6F7420616C6C6F77656400000000000000000000 PUSH1 0x0 DUP3 ADD MSTORE POP JUMP JUMPDEST PUSH32 0x6469737075746520706572696F64206973206578706972656400000000000000 PUSH1 0x0 DUP3 ADD MSTORE POP JUMP JUMPDEST PUSH32 0x6E6F742076616C6964206964656E746974790000000000000000000000000000 PUSH1 0x0 DUP3 ADD MSTORE POP JUMP JUMPDEST PUSH32 0x746F6F206C61746520666F722064697370757465000000000000000000000000 PUSH1 0x0 DUP3 ADD MSTORE POP JUMP JUMPDEST PUSH32 0x626C6F636B20616C726561647920657869737473000000000000000000000000 PUSH1 0x0 DUP3 ADD MSTORE POP JUMP JUMPDEST PUSH32 0x6E6F7420626C6F636B20696E20746865206D6964646C65000000000000000000 PUSH1 0x0 DUP3 ADD MSTORE POP JUMP JUMPDEST PUSH32 0x6E6F2063616C6C20697420616761696E00000000000000000000000000000000 PUSH1 0x0 DUP3 ADD MSTORE POP JUMP JUMPDEST PUSH32 0x6E6F74207265616368656420612073696E676C6520626C6F636B000000000000 PUSH1 0x0 DUP3 ADD MSTORE POP JUMP JUMPDEST PUSH32 0x70726F766964656420706172656E74206E6F74206576616C7561746564000000 PUSH1 0x0 DUP3 ADD MSTORE POP JUMP JUMPDEST PUSH32 0x626C6F636B20646F6573206E6F74206578697374000000000000000000000000 PUSH1 0x0 DUP3 ADD MSTORE POP JUMP JUMPDEST PUSH32 0x6964656E74697479206E6F7420696E697469616C697A65640000000000000000 PUSH1 0x0 DUP3 ADD MSTORE POP JUMP JUMPDEST PUSH32 0x6E6F7420636F6E6669726D696E67426C6F636B00000000000000000000000000 PUSH1 0x0 DUP3 ADD MSTORE POP JUMP JUMPDEST PUSH32 0x70726F766964656420666565206973206C657373207468616E20657870656374 PUSH1 0x0 DUP3 ADD MSTORE PUSH32 0x6564206665650000000000000000000000000000000000000000000000000000 PUSH1 0x20 DUP3 ADD MSTORE POP JUMP JUMPDEST PUSH32 0x616D6F756E7420686967686572207468616E206465706F736974656420737461 PUSH1 0x0 DUP3 ADD MSTORE PUSH32 0x6B65000000000000000000000000000000000000000000000000000000000000 PUSH1 0x20 DUP3 ADD MSTORE POP JUMP JUMPDEST PUSH2 0x8AB9 DUP2 PUSH2 0x81D4 JUMP JUMPDEST DUP2 EQ PUSH2 0x8AC4 JUMPI PUSH1 0x0 DUP1 REVERT JUMPDEST POP JUMP JUMPDEST PUSH2 0x8AD0 DUP2 PUSH2 0x81F2 JUMP JUMPDEST DUP2 EQ PUSH2 0x8ADB JUMPI PUSH1 0x0 DUP1 REVERT JUMPDEST POP JUMP JUMPDEST PUSH2 0x8AE7 DUP2 PUSH2 0x8242 JUMP JUMPDEST DUP2 EQ PUSH2 0x8AF2 JUMPI PUSH1 0x0 DUP1 REVERT JUMPDEST POP JUMP INVALID LOG2 PUSH5 0x6970667358 0x22 SLT KECCAK256 PUSH19 0xF23E4827859C0D3CA55A3B29F0F38F0CC028B2 0xC5 0x4B PUSH26 0x8FB7E164FE4813264736F6C63430008060033000000000000 "
		},
		"gasEstimates": {
			"creation": {
				"codeDepositCost": "7125400",
				"executionCost": "infinite",
				"totalCost": "infinite"
			},
			"external": {
				"BLOCKCHAIN_ID()": "767",
				"REQUIRED_STAKE_PER_CHALLENGE()": "417",
				"REQUIRED_STAKE_PER_STATE()": "374",
				"challengerMessage(address,bytes32)": "infinite",
				"depositStake(uint256)": "infinite",
				"getConfirmingHash(bytes32,address)": "infinite",
				"getIdentity(bytes32,address)": "infinite",
				"getIdentityAddress(bytes32,address)": "infinite",
				"getLastValidStateHeader(bytes32,address)": "infinite",
				"getNumberOfStateSubmittedByClient()": "2660",
				"getPendingHash(bytes32,address)": "infinite",
				"getRequiredChallengerFee()": "447",
				"getRequiredStakePerState()": "448",
				"getStake()": "2658",
				"getState(address)": "infinite",
				"initState(address,bytes,uint256,bytes)": "infinite",
				"isConfirmingHeaderStored(bytes32,address,bytes32)": "infinite",
				"isLastHeaderStored(bytes32,address,bytes32)": "infinite",
				"submitState(bytes,bytes,bytes,bytes,uint256)": "infinite",
				"sumbitterMessage(bytes)": "infinite",
				"verifyBlock(bytes,bytes,uint256[],uint256[])": "infinite",
				"verifyState(bytes,bytes32,bytes,bytes,bytes32,bytes32,bytes,bytes,bytes32)": "infinite",
				"withdrawStake(uint256)": "infinite",
				"withdrawTimeout()": "infinite"
			},
			"internal": {
				"cleanSubmitList(address)": "infinite",
				"getStake(address)": "infinite",
				"getUnusedStake(address)": "infinite",
				"withdraw(address payable,uint256)": "infinite"
			}
		},
		"methodIdentifiers": {
			"BLOCKCHAIN_ID()": "d909b365",
			"REQUIRED_STAKE_PER_CHALLENGE()": "ec1c2783",
			"REQUIRED_STAKE_PER_STATE()": "52409d75",
			"challengerMessage(address,bytes32)": "351dd55d",
			"depositStake(uint256)": "cb82cc8f",
			"getConfirmingHash(bytes32,address)": "d97cbcbc",
			"getIdentity(bytes32,address)": "ebb8d85f",
			"getIdentityAddress(bytes32,address)": "282c55ae",
			"getLastValidStateHeader(bytes32,address)": "ba27e8dc",
			"getNumberOfStateSubmittedByClient()": "3d8dc273",
			"getPendingHash(bytes32,address)": "7b4d4bca",
			"getRequiredChallengerFee()": "f0291099",
			"getRequiredStakePerState()": "d6fc841a",
			"getStake()": "fc0e3d90",
			"getState(address)": "1bab58f5",
			"initState(address,bytes,uint256,bytes)": "e68c3bd7",
			"isConfirmingHeaderStored(bytes32,address,bytes32)": "9a0479cf",
			"isLastHeaderStored(bytes32,address,bytes32)": "6687838e",
			"submitState(bytes,bytes,bytes,bytes,uint256)": "4303c19c",
			"sumbitterMessage(bytes)": "31e2d7e8",
			"verifyBlock(bytes,bytes,uint256[],uint256[])": "8146b071",
			"verifyState(bytes,bytes32,bytes,bytes,bytes32,bytes32,bytes,bytes,bytes32)": "abf61ce8",
			"withdrawStake(uint256)": "25d5971f",
			"withdrawTimeout()": "9c15d1a2"
		}
	},
	"abi": [
		{
			"inputs": [
				{
					"internalType": "address",
					"name": "_ethashContractAddr",
					"type": "address"
				}
			],
			"stateMutability": "nonpayable",
			"type": "constructor"
		},
		{
			"anonymous": false,
			"inputs": [
				{
					"indexed": false,
					"internalType": "uint256",
					"name": "returnCode",
					"type": "uint256"
				}
			],
			"name": "DisputeBlock",
			"type": "event"
		},
		{
			"anonymous": false,
			"inputs": [
				{
					"indexed": false,
					"internalType": "address",
					"name": "client",
					"type": "address"
				},
				{
					"indexed": false,
					"internalType": "bool",
					"name": "cancelledState",
					"type": "bool"
				}
			],
			"name": "DisputeWinner",
			"type": "event"
		},
		{
			"anonymous": false,
			"inputs": [
				{
					"indexed": false,
					"internalType": "bytes32",
					"name": "blockchainID",
					"type": "bytes32"
				},
				{
					"indexed": false,
					"internalType": "address",
					"name": "identifier",
					"type": "address"
				},
				{
					"indexed": false,
					"internalType": "bytes32",
					"name": "_startingBlockHash",
					"type": "bytes32"
				},
				{
					"indexed": false,
					"internalType": "bytes32",
					"name": "_blockNhash",
					"type": "bytes32"
				},
				{
					"indexed": false,
					"internalType": "bytes32",
					"name": "intermediateBlockHash",
					"type": "bytes32"
				}
			],
			"name": "NewAnswer",
			"type": "event"
		},
		{
			"anonymous": false,
			"inputs": [
				{
					"indexed": false,
					"internalType": "bytes32",
					"name": "blockchainID",
					"type": "bytes32"
				},
				{
					"indexed": false,
					"internalType": "address",
					"name": "identifier",
					"type": "address"
				},
				{
					"indexed": false,
					"internalType": "bytes32",
					"name": "_startingBlockHash",
					"type": "bytes32"
				},
				{
					"indexed": false,
					"internalType": "bytes32",
					"name": "_blockNhash",
					"type": "bytes32"
				},
				{
					"indexed": false,
					"internalType": "bytes32",
					"name": "_blockIntermediateHash",
					"type": "bytes32"
				},
				{
					"indexed": false,
					"internalType": "bytes32",
					"name": "_confirmingBlockHash",
					"type": "bytes32"
				},
				{
					"indexed": false,
					"internalType": "bytes",
					"name": "_stateContent",
					"type": "bytes"
				},
				{
					"indexed": false,
					"internalType": "uint256",
					"name": "_updateLength",
					"type": "uint256"
				},
				{
					"indexed": false,
					"internalType": "uint256",
					"name": "timeout",
					"type": "uint256"
				}
			],
			"name": "NewPendingState",
			"type": "event"
		},
		{
			"anonymous": false,
			"inputs": [
				{
					"indexed": false,
					"internalType": "bytes32",
					"name": "blockchainID",
					"type": "bytes32"
				},
				{
					"indexed": false,
					"internalType": "address",
					"name": "identifier",
					"type": "address"
				},
				{
					"indexed": false,
					"internalType": "bytes32",
					"name": "_startingBlockHash",
					"type": "bytes32"
				},
				{
					"indexed": false,
					"internalType": "bytes32",
					"name": "_blockNhash",
					"type": "bytes32"
				}
			],
			"name": "NewRequest",
			"type": "event"
		},
		{
			"anonymous": false,
			"inputs": [
				{
					"indexed": false,
					"internalType": "bytes32",
					"name": "blockchainID",
					"type": "bytes32"
				},
				{
					"indexed": false,
					"internalType": "address",
					"name": "identifier",
					"type": "address"
				},
				{
					"indexed": false,
					"internalType": "bytes32",
					"name": "stateRoot",
					"type": "bytes32"
				},
				{
					"indexed": false,
					"internalType": "bytes32",
					"name": "blockHash",
					"type": "bytes32"
				},
				{
					"indexed": false,
					"internalType": "bytes",
					"name": "stateContent",
					"type": "bytes"
				},
				{
					"indexed": false,
					"internalType": "address",
					"name": "smartContractID",
					"type": "address"
				}
			],
			"name": "NewState",
			"type": "event"
		},
		{
			"anonymous": false,
			"inputs": [
				{
					"indexed": false,
					"internalType": "uint256",
					"name": "returnCode",
					"type": "uint256"
				},
				{
					"indexed": false,
					"internalType": "uint256",
					"name": "errorInfo",
					"type": "uint256"
				}
			],
			"name": "PoWValidationResult",
			"type": "event"
		},
		{
			"anonymous": false,
			"inputs": [
				{
					"indexed": false,
					"internalType": "address",
					"name": "client",
					"type": "address"
				},
				{
					"indexed": false,
					"internalType": "uint256",
					"name": "withdrawnStake",
					"type": "uint256"
				}
			],
			"name": "WithdrawStake",
			"type": "event"
		},
		{
			"anonymous": false,
			"inputs": [
				{
					"indexed": false,
					"internalType": "bytes32",
					"name": "blockchainID",
					"type": "bytes32"
				},
				{
					"indexed": false,
					"internalType": "address",
					"name": "identifier",
					"type": "address"
				},
				{
					"indexed": false,
					"internalType": "bytes32",
					"name": "_startingBlockHash",
					"type": "bytes32"
				},
				{
					"indexed": false,
					"internalType": "bytes32",
					"name": "_blockNhash",
					"type": "bytes32"
				}
			],
			"name": "waitForEnd",
			"type": "event"
		},
		{
			"inputs": [],
			"name": "BLOCKCHAIN_ID",
			"outputs": [
				{
					"internalType": "bytes32",
					"name": "",
					"type": "bytes32"
				}
			],
			"stateMutability": "view",
			"type": "function"
		},
		{
			"inputs": [],
			"name": "REQUIRED_STAKE_PER_CHALLENGE",
			"outputs": [
				{
					"internalType": "uint256",
					"name": "",
					"type": "uint256"
				}
			],
			"stateMutability": "view",
			"type": "function"
		},
		{
			"inputs": [],
			"name": "REQUIRED_STAKE_PER_STATE",
			"outputs": [
				{
					"internalType": "uint256",
					"name": "",
					"type": "uint256"
				}
			],
			"stateMutability": "view",
			"type": "function"
		},
		{
			"inputs": [
				{
					"internalType": "address",
					"name": "submitter",
					"type": "address"
				},
				{
					"internalType": "bytes32",
					"name": "upperLimitBlockHash",
					"type": "bytes32"
				}
			],
			"name": "challengerMessage",
			"outputs": [
				{
					"internalType": "bool",
					"name": "",
					"type": "bool"
				}
			],
			"stateMutability": "nonpayable",
			"type": "function"
		},
		{
			"inputs": [
				{
					"internalType": "uint256",
					"name": "amount",
					"type": "uint256"
				}
			],
			"name": "depositStake",
			"outputs": [],
			"stateMutability": "payable",
			"type": "function"
		},
		{
			"inputs": [
				{
					"internalType": "bytes32",
					"name": "blockchainID",
					"type": "bytes32"
				},
				{
					"internalType": "address",
					"name": "identifier",
					"type": "address"
				}
			],
			"name": "getConfirmingHash",
			"outputs": [
				{
					"internalType": "bytes32",
					"name": "",
					"type": "bytes32"
				}
			],
			"stateMutability": "view",
			"type": "function"
		},
		{
			"inputs": [
				{
					"internalType": "bytes32",
					"name": "blockchainID",
					"type": "bytes32"
				},
				{
					"internalType": "address",
					"name": "identifier",
					"type": "address"
				}
			],
			"name": "getIdentity",
			"outputs": [
				{
					"components": [
						{
							"internalType": "address",
							"name": "identifier",
							"type": "address"
						},
						{
							"internalType": "bytes32",
							"name": "blockchainId",
							"type": "bytes32"
						},
						{
							"internalType": "bool",
							"name": "verified",
							"type": "bool"
						},
						{
							"components": [
								{
									"components": [
										{
											"internalType": "uint24",
											"name": "blockNumber",
											"type": "uint24"
										},
										{
											"internalType": "bytes32",
											"name": "stateRoot",
											"type": "bytes32"
										},
										{
											"internalType": "bytes32",
											"name": "hash",
											"type": "bytes32"
										}
									],
									"internalType": "struct StateRelayCore.Header",
									"name": "header",
									"type": "tuple"
								},
								{
									"internalType": "address",
									"name": "identifier",
									"type": "address"
								},
								{
									"internalType": "bytes32",
									"name": "genesisBlockHash",
									"type": "bytes32"
								},
								{
									"internalType": "address",
									"name": "smartContractId",
									"type": "address"
								},
								{
									"internalType": "bytes",
									"name": "stateContent",
									"type": "bytes"
								}
							],
							"internalType": "struct StateRelayCore.State",
							"name": "state",
							"type": "tuple"
						},
						{
							"components": [
								{
									"internalType": "address",
									"name": "identifier",
									"type": "address"
								},
								{
									"internalType": "address",
									"name": "challenger",
									"type": "address"
								},
								{
									"components": [
										{
											"components": [
												{
													"internalType": "uint24",
													"name": "blockNumber",
													"type": "uint24"
												},
												{
													"internalType": "bytes32",
													"name": "stateRoot",
													"type": "bytes32"
												},
												{
													"internalType": "bytes32",
													"name": "hash",
													"type": "bytes32"
												}
											],
											"internalType": "struct StateRelayCore.Header",
											"name": "header",
											"type": "tuple"
										},
										{
											"internalType": "address",
											"name": "identifier",
											"type": "address"
										},
										{
											"internalType": "bytes32",
											"name": "genesisBlockHash",
											"type": "bytes32"
										},
										{
											"internalType": "address",
											"name": "smartContractId",
											"type": "address"
										},
										{
											"internalType": "bytes",
											"name": "stateContent",
											"type": "bytes"
										}
									],
									"internalType": "struct StateRelayCore.State",
									"name": "pendingState",
									"type": "tuple"
								},
								{
									"components": [
										{
											"internalType": "uint24",
											"name": "blockNumber",
											"type": "uint24"
										},
										{
											"internalType": "bytes32",
											"name": "stateRoot",
											"type": "bytes32"
										},
										{
											"internalType": "bytes32",
											"name": "hash",
											"type": "bytes32"
										}
									],
									"internalType": "struct StateRelayCore.Header",
									"name": "intermediateBlock",
									"type": "tuple"
								},
								{
									"components": [
										{
											"internalType": "uint24",
											"name": "blockNumber",
											"type": "uint24"
										},
										{
											"internalType": "bytes32",
											"name": "stateRoot",
											"type": "bytes32"
										},
										{
											"internalType": "bytes32",
											"name": "hash",
											"type": "bytes32"
										}
									],
									"internalType": "struct StateRelayCore.Header",
									"name": "upperLimitBlock",
									"type": "tuple"
								},
								{
									"components": [
										{
											"internalType": "uint24",
											"name": "blockNumber",
											"type": "uint24"
										},
										{
											"internalType": "bytes32",
											"name": "stateRoot",
											"type": "bytes32"
										},
										{
											"internalType": "bytes32",
											"name": "hash",
											"type": "bytes32"
										}
									],
									"internalType": "struct StateRelayCore.Header",
									"name": "lowerLimitBlock",
									"type": "tuple"
								},
								{
									"components": [
										{
											"internalType": "uint24",
											"name": "blockNumber",
											"type": "uint24"
										},
										{
											"internalType": "bytes32",
											"name": "stateRoot",
											"type": "bytes32"
										},
										{
											"internalType": "bytes32",
											"name": "hash",
											"type": "bytes32"
										}
									],
									"internalType": "struct StateRelayCore.Header",
									"name": "confirmingBlock",
									"type": "tuple"
								},
								{
									"internalType": "uint256",
									"name": "answerBefore",
									"type": "uint256"
								},
								{
									"internalType": "uint64",
									"name": "lockedUntil",
									"type": "uint64"
								},
								{
									"internalType": "uint256",
									"name": "updateLength",
									"type": "uint256"
								},
								{
									"internalType": "uint256",
									"name": "midBlockNumber",
									"type": "uint256"
								}
							],
							"internalType": "struct StateRelayCore.PendingState",
							"name": "pendingState",
							"type": "tuple"
						}
					],
					"internalType": "struct StateRelayCore.Identity",
					"name": "identity",
					"type": "tuple"
				}
			],
			"stateMutability": "view",
			"type": "function"
		},
		{
			"inputs": [
				{
					"internalType": "bytes32",
					"name": "blockchainID",
					"type": "bytes32"
				},
				{
					"internalType": "address",
					"name": "identifier",
					"type": "address"
				}
			],
			"name": "getIdentityAddress",
			"outputs": [
				{
					"internalType": "address",
					"name": "",
					"type": "address"
				}
			],
			"stateMutability": "view",
			"type": "function"
		},
		{
			"inputs": [
				{
					"internalType": "bytes32",
					"name": "blockchainID",
					"type": "bytes32"
				},
				{
					"internalType": "address",
					"name": "identifier",
					"type": "address"
				}
			],
			"name": "getLastValidStateHeader",
			"outputs": [
				{
					"internalType": "bytes32",
					"name": "hash",
					"type": "bytes32"
				},
				{
					"internalType": "uint256",
					"name": "blockNumber",
					"type": "uint256"
				},
				{
					"internalType": "bytes32",
					"name": "stateRoot",
					"type": "bytes32"
				}
			],
			"stateMutability": "view",
			"type": "function"
		},
		{
			"inputs": [],
			"name": "getNumberOfStateSubmittedByClient",
			"outputs": [
				{
					"internalType": "uint256",
					"name": "",
					"type": "uint256"
				}
			],
			"stateMutability": "view",
			"type": "function"
		},
		{
			"inputs": [
				{
					"internalType": "bytes32",
					"name": "blockchainID",
					"type": "bytes32"
				},
				{
					"internalType": "address",
					"name": "identifier",
					"type": "address"
				}
			],
			"name": "getPendingHash",
			"outputs": [
				{
					"components": [
						{
							"internalType": "address",
							"name": "identifier",
							"type": "address"
						},
						{
							"internalType": "address",
							"name": "challenger",
							"type": "address"
						},
						{
							"components": [
								{
									"components": [
										{
											"internalType": "uint24",
											"name": "blockNumber",
											"type": "uint24"
										},
										{
											"internalType": "bytes32",
											"name": "stateRoot",
											"type": "bytes32"
										},
										{
											"internalType": "bytes32",
											"name": "hash",
											"type": "bytes32"
										}
									],
									"internalType": "struct StateRelayCore.Header",
									"name": "header",
									"type": "tuple"
								},
								{
									"internalType": "address",
									"name": "identifier",
									"type": "address"
								},
								{
									"internalType": "bytes32",
									"name": "genesisBlockHash",
									"type": "bytes32"
								},
								{
									"internalType": "address",
									"name": "smartContractId",
									"type": "address"
								},
								{
									"internalType": "bytes",
									"name": "stateContent",
									"type": "bytes"
								}
							],
							"internalType": "struct StateRelayCore.State",
							"name": "pendingState",
							"type": "tuple"
						},
						{
							"components": [
								{
									"internalType": "uint24",
									"name": "blockNumber",
									"type": "uint24"
								},
								{
									"internalType": "bytes32",
									"name": "stateRoot",
									"type": "bytes32"
								},
								{
									"internalType": "bytes32",
									"name": "hash",
									"type": "bytes32"
								}
							],
							"internalType": "struct StateRelayCore.Header",
							"name": "intermediateBlock",
							"type": "tuple"
						},
						{
							"components": [
								{
									"internalType": "uint24",
									"name": "blockNumber",
									"type": "uint24"
								},
								{
									"internalType": "bytes32",
									"name": "stateRoot",
									"type": "bytes32"
								},
								{
									"internalType": "bytes32",
									"name": "hash",
									"type": "bytes32"
								}
							],
							"internalType": "struct StateRelayCore.Header",
							"name": "upperLimitBlock",
							"type": "tuple"
						},
						{
							"components": [
								{
									"internalType": "uint24",
									"name": "blockNumber",
									"type": "uint24"
								},
								{
									"internalType": "bytes32",
									"name": "stateRoot",
									"type": "bytes32"
								},
								{
									"internalType": "bytes32",
									"name": "hash",
									"type": "bytes32"
								}
							],
							"internalType": "struct StateRelayCore.Header",
							"name": "lowerLimitBlock",
							"type": "tuple"
						},
						{
							"components": [
								{
									"internalType": "uint24",
									"name": "blockNumber",
									"type": "uint24"
								},
								{
									"internalType": "bytes32",
									"name": "stateRoot",
									"type": "bytes32"
								},
								{
									"internalType": "bytes32",
									"name": "hash",
									"type": "bytes32"
								}
							],
							"internalType": "struct StateRelayCore.Header",
							"name": "confirmingBlock",
							"type": "tuple"
						},
						{
							"internalType": "uint256",
							"name": "answerBefore",
							"type": "uint256"
						},
						{
							"internalType": "uint64",
							"name": "lockedUntil",
							"type": "uint64"
						},
						{
							"internalType": "uint256",
							"name": "updateLength",
							"type": "uint256"
						},
						{
							"internalType": "uint256",
							"name": "midBlockNumber",
							"type": "uint256"
						}
					],
					"internalType": "struct StateRelayCore.PendingState",
					"name": "",
					"type": "tuple"
				}
			],
			"stateMutability": "view",
			"type": "function"
		},
		{
			"inputs": [],
			"name": "getRequiredChallengerFee",
			"outputs": [
				{
					"internalType": "uint256",
					"name": "",
					"type": "uint256"
				}
			],
			"stateMutability": "pure",
			"type": "function"
		},
		{
			"inputs": [],
			"name": "getRequiredStakePerState",
			"outputs": [
				{
					"internalType": "uint256",
					"name": "",
					"type": "uint256"
				}
			],
			"stateMutability": "pure",
			"type": "function"
		},
		{
			"inputs": [],
			"name": "getStake",
			"outputs": [
				{
					"internalType": "uint256",
					"name": "",
					"type": "uint256"
				}
			],
			"stateMutability": "view",
			"type": "function"
		},
		{
			"inputs": [
				{
					"internalType": "address",
					"name": "identifier",
					"type": "address"
				}
			],
			"name": "getState",
			"outputs": [
				{
					"internalType": "bytes",
					"name": "state",
					"type": "bytes"
				}
			],
			"stateMutability": "view",
			"type": "function"
		},
		{
			"inputs": [
				{
					"internalType": "address",
					"name": "identifier",
					"type": "address"
				},
				{
					"internalType": "bytes",
					"name": "_rlpHeader",
					"type": "bytes"
				},
				{
					"internalType": "uint256",
					"name": "totalDifficulty",
					"type": "uint256"
				},
				{
					"internalType": "bytes",
					"name": "_state",
					"type": "bytes"
				}
			],
			"name": "initState",
			"outputs": [],
			"stateMutability": "nonpayable",
			"type": "function"
		},
		{
			"inputs": [
				{
					"internalType": "bytes32",
					"name": "blockchainID",
					"type": "bytes32"
				},
				{
					"internalType": "address",
					"name": "identifier",
					"type": "address"
				},
				{
					"internalType": "bytes32",
					"name": "hash",
					"type": "bytes32"
				}
			],
			"name": "isConfirmingHeaderStored",
			"outputs": [
				{
					"internalType": "bool",
					"name": "",
					"type": "bool"
				}
			],
			"stateMutability": "view",
			"type": "function"
		},
		{
			"inputs": [
				{
					"internalType": "bytes32",
					"name": "blockchainID",
					"type": "bytes32"
				},
				{
					"internalType": "address",
					"name": "identifier",
					"type": "address"
				},
				{
					"internalType": "bytes32",
					"name": "hash",
					"type": "bytes32"
				}
			],
			"name": "isLastHeaderStored",
			"outputs": [
				{
					"internalType": "bool",
					"name": "",
					"type": "bool"
				}
			],
			"stateMutability": "view",
			"type": "function"
		},
		{
			"inputs": [
				{
					"internalType": "bytes",
					"name": "rlpHeader",
					"type": "bytes"
				},
				{
					"internalType": "bytes",
					"name": "rlpConfirmingHeader",
					"type": "bytes"
				},
				{
					"internalType": "bytes",
					"name": "rlpIntermediateHeader",
					"type": "bytes"
				},
				{
					"internalType": "bytes",
					"name": "stateContent",
					"type": "bytes"
				},
				{
					"internalType": "uint256",
					"name": "lengthUpdate",
					"type": "uint256"
				}
			],
			"name": "submitState",
			"outputs": [
				{
					"internalType": "uint256",
					"name": "",
					"type": "uint256"
				}
			],
			"stateMutability": "nonpayable",
			"type": "function"
		},
		{
			"inputs": [
				{
					"internalType": "bytes",
					"name": "_rlpIntermediateBlockHeader",
					"type": "bytes"
				}
			],
			"name": "sumbitterMessage",
			"outputs": [
				{
					"internalType": "bool",
					"name": "",
					"type": "bool"
				}
			],
			"stateMutability": "nonpayable",
			"type": "function"
		},
		{
			"inputs": [
				{
					"internalType": "bytes",
					"name": "rlpHeader",
					"type": "bytes"
				},
				{
					"internalType": "bytes",
					"name": "rlpParent",
					"type": "bytes"
				},
				{
					"internalType": "uint256[]",
					"name": "dataSetLookup",
					"type": "uint256[]"
				},
				{
					"internalType": "uint256[]",
					"name": "witnessForLookup",
					"type": "uint256[]"
				}
			],
			"name": "verifyBlock",
			"outputs": [],
			"stateMutability": "nonpayable",
			"type": "function"
		},
		{
			"inputs": [
				{
					"internalType": "bytes",
					"name": "rlpEncodedValue",
					"type": "bytes"
				},
				{
					"internalType": "bytes32",
					"name": "blockHashN",
					"type": "bytes32"
				},
				{
					"internalType": "bytes",
					"name": "pathN",
					"type": "bytes"
				},
				{
					"internalType": "bytes",
					"name": "rlpEncodedNodesN",
					"type": "bytes"
				},
				{
					"internalType": "bytes32",
					"name": "merkleRootHashN",
					"type": "bytes32"
				},
				{
					"internalType": "bytes32",
					"name": "blockHashConfirming",
					"type": "bytes32"
				},
				{
					"internalType": "bytes",
					"name": "pathConfirming",
					"type": "bytes"
				},
				{
					"internalType": "bytes",
					"name": "rlpEncodedNodesConfirming",
					"type": "bytes"
				},
				{
					"internalType": "bytes32",
					"name": "merkleRootHashConfirming",
					"type": "bytes32"
				}
			],
			"name": "verifyState",
			"outputs": [],
			"stateMutability": "nonpayable",
			"type": "function"
		},
		{
			"inputs": [
				{
					"internalType": "uint256",
					"name": "amount",
					"type": "uint256"
				}
			],
			"name": "withdrawStake",
			"outputs": [],
			"stateMutability": "nonpayable",
			"type": "function"
		},
		{
			"inputs": [],
			"name": "withdrawTimeout",
			"outputs": [],
			"stateMutability": "nonpayable",
			"type": "function"
		}
	]
}